{
  "contractName": "Asset",
  "abi": [
    {
      "inputs": [],
      "stateMutability": "nonpayable",
      "type": "constructor"
    },
    {
      "anonymous": false,
      "inputs": [
        {
          "indexed": true,
          "internalType": "address",
          "name": "account",
          "type": "address"
        },
        {
          "indexed": true,
          "internalType": "address",
          "name": "operator",
          "type": "address"
        },
        {
          "indexed": false,
          "internalType": "bool",
          "name": "approved",
          "type": "bool"
        }
      ],
      "name": "ApprovalForAll",
      "type": "event"
    },
    {
      "anonymous": false,
      "inputs": [
        {
          "indexed": true,
          "internalType": "address",
          "name": "operator",
          "type": "address"
        },
        {
          "indexed": true,
          "internalType": "address",
          "name": "from",
          "type": "address"
        },
        {
          "indexed": true,
          "internalType": "address",
          "name": "to",
          "type": "address"
        },
        {
          "indexed": false,
          "internalType": "uint256[]",
          "name": "ids",
          "type": "uint256[]"
        },
        {
          "indexed": false,
          "internalType": "uint256[]",
          "name": "values",
          "type": "uint256[]"
        }
      ],
      "name": "TransferBatch",
      "type": "event"
    },
    {
      "anonymous": false,
      "inputs": [
        {
          "indexed": true,
          "internalType": "address",
          "name": "operator",
          "type": "address"
        },
        {
          "indexed": true,
          "internalType": "address",
          "name": "from",
          "type": "address"
        },
        {
          "indexed": true,
          "internalType": "address",
          "name": "to",
          "type": "address"
        },
        {
          "indexed": false,
          "internalType": "uint256",
          "name": "id",
          "type": "uint256"
        },
        {
          "indexed": false,
          "internalType": "uint256",
          "name": "value",
          "type": "uint256"
        }
      ],
      "name": "TransferSingle",
      "type": "event"
    },
    {
      "anonymous": false,
      "inputs": [
        {
          "indexed": false,
          "internalType": "string",
          "name": "value",
          "type": "string"
        },
        {
          "indexed": true,
          "internalType": "uint256",
          "name": "id",
          "type": "uint256"
        }
      ],
      "name": "URI",
      "type": "event"
    },
    {
      "inputs": [],
      "name": "Bronze",
      "outputs": [
        {
          "internalType": "uint256",
          "name": "",
          "type": "uint256"
        }
      ],
      "stateMutability": "view",
      "type": "function",
      "constant": true
    },
    {
      "inputs": [],
      "name": "Gold",
      "outputs": [
        {
          "internalType": "uint256",
          "name": "",
          "type": "uint256"
        }
      ],
      "stateMutability": "view",
      "type": "function",
      "constant": true
    },
    {
      "inputs": [],
      "name": "Silver",
      "outputs": [
        {
          "internalType": "uint256",
          "name": "",
          "type": "uint256"
        }
      ],
      "stateMutability": "view",
      "type": "function",
      "constant": true
    },
    {
      "inputs": [
        {
          "internalType": "address",
          "name": "account",
          "type": "address"
        },
        {
          "internalType": "uint256",
          "name": "id",
          "type": "uint256"
        }
      ],
      "name": "balanceOf",
      "outputs": [
        {
          "internalType": "uint256",
          "name": "",
          "type": "uint256"
        }
      ],
      "stateMutability": "view",
      "type": "function",
      "constant": true
    },
    {
      "inputs": [
        {
          "internalType": "address[]",
          "name": "accounts",
          "type": "address[]"
        },
        {
          "internalType": "uint256[]",
          "name": "ids",
          "type": "uint256[]"
        }
      ],
      "name": "balanceOfBatch",
      "outputs": [
        {
          "internalType": "uint256[]",
          "name": "",
          "type": "uint256[]"
        }
      ],
      "stateMutability": "view",
      "type": "function",
      "constant": true
    },
    {
      "inputs": [
        {
          "internalType": "address",
          "name": "account",
          "type": "address"
        },
        {
          "internalType": "address",
          "name": "operator",
          "type": "address"
        }
      ],
      "name": "isApprovedForAll",
      "outputs": [
        {
          "internalType": "bool",
          "name": "",
          "type": "bool"
        }
      ],
      "stateMutability": "view",
      "type": "function",
      "constant": true
    },
    {
      "inputs": [],
      "name": "lvl2",
      "outputs": [
        {
          "internalType": "uint256",
          "name": "",
          "type": "uint256"
        }
      ],
      "stateMutability": "view",
      "type": "function",
      "constant": true
    },
    {
      "inputs": [],
      "name": "lvl3",
      "outputs": [
        {
          "internalType": "uint256",
          "name": "",
          "type": "uint256"
        }
      ],
      "stateMutability": "view",
      "type": "function",
      "constant": true
    },
    {
      "inputs": [
        {
          "internalType": "address",
          "name": "from",
          "type": "address"
        },
        {
          "internalType": "address",
          "name": "to",
          "type": "address"
        },
        {
          "internalType": "uint256[]",
          "name": "ids",
          "type": "uint256[]"
        },
        {
          "internalType": "uint256[]",
          "name": "amounts",
          "type": "uint256[]"
        },
        {
          "internalType": "bytes",
          "name": "data",
          "type": "bytes"
        }
      ],
      "name": "safeBatchTransferFrom",
      "outputs": [],
      "stateMutability": "nonpayable",
      "type": "function"
    },
    {
      "inputs": [
        {
          "internalType": "address",
          "name": "from",
          "type": "address"
        },
        {
          "internalType": "address",
          "name": "to",
          "type": "address"
        },
        {
          "internalType": "uint256",
          "name": "id",
          "type": "uint256"
        },
        {
          "internalType": "uint256",
          "name": "amount",
          "type": "uint256"
        },
        {
          "internalType": "bytes",
          "name": "data",
          "type": "bytes"
        }
      ],
      "name": "safeTransferFrom",
      "outputs": [],
      "stateMutability": "nonpayable",
      "type": "function"
    },
    {
      "inputs": [
        {
          "internalType": "address",
          "name": "operator",
          "type": "address"
        },
        {
          "internalType": "bool",
          "name": "approved",
          "type": "bool"
        }
      ],
      "name": "setApprovalForAll",
      "outputs": [],
      "stateMutability": "nonpayable",
      "type": "function"
    },
    {
      "inputs": [
        {
          "internalType": "bytes4",
          "name": "interfaceId",
          "type": "bytes4"
        }
      ],
      "name": "supportsInterface",
      "outputs": [
        {
          "internalType": "bool",
          "name": "",
          "type": "bool"
        }
      ],
      "stateMutability": "view",
      "type": "function",
      "constant": true
    },
    {
      "inputs": [
        {
          "internalType": "uint256",
          "name": "",
          "type": "uint256"
        }
      ],
      "name": "uri",
      "outputs": [
        {
          "internalType": "string",
          "name": "",
          "type": "string"
        }
      ],
      "stateMutability": "view",
      "type": "function",
      "constant": true
    },
    {
      "inputs": [
        {
          "internalType": "address",
          "name": "player",
          "type": "address"
        }
      ],
      "name": "awardBronze",
      "outputs": [],
      "stateMutability": "nonpayable",
      "type": "function"
    },
    {
      "inputs": [
        {
          "internalType": "address",
          "name": "player",
          "type": "address"
        }
      ],
      "name": "awardGold",
      "outputs": [],
      "stateMutability": "nonpayable",
      "type": "function"
    },
    {
      "inputs": [
        {
          "internalType": "address",
          "name": "player",
          "type": "address"
        }
      ],
      "name": "awardSilver",
      "outputs": [],
      "stateMutability": "nonpayable",
      "type": "function"
    },
    {
      "inputs": [
        {
          "internalType": "address",
          "name": "player",
          "type": "address"
        }
      ],
      "name": "lvl2Achieve",
      "outputs": [],
      "stateMutability": "nonpayable",
      "type": "function"
    },
    {
      "inputs": [
        {
          "internalType": "address",
          "name": "player",
          "type": "address"
        }
      ],
      "name": "lvl3Achieve",
      "outputs": [],
      "stateMutability": "nonpayable",
      "type": "function"
    }
  ],
  "bytecode": "0x60806040523480156200001157600080fd5b506040518060800160405280605a815260200162002c3a605a91396200003d816200004460201b60201c565b5062000175565b80600290805190602001906200005c92919062000060565b5050565b8280546200006e906200013f565b90600052602060002090601f016020900481019282620000925760008555620000de565b82601f10620000ad57805160ff1916838001178555620000de565b82800160010185558215620000de579182015b82811115620000dd578251825591602001919060010190620000c0565b5b509050620000ed9190620000f1565b5090565b5b808211156200010c576000816000905550600101620000f2565b5090565b7f4e487b7100000000000000000000000000000000000000000000000000000000600052602260045260246000fd5b600060028204905060018216806200015857607f821691505b602082108114156200016f576200016e62000110565b5b50919050565b612ab580620001856000396000f3fe608060405234801561001057600080fd5b50600436106101155760003560e01c80638f6b2c69116100a2578063c8449b6511610071578063c8449b65146102dc578063d9636702146102fa578063e985e9c514610316578063f242432a14610346578063fe2752801461036257610115565b80638f6b2c691461026c5780639b1b0a2514610288578063a22cb465146102a4578063ae14d905146102c057610115565b806310d92d46116100e957806310d92d46146101c85780632eb2c2d6146101e45780634e1273f4146102005780637bb8e0c7146102305780638ebf0f531461024e57610115565b8062fdd58e1461011a57806301ffc9a71461014a5780630e89341c1461017a57806310ca7d1c146101aa575b600080fd5b610134600480360381019061012f91906117ea565b610380565b6040516101419190611839565b60405180910390f35b610164600480360381019061015f91906118ac565b610449565b60405161017191906118f4565b60405180910390f35b610194600480360381019061018f919061190f565b61052b565b6040516101a191906119d5565b60405180910390f35b6101b26105bf565b6040516101bf9190611839565b60405180910390f35b6101e260048036038101906101dd91906119f7565b6105c4565b005b6101fe60048036038101906101f99190611c21565b6105fe565b005b61021a60048036038101906102159190611db3565b61069f565b6040516102279190611ee9565b60405180910390f35b6102386107b8565b6040516102459190611839565b60405180910390f35b6102566107bd565b6040516102639190611839565b60405180910390f35b610286600480360381019061028191906119f7565b6107c2565b005b6102a2600480360381019061029d91906119f7565b6107fb565b005b6102be60048036038101906102b99190611f37565b610833565b005b6102da60048036038101906102d591906119f7565b610849565b005b6102e4610883565b6040516102f19190611839565b60405180910390f35b610314600480360381019061030f91906119f7565b610888565b005b610330600480360381019061032b9190611f77565b6108a8565b60405161033d91906118f4565b60405180910390f35b610360600480360381019061035b9190611fb7565b61093c565b005b61036a6109dd565b6040516103779190611839565b60405180910390f35b60008073ffffffffffffffffffffffffffffffffffffffff168373ffffffffffffffffffffffffffffffffffffffff1614156103f1576040517f08c379a00000000000000000000000000000000000000000000000000000000081526004016103e8906120c0565b60405180910390fd5b60008083815260200190815260200160002060008473ffffffffffffffffffffffffffffffffffffffff1673ffffffffffffffffffffffffffffffffffffffff16815260200190815260200160002054905092915050565b60007fd9b67a26000000000000000000000000000000000000000000000000000000007bffffffffffffffffffffffffffffffffffffffffffffffffffffffff1916827bffffffffffffffffffffffffffffffffffffffffffffffffffffffff1916148061051457507f0e89341c000000000000000000000000000000000000000000000000000000007bffffffffffffffffffffffffffffffffffffffffffffffffffffffff1916827bffffffffffffffffffffffffffffffffffffffffffffffffffffffff1916145b806105245750610523826109e2565b5b9050919050565b60606002805461053a9061210f565b80601f01602080910402602001604051908101604052809291908181526020018280546105669061210f565b80156105b35780601f10610588576101008083540402835291602001916105b3565b820191906000526020600020905b81548152906001019060200180831161059657829003601f168201915b50505050509050919050565b600281565b80600a6105d2826002610380565b10156105dd57600080fd5b6105fa826003600160405180602001604052806000815250610a4c565b5050565b610606610be2565b73ffffffffffffffffffffffffffffffffffffffff168573ffffffffffffffffffffffffffffffffffffffff16148061064c575061064b85610646610be2565b6108a8565b5b61068b576040517f08c379a0000000000000000000000000000000000000000000000000000000008152600401610682906121b3565b60405180910390fd5b6106988585858585610bea565b5050505050565b606081518351146106e5576040517f08c379a00000000000000000000000000000000000000000000000000000000081526004016106dc90612245565b60405180910390fd5b6000835167ffffffffffffffff81111561070257610701611a29565b5b6040519080825280602002602001820160405280156107305781602001602082028036833780820191505090505b50905060005b84518110156107ad5761077d85828151811061075557610754612265565b5b60200260200101518583815181106107705761076f612265565b5b6020026020010151610380565b8282815181106107905761078f612265565b5b602002602001018181525050806107a6906122c3565b9050610736565b508091505092915050565b600481565b600381565b8060006107d0826004610380565b116107da57600080fd5b6107f7826000600160405180602001604052806000815250610a4c565b5050565b806000610809826003610380565b1161081357600080fd5b61082f8260018060405180602001604052806000815250610a4c565b5050565b61084561083e610be2565b8383610efe565b5050565b80600a610857826002610380565b101561086257600080fd5b61087f826004600160405180602001604052806000815250610a4c565b5050565b600081565b6108a5816002600160405180602001604052806000815250610a4c565b50565b6000600160008473ffffffffffffffffffffffffffffffffffffffff1673ffffffffffffffffffffffffffffffffffffffff16815260200190815260200160002060008373ffffffffffffffffffffffffffffffffffffffff1673ffffffffffffffffffffffffffffffffffffffff16815260200190815260200160002060009054906101000a900460ff16905092915050565b610944610be2565b73ffffffffffffffffffffffffffffffffffffffff168573ffffffffffffffffffffffffffffffffffffffff16148061098a575061098985610984610be2565b6108a8565b5b6109c9576040517f08c379a00000000000000000000000000000000000000000000000000000000081526004016109c09061237e565b60405180910390fd5b6109d6858585858561106b565b5050505050565b600181565b60007f01ffc9a7000000000000000000000000000000000000000000000000000000007bffffffffffffffffffffffffffffffffffffffffffffffffffffffff1916827bffffffffffffffffffffffffffffffffffffffffffffffffffffffff1916149050919050565b600073ffffffffffffffffffffffffffffffffffffffff168473ffffffffffffffffffffffffffffffffffffffff161415610abc576040517f08c379a0000000000000000000000000000000000000000000000000000000008152600401610ab390612410565b60405180910390fd5b6000610ac6610be2565b9050610ae781600087610ad8886112ed565b610ae1886112ed565b87611367565b8260008086815260200190815260200160002060008773ffffffffffffffffffffffffffffffffffffffff1673ffffffffffffffffffffffffffffffffffffffff1681526020019081526020016000206000828254610b469190612430565b925050819055508473ffffffffffffffffffffffffffffffffffffffff16600073ffffffffffffffffffffffffffffffffffffffff168273ffffffffffffffffffffffffffffffffffffffff167fc3d58168c5ae7397731d063d5bbf3d657854427343f4c083240f7aacaa2d0f628787604051610bc4929190612486565b60405180910390a4610bdb8160008787878761136f565b5050505050565b600033905090565b8151835114610c2e576040517f08c379a0000000000000000000000000000000000000000000000000000000008152600401610c2590612521565b60405180910390fd5b600073ffffffffffffffffffffffffffffffffffffffff168473ffffffffffffffffffffffffffffffffffffffff161415610c9e576040517f08c379a0000000000000000000000000000000000000000000000000000000008152600401610c95906125b3565b60405180910390fd5b6000610ca8610be2565b9050610cb8818787878787611367565b60005b8451811015610e69576000858281518110610cd957610cd8612265565b5b602002602001015190506000858381518110610cf857610cf7612265565b5b60200260200101519050600080600084815260200190815260200160002060008b73ffffffffffffffffffffffffffffffffffffffff1673ffffffffffffffffffffffffffffffffffffffff16815260200190815260200160002054905081811015610d99576040517f08c379a0000000000000000000000000000000000000000000000000000000008152600401610d9090612645565b60405180910390fd5b81810360008085815260200190815260200160002060008c73ffffffffffffffffffffffffffffffffffffffff1673ffffffffffffffffffffffffffffffffffffffff168152602001908152602001600020819055508160008085815260200190815260200160002060008b73ffffffffffffffffffffffffffffffffffffffff1673ffffffffffffffffffffffffffffffffffffffff1681526020019081526020016000206000828254610e4e9190612430565b9250508190555050505080610e62906122c3565b9050610cbb565b508473ffffffffffffffffffffffffffffffffffffffff168673ffffffffffffffffffffffffffffffffffffffff168273ffffffffffffffffffffffffffffffffffffffff167f4a39dc06d4c0dbc64b70af90fd698a233a518aa5d07e595d983b8c0526c8f7fb8787604051610ee0929190612665565b60405180910390a4610ef6818787878787611547565b505050505050565b8173ffffffffffffffffffffffffffffffffffffffff168373ffffffffffffffffffffffffffffffffffffffff161415610f6d576040517f08c379a0000000000000000000000000000000000000000000000000000000008152600401610f649061270e565b60405180910390fd5b80600160008573ffffffffffffffffffffffffffffffffffffffff1673ffffffffffffffffffffffffffffffffffffffff16815260200190815260200160002060008473ffffffffffffffffffffffffffffffffffffffff1673ffffffffffffffffffffffffffffffffffffffff16815260200190815260200160002060006101000a81548160ff0219169083151502179055508173ffffffffffffffffffffffffffffffffffffffff168373ffffffffffffffffffffffffffffffffffffffff167f17307eab39ab6107e8899845ad3d59bd9653f200f220920489ca2b5937696c318360405161105e91906118f4565b60405180910390a3505050565b600073ffffffffffffffffffffffffffffffffffffffff168473ffffffffffffffffffffffffffffffffffffffff1614156110db576040517f08c379a00000000000000000000000000000000000000000000000000000000081526004016110d2906125b3565b60405180910390fd5b60006110e5610be2565b90506111058187876110f6886112ed565b6110ff886112ed565b87611367565b600080600086815260200190815260200160002060008873ffffffffffffffffffffffffffffffffffffffff1673ffffffffffffffffffffffffffffffffffffffff1681526020019081526020016000205490508381101561119c576040517f08c379a000000000000000000000000000000000000000000000000000000000815260040161119390612645565b60405180910390fd5b83810360008087815260200190815260200160002060008973ffffffffffffffffffffffffffffffffffffffff1673ffffffffffffffffffffffffffffffffffffffff168152602001908152602001600020819055508360008087815260200190815260200160002060008873ffffffffffffffffffffffffffffffffffffffff1673ffffffffffffffffffffffffffffffffffffffff16815260200190815260200160002060008282546112519190612430565b925050819055508573ffffffffffffffffffffffffffffffffffffffff168773ffffffffffffffffffffffffffffffffffffffff168373ffffffffffffffffffffffffffffffffffffffff167fc3d58168c5ae7397731d063d5bbf3d657854427343f4c083240f7aacaa2d0f6288886040516112ce929190612486565b60405180910390a46112e482888888888861136f565b50505050505050565b60606000600167ffffffffffffffff81111561130c5761130b611a29565b5b60405190808252806020026020018201604052801561133a5781602001602082028036833780820191505090505b509050828160008151811061135257611351612265565b5b60200260200101818152505080915050919050565b505050505050565b61138e8473ffffffffffffffffffffffffffffffffffffffff1661171f565b1561153f578373ffffffffffffffffffffffffffffffffffffffff1663f23a6e6187878686866040518663ffffffff1660e01b81526004016113d4959493929190612792565b6020604051808303816000875af192505050801561141057506040513d601f19601f8201168201806040525081019061140d9190612801565b60015b6114b65761141c61283b565b806308c379a01415611479575061143161285d565b8061143c575061147b565b806040517f08c379a000000000000000000000000000000000000000000000000000000000815260040161147091906119d5565b60405180910390fd5b505b6040517f08c379a00000000000000000000000000000000000000000000000000000000081526004016114ad90612965565b60405180910390fd5b63f23a6e6160e01b7bffffffffffffffffffffffffffffffffffffffffffffffffffffffff1916817bffffffffffffffffffffffffffffffffffffffffffffffffffffffff19161461153d576040517f08c379a0000000000000000000000000000000000000000000000000000000008152600401611534906129f7565b60405180910390fd5b505b505050505050565b6115668473ffffffffffffffffffffffffffffffffffffffff1661171f565b15611717578373ffffffffffffffffffffffffffffffffffffffff1663bc197c8187878686866040518663ffffffff1660e01b81526004016115ac959493929190612a17565b6020604051808303816000875af19250505080156115e857506040513d601f19601f820116820180604052508101906115e59190612801565b60015b61168e576115f461283b565b806308c379a01415611651575061160961285d565b806116145750611653565b806040517f08c379a000000000000000000000000000000000000000000000000000000000815260040161164891906119d5565b60405180910390fd5b505b6040517f08c379a000000000000000000000000000000000000000000000000000000000815260040161168590612965565b60405180910390fd5b63bc197c8160e01b7bffffffffffffffffffffffffffffffffffffffffffffffffffffffff1916817bffffffffffffffffffffffffffffffffffffffffffffffffffffffff191614611715576040517f08c379a000000000000000000000000000000000000000000000000000000000815260040161170c906129f7565b60405180910390fd5b505b505050505050565b6000808273ffffffffffffffffffffffffffffffffffffffff163b119050919050565b6000604051905090565b600080fd5b600080fd5b600073ffffffffffffffffffffffffffffffffffffffff82169050919050565b600061178182611756565b9050919050565b61179181611776565b811461179c57600080fd5b50565b6000813590506117ae81611788565b92915050565b6000819050919050565b6117c7816117b4565b81146117d257600080fd5b50565b6000813590506117e4816117be565b92915050565b600080604083850312156118015761180061174c565b5b600061180f8582860161179f565b9250506020611820858286016117d5565b9150509250929050565b611833816117b4565b82525050565b600060208201905061184e600083018461182a565b92915050565b60007fffffffff0000000000000000000000000000000000000000000000000000000082169050919050565b61188981611854565b811461189457600080fd5b50565b6000813590506118a681611880565b92915050565b6000602082840312156118c2576118c161174c565b5b60006118d084828501611897565b91505092915050565b60008115159050919050565b6118ee816118d9565b82525050565b600060208201905061190960008301846118e5565b92915050565b6000602082840312156119255761192461174c565b5b6000611933848285016117d5565b91505092915050565b600081519050919050565b600082825260208201905092915050565b60005b8381101561197657808201518184015260208101905061195b565b83811115611985576000848401525b50505050565b6000601f19601f8301169050919050565b60006119a78261193c565b6119b18185611947565b93506119c1818560208601611958565b6119ca8161198b565b840191505092915050565b600060208201905081810360008301526119ef818461199c565b905092915050565b600060208284031215611a0d57611a0c61174c565b5b6000611a1b8482850161179f565b91505092915050565b600080fd5b7f4e487b7100000000000000000000000000000000000000000000000000000000600052604160045260246000fd5b611a618261198b565b810181811067ffffffffffffffff82111715611a8057611a7f611a29565b5b80604052505050565b6000611a93611742565b9050611a9f8282611a58565b919050565b600067ffffffffffffffff821115611abf57611abe611a29565b5b602082029050602081019050919050565b600080fd5b6000611ae8611ae384611aa4565b611a89565b90508083825260208201905060208402830185811115611b0b57611b0a611ad0565b5b835b81811015611b345780611b2088826117d5565b845260208401935050602081019050611b0d565b5050509392505050565b600082601f830112611b5357611b52611a24565b5b8135611b63848260208601611ad5565b91505092915050565b600080fd5b600067ffffffffffffffff821115611b8c57611b8b611a29565b5b611b958261198b565b9050602081019050919050565b82818337600083830152505050565b6000611bc4611bbf84611b71565b611a89565b905082815260208101848484011115611be057611bdf611b6c565b5b611beb848285611ba2565b509392505050565b600082601f830112611c0857611c07611a24565b5b8135611c18848260208601611bb1565b91505092915050565b600080600080600060a08688031215611c3d57611c3c61174c565b5b6000611c4b8882890161179f565b9550506020611c5c8882890161179f565b945050604086013567ffffffffffffffff811115611c7d57611c7c611751565b5b611c8988828901611b3e565b935050606086013567ffffffffffffffff811115611caa57611ca9611751565b5b611cb688828901611b3e565b925050608086013567ffffffffffffffff811115611cd757611cd6611751565b5b611ce388828901611bf3565b9150509295509295909350565b600067ffffffffffffffff821115611d0b57611d0a611a29565b5b602082029050602081019050919050565b6000611d2f611d2a84611cf0565b611a89565b90508083825260208201905060208402830185811115611d5257611d51611ad0565b5b835b81811015611d7b5780611d67888261179f565b845260208401935050602081019050611d54565b5050509392505050565b600082601f830112611d9a57611d99611a24565b5b8135611daa848260208601611d1c565b91505092915050565b60008060408385031215611dca57611dc961174c565b5b600083013567ffffffffffffffff811115611de857611de7611751565b5b611df485828601611d85565b925050602083013567ffffffffffffffff811115611e1557611e14611751565b5b611e2185828601611b3e565b9150509250929050565b600081519050919050565b600082825260208201905092915050565b6000819050602082019050919050565b611e60816117b4565b82525050565b6000611e728383611e57565b60208301905092915050565b6000602082019050919050565b6000611e9682611e2b565b611ea08185611e36565b9350611eab83611e47565b8060005b83811015611edc578151611ec38882611e66565b9750611ece83611e7e565b925050600181019050611eaf565b5085935050505092915050565b60006020820190508181036000830152611f038184611e8b565b905092915050565b611f14816118d9565b8114611f1f57600080fd5b50565b600081359050611f3181611f0b565b92915050565b60008060408385031215611f4e57611f4d61174c565b5b6000611f5c8582860161179f565b9250506020611f6d85828601611f22565b9150509250929050565b60008060408385031215611f8e57611f8d61174c565b5b6000611f9c8582860161179f565b9250506020611fad8582860161179f565b9150509250929050565b600080600080600060a08688031215611fd357611fd261174c565b5b6000611fe18882890161179f565b9550506020611ff28882890161179f565b9450506040612003888289016117d5565b9350506060612014888289016117d5565b925050608086013567ffffffffffffffff81111561203557612034611751565b5b61204188828901611bf3565b9150509295509295909350565b7f455243313135353a2062616c616e636520717565727920666f7220746865207a60008201527f65726f2061646472657373000000000000000000000000000000000000000000602082015250565b60006120aa602b83611947565b91506120b58261204e565b604082019050919050565b600060208201905081810360008301526120d98161209d565b9050919050565b7f4e487b7100000000000000000000000000000000000000000000000000000000600052602260045260246000fd5b6000600282049050600182168061212757607f821691505b6020821081141561213b5761213a6120e0565b5b50919050565b7f455243313135353a207472616e736665722063616c6c6572206973206e6f742060008201527f6f776e6572206e6f7220617070726f7665640000000000000000000000000000602082015250565b600061219d603283611947565b91506121a882612141565b604082019050919050565b600060208201905081810360008301526121cc81612190565b9050919050565b7f455243313135353a206163636f756e747320616e6420696473206c656e67746860008201527f206d69736d617463680000000000000000000000000000000000000000000000602082015250565b600061222f602983611947565b915061223a826121d3565b604082019050919050565b6000602082019050818103600083015261225e81612222565b9050919050565b7f4e487b7100000000000000000000000000000000000000000000000000000000600052603260045260246000fd5b7f4e487b7100000000000000000000000000000000000000000000000000000000600052601160045260246000fd5b60006122ce826117b4565b91507fffffffffffffffffffffffffffffffffffffffffffffffffffffffffffffffff82141561230157612300612294565b5b600182019050919050565b7f455243313135353a2063616c6c6572206973206e6f74206f776e6572206e6f7260008201527f20617070726f7665640000000000000000000000000000000000000000000000602082015250565b6000612368602983611947565b91506123738261230c565b604082019050919050565b600060208201905081810360008301526123978161235b565b9050919050565b7f455243313135353a206d696e7420746f20746865207a65726f2061646472657360008201527f7300000000000000000000000000000000000000000000000000000000000000602082015250565b60006123fa602183611947565b91506124058261239e565b604082019050919050565b60006020820190508181036000830152612429816123ed565b9050919050565b600061243b826117b4565b9150612446836117b4565b9250827fffffffffffffffffffffffffffffffffffffffffffffffffffffffffffffffff0382111561247b5761247a612294565b5b828201905092915050565b600060408201905061249b600083018561182a565b6124a8602083018461182a565b9392505050565b7f455243313135353a2069647320616e6420616d6f756e7473206c656e6774682060008201527f6d69736d61746368000000000000000000000000000000000000000000000000602082015250565b600061250b602883611947565b9150612516826124af565b604082019050919050565b6000602082019050818103600083015261253a816124fe565b9050919050565b7f455243313135353a207472616e7366657220746f20746865207a65726f20616460008201527f6472657373000000000000000000000000000000000000000000000000000000602082015250565b600061259d602583611947565b91506125a882612541565b604082019050919050565b600060208201905081810360008301526125cc81612590565b9050919050565b7f455243313135353a20696e73756666696369656e742062616c616e636520666f60008201527f72207472616e7366657200000000000000000000000000000000000000000000602082015250565b600061262f602a83611947565b915061263a826125d3565b604082019050919050565b6000602082019050818103600083015261265e81612622565b9050919050565b6000604082019050818103600083015261267f8185611e8b565b905081810360208301526126938184611e8b565b90509392505050565b7f455243313135353a2073657474696e6720617070726f76616c2073746174757360008201527f20666f722073656c660000000000000000000000000000000000000000000000602082015250565b60006126f8602983611947565b91506127038261269c565b604082019050919050565b60006020820190508181036000830152612727816126eb565b9050919050565b61273781611776565b82525050565b600081519050919050565b600082825260208201905092915050565b60006127648261273d565b61276e8185612748565b935061277e818560208601611958565b6127878161198b565b840191505092915050565b600060a0820190506127a7600083018861272e565b6127b4602083018761272e565b6127c1604083018661182a565b6127ce606083018561182a565b81810360808301526127e08184612759565b90509695505050505050565b6000815190506127fb81611880565b92915050565b6000602082840312156128175761281661174c565b5b6000612825848285016127ec565b91505092915050565b60008160e01c9050919050565b600060033d111561285a5760046000803e61285760005161282e565b90505b90565b600060443d101561286d576128f0565b612875611742565b60043d036004823e80513d602482011167ffffffffffffffff8211171561289d5750506128f0565b808201805167ffffffffffffffff8111156128bb57505050506128f0565b80602083010160043d0385018111156128d85750505050506128f0565b6128e782602001850186611a58565b82955050505050505b90565b7f455243313135353a207472616e7366657220746f206e6f6e204552433131353560008201527f526563656976657220696d706c656d656e746572000000000000000000000000602082015250565b600061294f603483611947565b915061295a826128f3565b604082019050919050565b6000602082019050818103600083015261297e81612942565b9050919050565b7f455243313135353a204552433131353552656365697665722072656a6563746560008201527f6420746f6b656e73000000000000000000000000000000000000000000000000602082015250565b60006129e1602883611947565b91506129ec82612985565b604082019050919050565b60006020820190508181036000830152612a10816129d4565b9050919050565b600060a082019050612a2c600083018861272e565b612a39602083018761272e565b8181036040830152612a4b8186611e8b565b90508181036060830152612a5f8185611e8b565b90508181036080830152612a738184612759565b9050969550505050505056fea26469706673582212201e133e297f8e776506a3c36f4a6ab6d15571ab2d7d00c88c605b3e993c0f059264736f6c634300080c003368747470733a2f2f697066732e696f2f697066732f626166796265696374753278336c327061766179716c37376a37716275737233717077697832377374686c6c357177646273736e636869356a65692f7b69647d2e6a736f6e",
  "immutableReferences": {},
  "source": "// SPDX-License-Identifier: MIT\npragma solidity >=0.4.0 <0.9.0;\n\nimport \"@openzeppelin/contracts/token/ERC1155/ERC1155.sol\";\n\ncontract Asset is ERC1155 {\n    uint256 public constant Bronze = 2;\n    uint256 public constant Gold = 0;\n    uint256 public constant Silver = 1;\n    uint256 public constant lvl2 = 3;\n    uint256 public constant lvl3 = 4;\n\n    mapping(address => bool) lvl2s;\n    mapping(address => bool) lvl3s;\n    mapping(address => uint256) bronzes;\n    mapping(address => uint256) golds;\n    mapping(address => uint256) silvers;\n\n    constructor()\n        ERC1155(\n            \"https://ipfs.io/ipfs/bafybeictu2x3l2pavayql77j7qbusr3qpwix27sthll5qwdbssnchi5jei/{id}.json\"\n        )\n    {}\n\n    //*** MODIFIERS */\n\n    modifier level2(address player) {\n        require(balanceOf(player, lvl2) > 0);\n        _;\n    }\n\n    modifier level3(address player) {\n        require(balanceOf(player, lvl3) > 0);\n        _;\n    }\n\n    modifier enoughForLvl2(address player) {\n        require(balanceOf(player, Bronze) >= 10);\n        _;\n    }\n\n    modifier enoughForLvl3(address player) {\n        require(balanceOf(player, lvl2) > 0);\n        require(balanceOf(player, Bronze) >= 20);\n        require(balanceOf(player, Silver) >= 15);\n        _;\n    }\n\n    //*** IN-GAME STUFF */\n    function awardBronze(address player) public {\n        _mint(player, Bronze, 1, \"\");\n    }\n\n    function awardGold(address player) public level3(player) {\n        _mint(player, Gold, 1, \"\");\n    }\n\n    function awardSilver(address player) public level2(player) {\n        _mint(player, Silver, 1, \"\");\n    }\n\n    function lvl2Achieve(address player) public enoughForLvl2(player) {\n        _mint(player, lvl2, 1, \"\");\n    }\n\n    function lvl3Achieve(address player) public enoughForLvl2(player) {\n        _mint(player, lvl3, 1, \"\");\n    }\n}\n",
  "sourcePath": "/Users/emilsharafutdinov/Desktop/Work/SR3/Wrdl3/contracts/Asset.sol",
  "compiler": {
    "name": "solc",
    "version": "0.8.12+commit.f00d7308.Emscripten.clang"
  },
  "schemaVersion": "3.4.4",
  "updatedAt": "2022-03-07T16:24:41.417Z",
  "networkType": "ethereum",
  "devdoc": {
    "kind": "dev",
    "methods": {
      "balanceOf(address,uint256)": {
        "details": "See {IERC1155-balanceOf}. Requirements: - `account` cannot be the zero address."
      },
      "balanceOfBatch(address[],uint256[])": {
        "details": "See {IERC1155-balanceOfBatch}. Requirements: - `accounts` and `ids` must have the same length."
      },
      "isApprovedForAll(address,address)": {
        "details": "See {IERC1155-isApprovedForAll}."
      },
      "safeBatchTransferFrom(address,address,uint256[],uint256[],bytes)": {
        "details": "See {IERC1155-safeBatchTransferFrom}."
      },
      "safeTransferFrom(address,address,uint256,uint256,bytes)": {
        "details": "See {IERC1155-safeTransferFrom}."
      },
      "setApprovalForAll(address,bool)": {
        "details": "See {IERC1155-setApprovalForAll}."
      },
      "supportsInterface(bytes4)": {
        "details": "See {IERC165-supportsInterface}."
      },
      "uri(uint256)": {
        "details": "See {IERC1155MetadataURI-uri}. This implementation returns the same URI for *all* token types. It relies on the token type ID substitution mechanism https://eips.ethereum.org/EIPS/eip-1155#metadata[defined in the EIP]. Clients calling this function must replace the `\\{id\\}` substring with the actual token type ID."
      }
    },
    "version": 1
  },
  "userdoc": {
    "kind": "user",
    "methods": {},
    "version": 1
  }
}