{
  "contractName": "Asset",
  "abi": [
    {
      "inputs": [
        {
          "internalType": "address",
          "name": "_owner",
          "type": "address"
        },
        {
          "internalType": "string",
          "name": "_name",
          "type": "string"
        },
        {
          "internalType": "string",
          "name": "_symbol",
          "type": "string"
        },
        {
          "internalType": "address",
          "name": "_imx",
          "type": "address"
        }
      ],
      "stateMutability": "nonpayable",
      "type": "constructor"
    },
    {
      "anonymous": false,
      "inputs": [
        {
          "indexed": true,
          "internalType": "address",
          "name": "owner",
          "type": "address"
        },
        {
          "indexed": true,
          "internalType": "address",
          "name": "approved",
          "type": "address"
        },
        {
          "indexed": true,
          "internalType": "uint256",
          "name": "tokenId",
          "type": "uint256"
        }
      ],
      "name": "Approval",
      "type": "event"
    },
    {
      "anonymous": false,
      "inputs": [
        {
          "indexed": true,
          "internalType": "address",
          "name": "owner",
          "type": "address"
        },
        {
          "indexed": true,
          "internalType": "address",
          "name": "operator",
          "type": "address"
        },
        {
          "indexed": false,
          "internalType": "bool",
          "name": "approved",
          "type": "bool"
        }
      ],
      "name": "ApprovalForAll",
      "type": "event"
    },
    {
      "anonymous": false,
      "inputs": [
        {
          "indexed": false,
          "internalType": "address",
          "name": "to",
          "type": "address"
        },
        {
          "indexed": false,
          "internalType": "uint256",
          "name": "id",
          "type": "uint256"
        },
        {
          "indexed": false,
          "internalType": "bytes",
          "name": "blueprint",
          "type": "bytes"
        }
      ],
      "name": "AssetMinted",
      "type": "event"
    },
    {
      "anonymous": false,
      "inputs": [
        {
          "indexed": true,
          "internalType": "address",
          "name": "previousOwner",
          "type": "address"
        },
        {
          "indexed": true,
          "internalType": "address",
          "name": "newOwner",
          "type": "address"
        }
      ],
      "name": "OwnershipTransferred",
      "type": "event"
    },
    {
      "anonymous": false,
      "inputs": [
        {
          "indexed": true,
          "internalType": "address",
          "name": "from",
          "type": "address"
        },
        {
          "indexed": true,
          "internalType": "address",
          "name": "to",
          "type": "address"
        },
        {
          "indexed": true,
          "internalType": "uint256",
          "name": "tokenId",
          "type": "uint256"
        }
      ],
      "name": "Transfer",
      "type": "event"
    },
    {
      "inputs": [
        {
          "internalType": "address",
          "name": "to",
          "type": "address"
        },
        {
          "internalType": "uint256",
          "name": "tokenId",
          "type": "uint256"
        }
      ],
      "name": "approve",
      "outputs": [],
      "stateMutability": "nonpayable",
      "type": "function"
    },
    {
      "inputs": [
        {
          "internalType": "address",
          "name": "owner",
          "type": "address"
        }
      ],
      "name": "balanceOf",
      "outputs": [
        {
          "internalType": "uint256",
          "name": "",
          "type": "uint256"
        }
      ],
      "stateMutability": "view",
      "type": "function"
    },
    {
      "inputs": [
        {
          "internalType": "uint256",
          "name": "",
          "type": "uint256"
        }
      ],
      "name": "blueprints",
      "outputs": [
        {
          "internalType": "bytes",
          "name": "",
          "type": "bytes"
        }
      ],
      "stateMutability": "view",
      "type": "function"
    },
    {
      "inputs": [
        {
          "internalType": "uint256",
          "name": "tokenId",
          "type": "uint256"
        }
      ],
      "name": "getApproved",
      "outputs": [
        {
          "internalType": "address",
          "name": "",
          "type": "address"
        }
      ],
      "stateMutability": "view",
      "type": "function"
    },
    {
      "inputs": [],
      "name": "imx",
      "outputs": [
        {
          "internalType": "address",
          "name": "",
          "type": "address"
        }
      ],
      "stateMutability": "view",
      "type": "function"
    },
    {
      "inputs": [
        {
          "internalType": "address",
          "name": "owner",
          "type": "address"
        },
        {
          "internalType": "address",
          "name": "operator",
          "type": "address"
        }
      ],
      "name": "isApprovedForAll",
      "outputs": [
        {
          "internalType": "bool",
          "name": "",
          "type": "bool"
        }
      ],
      "stateMutability": "view",
      "type": "function"
    },
    {
      "inputs": [
        {
          "internalType": "address",
          "name": "user",
          "type": "address"
        },
        {
          "internalType": "uint256",
          "name": "quantity",
          "type": "uint256"
        },
        {
          "internalType": "bytes",
          "name": "mintingBlob",
          "type": "bytes"
        }
      ],
      "name": "mintFor",
      "outputs": [],
      "stateMutability": "nonpayable",
      "type": "function"
    },
    {
      "inputs": [],
      "name": "name",
      "outputs": [
        {
          "internalType": "string",
          "name": "",
          "type": "string"
        }
      ],
      "stateMutability": "view",
      "type": "function"
    },
    {
      "inputs": [],
      "name": "owner",
      "outputs": [
        {
          "internalType": "address",
          "name": "",
          "type": "address"
        }
      ],
      "stateMutability": "view",
      "type": "function"
    },
    {
      "inputs": [
        {
          "internalType": "uint256",
          "name": "tokenId",
          "type": "uint256"
        }
      ],
      "name": "ownerOf",
      "outputs": [
        {
          "internalType": "address",
          "name": "",
          "type": "address"
        }
      ],
      "stateMutability": "view",
      "type": "function"
    },
    {
      "inputs": [],
      "name": "renounceOwnership",
      "outputs": [],
      "stateMutability": "nonpayable",
      "type": "function"
    },
    {
      "inputs": [
        {
          "internalType": "address",
          "name": "from",
          "type": "address"
        },
        {
          "internalType": "address",
          "name": "to",
          "type": "address"
        },
        {
          "internalType": "uint256",
          "name": "tokenId",
          "type": "uint256"
        }
      ],
      "name": "safeTransferFrom",
      "outputs": [],
      "stateMutability": "nonpayable",
      "type": "function"
    },
    {
      "inputs": [
        {
          "internalType": "address",
          "name": "from",
          "type": "address"
        },
        {
          "internalType": "address",
          "name": "to",
          "type": "address"
        },
        {
          "internalType": "uint256",
          "name": "tokenId",
          "type": "uint256"
        },
        {
          "internalType": "bytes",
          "name": "_data",
          "type": "bytes"
        }
      ],
      "name": "safeTransferFrom",
      "outputs": [],
      "stateMutability": "nonpayable",
      "type": "function"
    },
    {
      "inputs": [
        {
          "internalType": "address",
          "name": "operator",
          "type": "address"
        },
        {
          "internalType": "bool",
          "name": "approved",
          "type": "bool"
        }
      ],
      "name": "setApprovalForAll",
      "outputs": [],
      "stateMutability": "nonpayable",
      "type": "function"
    },
    {
      "inputs": [
        {
          "internalType": "bytes4",
          "name": "interfaceId",
          "type": "bytes4"
        }
      ],
      "name": "supportsInterface",
      "outputs": [
        {
          "internalType": "bool",
          "name": "",
          "type": "bool"
        }
      ],
      "stateMutability": "view",
      "type": "function"
    },
    {
      "inputs": [],
      "name": "symbol",
      "outputs": [
        {
          "internalType": "string",
          "name": "",
          "type": "string"
        }
      ],
      "stateMutability": "view",
      "type": "function"
    },
    {
      "inputs": [
        {
          "internalType": "uint256",
          "name": "tokenId",
          "type": "uint256"
        }
      ],
      "name": "tokenURI",
      "outputs": [
        {
          "internalType": "string",
          "name": "",
          "type": "string"
        }
      ],
      "stateMutability": "view",
      "type": "function"
    },
    {
      "inputs": [
        {
          "internalType": "address",
          "name": "from",
          "type": "address"
        },
        {
          "internalType": "address",
          "name": "to",
          "type": "address"
        },
        {
          "internalType": "uint256",
          "name": "tokenId",
          "type": "uint256"
        }
      ],
      "name": "transferFrom",
      "outputs": [],
      "stateMutability": "nonpayable",
      "type": "function"
    },
    {
      "inputs": [
        {
          "internalType": "address",
          "name": "newOwner",
          "type": "address"
        }
      ],
      "name": "transferOwnership",
      "outputs": [],
      "stateMutability": "nonpayable",
      "type": "function"
    },
    {
      "inputs": [
        {
          "internalType": "address",
          "name": "player",
          "type": "address"
        }
      ],
      "name": "awardBronze",
      "outputs": [],
      "stateMutability": "nonpayable",
      "type": "function"
    },
    {
      "inputs": [
        {
          "internalType": "address",
          "name": "player",
          "type": "address"
        }
      ],
      "name": "awardGold",
      "outputs": [],
      "stateMutability": "nonpayable",
      "type": "function"
    },
    {
      "inputs": [
        {
          "internalType": "address",
          "name": "player",
          "type": "address"
        }
      ],
      "name": "awardSilver",
      "outputs": [],
      "stateMutability": "nonpayable",
      "type": "function"
    },
    {
      "inputs": [
        {
          "internalType": "address",
          "name": "player",
          "type": "address"
        }
      ],
      "name": "lvl2Achieve",
      "outputs": [],
      "stateMutability": "nonpayable",
      "type": "function"
    },
    {
      "inputs": [
        {
          "internalType": "address",
          "name": "player",
          "type": "address"
        }
      ],
      "name": "lvl3Achieve",
      "outputs": [],
      "stateMutability": "nonpayable",
      "type": "function"
    }
  ],
  "bytecode": "0x60806040526040518060800160405280605b815260200162004c68605b9139600b90805190602001906200003592919062000468565b5060405180608001604052806059815260200162004c0f60599139600c90805190602001906200006792919062000468565b506040518060800160405280605b815260200162004b5b605b9139600d90805190602001906200009992919062000468565b5060405180608001604052806059815260200162004bb660599139600e9080519060200190620000cb92919062000468565b5060405180608001604052806059815260200162004cc360599139600f9080519060200190620000fd92919062000468565b503480156200010b57600080fd5b5060405162004d1c38038062004d1c83398181016040528101906200013191906200071a565b8381848481600090805190602001906200014d92919062000468565b5080600190805190602001906200016692919062000468565b505050620001896200017d6200025a60201b60201c565b6200026260201b60201c565b80600860006101000a81548173ffffffffffffffffffffffffffffffffffffffff021916908373ffffffffffffffffffffffffffffffffffffffff160217905550600073ffffffffffffffffffffffffffffffffffffffff168273ffffffffffffffffffffffffffffffffffffffff1614156200023d576040517f08c379a000000000000000000000000000000000000000000000000000000000815260040162000234906200082b565b60405180910390fd5b6200024e826200032860201b60201c565b505050505050620009bc565b600033905090565b6000600760009054906101000a900473ffffffffffffffffffffffffffffffffffffffff16905081600760006101000a81548173ffffffffffffffffffffffffffffffffffffffff021916908373ffffffffffffffffffffffffffffffffffffffff1602179055508173ffffffffffffffffffffffffffffffffffffffff168173ffffffffffffffffffffffffffffffffffffffff167f8be0079c531659141344cd1fd0a4f28419497f9722a3daafe3b4186f6b6457e060405160405180910390a35050565b620003386200025a60201b60201c565b73ffffffffffffffffffffffffffffffffffffffff166200035e6200043e60201b60201c565b73ffffffffffffffffffffffffffffffffffffffff1614620003b7576040517f08c379a0000000000000000000000000000000000000000000000000000000008152600401620003ae906200089d565b60405180910390fd5b600073ffffffffffffffffffffffffffffffffffffffff168173ffffffffffffffffffffffffffffffffffffffff1614156200042a576040517f08c379a0000000000000000000000000000000000000000000000000000000008152600401620004219062000935565b60405180910390fd5b6200043b816200026260201b60201c565b50565b6000600760009054906101000a900473ffffffffffffffffffffffffffffffffffffffff16905090565b828054620004769062000986565b90600052602060002090601f0160209004810192826200049a5760008555620004e6565b82601f10620004b557805160ff1916838001178555620004e6565b82800160010185558215620004e6579182015b82811115620004e5578251825591602001919060010190620004c8565b5b509050620004f59190620004f9565b5090565b5b8082111562000514576000816000905550600101620004fa565b5090565b6000604051905090565b600080fd5b600080fd5b600073ffffffffffffffffffffffffffffffffffffffff82169050919050565b600062000559826200052c565b9050919050565b6200056b816200054c565b81146200057757600080fd5b50565b6000815190506200058b8162000560565b92915050565b600080fd5b600080fd5b6000601f19601f8301169050919050565b7f4e487b7100000000000000000000000000000000000000000000000000000000600052604160045260246000fd5b620005e6826200059b565b810181811067ffffffffffffffff82111715620006085762000607620005ac565b5b80604052505050565b60006200061d62000518565b90506200062b8282620005db565b919050565b600067ffffffffffffffff8211156200064e576200064d620005ac565b5b62000659826200059b565b9050602081019050919050565b60005b838110156200068657808201518184015260208101905062000669565b8381111562000696576000848401525b50505050565b6000620006b3620006ad8462000630565b62000611565b905082815260208101848484011115620006d257620006d162000596565b5b620006df84828562000666565b509392505050565b600082601f830112620006ff57620006fe62000591565b5b8151620007118482602086016200069c565b91505092915050565b6000806000806080858703121562000737576200073662000522565b5b600062000747878288016200057a565b945050602085015167ffffffffffffffff8111156200076b576200076a62000527565b5b6200077987828801620006e7565b935050604085015167ffffffffffffffff8111156200079d576200079c62000527565b5b620007ab87828801620006e7565b9250506060620007be878288016200057a565b91505092959194509250565b600082825260208201905092915050565b7f4f776e6572206d757374206e6f7420626520656d707479000000000000000000600082015250565b600062000813601783620007ca565b91506200082082620007db565b602082019050919050565b60006020820190508181036000830152620008468162000804565b9050919050565b7f4f776e61626c653a2063616c6c6572206973206e6f7420746865206f776e6572600082015250565b600062000885602083620007ca565b915062000892826200084d565b602082019050919050565b60006020820190508181036000830152620008b88162000876565b9050919050565b7f4f776e61626c653a206e6577206f776e657220697320746865207a65726f206160008201527f6464726573730000000000000000000000000000000000000000000000000000602082015250565b60006200091d602683620007ca565b91506200092a82620008bf565b604082019050919050565b6000602082019050818103600083015262000950816200090e565b9050919050565b7f4e487b7100000000000000000000000000000000000000000000000000000000600052602260045260246000fd5b600060028204905060018216806200099f57607f821691505b60208210811415620009b657620009b562000957565b5b50919050565b61418f80620009cc6000396000f3fe608060405234801561001057600080fd5b50600436106101585760003560e01c8063715018a6116100c3578063ae14d9051161007c578063ae14d905146103af578063b88d4fde146103cb578063c87b56dd146103e7578063d963670214610417578063e985e9c514610433578063f2fde38b1461046357610158565b8063715018a6146103155780638da5cb5b1461031f5780638f6b2c691461033d57806395d89b41146103595780639b1b0a2514610377578063a22cb4651461039357610158565b806319ee6e3f1161011557806319ee6e3f1461023157806323b872dd1461024d57806342842e0e146102695780636352211e1461028557806366bf33be146102b557806370a08231146102e557610158565b806301ffc9a71461015d57806306fdde031461018d578063081812fc146101ab578063095ea7b3146101db5780630f08025f146101f757806310d92d4614610215575b600080fd5b61017760048036038101906101729190612af2565b61047f565b6040516101849190612b3a565b60405180910390f35b610195610561565b6040516101a29190612bee565b60405180910390f35b6101c560048036038101906101c09190612c46565b6105f3565b6040516101d29190612cb4565b60405180910390f35b6101f560048036038101906101f09190612cfb565b610678565b005b6101ff610790565b60405161020c9190612cb4565b60405180910390f35b61022f600480360381019061022a9190612d3b565b6107b6565b005b61024b60048036038101906102469190612dcd565b610926565b005b61026760048036038101906102629190612e41565b610abd565b005b610283600480360381019061027e9190612e41565b610b1d565b005b61029f600480360381019061029a9190612c46565b610b3d565b6040516102ac9190612cb4565b60405180910390f35b6102cf60048036038101906102ca9190612c46565b610bef565b6040516102dc9190612ee9565b60405180910390f35b6102ff60048036038101906102fa9190612d3b565b610c8f565b60405161030c9190612f1a565b60405180910390f35b61031d610d47565b005b610327610dcf565b6040516103349190612cb4565b60405180910390f35b61035760048036038101906103529190612d3b565b610df9565b005b610361610f70565b60405161036e9190612bee565b60405180910390f35b610391600480360381019061038c9190612d3b565b611002565b005b6103ad60048036038101906103a89190612f61565b611179565b005b6103c960048036038101906103c49190612d3b565b61118f565b005b6103e560048036038101906103e091906130d1565b6112ff565b005b61040160048036038101906103fc9190612c46565b611361565b60405161040e9190612bee565b60405180910390f35b610431600480360381019061042c9190612d3b565b6114b3565b005b61044d60048036038101906104489190613154565b6115d2565b60405161045a9190612b3a565b60405180910390f35b61047d60048036038101906104789190612d3b565b611666565b005b60007f80ac58cd000000000000000000000000000000000000000000000000000000007bffffffffffffffffffffffffffffffffffffffffffffffffffffffff1916827bffffffffffffffffffffffffffffffffffffffffffffffffffffffff1916148061054a57507f5b5e139f000000000000000000000000000000000000000000000000000000007bffffffffffffffffffffffffffffffffffffffffffffffffffffffff1916827bffffffffffffffffffffffffffffffffffffffffffffffffffffffff1916145b8061055a57506105598261175e565b5b9050919050565b606060008054610570906131c3565b80601f016020809104026020016040519081016040528092919081815260200182805461059c906131c3565b80156105e95780601f106105be576101008083540402835291602001916105e9565b820191906000526020600020905b8154815290600101906020018083116105cc57829003601f168201915b5050505050905090565b60006105fe826117c8565b61063d576040517f08c379a000000000000000000000000000000000000000000000000000000000815260040161063490613267565b60405180910390fd5b6004600083815260200190815260200160002060009054906101000a900473ffffffffffffffffffffffffffffffffffffffff169050919050565b600061068382610b3d565b90508073ffffffffffffffffffffffffffffffffffffffff168373ffffffffffffffffffffffffffffffffffffffff1614156106f4576040517f08c379a00000000000000000000000000000000000000000000000000000000081526004016106eb906132f9565b60405180910390fd5b8073ffffffffffffffffffffffffffffffffffffffff16610713611834565b73ffffffffffffffffffffffffffffffffffffffff16148061074257506107418161073c611834565b6115d2565b5b610781576040517f08c379a00000000000000000000000000000000000000000000000000000000081526004016107789061338b565b60405180910390fd5b61078b838361183c565b505050565b600860009054906101000a900473ffffffffffffffffffffffffffffffffffffffff1681565b80600a601260008373ffffffffffffffffffffffffffffffffffffffff1673ffffffffffffffffffffffffffffffffffffffff168152602001908152602001600020541461080357600080fd5b600061080f600a6118f5565b905061081b600a611903565b610835838260405180602001604052806000815250611919565b6108c981600e8054610846906131c3565b80601f0160208091040260200160405190810160405280929190818152602001828054610872906131c3565b80156108bf5780601f10610894576101008083540402835291602001916108bf565b820191906000526020600020905b8154815290600101906020018083116108a257829003601f168201915b5050505050611929565b6001601060008573ffffffffffffffffffffffffffffffffffffffff1673ffffffffffffffffffffffffffffffffffffffff16815260200190815260200160002060006101000a81548160ff021916908315150217905550505050565b600860009054906101000a900473ffffffffffffffffffffffffffffffffffffffff1673ffffffffffffffffffffffffffffffffffffffff163373ffffffffffffffffffffffffffffffffffffffff1614806109b45750610985610dcf565b73ffffffffffffffffffffffffffffffffffffffff163373ffffffffffffffffffffffffffffffffffffffff16145b6109f3576040517f08c379a00000000000000000000000000000000000000000000000000000000081526004016109ea9061341d565b60405180910390fd5b60018314610a36576040517f08c379a0000000000000000000000000000000000000000000000000000000008152600401610a2d90613489565b60405180910390fd5b600080610a43848461199d565b91509150610a52868383611919565b80600960008481526020019081526020016000209080519060200190610a7992919061295d565b507f31e594f6b36b98ec520a91cbbba7b8724b1cec27393f86d8f0f6aa6084db0aaf868383604051610aad939291906134a9565b60405180910390a1505050505050565b610ace610ac8611834565b82611bb2565b610b0d576040517f08c379a0000000000000000000000000000000000000000000000000000000008152600401610b0490613559565b60405180910390fd5b610b18838383611c90565b505050565b610b38838383604051806020016040528060008152506112ff565b505050565b6000806002600084815260200190815260200160002060009054906101000a900473ffffffffffffffffffffffffffffffffffffffff169050600073ffffffffffffffffffffffffffffffffffffffff168173ffffffffffffffffffffffffffffffffffffffff161415610be6576040517f08c379a0000000000000000000000000000000000000000000000000000000008152600401610bdd906135eb565b60405180910390fd5b80915050919050565b60096020528060005260406000206000915090508054610c0e906131c3565b80601f0160208091040260200160405190810160405280929190818152602001828054610c3a906131c3565b8015610c875780601f10610c5c57610100808354040283529160200191610c87565b820191906000526020600020905b815481529060010190602001808311610c6a57829003601f168201915b505050505081565b60008073ffffffffffffffffffffffffffffffffffffffff168273ffffffffffffffffffffffffffffffffffffffff161415610d00576040517f08c379a0000000000000000000000000000000000000000000000000000000008152600401610cf79061367d565b60405180910390fd5b600360008373ffffffffffffffffffffffffffffffffffffffff1673ffffffffffffffffffffffffffffffffffffffff168152602001908152602001600020549050919050565b610d4f611834565b73ffffffffffffffffffffffffffffffffffffffff16610d6d610dcf565b73ffffffffffffffffffffffffffffffffffffffff1614610dc3576040517f08c379a0000000000000000000000000000000000000000000000000000000008152600401610dba906136e9565b60405180910390fd5b610dcd6000611ef7565b565b6000600760009054906101000a900473ffffffffffffffffffffffffffffffffffffffff16905090565b80601160008273ffffffffffffffffffffffffffffffffffffffff1673ffffffffffffffffffffffffffffffffffffffff16815260200190815260200160002060009054906101000a900460ff16610e5057600080fd5b6000610e5c600a6118f5565b9050610e68600a611903565b610e82838260405180602001604052806000815250611919565b610f1681600c8054610e93906131c3565b80601f0160208091040260200160405190810160405280929190818152602001828054610ebf906131c3565b8015610f0c5780601f10610ee157610100808354040283529160200191610f0c565b820191906000526020600020905b815481529060010190602001808311610eef57829003601f168201915b5050505050611929565b601360008473ffffffffffffffffffffffffffffffffffffffff1673ffffffffffffffffffffffffffffffffffffffff1681526020019081526020016000206000815480929190610f6690613738565b9190505550505050565b606060018054610f7f906131c3565b80601f0160208091040260200160405190810160405280929190818152602001828054610fab906131c3565b8015610ff85780601f10610fcd57610100808354040283529160200191610ff8565b820191906000526020600020905b815481529060010190602001808311610fdb57829003601f168201915b5050505050905090565b80601060008273ffffffffffffffffffffffffffffffffffffffff1673ffffffffffffffffffffffffffffffffffffffff16815260200190815260200160002060009054906101000a900460ff1661105957600080fd5b6000611065600a6118f5565b9050611071600a611903565b61108b838260405180602001604052806000815250611919565b61111f81600d805461109c906131c3565b80601f01602080910402602001604051908101604052809291908181526020018280546110c8906131c3565b80156111155780601f106110ea57610100808354040283529160200191611115565b820191906000526020600020905b8154815290600101906020018083116110f857829003601f168201915b5050505050611929565b601460008473ffffffffffffffffffffffffffffffffffffffff1673ffffffffffffffffffffffffffffffffffffffff168152602001908152602001600020600081548092919061116f90613738565b9190505550505050565b61118b611184611834565b8383611fbd565b5050565b80600a601260008373ffffffffffffffffffffffffffffffffffffffff1673ffffffffffffffffffffffffffffffffffffffff16815260200190815260200160002054146111dc57600080fd5b60006111e8600a6118f5565b90506111f4600a611903565b61120e838260405180602001604052806000815250611919565b6112a281600f805461121f906131c3565b80601f016020809104026020016040519081016040528092919081815260200182805461124b906131c3565b80156112985780601f1061126d57610100808354040283529160200191611298565b820191906000526020600020905b81548152906001019060200180831161127b57829003601f168201915b5050505050611929565b6001601160008573ffffffffffffffffffffffffffffffffffffffff1673ffffffffffffffffffffffffffffffffffffffff16815260200190815260200160002060006101000a81548160ff021916908315150217905550505050565b61131061130a611834565b83611bb2565b61134f576040517f08c379a000000000000000000000000000000000000000000000000000000000815260040161134690613559565b60405180910390fd5b61135b8484848461212a565b50505050565b606061136c826117c8565b6113ab576040517f08c379a00000000000000000000000000000000000000000000000000000000081526004016113a2906137f3565b60405180910390fd5b60006006600084815260200190815260200160002080546113cb906131c3565b80601f01602080910402602001604051908101604052809291908181526020018280546113f7906131c3565b80156114445780601f1061141957610100808354040283529160200191611444565b820191906000526020600020905b81548152906001019060200180831161142757829003601f168201915b505050505090506000611455612186565b905060008151141561146b5781925050506114ae565b6000825111156114a057808260405160200161148892919061384f565b604051602081830303815290604052925050506114ae565b6114a98461219d565b925050505b919050565b60006114bf600a6118f5565b90506114cb600a611903565b6114e5828260405180602001604052806000815250611919565b61157981600b80546114f6906131c3565b80601f0160208091040260200160405190810160405280929190818152602001828054611522906131c3565b801561156f5780601f106115445761010080835404028352916020019161156f565b820191906000526020600020905b81548152906001019060200180831161155257829003601f168201915b5050505050611929565b601260008373ffffffffffffffffffffffffffffffffffffffff1673ffffffffffffffffffffffffffffffffffffffff16815260200190815260200160002060008154809291906115c990613738565b91905055505050565b6000600560008473ffffffffffffffffffffffffffffffffffffffff1673ffffffffffffffffffffffffffffffffffffffff16815260200190815260200160002060008373ffffffffffffffffffffffffffffffffffffffff1673ffffffffffffffffffffffffffffffffffffffff16815260200190815260200160002060009054906101000a900460ff16905092915050565b61166e611834565b73ffffffffffffffffffffffffffffffffffffffff1661168c610dcf565b73ffffffffffffffffffffffffffffffffffffffff16146116e2576040517f08c379a00000000000000000000000000000000000000000000000000000000081526004016116d9906136e9565b60405180910390fd5b600073ffffffffffffffffffffffffffffffffffffffff168173ffffffffffffffffffffffffffffffffffffffff161415611752576040517f08c379a0000000000000000000000000000000000000000000000000000000008152600401611749906138e5565b60405180910390fd5b61175b81611ef7565b50565b60007f01ffc9a7000000000000000000000000000000000000000000000000000000007bffffffffffffffffffffffffffffffffffffffffffffffffffffffff1916827bffffffffffffffffffffffffffffffffffffffffffffffffffffffff1916149050919050565b60008073ffffffffffffffffffffffffffffffffffffffff166002600084815260200190815260200160002060009054906101000a900473ffffffffffffffffffffffffffffffffffffffff1673ffffffffffffffffffffffffffffffffffffffff1614159050919050565b600033905090565b816004600083815260200190815260200160002060006101000a81548173ffffffffffffffffffffffffffffffffffffffff021916908373ffffffffffffffffffffffffffffffffffffffff160217905550808273ffffffffffffffffffffffffffffffffffffffff166118af83610b3d565b73ffffffffffffffffffffffffffffffffffffffff167f8c5be1e5ebec7d5bd14f71427d1e84f3dd0314c0f7b2291e5b200ac8c7c3b92560405160405180910390a45050565b600081600001549050919050565b6001816000016000828254019250508190555050565b611924838383612244565b505050565b611932826117c8565b611971576040517f08c379a000000000000000000000000000000000000000000000000000000000815260040161196890613977565b60405180910390fd5b806006600084815260200190815260200160002090805190602001906119989291906129e3565b505050565b600060606000611a2885858080601f016020809104026020016040519081016040528093929190818152602001838380828437600081840152601f19601f820116905080830192505050505050506040518060400160405280600181526020017f3a00000000000000000000000000000000000000000000000000000000000000815250600061229f565b90506000811215611a6e576040517f08c379a0000000000000000000000000000000000000000000000000000000008152600401611a65906139e3565b60405180910390fd5b6000611ada8686600190600186611a859190613a03565b92611a9293929190613a41565b8080601f016020809104026020016040519081016040528093929190818152602001838380828437600081840152601f19601f82011690508083019250505050505050612397565b9050600060038388889050611aef9190613a03565b611af99190613a03565b90506000811415611b2157816040518060200160405280600081525094509450505050611bab565b3660008888600287611b339190613a7c565b9060018c8c9050611b449190613a03565b92611b5193929190613a41565b9150915083828281818080601f016020809104026020016040519081016040528093929190818152602001838380828437600081840152601f19601f82011690508083019250505050505050905090509650965050505050505b9250929050565b6000611bbd826117c8565b611bfc576040517f08c379a0000000000000000000000000000000000000000000000000000000008152600401611bf390613b44565b60405180910390fd5b6000611c0783610b3d565b90508073ffffffffffffffffffffffffffffffffffffffff168473ffffffffffffffffffffffffffffffffffffffff161480611c7657508373ffffffffffffffffffffffffffffffffffffffff16611c5e846105f3565b73ffffffffffffffffffffffffffffffffffffffff16145b80611c875750611c8681856115d2565b5b91505092915050565b8273ffffffffffffffffffffffffffffffffffffffff16611cb082610b3d565b73ffffffffffffffffffffffffffffffffffffffff1614611d06576040517f08c379a0000000000000000000000000000000000000000000000000000000008152600401611cfd90613bd6565b60405180910390fd5b600073ffffffffffffffffffffffffffffffffffffffff168273ffffffffffffffffffffffffffffffffffffffff161415611d76576040517f08c379a0000000000000000000000000000000000000000000000000000000008152600401611d6d90613c68565b60405180910390fd5b611d8183838361246d565b611d8c60008261183c565b6001600360008573ffffffffffffffffffffffffffffffffffffffff1673ffffffffffffffffffffffffffffffffffffffff1681526020019081526020016000206000828254611ddc9190613a03565b925050819055506001600360008473ffffffffffffffffffffffffffffffffffffffff1673ffffffffffffffffffffffffffffffffffffffff1681526020019081526020016000206000828254611e339190613a7c565b92505081905550816002600083815260200190815260200160002060006101000a81548173ffffffffffffffffffffffffffffffffffffffff021916908373ffffffffffffffffffffffffffffffffffffffff160217905550808273ffffffffffffffffffffffffffffffffffffffff168473ffffffffffffffffffffffffffffffffffffffff167fddf252ad1be2c89b69c2b068fc378daa952ba7f163c4a11628f55a4df523b3ef60405160405180910390a4611ef2838383612472565b505050565b6000600760009054906101000a900473ffffffffffffffffffffffffffffffffffffffff16905081600760006101000a81548173ffffffffffffffffffffffffffffffffffffffff021916908373ffffffffffffffffffffffffffffffffffffffff1602179055508173ffffffffffffffffffffffffffffffffffffffff168173ffffffffffffffffffffffffffffffffffffffff167f8be0079c531659141344cd1fd0a4f28419497f9722a3daafe3b4186f6b6457e060405160405180910390a35050565b8173ffffffffffffffffffffffffffffffffffffffff168373ffffffffffffffffffffffffffffffffffffffff16141561202c576040517f08c379a000000000000000000000000000000000000000000000000000000000815260040161202390613cd4565b60405180910390fd5b80600560008573ffffffffffffffffffffffffffffffffffffffff1673ffffffffffffffffffffffffffffffffffffffff16815260200190815260200160002060008473ffffffffffffffffffffffffffffffffffffffff1673ffffffffffffffffffffffffffffffffffffffff16815260200190815260200160002060006101000a81548160ff0219169083151502179055508173ffffffffffffffffffffffffffffffffffffffff168373ffffffffffffffffffffffffffffffffffffffff167f17307eab39ab6107e8899845ad3d59bd9653f200f220920489ca2b5937696c318360405161211d9190612b3a565b60405180910390a3505050565b612135848484611c90565b61214184848484612477565b612180576040517f08c379a000000000000000000000000000000000000000000000000000000000815260040161217790613d66565b60405180910390fd5b50505050565b606060405180602001604052806000815250905090565b60606121a8826117c8565b6121e7576040517f08c379a00000000000000000000000000000000000000000000000000000000081526004016121de90613df8565b60405180910390fd5b60006121f1612186565b90506000815111612211576040518060200160405280600081525061223c565b8061221b846125ff565b60405160200161222c92919061384f565b6040516020818303038152906040525b915050919050565b61224e8383612760565b61225b6000848484612477565b61229a576040517f08c379a000000000000000000000000000000000000000000000000000000000815260040161229190613d66565b60405180910390fd5b505050565b60008083905060018151146122b7576122b6613e18565b5b60008390505b855181101561236a57816000815181106122da576122d9613e47565b5b602001015160f81c60f81b7effffffffffffffffffffffffffffffffffffffffffffffffffffffffffffff191686828151811061231a57612319613e47565b5b602001015160f81c60f81b7effffffffffffffffffffffffffffffffffffffffffffffffffffffffffffff19161415612357578092505050612390565b808061236290613738565b9150506122bd565b507fffffffffffffffffffffffffffffffffffffffffffffffffffffffffffffffff9150505b9392505050565b6000806000905060005b83518110156124635760008482815181106123bf576123be613e47565b5b602001015160f81c60f81b60f81c60ff169050603081101580156123e4575060398111155b15612414576030816123f69190613a03565b600a846124039190613e76565b61240d9190613a7c565b925061244f565b6040517f08c379a000000000000000000000000000000000000000000000000000000000815260040161244690613f42565b60405180910390fd5b50808061245b90613738565b9150506123a1565b5080915050919050565b505050565b505050565b60006124988473ffffffffffffffffffffffffffffffffffffffff1661293a565b156125f2578373ffffffffffffffffffffffffffffffffffffffff1663150b7a026124c1611834565b8786866040518563ffffffff1660e01b81526004016124e39493929190613f62565b6020604051808303816000875af192505050801561251f57506040513d601f19601f8201168201806040525081019061251c9190613fc3565b60015b6125a2573d806000811461254f576040519150601f19603f3d011682016040523d82523d6000602084013e612554565b606091505b5060008151141561259a576040517f08c379a000000000000000000000000000000000000000000000000000000000815260040161259190613d66565b60405180910390fd5b805181602001fd5b63150b7a0260e01b7bffffffffffffffffffffffffffffffffffffffffffffffffffffffff1916817bffffffffffffffffffffffffffffffffffffffffffffffffffffffff1916149150506125f7565b600190505b949350505050565b60606000821415612647576040518060400160405280600181526020017f3000000000000000000000000000000000000000000000000000000000000000815250905061275b565b600082905060005b6000821461267957808061266290613738565b915050600a82612672919061401f565b915061264f565b60008167ffffffffffffffff81111561269557612694612fa6565b5b6040519080825280601f01601f1916602001820160405280156126c75781602001600182028036833780820191505090505b5090505b60008514612754576001826126e09190613a03565b9150600a856126ef9190614050565b60306126fb9190613a7c565b60f81b81838151811061271157612710613e47565b5b60200101907effffffffffffffffffffffffffffffffffffffffffffffffffffffffffffff1916908160001a905350600a8561274d919061401f565b94506126cb565b8093505050505b919050565b600073ffffffffffffffffffffffffffffffffffffffff168273ffffffffffffffffffffffffffffffffffffffff1614156127d0576040517f08c379a00000000000000000000000000000000000000000000000000000000081526004016127c7906140cd565b60405180910390fd5b6127d9816117c8565b15612819576040517f08c379a000000000000000000000000000000000000000000000000000000000815260040161281090614139565b60405180910390fd5b6128256000838361246d565b6001600360008473ffffffffffffffffffffffffffffffffffffffff1673ffffffffffffffffffffffffffffffffffffffff16815260200190815260200160002060008282546128759190613a7c565b92505081905550816002600083815260200190815260200160002060006101000a81548173ffffffffffffffffffffffffffffffffffffffff021916908373ffffffffffffffffffffffffffffffffffffffff160217905550808273ffffffffffffffffffffffffffffffffffffffff16600073ffffffffffffffffffffffffffffffffffffffff167fddf252ad1be2c89b69c2b068fc378daa952ba7f163c4a11628f55a4df523b3ef60405160405180910390a461293660008383612472565b5050565b6000808273ffffffffffffffffffffffffffffffffffffffff163b119050919050565b828054612969906131c3565b90600052602060002090601f01602090048101928261298b57600085556129d2565b82601f106129a457805160ff19168380011785556129d2565b828001600101855582156129d2579182015b828111156129d15782518255916020019190600101906129b6565b5b5090506129df9190612a69565b5090565b8280546129ef906131c3565b90600052602060002090601f016020900481019282612a115760008555612a58565b82601f10612a2a57805160ff1916838001178555612a58565b82800160010185558215612a58579182015b82811115612a57578251825591602001919060010190612a3c565b5b509050612a659190612a69565b5090565b5b80821115612a82576000816000905550600101612a6a565b5090565b6000604051905090565b600080fd5b600080fd5b60007fffffffff0000000000000000000000000000000000000000000000000000000082169050919050565b612acf81612a9a565b8114612ada57600080fd5b50565b600081359050612aec81612ac6565b92915050565b600060208284031215612b0857612b07612a90565b5b6000612b1684828501612add565b91505092915050565b60008115159050919050565b612b3481612b1f565b82525050565b6000602082019050612b4f6000830184612b2b565b92915050565b600081519050919050565b600082825260208201905092915050565b60005b83811015612b8f578082015181840152602081019050612b74565b83811115612b9e576000848401525b50505050565b6000601f19601f8301169050919050565b6000612bc082612b55565b612bca8185612b60565b9350612bda818560208601612b71565b612be381612ba4565b840191505092915050565b60006020820190508181036000830152612c088184612bb5565b905092915050565b6000819050919050565b612c2381612c10565b8114612c2e57600080fd5b50565b600081359050612c4081612c1a565b92915050565b600060208284031215612c5c57612c5b612a90565b5b6000612c6a84828501612c31565b91505092915050565b600073ffffffffffffffffffffffffffffffffffffffff82169050919050565b6000612c9e82612c73565b9050919050565b612cae81612c93565b82525050565b6000602082019050612cc96000830184612ca5565b92915050565b612cd881612c93565b8114612ce357600080fd5b50565b600081359050612cf581612ccf565b92915050565b60008060408385031215612d1257612d11612a90565b5b6000612d2085828601612ce6565b9250506020612d3185828601612c31565b9150509250929050565b600060208284031215612d5157612d50612a90565b5b6000612d5f84828501612ce6565b91505092915050565b600080fd5b600080fd5b600080fd5b60008083601f840112612d8d57612d8c612d68565b5b8235905067ffffffffffffffff811115612daa57612da9612d6d565b5b602083019150836001820283011115612dc657612dc5612d72565b5b9250929050565b60008060008060608587031215612de757612de6612a90565b5b6000612df587828801612ce6565b9450506020612e0687828801612c31565b935050604085013567ffffffffffffffff811115612e2757612e26612a95565b5b612e3387828801612d77565b925092505092959194509250565b600080600060608486031215612e5a57612e59612a90565b5b6000612e6886828701612ce6565b9350506020612e7986828701612ce6565b9250506040612e8a86828701612c31565b9150509250925092565b600081519050919050565b600082825260208201905092915050565b6000612ebb82612e94565b612ec58185612e9f565b9350612ed5818560208601612b71565b612ede81612ba4565b840191505092915050565b60006020820190508181036000830152612f038184612eb0565b905092915050565b612f1481612c10565b82525050565b6000602082019050612f2f6000830184612f0b565b92915050565b612f3e81612b1f565b8114612f4957600080fd5b50565b600081359050612f5b81612f35565b92915050565b60008060408385031215612f7857612f77612a90565b5b6000612f8685828601612ce6565b9250506020612f9785828601612f4c565b9150509250929050565b600080fd5b7f4e487b7100000000000000000000000000000000000000000000000000000000600052604160045260246000fd5b612fde82612ba4565b810181811067ffffffffffffffff82111715612ffd57612ffc612fa6565b5b80604052505050565b6000613010612a86565b905061301c8282612fd5565b919050565b600067ffffffffffffffff82111561303c5761303b612fa6565b5b61304582612ba4565b9050602081019050919050565b82818337600083830152505050565b600061307461306f84613021565b613006565b9050828152602081018484840111156130905761308f612fa1565b5b61309b848285613052565b509392505050565b600082601f8301126130b8576130b7612d68565b5b81356130c8848260208601613061565b91505092915050565b600080600080608085870312156130eb576130ea612a90565b5b60006130f987828801612ce6565b945050602061310a87828801612ce6565b935050604061311b87828801612c31565b925050606085013567ffffffffffffffff81111561313c5761313b612a95565b5b613148878288016130a3565b91505092959194509250565b6000806040838503121561316b5761316a612a90565b5b600061317985828601612ce6565b925050602061318a85828601612ce6565b9150509250929050565b7f4e487b7100000000000000000000000000000000000000000000000000000000600052602260045260246000fd5b600060028204905060018216806131db57607f821691505b602082108114156131ef576131ee613194565b5b50919050565b7f4552433732313a20617070726f76656420717565727920666f72206e6f6e657860008201527f697374656e7420746f6b656e0000000000000000000000000000000000000000602082015250565b6000613251602c83612b60565b915061325c826131f5565b604082019050919050565b6000602082019050818103600083015261328081613244565b9050919050565b7f4552433732313a20617070726f76616c20746f2063757272656e74206f776e6560008201527f7200000000000000000000000000000000000000000000000000000000000000602082015250565b60006132e3602183612b60565b91506132ee82613287565b604082019050919050565b60006020820190508181036000830152613312816132d6565b9050919050565b7f4552433732313a20617070726f76652063616c6c6572206973206e6f74206f7760008201527f6e6572206e6f7220617070726f76656420666f7220616c6c0000000000000000602082015250565b6000613375603883612b60565b915061338082613319565b604082019050919050565b600060208201905081810360008301526133a481613368565b9050919050565b7f46756e6374696f6e2063616e206f6e6c792062652063616c6c6564206279206f60008201527f776e6572206f7220494d58000000000000000000000000000000000000000000602082015250565b6000613407602b83612b60565b9150613412826133ab565b604082019050919050565b60006020820190508181036000830152613436816133fa565b9050919050565b7f4d696e7461626c653a20696e76616c6964207175616e74697479000000000000600082015250565b6000613473601a83612b60565b915061347e8261343d565b602082019050919050565b600060208201905081810360008301526134a281613466565b9050919050565b60006060820190506134be6000830186612ca5565b6134cb6020830185612f0b565b81810360408301526134dd8184612eb0565b9050949350505050565b7f4552433732313a207472616e736665722063616c6c6572206973206e6f74206f60008201527f776e6572206e6f7220617070726f766564000000000000000000000000000000602082015250565b6000613543603183612b60565b915061354e826134e7565b604082019050919050565b6000602082019050818103600083015261357281613536565b9050919050565b7f4552433732313a206f776e657220717565727920666f72206e6f6e657869737460008201527f656e7420746f6b656e0000000000000000000000000000000000000000000000602082015250565b60006135d5602983612b60565b91506135e082613579565b604082019050919050565b60006020820190508181036000830152613604816135c8565b9050919050565b7f4552433732313a2062616c616e636520717565727920666f7220746865207a6560008201527f726f206164647265737300000000000000000000000000000000000000000000602082015250565b6000613667602a83612b60565b91506136728261360b565b604082019050919050565b600060208201905081810360008301526136968161365a565b9050919050565b7f4f776e61626c653a2063616c6c6572206973206e6f7420746865206f776e6572600082015250565b60006136d3602083612b60565b91506136de8261369d565b602082019050919050565b60006020820190508181036000830152613702816136c6565b9050919050565b7f4e487b7100000000000000000000000000000000000000000000000000000000600052601160045260246000fd5b600061374382612c10565b91507fffffffffffffffffffffffffffffffffffffffffffffffffffffffffffffffff82141561377657613775613709565b5b600182019050919050565b7f45524337323155524953746f726167653a2055524920717565727920666f722060008201527f6e6f6e6578697374656e7420746f6b656e000000000000000000000000000000602082015250565b60006137dd603183612b60565b91506137e882613781565b604082019050919050565b6000602082019050818103600083015261380c816137d0565b9050919050565b600081905092915050565b600061382982612b55565b6138338185613813565b9350613843818560208601612b71565b80840191505092915050565b600061385b828561381e565b9150613867828461381e565b91508190509392505050565b7f4f776e61626c653a206e6577206f776e657220697320746865207a65726f206160008201527f6464726573730000000000000000000000000000000000000000000000000000602082015250565b60006138cf602683612b60565b91506138da82613873565b604082019050919050565b600060208201905081810360008301526138fe816138c2565b9050919050565b7f45524337323155524953746f726167653a2055524920736574206f66206e6f6e60008201527f6578697374656e7420746f6b656e000000000000000000000000000000000000602082015250565b6000613961602e83612b60565b915061396c82613905565b604082019050919050565b6000602082019050818103600083015261399081613954565b9050919050565b7f536570617261746f72206d757374206578697374000000000000000000000000600082015250565b60006139cd601483612b60565b91506139d882613997565b602082019050919050565b600060208201905081810360008301526139fc816139c0565b9050919050565b6000613a0e82612c10565b9150613a1983612c10565b925082821015613a2c57613a2b613709565b5b828203905092915050565b600080fd5b600080fd5b60008085851115613a5557613a54613a37565b5b83861115613a6657613a65613a3c565b5b6001850283019150848603905094509492505050565b6000613a8782612c10565b9150613a9283612c10565b9250827fffffffffffffffffffffffffffffffffffffffffffffffffffffffffffffffff03821115613ac757613ac6613709565b5b828201905092915050565b7f4552433732313a206f70657261746f7220717565727920666f72206e6f6e657860008201527f697374656e7420746f6b656e0000000000000000000000000000000000000000602082015250565b6000613b2e602c83612b60565b9150613b3982613ad2565b604082019050919050565b60006020820190508181036000830152613b5d81613b21565b9050919050565b7f4552433732313a207472616e736665722066726f6d20696e636f72726563742060008201527f6f776e6572000000000000000000000000000000000000000000000000000000602082015250565b6000613bc0602583612b60565b9150613bcb82613b64565b604082019050919050565b60006020820190508181036000830152613bef81613bb3565b9050919050565b7f4552433732313a207472616e7366657220746f20746865207a65726f2061646460008201527f7265737300000000000000000000000000000000000000000000000000000000602082015250565b6000613c52602483612b60565b9150613c5d82613bf6565b604082019050919050565b60006020820190508181036000830152613c8181613c45565b9050919050565b7f4552433732313a20617070726f766520746f2063616c6c657200000000000000600082015250565b6000613cbe601983612b60565b9150613cc982613c88565b602082019050919050565b60006020820190508181036000830152613ced81613cb1565b9050919050565b7f4552433732313a207472616e7366657220746f206e6f6e20455243373231526560008201527f63656976657220696d706c656d656e7465720000000000000000000000000000602082015250565b6000613d50603283612b60565b9150613d5b82613cf4565b604082019050919050565b60006020820190508181036000830152613d7f81613d43565b9050919050565b7f4552433732314d657461646174613a2055524920717565727920666f72206e6f60008201527f6e6578697374656e7420746f6b656e0000000000000000000000000000000000602082015250565b6000613de2602f83612b60565b9150613ded82613d86565b604082019050919050565b60006020820190508181036000830152613e1181613dd5565b9050919050565b7f4e487b7100000000000000000000000000000000000000000000000000000000600052600160045260246000fd5b7f4e487b7100000000000000000000000000000000000000000000000000000000600052603260045260246000fd5b6000613e8182612c10565b9150613e8c83612c10565b9250817fffffffffffffffffffffffffffffffffffffffffffffffffffffffffffffffff0483118215151615613ec557613ec4613709565b5b828202905092915050565b7f696e76616c696420696e7075742c206f6e6c79206e756d6265727320616c6c6f60008201527f7765640000000000000000000000000000000000000000000000000000000000602082015250565b6000613f2c602383612b60565b9150613f3782613ed0565b604082019050919050565b60006020820190508181036000830152613f5b81613f1f565b9050919050565b6000608082019050613f776000830187612ca5565b613f846020830186612ca5565b613f916040830185612f0b565b8181036060830152613fa38184612eb0565b905095945050505050565b600081519050613fbd81612ac6565b92915050565b600060208284031215613fd957613fd8612a90565b5b6000613fe784828501613fae565b91505092915050565b7f4e487b7100000000000000000000000000000000000000000000000000000000600052601260045260246000fd5b600061402a82612c10565b915061403583612c10565b92508261404557614044613ff0565b5b828204905092915050565b600061405b82612c10565b915061406683612c10565b92508261407657614075613ff0565b5b828206905092915050565b7f4552433732313a206d696e7420746f20746865207a65726f2061646472657373600082015250565b60006140b7602083612b60565b91506140c282614081565b602082019050919050565b600060208201905081810360008301526140e6816140aa565b9050919050565b7f4552433732313a20746f6b656e20616c7265616479206d696e74656400000000600082015250565b6000614123601c83612b60565b915061412e826140ed565b602082019050919050565b6000602082019050818103600083015261415281614116565b905091905056fea264697066735822122007d3580f29321d86ac6421e0b5927270ca92ddf909240fcb6be5ce7311026eee64736f6c634300080c003368747470733a2f2f697066732e696f2f697066732f62616679626569666d326276766666666973367471776c73347164346278747164676f32756f627762616c6c763778637a7233676f6135676c346d2f73696c7665722e6a706768747470733a2f2f697066732e696f2f697066732f62616679626569666d326276766666666973367471776c73347164346278747164676f32756f627762616c6c763778637a7233676f6135676c346d2f6c766c322e706e6768747470733a2f2f697066732e696f2f697066732f62616679626569666d326276766666666973367471776c73347164346278747164676f32756f627762616c6c763778637a7233676f6135676c346d2f676f6c642e6a706768747470733a2f2f697066732e696f2f697066732f62616679626569666d326276766666666973367471776c73347164346278747164676f32756f627762616c6c763778637a7233676f6135676c346d2f62726f6e7a652e6a706768747470733a2f2f697066732e696f2f697066732f62616679626569666d326276766666666973367471776c73347164346278747164676f32756f627762616c6c763778637a7233676f6135676c346d2f6c766c332e706e67",
  "immutableReferences": {},
  "source": "// SPDX-License-Identifier: MIT\npragma solidity >=0.4.0 <0.9.0;\n\nimport \"@openzeppelin/contracts/token/ERC721/ERC721.sol\";\nimport \"@imtbl/imx-contracts/contracts/Mintable.sol\";\nimport \"@openzeppelin/contracts/token/ERC721/extensions/ERC721URIStorage.sol\";\nimport \"@openzeppelin/contracts/utils/Counters.sol\";\n\ncontract Asset is ERC721URIStorage, Mintable {\n    using Counters for Counters.Counter;\n    Counters.Counter private _tokenIds;\n\n    string BronzeURI =\n        \"https://ipfs.io/ipfs/bafybeifm2bvvfffis6tqwls4qd4bxtqdgo2uobwballv7xczr3goa5gl4m/bronze.jpg\";\n    string GoldURI =\n        \"https://ipfs.io/ipfs/bafybeifm2bvvfffis6tqwls4qd4bxtqdgo2uobwballv7xczr3goa5gl4m/gold.jpg\";\n    string SilverURI =\n        \"https://ipfs.io/ipfs/bafybeifm2bvvfffis6tqwls4qd4bxtqdgo2uobwballv7xczr3goa5gl4m/silver.jpg\";\n    string lvl2URI =\n        \"https://ipfs.io/ipfs/bafybeifm2bvvfffis6tqwls4qd4bxtqdgo2uobwballv7xczr3goa5gl4m/lvl2.png\";\n    string lvl3URI =\n        \"https://ipfs.io/ipfs/bafybeifm2bvvfffis6tqwls4qd4bxtqdgo2uobwballv7xczr3goa5gl4m/lvl3.png\";\n\n    mapping(address => bool) lvl2s;\n    mapping(address => bool) lvl3s;\n    mapping(address => uint256) bronzes;\n    mapping(address => uint256) golds;\n    mapping(address => uint256) silvers;\n\n    constructor(\n        address _owner,\n        string memory _name,\n        string memory _symbol,\n        address _imx\n    ) ERC721(_name, _symbol) Mintable(_owner, _imx) {}\n\n    function _mintFor(\n        address player,\n        uint256 id,\n        bytes memory blueprint\n    ) internal override {\n        _safeMint(player, id, blueprint);\n    }\n\n    //*** MODIFIERS */\n\n    modifier level2(address player) {\n        require(lvl2s[player]);\n        _;\n    }\n\n    modifier level3(address player) {\n        require(lvl3s[player]);\n        _;\n    }\n\n    modifier enoughForLvl2(address player) {\n        require(bronzes[player] == 10);\n        _;\n    }\n\n    modifier enoughForLvl3(address player) {\n        require(bronzes[player] == 20);\n        require(silvers[player] == 10);\n        _;\n    }\n\n    //*** IN-GAME STUFF */\n    function awardBronze(address player) public {\n        uint256 newItemId = _tokenIds.current();\n\n        _tokenIds.increment();\n        _mintFor(player, newItemId, \"\");\n        _setTokenURI(newItemId, BronzeURI);\n\n        bronzes[player]++;\n    }\n\n    function awardGold(address player) public level3(player) {\n        uint256 newItemId = _tokenIds.current();\n\n        _tokenIds.increment();\n        _mintFor(player, newItemId, \"\");\n        _setTokenURI(newItemId, GoldURI);\n\n        golds[player]++;\n    }\n\n    function awardSilver(address player) public level2(player) {\n        uint256 newItemId = _tokenIds.current();\n\n        _tokenIds.increment();\n        _mintFor(player, newItemId, \"\");\n        _setTokenURI(newItemId, SilverURI);\n\n        silvers[player]++;\n    }\n\n    function lvl2Achieve(address player) public enoughForLvl2(player) {\n        uint256 newItemId = _tokenIds.current();\n\n        _tokenIds.increment();\n        _mintFor(player, newItemId, \"\");\n        _setTokenURI(newItemId, lvl2URI);\n\n        lvl2s[player] = true;\n    }\n\n    function lvl3Achieve(address player) public enoughForLvl2(player) {\n        uint256 newItemId = _tokenIds.current();\n\n        _tokenIds.increment();\n        _mintFor(player, newItemId, \"\");\n        _setTokenURI(newItemId, lvl3URI);\n\n        lvl3s[player] = true;\n    }\n}\n",
  "sourcePath": "/Users/emilsharafutdinov/Desktop/Work/SR3/Wrdl3/contracts/Asset.sol",
  "compiler": {
    "name": "solc",
    "version": "0.8.12+commit.f00d7308.Emscripten.clang"
  },
  "schemaVersion": "3.4.4",
  "updatedAt": "2022-03-06T18:50:55.026Z",
  "devdoc": {
    "kind": "dev",
    "methods": {
      "approve(address,uint256)": {
        "details": "See {IERC721-approve}."
      },
      "balanceOf(address)": {
        "details": "See {IERC721-balanceOf}."
      },
      "getApproved(uint256)": {
        "details": "See {IERC721-getApproved}."
      },
      "isApprovedForAll(address,address)": {
        "details": "See {IERC721-isApprovedForAll}."
      },
      "name()": {
        "details": "See {IERC721Metadata-name}."
      },
      "owner()": {
        "details": "Returns the address of the current owner."
      },
      "ownerOf(uint256)": {
        "details": "See {IERC721-ownerOf}."
      },
      "renounceOwnership()": {
        "details": "Leaves the contract without owner. It will not be possible to call `onlyOwner` functions anymore. Can only be called by the current owner. NOTE: Renouncing ownership will leave the contract without an owner, thereby removing any functionality that is only available to the owner."
      },
      "safeTransferFrom(address,address,uint256)": {
        "details": "See {IERC721-safeTransferFrom}."
      },
      "safeTransferFrom(address,address,uint256,bytes)": {
        "details": "See {IERC721-safeTransferFrom}."
      },
      "setApprovalForAll(address,bool)": {
        "details": "See {IERC721-setApprovalForAll}."
      },
      "supportsInterface(bytes4)": {
        "details": "See {IERC165-supportsInterface}."
      },
      "symbol()": {
        "details": "See {IERC721Metadata-symbol}."
      },
      "tokenURI(uint256)": {
        "details": "See {IERC721Metadata-tokenURI}."
      },
      "transferFrom(address,address,uint256)": {
        "details": "See {IERC721-transferFrom}."
      },
      "transferOwnership(address)": {
        "details": "Transfers ownership of the contract to a new account (`newOwner`). Can only be called by the current owner."
      }
    },
    "version": 1
  },
  "userdoc": {
    "kind": "user",
    "methods": {},
    "version": 1
  }
}