{
  "contractName": "GameItem",
  "abi": [
    {
      "inputs": [],
      "stateMutability": "nonpayable",
      "type": "constructor"
    },
    {
      "anonymous": false,
      "inputs": [
        {
          "indexed": true,
          "internalType": "address",
          "name": "owner",
          "type": "address"
        },
        {
          "indexed": true,
          "internalType": "address",
          "name": "approved",
          "type": "address"
        },
        {
          "indexed": true,
          "internalType": "uint256",
          "name": "tokenId",
          "type": "uint256"
        }
      ],
      "name": "Approval",
      "type": "event"
    },
    {
      "anonymous": false,
      "inputs": [
        {
          "indexed": true,
          "internalType": "address",
          "name": "owner",
          "type": "address"
        },
        {
          "indexed": true,
          "internalType": "address",
          "name": "operator",
          "type": "address"
        },
        {
          "indexed": false,
          "internalType": "bool",
          "name": "approved",
          "type": "bool"
        }
      ],
      "name": "ApprovalForAll",
      "type": "event"
    },
    {
      "anonymous": false,
      "inputs": [
        {
          "indexed": true,
          "internalType": "address",
          "name": "from",
          "type": "address"
        },
        {
          "indexed": true,
          "internalType": "address",
          "name": "to",
          "type": "address"
        },
        {
          "indexed": true,
          "internalType": "uint256",
          "name": "tokenId",
          "type": "uint256"
        }
      ],
      "name": "Transfer",
      "type": "event"
    },
    {
      "inputs": [
        {
          "internalType": "address",
          "name": "to",
          "type": "address"
        },
        {
          "internalType": "uint256",
          "name": "tokenId",
          "type": "uint256"
        }
      ],
      "name": "approve",
      "outputs": [],
      "stateMutability": "nonpayable",
      "type": "function"
    },
    {
      "inputs": [
        {
          "internalType": "address",
          "name": "owner",
          "type": "address"
        }
      ],
      "name": "balanceOf",
      "outputs": [
        {
          "internalType": "uint256",
          "name": "",
          "type": "uint256"
        }
      ],
      "stateMutability": "view",
      "type": "function"
    },
    {
      "inputs": [],
      "name": "collectionURI",
      "outputs": [
        {
          "internalType": "string",
          "name": "",
          "type": "string"
        }
      ],
      "stateMutability": "view",
      "type": "function"
    },
    {
      "inputs": [
        {
          "internalType": "uint256",
          "name": "tokenId",
          "type": "uint256"
        }
      ],
      "name": "getApproved",
      "outputs": [
        {
          "internalType": "address",
          "name": "",
          "type": "address"
        }
      ],
      "stateMutability": "view",
      "type": "function"
    },
    {
      "inputs": [
        {
          "internalType": "address",
          "name": "owner",
          "type": "address"
        },
        {
          "internalType": "address",
          "name": "operator",
          "type": "address"
        }
      ],
      "name": "isApprovedForAll",
      "outputs": [
        {
          "internalType": "bool",
          "name": "",
          "type": "bool"
        }
      ],
      "stateMutability": "view",
      "type": "function"
    },
    {
      "inputs": [],
      "name": "name",
      "outputs": [
        {
          "internalType": "string",
          "name": "",
          "type": "string"
        }
      ],
      "stateMutability": "view",
      "type": "function"
    },
    {
      "inputs": [
        {
          "internalType": "uint256",
          "name": "tokenId",
          "type": "uint256"
        }
      ],
      "name": "ownerOf",
      "outputs": [
        {
          "internalType": "address",
          "name": "",
          "type": "address"
        }
      ],
      "stateMutability": "view",
      "type": "function"
    },
    {
      "inputs": [
        {
          "internalType": "address",
          "name": "from",
          "type": "address"
        },
        {
          "internalType": "address",
          "name": "to",
          "type": "address"
        },
        {
          "internalType": "uint256",
          "name": "tokenId",
          "type": "uint256"
        }
      ],
      "name": "safeTransferFrom",
      "outputs": [],
      "stateMutability": "nonpayable",
      "type": "function"
    },
    {
      "inputs": [
        {
          "internalType": "address",
          "name": "from",
          "type": "address"
        },
        {
          "internalType": "address",
          "name": "to",
          "type": "address"
        },
        {
          "internalType": "uint256",
          "name": "tokenId",
          "type": "uint256"
        },
        {
          "internalType": "bytes",
          "name": "_data",
          "type": "bytes"
        }
      ],
      "name": "safeTransferFrom",
      "outputs": [],
      "stateMutability": "nonpayable",
      "type": "function"
    },
    {
      "inputs": [
        {
          "internalType": "address",
          "name": "operator",
          "type": "address"
        },
        {
          "internalType": "bool",
          "name": "approved",
          "type": "bool"
        }
      ],
      "name": "setApprovalForAll",
      "outputs": [],
      "stateMutability": "nonpayable",
      "type": "function"
    },
    {
      "inputs": [
        {
          "internalType": "bytes4",
          "name": "interfaceId",
          "type": "bytes4"
        }
      ],
      "name": "supportsInterface",
      "outputs": [
        {
          "internalType": "bool",
          "name": "",
          "type": "bool"
        }
      ],
      "stateMutability": "view",
      "type": "function"
    },
    {
      "inputs": [],
      "name": "symbol",
      "outputs": [
        {
          "internalType": "string",
          "name": "",
          "type": "string"
        }
      ],
      "stateMutability": "view",
      "type": "function"
    },
    {
      "inputs": [
        {
          "internalType": "uint256",
          "name": "tokenId",
          "type": "uint256"
        }
      ],
      "name": "tokenURI",
      "outputs": [
        {
          "internalType": "string",
          "name": "",
          "type": "string"
        }
      ],
      "stateMutability": "view",
      "type": "function"
    },
    {
      "inputs": [
        {
          "internalType": "address",
          "name": "from",
          "type": "address"
        },
        {
          "internalType": "address",
          "name": "to",
          "type": "address"
        },
        {
          "internalType": "uint256",
          "name": "tokenId",
          "type": "uint256"
        }
      ],
      "name": "transferFrom",
      "outputs": [],
      "stateMutability": "nonpayable",
      "type": "function"
    },
    {
      "inputs": [
        {
          "internalType": "address",
          "name": "player",
          "type": "address"
        },
        {
          "internalType": "string",
          "name": "_word",
          "type": "string"
        }
      ],
      "name": "awardWord",
      "outputs": [
        {
          "internalType": "uint256",
          "name": "",
          "type": "uint256"
        }
      ],
      "stateMutability": "nonpayable",
      "type": "function"
    },
    {
      "inputs": [
        {
          "internalType": "string",
          "name": "_newURI",
          "type": "string"
        }
      ],
      "name": "changeCollectionURI",
      "outputs": [],
      "stateMutability": "nonpayable",
      "type": "function"
    }
  ],
  "bytecode": "0x60806040526040518060400160405280601b81526020017f68747470733a2f2f697066732e696f2f697066732f7b484153487d0000000000815250600790805190602001906200005192919062000147565b503480156200005f57600080fd5b506040518060400160405280600581526020017f5772646c330000000000000000000000000000000000000000000000000000008152506040518060400160405280600481526020017f574f5244000000000000000000000000000000000000000000000000000000008152508160009080519060200190620000e492919062000147565b508060019080519060200190620000fd92919062000147565b50505033600860006101000a81548173ffffffffffffffffffffffffffffffffffffffff021916908373ffffffffffffffffffffffffffffffffffffffff1602179055506200025c565b828054620001559062000226565b90600052602060002090601f016020900481019282620001795760008555620001c5565b82601f106200019457805160ff1916838001178555620001c5565b82800160010185558215620001c5579182015b82811115620001c4578251825591602001919060010190620001a7565b5b509050620001d49190620001d8565b5090565b5b80821115620001f3576000816000905550600101620001d9565b5090565b7f4e487b7100000000000000000000000000000000000000000000000000000000600052602260045260246000fd5b600060028204905060018216806200023f57607f821691505b60208210811415620002565762000255620001f7565b5b50919050565b612e4a806200026c6000396000f3fe608060405234801561001057600080fd5b50600436106101005760003560e01c806395d89b4111610097578063c87b56dd11610066578063c87b56dd146102ab578063e38c1f6d146102db578063e985e9c5146102f7578063ecc0eb461461032757610100565b806395d89b4114610237578063a22cb46514610255578063a5097ebf14610271578063b88d4fde1461028f57610100565b806323b872dd116100d357806323b872dd1461019f57806342842e0e146101bb5780636352211e146101d757806370a082311461020757610100565b806301ffc9a71461010557806306fdde0314610135578063081812fc14610153578063095ea7b314610183575b600080fd5b61011f600480360381019061011a9190611a97565b610357565b60405161012c9190611adf565b60405180910390f35b61013d610439565b60405161014a9190611b93565b60405180910390f35b61016d60048036038101906101689190611beb565b6104cb565b60405161017a9190611c59565b60405180910390f35b61019d60048036038101906101989190611ca0565b610550565b005b6101b960048036038101906101b49190611ce0565b610668565b005b6101d560048036038101906101d09190611ce0565b6106c8565b005b6101f160048036038101906101ec9190611beb565b6106e8565b6040516101fe9190611c59565b60405180910390f35b610221600480360381019061021c9190611d33565b61079a565b60405161022e9190611d6f565b60405180910390f35b61023f610852565b60405161024c9190611b93565b60405180910390f35b61026f600480360381019061026a9190611db6565b6108e4565b005b6102796108fa565b6040516102869190611b93565b60405180910390f35b6102a960048036038101906102a49190611f2b565b610988565b005b6102c560048036038101906102c09190611beb565b6109ea565b6040516102d29190611b93565b60405180910390f35b6102f560048036038101906102f0919061204f565b610b3c565b005b610311600480360381019061030c9190612098565b610bb0565b60405161031e9190611adf565b60405180910390f35b610341600480360381019061033c91906120d8565b610c44565b60405161034e9190611d6f565b60405180910390f35b60007f80ac58cd000000000000000000000000000000000000000000000000000000007bffffffffffffffffffffffffffffffffffffffffffffffffffffffff1916827bffffffffffffffffffffffffffffffffffffffffffffffffffffffff1916148061042257507f5b5e139f000000000000000000000000000000000000000000000000000000007bffffffffffffffffffffffffffffffffffffffffffffffffffffffff1916827bffffffffffffffffffffffffffffffffffffffffffffffffffffffff1916145b80610432575061043182610cc1565b5b9050919050565b60606000805461044890612163565b80601f016020809104026020016040519081016040528092919081815260200182805461047490612163565b80156104c15780601f10610496576101008083540402835291602001916104c1565b820191906000526020600020905b8154815290600101906020018083116104a457829003601f168201915b5050505050905090565b60006104d682610d2b565b610515576040517f08c379a000000000000000000000000000000000000000000000000000000000815260040161050c90612207565b60405180910390fd5b6004600083815260200190815260200160002060009054906101000a900473ffffffffffffffffffffffffffffffffffffffff169050919050565b600061055b826106e8565b90508073ffffffffffffffffffffffffffffffffffffffff168373ffffffffffffffffffffffffffffffffffffffff1614156105cc576040517f08c379a00000000000000000000000000000000000000000000000000000000081526004016105c390612299565b60405180910390fd5b8073ffffffffffffffffffffffffffffffffffffffff166105eb610d97565b73ffffffffffffffffffffffffffffffffffffffff16148061061a575061061981610614610d97565b610bb0565b5b610659576040517f08c379a00000000000000000000000000000000000000000000000000000000081526004016106509061232b565b60405180910390fd5b6106638383610d9f565b505050565b610679610673610d97565b82610e58565b6106b8576040517f08c379a00000000000000000000000000000000000000000000000000000000081526004016106af906123bd565b60405180910390fd5b6106c3838383610f36565b505050565b6106e383838360405180602001604052806000815250610988565b505050565b6000806002600084815260200190815260200160002060009054906101000a900473ffffffffffffffffffffffffffffffffffffffff169050600073ffffffffffffffffffffffffffffffffffffffff168173ffffffffffffffffffffffffffffffffffffffff161415610791576040517f08c379a00000000000000000000000000000000000000000000000000000000081526004016107889061244f565b60405180910390fd5b80915050919050565b60008073ffffffffffffffffffffffffffffffffffffffff168273ffffffffffffffffffffffffffffffffffffffff16141561080b576040517f08c379a0000000000000000000000000000000000000000000000000000000008152600401610802906124e1565b60405180910390fd5b600360008373ffffffffffffffffffffffffffffffffffffffff1673ffffffffffffffffffffffffffffffffffffffff168152602001908152602001600020549050919050565b60606001805461086190612163565b80601f016020809104026020016040519081016040528092919081815260200182805461088d90612163565b80156108da5780601f106108af576101008083540402835291602001916108da565b820191906000526020600020905b8154815290600101906020018083116108bd57829003601f168201915b5050505050905090565b6108f66108ef610d97565b838361119d565b5050565b6007805461090790612163565b80601f016020809104026020016040519081016040528092919081815260200182805461093390612163565b80156109805780601f1061095557610100808354040283529160200191610980565b820191906000526020600020905b81548152906001019060200180831161096357829003601f168201915b505050505081565b610999610993610d97565b83610e58565b6109d8576040517f08c379a00000000000000000000000000000000000000000000000000000000081526004016109cf906123bd565b60405180910390fd5b6109e48484848461130a565b50505050565b60606109f582610d2b565b610a34576040517f08c379a0000000000000000000000000000000000000000000000000000000008152600401610a2b90612573565b60405180910390fd5b6000600660008481526020019081526020016000208054610a5490612163565b80601f0160208091040260200160405190810160405280929190818152602001828054610a8090612163565b8015610acd5780601f10610aa257610100808354040283529160200191610acd565b820191906000526020600020905b815481529060010190602001808311610ab057829003601f168201915b505050505090506000610ade611366565b9050600081511415610af4578192505050610b37565b600082511115610b29578082604051602001610b119291906125cf565b60405160208183030381529060405292505050610b37565b610b328461137d565b925050505b919050565b600860009054906101000a900473ffffffffffffffffffffffffffffffffffffffff1673ffffffffffffffffffffffffffffffffffffffff163373ffffffffffffffffffffffffffffffffffffffff1614610b9657600080fd5b8060079080519060200190610bac929190611988565b5050565b6000600560008473ffffffffffffffffffffffffffffffffffffffff1673ffffffffffffffffffffffffffffffffffffffff16815260200190815260200160002060008373ffffffffffffffffffffffffffffffffffffffff1673ffffffffffffffffffffffffffffffffffffffff16815260200190815260200160002060009054906101000a900460ff16905092915050565b60008082604051602001610c589190611b93565b6040516020818303038152906040528051906020012060001c905060006007610c8083611424565b604051602001610c91929190612688565b6040516020818303038152906040529050610cac8583611585565b610cb6828261175f565b819250505092915050565b60007f01ffc9a7000000000000000000000000000000000000000000000000000000007bffffffffffffffffffffffffffffffffffffffffffffffffffffffff1916827bffffffffffffffffffffffffffffffffffffffffffffffffffffffff1916149050919050565b60008073ffffffffffffffffffffffffffffffffffffffff166002600084815260200190815260200160002060009054906101000a900473ffffffffffffffffffffffffffffffffffffffff1673ffffffffffffffffffffffffffffffffffffffff1614159050919050565b600033905090565b816004600083815260200190815260200160002060006101000a81548173ffffffffffffffffffffffffffffffffffffffff021916908373ffffffffffffffffffffffffffffffffffffffff160217905550808273ffffffffffffffffffffffffffffffffffffffff16610e12836106e8565b73ffffffffffffffffffffffffffffffffffffffff167f8c5be1e5ebec7d5bd14f71427d1e84f3dd0314c0f7b2291e5b200ac8c7c3b92560405160405180910390a45050565b6000610e6382610d2b565b610ea2576040517f08c379a0000000000000000000000000000000000000000000000000000000008152600401610e9990612731565b60405180910390fd5b6000610ead836106e8565b90508073ffffffffffffffffffffffffffffffffffffffff168473ffffffffffffffffffffffffffffffffffffffff161480610f1c57508373ffffffffffffffffffffffffffffffffffffffff16610f04846104cb565b73ffffffffffffffffffffffffffffffffffffffff16145b80610f2d5750610f2c8185610bb0565b5b91505092915050565b8273ffffffffffffffffffffffffffffffffffffffff16610f56826106e8565b73ffffffffffffffffffffffffffffffffffffffff1614610fac576040517f08c379a0000000000000000000000000000000000000000000000000000000008152600401610fa3906127c3565b60405180910390fd5b600073ffffffffffffffffffffffffffffffffffffffff168273ffffffffffffffffffffffffffffffffffffffff16141561101c576040517f08c379a000000000000000000000000000000000000000000000000000000000815260040161101390612855565b60405180910390fd5b6110278383836117d3565b611032600082610d9f565b6001600360008573ffffffffffffffffffffffffffffffffffffffff1673ffffffffffffffffffffffffffffffffffffffff168152602001908152602001600020600082825461108291906128a4565b925050819055506001600360008473ffffffffffffffffffffffffffffffffffffffff1673ffffffffffffffffffffffffffffffffffffffff16815260200190815260200160002060008282546110d991906128d8565b92505081905550816002600083815260200190815260200160002060006101000a81548173ffffffffffffffffffffffffffffffffffffffff021916908373ffffffffffffffffffffffffffffffffffffffff160217905550808273ffffffffffffffffffffffffffffffffffffffff168473ffffffffffffffffffffffffffffffffffffffff167fddf252ad1be2c89b69c2b068fc378daa952ba7f163c4a11628f55a4df523b3ef60405160405180910390a46111988383836117d8565b505050565b8173ffffffffffffffffffffffffffffffffffffffff168373ffffffffffffffffffffffffffffffffffffffff16141561120c576040517f08c379a00000000000000000000000000000000000000000000000000000000081526004016112039061297a565b60405180910390fd5b80600560008573ffffffffffffffffffffffffffffffffffffffff1673ffffffffffffffffffffffffffffffffffffffff16815260200190815260200160002060008473ffffffffffffffffffffffffffffffffffffffff1673ffffffffffffffffffffffffffffffffffffffff16815260200190815260200160002060006101000a81548160ff0219169083151502179055508173ffffffffffffffffffffffffffffffffffffffff168373ffffffffffffffffffffffffffffffffffffffff167f17307eab39ab6107e8899845ad3d59bd9653f200f220920489ca2b5937696c31836040516112fd9190611adf565b60405180910390a3505050565b611315848484610f36565b611321848484846117dd565b611360576040517f08c379a000000000000000000000000000000000000000000000000000000000815260040161135790612a0c565b60405180910390fd5b50505050565b606060405180602001604052806000815250905090565b606061138882610d2b565b6113c7576040517f08c379a00000000000000000000000000000000000000000000000000000000081526004016113be90612a9e565b60405180910390fd5b60006113d1611366565b905060008151116113f1576040518060200160405280600081525061141c565b806113fb84611424565b60405160200161140c9291906125cf565b6040516020818303038152906040525b915050919050565b6060600082141561146c576040518060400160405280600181526020017f30000000000000000000000000000000000000000000000000000000000000008152509050611580565b600082905060005b6000821461149e57808061148790612abe565b915050600a826114979190612b36565b9150611474565b60008167ffffffffffffffff8111156114ba576114b9611e00565b5b6040519080825280601f01601f1916602001820160405280156114ec5781602001600182028036833780820191505090505b5090505b600085146115795760018261150591906128a4565b9150600a856115149190612b67565b603061152091906128d8565b60f81b81838151811061153657611535612b98565b5b60200101907effffffffffffffffffffffffffffffffffffffffffffffffffffffffffffff1916908160001a905350600a856115729190612b36565b94506114f0565b8093505050505b919050565b600073ffffffffffffffffffffffffffffffffffffffff168273ffffffffffffffffffffffffffffffffffffffff1614156115f5576040517f08c379a00000000000000000000000000000000000000000000000000000000081526004016115ec90612c13565b60405180910390fd5b6115fe81610d2b565b1561163e576040517f08c379a000000000000000000000000000000000000000000000000000000000815260040161163590612c7f565b60405180910390fd5b61164a600083836117d3565b6001600360008473ffffffffffffffffffffffffffffffffffffffff1673ffffffffffffffffffffffffffffffffffffffff168152602001908152602001600020600082825461169a91906128d8565b92505081905550816002600083815260200190815260200160002060006101000a81548173ffffffffffffffffffffffffffffffffffffffff021916908373ffffffffffffffffffffffffffffffffffffffff160217905550808273ffffffffffffffffffffffffffffffffffffffff16600073ffffffffffffffffffffffffffffffffffffffff167fddf252ad1be2c89b69c2b068fc378daa952ba7f163c4a11628f55a4df523b3ef60405160405180910390a461175b600083836117d8565b5050565b61176882610d2b565b6117a7576040517f08c379a000000000000000000000000000000000000000000000000000000000815260040161179e90612d11565b60405180910390fd5b806006600084815260200190815260200160002090805190602001906117ce929190611988565b505050565b505050565b505050565b60006117fe8473ffffffffffffffffffffffffffffffffffffffff16611965565b15611958578373ffffffffffffffffffffffffffffffffffffffff1663150b7a02611827610d97565b8786866040518563ffffffff1660e01b81526004016118499493929190612d86565b6020604051808303816000875af192505050801561188557506040513d601f19601f820116820180604052508101906118829190612de7565b60015b611908573d80600081146118b5576040519150601f19603f3d011682016040523d82523d6000602084013e6118ba565b606091505b50600081511415611900576040517f08c379a00000000000000000000000000000000000000000000000000000000081526004016118f790612a0c565b60405180910390fd5b805181602001fd5b63150b7a0260e01b7bffffffffffffffffffffffffffffffffffffffffffffffffffffffff1916817bffffffffffffffffffffffffffffffffffffffffffffffffffffffff19161491505061195d565b600190505b949350505050565b6000808273ffffffffffffffffffffffffffffffffffffffff163b119050919050565b82805461199490612163565b90600052602060002090601f0160209004810192826119b657600085556119fd565b82601f106119cf57805160ff19168380011785556119fd565b828001600101855582156119fd579182015b828111156119fc5782518255916020019190600101906119e1565b5b509050611a0a9190611a0e565b5090565b5b80821115611a27576000816000905550600101611a0f565b5090565b6000604051905090565b600080fd5b600080fd5b60007fffffffff0000000000000000000000000000000000000000000000000000000082169050919050565b611a7481611a3f565b8114611a7f57600080fd5b50565b600081359050611a9181611a6b565b92915050565b600060208284031215611aad57611aac611a35565b5b6000611abb84828501611a82565b91505092915050565b60008115159050919050565b611ad981611ac4565b82525050565b6000602082019050611af46000830184611ad0565b92915050565b600081519050919050565b600082825260208201905092915050565b60005b83811015611b34578082015181840152602081019050611b19565b83811115611b43576000848401525b50505050565b6000601f19601f8301169050919050565b6000611b6582611afa565b611b6f8185611b05565b9350611b7f818560208601611b16565b611b8881611b49565b840191505092915050565b60006020820190508181036000830152611bad8184611b5a565b905092915050565b6000819050919050565b611bc881611bb5565b8114611bd357600080fd5b50565b600081359050611be581611bbf565b92915050565b600060208284031215611c0157611c00611a35565b5b6000611c0f84828501611bd6565b91505092915050565b600073ffffffffffffffffffffffffffffffffffffffff82169050919050565b6000611c4382611c18565b9050919050565b611c5381611c38565b82525050565b6000602082019050611c6e6000830184611c4a565b92915050565b611c7d81611c38565b8114611c8857600080fd5b50565b600081359050611c9a81611c74565b92915050565b60008060408385031215611cb757611cb6611a35565b5b6000611cc585828601611c8b565b9250506020611cd685828601611bd6565b9150509250929050565b600080600060608486031215611cf957611cf8611a35565b5b6000611d0786828701611c8b565b9350506020611d1886828701611c8b565b9250506040611d2986828701611bd6565b9150509250925092565b600060208284031215611d4957611d48611a35565b5b6000611d5784828501611c8b565b91505092915050565b611d6981611bb5565b82525050565b6000602082019050611d846000830184611d60565b92915050565b611d9381611ac4565b8114611d9e57600080fd5b50565b600081359050611db081611d8a565b92915050565b60008060408385031215611dcd57611dcc611a35565b5b6000611ddb85828601611c8b565b9250506020611dec85828601611da1565b9150509250929050565b600080fd5b600080fd5b7f4e487b7100000000000000000000000000000000000000000000000000000000600052604160045260246000fd5b611e3882611b49565b810181811067ffffffffffffffff82111715611e5757611e56611e00565b5b80604052505050565b6000611e6a611a2b565b9050611e768282611e2f565b919050565b600067ffffffffffffffff821115611e9657611e95611e00565b5b611e9f82611b49565b9050602081019050919050565b82818337600083830152505050565b6000611ece611ec984611e7b565b611e60565b905082815260208101848484011115611eea57611ee9611dfb565b5b611ef5848285611eac565b509392505050565b600082601f830112611f1257611f11611df6565b5b8135611f22848260208601611ebb565b91505092915050565b60008060008060808587031215611f4557611f44611a35565b5b6000611f5387828801611c8b565b9450506020611f6487828801611c8b565b9350506040611f7587828801611bd6565b925050606085013567ffffffffffffffff811115611f9657611f95611a3a565b5b611fa287828801611efd565b91505092959194509250565b600067ffffffffffffffff821115611fc957611fc8611e00565b5b611fd282611b49565b9050602081019050919050565b6000611ff2611fed84611fae565b611e60565b90508281526020810184848401111561200e5761200d611dfb565b5b612019848285611eac565b509392505050565b600082601f83011261203657612035611df6565b5b8135612046848260208601611fdf565b91505092915050565b60006020828403121561206557612064611a35565b5b600082013567ffffffffffffffff81111561208357612082611a3a565b5b61208f84828501612021565b91505092915050565b600080604083850312156120af576120ae611a35565b5b60006120bd85828601611c8b565b92505060206120ce85828601611c8b565b9150509250929050565b600080604083850312156120ef576120ee611a35565b5b60006120fd85828601611c8b565b925050602083013567ffffffffffffffff81111561211e5761211d611a3a565b5b61212a85828601612021565b9150509250929050565b7f4e487b7100000000000000000000000000000000000000000000000000000000600052602260045260246000fd5b6000600282049050600182168061217b57607f821691505b6020821081141561218f5761218e612134565b5b50919050565b7f4552433732313a20617070726f76656420717565727920666f72206e6f6e657860008201527f697374656e7420746f6b656e0000000000000000000000000000000000000000602082015250565b60006121f1602c83611b05565b91506121fc82612195565b604082019050919050565b60006020820190508181036000830152612220816121e4565b9050919050565b7f4552433732313a20617070726f76616c20746f2063757272656e74206f776e6560008201527f7200000000000000000000000000000000000000000000000000000000000000602082015250565b6000612283602183611b05565b915061228e82612227565b604082019050919050565b600060208201905081810360008301526122b281612276565b9050919050565b7f4552433732313a20617070726f76652063616c6c6572206973206e6f74206f7760008201527f6e6572206e6f7220617070726f76656420666f7220616c6c0000000000000000602082015250565b6000612315603883611b05565b9150612320826122b9565b604082019050919050565b6000602082019050818103600083015261234481612308565b9050919050565b7f4552433732313a207472616e736665722063616c6c6572206973206e6f74206f60008201527f776e6572206e6f7220617070726f766564000000000000000000000000000000602082015250565b60006123a7603183611b05565b91506123b28261234b565b604082019050919050565b600060208201905081810360008301526123d68161239a565b9050919050565b7f4552433732313a206f776e657220717565727920666f72206e6f6e657869737460008201527f656e7420746f6b656e0000000000000000000000000000000000000000000000602082015250565b6000612439602983611b05565b9150612444826123dd565b604082019050919050565b600060208201905081810360008301526124688161242c565b9050919050565b7f4552433732313a2062616c616e636520717565727920666f7220746865207a6560008201527f726f206164647265737300000000000000000000000000000000000000000000602082015250565b60006124cb602a83611b05565b91506124d68261246f565b604082019050919050565b600060208201905081810360008301526124fa816124be565b9050919050565b7f45524337323155524953746f726167653a2055524920717565727920666f722060008201527f6e6f6e6578697374656e7420746f6b656e000000000000000000000000000000602082015250565b600061255d603183611b05565b915061256882612501565b604082019050919050565b6000602082019050818103600083015261258c81612550565b9050919050565b600081905092915050565b60006125a982611afa565b6125b38185612593565b93506125c3818560208601611b16565b80840191505092915050565b60006125db828561259e565b91506125e7828461259e565b91508190509392505050565b60008190508160005260206000209050919050565b6000815461261581612163565b61261f8186611b05565b9450600182166000811461263a576001811461264c5761267f565b60ff198316865260208601935061267f565b612655856125f3565b60005b8381101561267757815481890152600182019150602081019050612658565b808801955050505b50505092915050565b600060408201905081810360008301526126a28185612608565b905081810360208301526126b68184611b5a565b90509392505050565b7f4552433732313a206f70657261746f7220717565727920666f72206e6f6e657860008201527f697374656e7420746f6b656e0000000000000000000000000000000000000000602082015250565b600061271b602c83611b05565b9150612726826126bf565b604082019050919050565b6000602082019050818103600083015261274a8161270e565b9050919050565b7f4552433732313a207472616e736665722066726f6d20696e636f72726563742060008201527f6f776e6572000000000000000000000000000000000000000000000000000000602082015250565b60006127ad602583611b05565b91506127b882612751565b604082019050919050565b600060208201905081810360008301526127dc816127a0565b9050919050565b7f4552433732313a207472616e7366657220746f20746865207a65726f2061646460008201527f7265737300000000000000000000000000000000000000000000000000000000602082015250565b600061283f602483611b05565b915061284a826127e3565b604082019050919050565b6000602082019050818103600083015261286e81612832565b9050919050565b7f4e487b7100000000000000000000000000000000000000000000000000000000600052601160045260246000fd5b60006128af82611bb5565b91506128ba83611bb5565b9250828210156128cd576128cc612875565b5b828203905092915050565b60006128e382611bb5565b91506128ee83611bb5565b9250827fffffffffffffffffffffffffffffffffffffffffffffffffffffffffffffffff0382111561292357612922612875565b5b828201905092915050565b7f4552433732313a20617070726f766520746f2063616c6c657200000000000000600082015250565b6000612964601983611b05565b915061296f8261292e565b602082019050919050565b6000602082019050818103600083015261299381612957565b9050919050565b7f4552433732313a207472616e7366657220746f206e6f6e20455243373231526560008201527f63656976657220696d706c656d656e7465720000000000000000000000000000602082015250565b60006129f6603283611b05565b9150612a018261299a565b604082019050919050565b60006020820190508181036000830152612a25816129e9565b9050919050565b7f4552433732314d657461646174613a2055524920717565727920666f72206e6f60008201527f6e6578697374656e7420746f6b656e0000000000000000000000000000000000602082015250565b6000612a88602f83611b05565b9150612a9382612a2c565b604082019050919050565b60006020820190508181036000830152612ab781612a7b565b9050919050565b6000612ac982611bb5565b91507fffffffffffffffffffffffffffffffffffffffffffffffffffffffffffffffff821415612afc57612afb612875565b5b600182019050919050565b7f4e487b7100000000000000000000000000000000000000000000000000000000600052601260045260246000fd5b6000612b4182611bb5565b9150612b4c83611bb5565b925082612b5c57612b5b612b07565b5b828204905092915050565b6000612b7282611bb5565b9150612b7d83611bb5565b925082612b8d57612b8c612b07565b5b828206905092915050565b7f4e487b7100000000000000000000000000000000000000000000000000000000600052603260045260246000fd5b7f4552433732313a206d696e7420746f20746865207a65726f2061646472657373600082015250565b6000612bfd602083611b05565b9150612c0882612bc7565b602082019050919050565b60006020820190508181036000830152612c2c81612bf0565b9050919050565b7f4552433732313a20746f6b656e20616c7265616479206d696e74656400000000600082015250565b6000612c69601c83611b05565b9150612c7482612c33565b602082019050919050565b60006020820190508181036000830152612c9881612c5c565b9050919050565b7f45524337323155524953746f726167653a2055524920736574206f66206e6f6e60008201527f6578697374656e7420746f6b656e000000000000000000000000000000000000602082015250565b6000612cfb602e83611b05565b9150612d0682612c9f565b604082019050919050565b60006020820190508181036000830152612d2a81612cee565b9050919050565b600081519050919050565b600082825260208201905092915050565b6000612d5882612d31565b612d628185612d3c565b9350612d72818560208601611b16565b612d7b81611b49565b840191505092915050565b6000608082019050612d9b6000830187611c4a565b612da86020830186611c4a565b612db56040830185611d60565b8181036060830152612dc78184612d4d565b905095945050505050565b600081519050612de181611a6b565b92915050565b600060208284031215612dfd57612dfc611a35565b5b6000612e0b84828501612dd2565b9150509291505056fea26469706673582212201f34f49b8e9c33b0026d7497c8ce3f647e604fa540dcf63b93875e0320c991d164736f6c634300080c0033",
  "immutableReferences": {},
  "source": "// SPDX-License-Identifier: MIT\npragma solidity ^0.8.0;\n\nimport \"@openzeppelin/contracts/token/ERC721/ERC721.sol\";\nimport \"@openzeppelin/contracts/token/ERC721/extensions/ERC721URIStorage.sol\";\nimport \"@openzeppelin/contracts/utils/Counters.sol\";\nimport \"@openzeppelin/contracts/utils/Strings.sol\";\n\ncontract GameItem is ERC721URIStorage {\n    string public collectionURI = \"https://ipfs.io/ipfs/{HASH}\";\n    address private admin;\n\n    modifier onlyAdmin() {\n        require(msg.sender == admin);\n        _;\n    }\n\n    constructor() ERC721(\"Wrdl3\", \"WORD\") {\n        admin = msg.sender;\n    }\n\n    function awardWord(address player, string memory _word)\n        public\n        returns (uint256)\n    {\n        uint256 _tokenId = uint256(keccak256(abi.encode(_word)));\n        string memory _tokenURI = string(\n            abi.encode(collectionURI, Strings.toString(_tokenId))\n        );\n\n        _mint(player, _tokenId);\n        _setTokenURI(_tokenId, _tokenURI);\n\n        return _tokenId;\n    }\n\n    function changeCollectionURI(string memory _newURI) public onlyAdmin {\n        collectionURI = _newURI;\n    }\n}\n",
  "sourcePath": "/Users/emilsharafutdinov/Desktop/Work/SR3/Wrdl3/contracts/Wrdl3Collectibles.sol",
  "compiler": {
    "name": "solc",
    "version": "0.8.12+commit.f00d7308.Emscripten.clang"
  },
  "schemaVersion": "3.4.4",
  "updatedAt": "2022-03-07T20:21:59.961Z",
  "devdoc": {
    "kind": "dev",
    "methods": {
      "approve(address,uint256)": {
        "details": "See {IERC721-approve}."
      },
      "balanceOf(address)": {
        "details": "See {IERC721-balanceOf}."
      },
      "getApproved(uint256)": {
        "details": "See {IERC721-getApproved}."
      },
      "isApprovedForAll(address,address)": {
        "details": "See {IERC721-isApprovedForAll}."
      },
      "name()": {
        "details": "See {IERC721Metadata-name}."
      },
      "ownerOf(uint256)": {
        "details": "See {IERC721-ownerOf}."
      },
      "safeTransferFrom(address,address,uint256)": {
        "details": "See {IERC721-safeTransferFrom}."
      },
      "safeTransferFrom(address,address,uint256,bytes)": {
        "details": "See {IERC721-safeTransferFrom}."
      },
      "setApprovalForAll(address,bool)": {
        "details": "See {IERC721-setApprovalForAll}."
      },
      "supportsInterface(bytes4)": {
        "details": "See {IERC165-supportsInterface}."
      },
      "symbol()": {
        "details": "See {IERC721Metadata-symbol}."
      },
      "tokenURI(uint256)": {
        "details": "See {IERC721Metadata-tokenURI}."
      },
      "transferFrom(address,address,uint256)": {
        "details": "See {IERC721-transferFrom}."
      }
    },
    "version": 1
  },
  "userdoc": {
    "kind": "user",
    "methods": {},
    "version": 1
  }
}