{
  "contractName": "GameLogic",
  "abi": [
    {
      "inputs": [],
      "stateMutability": "nonpayable",
      "type": "constructor"
    },
    {
      "anonymous": false,
      "inputs": [
        {
          "indexed": true,
          "internalType": "address",
          "name": "account",
          "type": "address"
        },
        {
          "indexed": true,
          "internalType": "address",
          "name": "operator",
          "type": "address"
        },
        {
          "indexed": false,
          "internalType": "bool",
          "name": "approved",
          "type": "bool"
        }
      ],
      "name": "ApprovalForAll",
      "type": "event"
    },
    {
      "anonymous": false,
      "inputs": [
        {
          "indexed": true,
          "internalType": "address",
          "name": "operator",
          "type": "address"
        },
        {
          "indexed": true,
          "internalType": "address",
          "name": "from",
          "type": "address"
        },
        {
          "indexed": true,
          "internalType": "address",
          "name": "to",
          "type": "address"
        },
        {
          "indexed": false,
          "internalType": "uint256[]",
          "name": "ids",
          "type": "uint256[]"
        },
        {
          "indexed": false,
          "internalType": "uint256[]",
          "name": "values",
          "type": "uint256[]"
        }
      ],
      "name": "TransferBatch",
      "type": "event"
    },
    {
      "anonymous": false,
      "inputs": [
        {
          "indexed": true,
          "internalType": "address",
          "name": "operator",
          "type": "address"
        },
        {
          "indexed": true,
          "internalType": "address",
          "name": "from",
          "type": "address"
        },
        {
          "indexed": true,
          "internalType": "address",
          "name": "to",
          "type": "address"
        },
        {
          "indexed": false,
          "internalType": "uint256",
          "name": "id",
          "type": "uint256"
        },
        {
          "indexed": false,
          "internalType": "uint256",
          "name": "value",
          "type": "uint256"
        }
      ],
      "name": "TransferSingle",
      "type": "event"
    },
    {
      "anonymous": false,
      "inputs": [
        {
          "indexed": false,
          "internalType": "string",
          "name": "value",
          "type": "string"
        },
        {
          "indexed": true,
          "internalType": "uint256",
          "name": "id",
          "type": "uint256"
        }
      ],
      "name": "URI",
      "type": "event"
    },
    {
      "inputs": [],
      "name": "BRONZE",
      "outputs": [
        {
          "internalType": "uint8",
          "name": "",
          "type": "uint8"
        }
      ],
      "stateMutability": "view",
      "type": "function"
    },
    {
      "inputs": [],
      "name": "GOLD",
      "outputs": [
        {
          "internalType": "uint256",
          "name": "",
          "type": "uint256"
        }
      ],
      "stateMutability": "view",
      "type": "function"
    },
    {
      "inputs": [],
      "name": "SILVER",
      "outputs": [
        {
          "internalType": "uint256",
          "name": "",
          "type": "uint256"
        }
      ],
      "stateMutability": "view",
      "type": "function"
    },
    {
      "inputs": [
        {
          "internalType": "address",
          "name": "account",
          "type": "address"
        },
        {
          "internalType": "uint256",
          "name": "id",
          "type": "uint256"
        }
      ],
      "name": "balanceOf",
      "outputs": [
        {
          "internalType": "uint256",
          "name": "",
          "type": "uint256"
        }
      ],
      "stateMutability": "view",
      "type": "function"
    },
    {
      "inputs": [
        {
          "internalType": "address[]",
          "name": "accounts",
          "type": "address[]"
        },
        {
          "internalType": "uint256[]",
          "name": "ids",
          "type": "uint256[]"
        }
      ],
      "name": "balanceOfBatch",
      "outputs": [
        {
          "internalType": "uint256[]",
          "name": "",
          "type": "uint256[]"
        }
      ],
      "stateMutability": "view",
      "type": "function"
    },
    {
      "inputs": [
        {
          "internalType": "address",
          "name": "account",
          "type": "address"
        },
        {
          "internalType": "address",
          "name": "operator",
          "type": "address"
        }
      ],
      "name": "isApprovedForAll",
      "outputs": [
        {
          "internalType": "bool",
          "name": "",
          "type": "bool"
        }
      ],
      "stateMutability": "view",
      "type": "function"
    },
    {
      "inputs": [
        {
          "internalType": "address",
          "name": "from",
          "type": "address"
        },
        {
          "internalType": "address",
          "name": "to",
          "type": "address"
        },
        {
          "internalType": "uint256[]",
          "name": "ids",
          "type": "uint256[]"
        },
        {
          "internalType": "uint256[]",
          "name": "amounts",
          "type": "uint256[]"
        },
        {
          "internalType": "bytes",
          "name": "data",
          "type": "bytes"
        }
      ],
      "name": "safeBatchTransferFrom",
      "outputs": [],
      "stateMutability": "nonpayable",
      "type": "function"
    },
    {
      "inputs": [
        {
          "internalType": "address",
          "name": "from",
          "type": "address"
        },
        {
          "internalType": "address",
          "name": "to",
          "type": "address"
        },
        {
          "internalType": "uint256",
          "name": "id",
          "type": "uint256"
        },
        {
          "internalType": "uint256",
          "name": "amount",
          "type": "uint256"
        },
        {
          "internalType": "bytes",
          "name": "data",
          "type": "bytes"
        }
      ],
      "name": "safeTransferFrom",
      "outputs": [],
      "stateMutability": "nonpayable",
      "type": "function"
    },
    {
      "inputs": [
        {
          "internalType": "address",
          "name": "operator",
          "type": "address"
        },
        {
          "internalType": "bool",
          "name": "approved",
          "type": "bool"
        }
      ],
      "name": "setApprovalForAll",
      "outputs": [],
      "stateMutability": "nonpayable",
      "type": "function"
    },
    {
      "inputs": [
        {
          "internalType": "bytes4",
          "name": "interfaceId",
          "type": "bytes4"
        }
      ],
      "name": "supportsInterface",
      "outputs": [
        {
          "internalType": "bool",
          "name": "",
          "type": "bool"
        }
      ],
      "stateMutability": "view",
      "type": "function"
    },
    {
      "inputs": [
        {
          "internalType": "uint256",
          "name": "",
          "type": "uint256"
        }
      ],
      "name": "uri",
      "outputs": [
        {
          "internalType": "string",
          "name": "",
          "type": "string"
        }
      ],
      "stateMutability": "view",
      "type": "function"
    },
    {
      "inputs": [],
      "name": "goldAward",
      "outputs": [],
      "stateMutability": "nonpayable",
      "type": "function"
    },
    {
      "inputs": [],
      "name": "silverAward",
      "outputs": [],
      "stateMutability": "nonpayable",
      "type": "function"
    },
    {
      "inputs": [],
      "name": "bronzeAward",
      "outputs": [],
      "stateMutability": "nonpayable",
      "type": "function"
    },
    {
      "inputs": [],
      "name": "giveAccessSecondLvl",
      "outputs": [],
      "stateMutability": "nonpayable",
      "type": "function"
    },
    {
      "inputs": [],
      "name": "giveAccessThirdLvl",
      "outputs": [],
      "stateMutability": "nonpayable",
      "type": "function"
    }
  ],
  "bytecode": "0x60806040523480156200001157600080fd5b5060405180606001604052806027815260200162002b9c602791396200003d816200004460201b60201c565b5062000175565b80600290805190602001906200005c92919062000060565b5050565b8280546200006e906200013f565b90600052602060002090601f016020900481019282620000925760008555620000de565b82601f10620000ad57805160ff1916838001178555620000de565b82800160010185558215620000de579182015b82811115620000dd578251825591602001919060010190620000c0565b5b509050620000ed9190620000f1565b5090565b5b808211156200010c576000816000905550600101620000f2565b5090565b7f4e487b7100000000000000000000000000000000000000000000000000000000600052602260045260246000fd5b600060028204905060018216806200015857607f821691505b602082108114156200016f576200016e62000110565b5b50919050565b612a1780620001856000396000f3fe608060405234801561001057600080fd5b50600436106100ff5760003560e01c80638683989811610097578063e00fd54311610066578063e00fd5431461024c578063e3e55f081461026a578063e985e9c514610288578063f242432a146102b8576100ff565b806386839898146102125780638aba58441461021c578063a22cb46514610226578063b9339cb414610242576100ff565b80632eb2c2d6116100d35780632eb2c2d61461019e57806339200b12146101ba5780633e4bee38146101c45780634e1273f4146101e2576100ff565b8062fdd58e1461010457806301ffc9a7146101345780630b8bfb56146101645780630e89341c1461016e575b600080fd5b61011e60048036038101906101199190611742565b6102d4565b60405161012b9190611791565b60405180910390f35b61014e60048036038101906101499190611804565b61039d565b60405161015b919061184c565b60405180910390f35b61016c61047f565b005b61018860048036038101906101839190611867565b6104a1565b604051610195919061192d565b60405180910390f35b6101b860048036038101906101b39190611b4c565b610535565b005b6101c26105d6565b005b6101cc610630565b6040516101d99190611791565b60405180910390f35b6101fc60048036038101906101f79190611cde565b610635565b6040516102099190611e14565b60405180910390f35b61021a61074e565b005b6102246107a8565b005b610240600480360381019061023b9190611e62565b6107c6565b005b61024a6107dc565b005b6102546107fb565b6040516102619190611ebe565b60405180910390f35b610272610800565b60405161027f9190611791565b60405180910390f35b6102a2600480360381019061029d9190611ed9565b610805565b6040516102af919061184c565b60405180910390f35b6102d260048036038101906102cd9190611f19565b610899565b005b60008073ffffffffffffffffffffffffffffffffffffffff168373ffffffffffffffffffffffffffffffffffffffff161415610345576040517f08c379a000000000000000000000000000000000000000000000000000000000815260040161033c90612022565b60405180910390fd5b60008083815260200190815260200160002060008473ffffffffffffffffffffffffffffffffffffffff1673ffffffffffffffffffffffffffffffffffffffff16815260200190815260200160002054905092915050565b60007fd9b67a26000000000000000000000000000000000000000000000000000000007bffffffffffffffffffffffffffffffffffffffffffffffffffffffff1916827bffffffffffffffffffffffffffffffffffffffffffffffffffffffff1916148061046857507f0e89341c000000000000000000000000000000000000000000000000000000007bffffffffffffffffffffffffffffffffffffffffffffffffffffffff1916827bffffffffffffffffffffffffffffffffffffffffffffffffffffffff1916145b8061047857506104778261093a565b5b9050919050565b61049f33600260ff166001604051806020016040528060008152506109a4565b565b6060600280546104b090612071565b80601f01602080910402602001604051908101604052809291908181526020018280546104dc90612071565b80156105295780601f106104fe57610100808354040283529160200191610529565b820191906000526020600020905b81548152906001019060200180831161050c57829003601f168201915b50505050509050919050565b61053d610b3a565b73ffffffffffffffffffffffffffffffffffffffff168573ffffffffffffffffffffffffffffffffffffffff16148061058357506105828561057d610b3a565b610805565b5b6105c2576040517f08c379a00000000000000000000000000000000000000000000000000000000081526004016105b990612115565b60405180910390fd5b6105cf8585858585610b42565b5050505050565b6001600460003373ffffffffffffffffffffffffffffffffffffffff1673ffffffffffffffffffffffffffffffffffffffff16815260200190815260200160002060006101000a81548160ff021916908315150217905550565b600081565b6060815183511461067b576040517f08c379a0000000000000000000000000000000000000000000000000000000008152600401610672906121a7565b60405180910390fd5b6000835167ffffffffffffffff81111561069857610697611954565b5b6040519080825280602002602001820160405280156106c65781602001602082028036833780820191505090505b50905060005b8451811015610743576107138582815181106106eb576106ea6121c7565b5b6020026020010151858381518110610706576107056121c7565b5b60200260200101516102d4565b828281518110610726576107256121c7565b5b6020026020010181815250508061073c90612225565b90506106cc565b508091505092915050565b6001600360003373ffffffffffffffffffffffffffffffffffffffff1673ffffffffffffffffffffffffffffffffffffffff16815260200190815260200160002060006101000a81548160ff021916908315150217905550565b6107c433600180604051806020016040528060008152506109a4565b565b6107d86107d1610b3a565b8383610e56565b5050565b6107f93360006001604051806020016040528060008152506109a4565b565b600281565b600181565b6000600160008473ffffffffffffffffffffffffffffffffffffffff1673ffffffffffffffffffffffffffffffffffffffff16815260200190815260200160002060008373ffffffffffffffffffffffffffffffffffffffff1673ffffffffffffffffffffffffffffffffffffffff16815260200190815260200160002060009054906101000a900460ff16905092915050565b6108a1610b3a565b73ffffffffffffffffffffffffffffffffffffffff168573ffffffffffffffffffffffffffffffffffffffff1614806108e757506108e6856108e1610b3a565b610805565b5b610926576040517f08c379a000000000000000000000000000000000000000000000000000000000815260040161091d906122e0565b60405180910390fd5b6109338585858585610fc3565b5050505050565b60007f01ffc9a7000000000000000000000000000000000000000000000000000000007bffffffffffffffffffffffffffffffffffffffffffffffffffffffff1916827bffffffffffffffffffffffffffffffffffffffffffffffffffffffff1916149050919050565b600073ffffffffffffffffffffffffffffffffffffffff168473ffffffffffffffffffffffffffffffffffffffff161415610a14576040517f08c379a0000000000000000000000000000000000000000000000000000000008152600401610a0b90612372565b60405180910390fd5b6000610a1e610b3a565b9050610a3f81600087610a3088611245565b610a3988611245565b876112bf565b8260008086815260200190815260200160002060008773ffffffffffffffffffffffffffffffffffffffff1673ffffffffffffffffffffffffffffffffffffffff1681526020019081526020016000206000828254610a9e9190612392565b925050819055508473ffffffffffffffffffffffffffffffffffffffff16600073ffffffffffffffffffffffffffffffffffffffff168273ffffffffffffffffffffffffffffffffffffffff167fc3d58168c5ae7397731d063d5bbf3d657854427343f4c083240f7aacaa2d0f628787604051610b1c9291906123e8565b60405180910390a4610b33816000878787876112c7565b5050505050565b600033905090565b8151835114610b86576040517f08c379a0000000000000000000000000000000000000000000000000000000008152600401610b7d90612483565b60405180910390fd5b600073ffffffffffffffffffffffffffffffffffffffff168473ffffffffffffffffffffffffffffffffffffffff161415610bf6576040517f08c379a0000000000000000000000000000000000000000000000000000000008152600401610bed90612515565b60405180910390fd5b6000610c00610b3a565b9050610c108187878787876112bf565b60005b8451811015610dc1576000858281518110610c3157610c306121c7565b5b602002602001015190506000858381518110610c5057610c4f6121c7565b5b60200260200101519050600080600084815260200190815260200160002060008b73ffffffffffffffffffffffffffffffffffffffff1673ffffffffffffffffffffffffffffffffffffffff16815260200190815260200160002054905081811015610cf1576040517f08c379a0000000000000000000000000000000000000000000000000000000008152600401610ce8906125a7565b60405180910390fd5b81810360008085815260200190815260200160002060008c73ffffffffffffffffffffffffffffffffffffffff1673ffffffffffffffffffffffffffffffffffffffff168152602001908152602001600020819055508160008085815260200190815260200160002060008b73ffffffffffffffffffffffffffffffffffffffff1673ffffffffffffffffffffffffffffffffffffffff1681526020019081526020016000206000828254610da69190612392565b9250508190555050505080610dba90612225565b9050610c13565b508473ffffffffffffffffffffffffffffffffffffffff168673ffffffffffffffffffffffffffffffffffffffff168273ffffffffffffffffffffffffffffffffffffffff167f4a39dc06d4c0dbc64b70af90fd698a233a518aa5d07e595d983b8c0526c8f7fb8787604051610e389291906125c7565b60405180910390a4610e4e81878787878761149f565b505050505050565b8173ffffffffffffffffffffffffffffffffffffffff168373ffffffffffffffffffffffffffffffffffffffff161415610ec5576040517f08c379a0000000000000000000000000000000000000000000000000000000008152600401610ebc90612670565b60405180910390fd5b80600160008573ffffffffffffffffffffffffffffffffffffffff1673ffffffffffffffffffffffffffffffffffffffff16815260200190815260200160002060008473ffffffffffffffffffffffffffffffffffffffff1673ffffffffffffffffffffffffffffffffffffffff16815260200190815260200160002060006101000a81548160ff0219169083151502179055508173ffffffffffffffffffffffffffffffffffffffff168373ffffffffffffffffffffffffffffffffffffffff167f17307eab39ab6107e8899845ad3d59bd9653f200f220920489ca2b5937696c3183604051610fb6919061184c565b60405180910390a3505050565b600073ffffffffffffffffffffffffffffffffffffffff168473ffffffffffffffffffffffffffffffffffffffff161415611033576040517f08c379a000000000000000000000000000000000000000000000000000000000815260040161102a90612515565b60405180910390fd5b600061103d610b3a565b905061105d81878761104e88611245565b61105788611245565b876112bf565b600080600086815260200190815260200160002060008873ffffffffffffffffffffffffffffffffffffffff1673ffffffffffffffffffffffffffffffffffffffff168152602001908152602001600020549050838110156110f4576040517f08c379a00000000000000000000000000000000000000000000000000000000081526004016110eb906125a7565b60405180910390fd5b83810360008087815260200190815260200160002060008973ffffffffffffffffffffffffffffffffffffffff1673ffffffffffffffffffffffffffffffffffffffff168152602001908152602001600020819055508360008087815260200190815260200160002060008873ffffffffffffffffffffffffffffffffffffffff1673ffffffffffffffffffffffffffffffffffffffff16815260200190815260200160002060008282546111a99190612392565b925050819055508573ffffffffffffffffffffffffffffffffffffffff168773ffffffffffffffffffffffffffffffffffffffff168373ffffffffffffffffffffffffffffffffffffffff167fc3d58168c5ae7397731d063d5bbf3d657854427343f4c083240f7aacaa2d0f6288886040516112269291906123e8565b60405180910390a461123c8288888888886112c7565b50505050505050565b60606000600167ffffffffffffffff81111561126457611263611954565b5b6040519080825280602002602001820160405280156112925781602001602082028036833780820191505090505b50905082816000815181106112aa576112a96121c7565b5b60200260200101818152505080915050919050565b505050505050565b6112e68473ffffffffffffffffffffffffffffffffffffffff16611677565b15611497578373ffffffffffffffffffffffffffffffffffffffff1663f23a6e6187878686866040518663ffffffff1660e01b815260040161132c9594939291906126f4565b6020604051808303816000875af192505050801561136857506040513d601f19601f820116820180604052508101906113659190612763565b60015b61140e5761137461279d565b806308c379a014156113d157506113896127bf565b8061139457506113d3565b806040517f08c379a00000000000000000000000000000000000000000000000000000000081526004016113c8919061192d565b60405180910390fd5b505b6040517f08c379a0000000000000000000000000000000000000000000000000000000008152600401611405906128c7565b60405180910390fd5b63f23a6e6160e01b7bffffffffffffffffffffffffffffffffffffffffffffffffffffffff1916817bffffffffffffffffffffffffffffffffffffffffffffffffffffffff191614611495576040517f08c379a000000000000000000000000000000000000000000000000000000000815260040161148c90612959565b60405180910390fd5b505b505050505050565b6114be8473ffffffffffffffffffffffffffffffffffffffff16611677565b1561166f578373ffffffffffffffffffffffffffffffffffffffff1663bc197c8187878686866040518663ffffffff1660e01b8152600401611504959493929190612979565b6020604051808303816000875af192505050801561154057506040513d601f19601f8201168201806040525081019061153d9190612763565b60015b6115e65761154c61279d565b806308c379a014156115a957506115616127bf565b8061156c57506115ab565b806040517f08c379a00000000000000000000000000000000000000000000000000000000081526004016115a0919061192d565b60405180910390fd5b505b6040517f08c379a00000000000000000000000000000000000000000000000000000000081526004016115dd906128c7565b60405180910390fd5b63bc197c8160e01b7bffffffffffffffffffffffffffffffffffffffffffffffffffffffff1916817bffffffffffffffffffffffffffffffffffffffffffffffffffffffff19161461166d576040517f08c379a000000000000000000000000000000000000000000000000000000000815260040161166490612959565b60405180910390fd5b505b505050505050565b6000808273ffffffffffffffffffffffffffffffffffffffff163b119050919050565b6000604051905090565b600080fd5b600080fd5b600073ffffffffffffffffffffffffffffffffffffffff82169050919050565b60006116d9826116ae565b9050919050565b6116e9816116ce565b81146116f457600080fd5b50565b600081359050611706816116e0565b92915050565b6000819050919050565b61171f8161170c565b811461172a57600080fd5b50565b60008135905061173c81611716565b92915050565b60008060408385031215611759576117586116a4565b5b6000611767858286016116f7565b92505060206117788582860161172d565b9150509250929050565b61178b8161170c565b82525050565b60006020820190506117a66000830184611782565b92915050565b60007fffffffff0000000000000000000000000000000000000000000000000000000082169050919050565b6117e1816117ac565b81146117ec57600080fd5b50565b6000813590506117fe816117d8565b92915050565b60006020828403121561181a576118196116a4565b5b6000611828848285016117ef565b91505092915050565b60008115159050919050565b61184681611831565b82525050565b6000602082019050611861600083018461183d565b92915050565b60006020828403121561187d5761187c6116a4565b5b600061188b8482850161172d565b91505092915050565b600081519050919050565b600082825260208201905092915050565b60005b838110156118ce5780820151818401526020810190506118b3565b838111156118dd576000848401525b50505050565b6000601f19601f8301169050919050565b60006118ff82611894565b611909818561189f565b93506119198185602086016118b0565b611922816118e3565b840191505092915050565b6000602082019050818103600083015261194781846118f4565b905092915050565b600080fd5b7f4e487b7100000000000000000000000000000000000000000000000000000000600052604160045260246000fd5b61198c826118e3565b810181811067ffffffffffffffff821117156119ab576119aa611954565b5b80604052505050565b60006119be61169a565b90506119ca8282611983565b919050565b600067ffffffffffffffff8211156119ea576119e9611954565b5b602082029050602081019050919050565b600080fd5b6000611a13611a0e846119cf565b6119b4565b90508083825260208201905060208402830185811115611a3657611a356119fb565b5b835b81811015611a5f5780611a4b888261172d565b845260208401935050602081019050611a38565b5050509392505050565b600082601f830112611a7e57611a7d61194f565b5b8135611a8e848260208601611a00565b91505092915050565b600080fd5b600067ffffffffffffffff821115611ab757611ab6611954565b5b611ac0826118e3565b9050602081019050919050565b82818337600083830152505050565b6000611aef611aea84611a9c565b6119b4565b905082815260208101848484011115611b0b57611b0a611a97565b5b611b16848285611acd565b509392505050565b600082601f830112611b3357611b3261194f565b5b8135611b43848260208601611adc565b91505092915050565b600080600080600060a08688031215611b6857611b676116a4565b5b6000611b76888289016116f7565b9550506020611b87888289016116f7565b945050604086013567ffffffffffffffff811115611ba857611ba76116a9565b5b611bb488828901611a69565b935050606086013567ffffffffffffffff811115611bd557611bd46116a9565b5b611be188828901611a69565b925050608086013567ffffffffffffffff811115611c0257611c016116a9565b5b611c0e88828901611b1e565b9150509295509295909350565b600067ffffffffffffffff821115611c3657611c35611954565b5b602082029050602081019050919050565b6000611c5a611c5584611c1b565b6119b4565b90508083825260208201905060208402830185811115611c7d57611c7c6119fb565b5b835b81811015611ca65780611c9288826116f7565b845260208401935050602081019050611c7f565b5050509392505050565b600082601f830112611cc557611cc461194f565b5b8135611cd5848260208601611c47565b91505092915050565b60008060408385031215611cf557611cf46116a4565b5b600083013567ffffffffffffffff811115611d1357611d126116a9565b5b611d1f85828601611cb0565b925050602083013567ffffffffffffffff811115611d4057611d3f6116a9565b5b611d4c85828601611a69565b9150509250929050565b600081519050919050565b600082825260208201905092915050565b6000819050602082019050919050565b611d8b8161170c565b82525050565b6000611d9d8383611d82565b60208301905092915050565b6000602082019050919050565b6000611dc182611d56565b611dcb8185611d61565b9350611dd683611d72565b8060005b83811015611e07578151611dee8882611d91565b9750611df983611da9565b925050600181019050611dda565b5085935050505092915050565b60006020820190508181036000830152611e2e8184611db6565b905092915050565b611e3f81611831565b8114611e4a57600080fd5b50565b600081359050611e5c81611e36565b92915050565b60008060408385031215611e7957611e786116a4565b5b6000611e87858286016116f7565b9250506020611e9885828601611e4d565b9150509250929050565b600060ff82169050919050565b611eb881611ea2565b82525050565b6000602082019050611ed36000830184611eaf565b92915050565b60008060408385031215611ef057611eef6116a4565b5b6000611efe858286016116f7565b9250506020611f0f858286016116f7565b9150509250929050565b600080600080600060a08688031215611f3557611f346116a4565b5b6000611f43888289016116f7565b9550506020611f54888289016116f7565b9450506040611f658882890161172d565b9350506060611f768882890161172d565b925050608086013567ffffffffffffffff811115611f9757611f966116a9565b5b611fa388828901611b1e565b9150509295509295909350565b7f455243313135353a2062616c616e636520717565727920666f7220746865207a60008201527f65726f2061646472657373000000000000000000000000000000000000000000602082015250565b600061200c602b8361189f565b915061201782611fb0565b604082019050919050565b6000602082019050818103600083015261203b81611fff565b9050919050565b7f4e487b7100000000000000000000000000000000000000000000000000000000600052602260045260246000fd5b6000600282049050600182168061208957607f821691505b6020821081141561209d5761209c612042565b5b50919050565b7f455243313135353a207472616e736665722063616c6c6572206973206e6f742060008201527f6f776e6572206e6f7220617070726f7665640000000000000000000000000000602082015250565b60006120ff60328361189f565b915061210a826120a3565b604082019050919050565b6000602082019050818103600083015261212e816120f2565b9050919050565b7f455243313135353a206163636f756e747320616e6420696473206c656e67746860008201527f206d69736d617463680000000000000000000000000000000000000000000000602082015250565b600061219160298361189f565b915061219c82612135565b604082019050919050565b600060208201905081810360008301526121c081612184565b9050919050565b7f4e487b7100000000000000000000000000000000000000000000000000000000600052603260045260246000fd5b7f4e487b7100000000000000000000000000000000000000000000000000000000600052601160045260246000fd5b60006122308261170c565b91507fffffffffffffffffffffffffffffffffffffffffffffffffffffffffffffffff821415612263576122626121f6565b5b600182019050919050565b7f455243313135353a2063616c6c6572206973206e6f74206f776e6572206e6f7260008201527f20617070726f7665640000000000000000000000000000000000000000000000602082015250565b60006122ca60298361189f565b91506122d58261226e565b604082019050919050565b600060208201905081810360008301526122f9816122bd565b9050919050565b7f455243313135353a206d696e7420746f20746865207a65726f2061646472657360008201527f7300000000000000000000000000000000000000000000000000000000000000602082015250565b600061235c60218361189f565b915061236782612300565b604082019050919050565b6000602082019050818103600083015261238b8161234f565b9050919050565b600061239d8261170c565b91506123a88361170c565b9250827fffffffffffffffffffffffffffffffffffffffffffffffffffffffffffffffff038211156123dd576123dc6121f6565b5b828201905092915050565b60006040820190506123fd6000830185611782565b61240a6020830184611782565b9392505050565b7f455243313135353a2069647320616e6420616d6f756e7473206c656e6774682060008201527f6d69736d61746368000000000000000000000000000000000000000000000000602082015250565b600061246d60288361189f565b915061247882612411565b604082019050919050565b6000602082019050818103600083015261249c81612460565b9050919050565b7f455243313135353a207472616e7366657220746f20746865207a65726f20616460008201527f6472657373000000000000000000000000000000000000000000000000000000602082015250565b60006124ff60258361189f565b915061250a826124a3565b604082019050919050565b6000602082019050818103600083015261252e816124f2565b9050919050565b7f455243313135353a20696e73756666696369656e742062616c616e636520666f60008201527f72207472616e7366657200000000000000000000000000000000000000000000602082015250565b6000612591602a8361189f565b915061259c82612535565b604082019050919050565b600060208201905081810360008301526125c081612584565b9050919050565b600060408201905081810360008301526125e18185611db6565b905081810360208301526125f58184611db6565b90509392505050565b7f455243313135353a2073657474696e6720617070726f76616c2073746174757360008201527f20666f722073656c660000000000000000000000000000000000000000000000602082015250565b600061265a60298361189f565b9150612665826125fe565b604082019050919050565b600060208201905081810360008301526126898161264d565b9050919050565b612699816116ce565b82525050565b600081519050919050565b600082825260208201905092915050565b60006126c68261269f565b6126d081856126aa565b93506126e08185602086016118b0565b6126e9816118e3565b840191505092915050565b600060a0820190506127096000830188612690565b6127166020830187612690565b6127236040830186611782565b6127306060830185611782565b818103608083015261274281846126bb565b90509695505050505050565b60008151905061275d816117d8565b92915050565b600060208284031215612779576127786116a4565b5b60006127878482850161274e565b91505092915050565b60008160e01c9050919050565b600060033d11156127bc5760046000803e6127b9600051612790565b90505b90565b600060443d10156127cf57612852565b6127d761169a565b60043d036004823e80513d602482011167ffffffffffffffff821117156127ff575050612852565b808201805167ffffffffffffffff81111561281d5750505050612852565b80602083010160043d03850181111561283a575050505050612852565b61284982602001850186611983565b82955050505050505b90565b7f455243313135353a207472616e7366657220746f206e6f6e204552433131353560008201527f526563656976657220696d706c656d656e746572000000000000000000000000602082015250565b60006128b160348361189f565b91506128bc82612855565b604082019050919050565b600060208201905081810360008301526128e0816128a4565b9050919050565b7f455243313135353a204552433131353552656365697665722072656a6563746560008201527f6420746f6b656e73000000000000000000000000000000000000000000000000602082015250565b600061294360288361189f565b915061294e826128e7565b604082019050919050565b6000602082019050818103600083015261297281612936565b9050919050565b600060a08201905061298e6000830188612690565b61299b6020830187612690565b81810360408301526129ad8186611db6565b905081810360608301526129c18185611db6565b905081810360808301526129d581846126bb565b9050969550505050505056fea2646970667358221220aa396a1c2313854d6c61bcf1fbd1bca4d18ea1da7fb5c1318bb2486418de5bbb64736f6c634300080c003368747470733a2f2f67616d652e6578616d706c652f6170692f6974656d2f7b69647d2e6a736f6e",
  "immutableReferences": {},
  "source": "pragma solidity >=0.4.0 <0.9.0;\n\nimport \"../client/node_modules/@openzeppelin/contracts/token/ERC1155/ERC1155.sol\";\n\ncontract GameLogic is ERC1155 {\n    uint256 public constant GOLD = 0;\n    uint256 public constant SILVER = 1;\n    uint8 public constant BRONZE = 2;\n    mapping(address => bool) accessToSecondLvl;\n    mapping(address => bool) accessToThirdLvl;\n\n    constructor() public ERC1155(\"https://game.example/api/item/{id}.json\") {}\n\n    function goldAward() public {\n        _mint(msg.sender, GOLD, 1, \"\");\n    }\n\n    function silverAward() public {\n        _mint(msg.sender, SILVER, 1, \"\");\n    }\n\n    function bronzeAward() public {\n        _mint(msg.sender, BRONZE, 1, \"\");\n    }\n\n    function giveAccessSecondLvl() public {\n        accessToSecondLvl[msg.sender] = true;\n    }\n\n    function giveAccessThirdLvl() public {\n        accessToThirdLvl[msg.sender] = true;\n    }\n}\n",
  "sourcePath": "/Users/emilsharafutdinov/Desktop/Work/SR3/Wrdl3/contracts/Trees.sol",
  "compiler": {
    "name": "solc",
    "version": "0.8.12+commit.f00d7308.Emscripten.clang"
  },
  "schemaVersion": "3.4.4",
  "updatedAt": "2022-03-05T14:59:47.739Z",
  "devdoc": {
    "kind": "dev",
    "methods": {
      "balanceOf(address,uint256)": {
        "details": "See {IERC1155-balanceOf}. Requirements: - `account` cannot be the zero address."
      },
      "balanceOfBatch(address[],uint256[])": {
        "details": "See {IERC1155-balanceOfBatch}. Requirements: - `accounts` and `ids` must have the same length."
      },
      "isApprovedForAll(address,address)": {
        "details": "See {IERC1155-isApprovedForAll}."
      },
      "safeBatchTransferFrom(address,address,uint256[],uint256[],bytes)": {
        "details": "See {IERC1155-safeBatchTransferFrom}."
      },
      "safeTransferFrom(address,address,uint256,uint256,bytes)": {
        "details": "See {IERC1155-safeTransferFrom}."
      },
      "setApprovalForAll(address,bool)": {
        "details": "See {IERC1155-setApprovalForAll}."
      },
      "supportsInterface(bytes4)": {
        "details": "See {IERC165-supportsInterface}."
      },
      "uri(uint256)": {
        "details": "See {IERC1155MetadataURI-uri}. This implementation returns the same URI for *all* token types. It relies on the token type ID substitution mechanism https://eips.ethereum.org/EIPS/eip-1155#metadata[defined in the EIP]. Clients calling this function must replace the `\\{id\\}` substring with the actual token type ID."
      }
    },
    "version": 1
  },
  "userdoc": {
    "kind": "user",
    "methods": {},
    "version": 1
  }
}