{
  "contractName": "Items",
  "abi": [
    {
      "inputs": [],
      "stateMutability": "nonpayable",
      "type": "constructor"
    },
    {
      "anonymous": false,
      "inputs": [
        {
          "indexed": true,
          "internalType": "address",
          "name": "account",
          "type": "address"
        },
        {
          "indexed": true,
          "internalType": "address",
          "name": "operator",
          "type": "address"
        },
        {
          "indexed": false,
          "internalType": "bool",
          "name": "approved",
          "type": "bool"
        }
      ],
      "name": "ApprovalForAll",
      "type": "event"
    },
    {
      "anonymous": false,
      "inputs": [
        {
          "indexed": true,
          "internalType": "address",
          "name": "operator",
          "type": "address"
        },
        {
          "indexed": true,
          "internalType": "address",
          "name": "from",
          "type": "address"
        },
        {
          "indexed": true,
          "internalType": "address",
          "name": "to",
          "type": "address"
        },
        {
          "indexed": false,
          "internalType": "uint256[]",
          "name": "ids",
          "type": "uint256[]"
        },
        {
          "indexed": false,
          "internalType": "uint256[]",
          "name": "values",
          "type": "uint256[]"
        }
      ],
      "name": "TransferBatch",
      "type": "event"
    },
    {
      "anonymous": false,
      "inputs": [
        {
          "indexed": true,
          "internalType": "address",
          "name": "operator",
          "type": "address"
        },
        {
          "indexed": true,
          "internalType": "address",
          "name": "from",
          "type": "address"
        },
        {
          "indexed": true,
          "internalType": "address",
          "name": "to",
          "type": "address"
        },
        {
          "indexed": false,
          "internalType": "uint256",
          "name": "id",
          "type": "uint256"
        },
        {
          "indexed": false,
          "internalType": "uint256",
          "name": "value",
          "type": "uint256"
        }
      ],
      "name": "TransferSingle",
      "type": "event"
    },
    {
      "anonymous": false,
      "inputs": [
        {
          "indexed": false,
          "internalType": "string",
          "name": "value",
          "type": "string"
        },
        {
          "indexed": true,
          "internalType": "uint256",
          "name": "id",
          "type": "uint256"
        }
      ],
      "name": "URI",
      "type": "event"
    },
    {
      "inputs": [],
      "name": "ACCESS2",
      "outputs": [
        {
          "internalType": "uint8",
          "name": "",
          "type": "uint8"
        }
      ],
      "stateMutability": "view",
      "type": "function"
    },
    {
      "inputs": [],
      "name": "ACCESS3",
      "outputs": [
        {
          "internalType": "uint8",
          "name": "",
          "type": "uint8"
        }
      ],
      "stateMutability": "view",
      "type": "function"
    },
    {
      "inputs": [],
      "name": "BRONZE",
      "outputs": [
        {
          "internalType": "uint8",
          "name": "",
          "type": "uint8"
        }
      ],
      "stateMutability": "view",
      "type": "function"
    },
    {
      "inputs": [],
      "name": "GOLD",
      "outputs": [
        {
          "internalType": "uint256",
          "name": "",
          "type": "uint256"
        }
      ],
      "stateMutability": "view",
      "type": "function"
    },
    {
      "inputs": [],
      "name": "SILVER",
      "outputs": [
        {
          "internalType": "uint256",
          "name": "",
          "type": "uint256"
        }
      ],
      "stateMutability": "view",
      "type": "function"
    },
    {
      "inputs": [
        {
          "internalType": "address",
          "name": "account",
          "type": "address"
        },
        {
          "internalType": "uint256",
          "name": "id",
          "type": "uint256"
        }
      ],
      "name": "balanceOf",
      "outputs": [
        {
          "internalType": "uint256",
          "name": "",
          "type": "uint256"
        }
      ],
      "stateMutability": "view",
      "type": "function"
    },
    {
      "inputs": [
        {
          "internalType": "address[]",
          "name": "accounts",
          "type": "address[]"
        },
        {
          "internalType": "uint256[]",
          "name": "ids",
          "type": "uint256[]"
        }
      ],
      "name": "balanceOfBatch",
      "outputs": [
        {
          "internalType": "uint256[]",
          "name": "",
          "type": "uint256[]"
        }
      ],
      "stateMutability": "view",
      "type": "function"
    },
    {
      "inputs": [
        {
          "internalType": "address",
          "name": "account",
          "type": "address"
        },
        {
          "internalType": "address",
          "name": "operator",
          "type": "address"
        }
      ],
      "name": "isApprovedForAll",
      "outputs": [
        {
          "internalType": "bool",
          "name": "",
          "type": "bool"
        }
      ],
      "stateMutability": "view",
      "type": "function"
    },
    {
      "inputs": [
        {
          "internalType": "address",
          "name": "from",
          "type": "address"
        },
        {
          "internalType": "address",
          "name": "to",
          "type": "address"
        },
        {
          "internalType": "uint256[]",
          "name": "ids",
          "type": "uint256[]"
        },
        {
          "internalType": "uint256[]",
          "name": "amounts",
          "type": "uint256[]"
        },
        {
          "internalType": "bytes",
          "name": "data",
          "type": "bytes"
        }
      ],
      "name": "safeBatchTransferFrom",
      "outputs": [],
      "stateMutability": "nonpayable",
      "type": "function"
    },
    {
      "inputs": [
        {
          "internalType": "address",
          "name": "from",
          "type": "address"
        },
        {
          "internalType": "address",
          "name": "to",
          "type": "address"
        },
        {
          "internalType": "uint256",
          "name": "id",
          "type": "uint256"
        },
        {
          "internalType": "uint256",
          "name": "amount",
          "type": "uint256"
        },
        {
          "internalType": "bytes",
          "name": "data",
          "type": "bytes"
        }
      ],
      "name": "safeTransferFrom",
      "outputs": [],
      "stateMutability": "nonpayable",
      "type": "function"
    },
    {
      "inputs": [
        {
          "internalType": "address",
          "name": "operator",
          "type": "address"
        },
        {
          "internalType": "bool",
          "name": "approved",
          "type": "bool"
        }
      ],
      "name": "setApprovalForAll",
      "outputs": [],
      "stateMutability": "nonpayable",
      "type": "function"
    },
    {
      "inputs": [
        {
          "internalType": "bytes4",
          "name": "interfaceId",
          "type": "bytes4"
        }
      ],
      "name": "supportsInterface",
      "outputs": [
        {
          "internalType": "bool",
          "name": "",
          "type": "bool"
        }
      ],
      "stateMutability": "view",
      "type": "function"
    },
    {
      "inputs": [
        {
          "internalType": "uint256",
          "name": "",
          "type": "uint256"
        }
      ],
      "name": "uri",
      "outputs": [
        {
          "internalType": "string",
          "name": "",
          "type": "string"
        }
      ],
      "stateMutability": "view",
      "type": "function"
    }
  ],
  "bytecode": "0x60806040523480156200001157600080fd5b50604051806060016040528060278152602001620033ee602791396200003d816200010b60201b60201c565b50620000643360006103e8604051806020016040528060008152506200012760201b60201c565b6200008a336001612710604051806020016040528060008152506200012760201b60201c565b620000b333600260ff16614268604051806020016040528060008152506200012760201b60201c565b620000dc33600360ff16612710604051806020016040528060008152506200012760201b60201c565b6200010533600460ff166103e8604051806020016040528060008152506200012760201b60201c565b62000d1f565b8060029080519060200190620001239291906200059a565b5050565b600073ffffffffffffffffffffffffffffffffffffffff168473ffffffffffffffffffffffffffffffffffffffff1614156200019a576040517f08c379a00000000000000000000000000000000000000000000000000000000081526004016200019190620006d1565b60405180910390fd5b6000620001ac620002ec60201b60201c565b9050620001e581600087620001c788620002f460201b60201c565b620001d888620002f460201b60201c565b876200037560201b60201c565b8260008086815260200190815260200160002060008773ffffffffffffffffffffffffffffffffffffffff1673ffffffffffffffffffffffffffffffffffffffff16815260200190815260200160002060008282546200024691906200072c565b925050819055508473ffffffffffffffffffffffffffffffffffffffff16600073ffffffffffffffffffffffffffffffffffffffff168273ffffffffffffffffffffffffffffffffffffffff167fc3d58168c5ae7397731d063d5bbf3d657854427343f4c083240f7aacaa2d0f628787604051620002c69291906200079a565b60405180910390a4620002e5816000878787876200037d60201b60201c565b5050505050565b600033905090565b60606000600167ffffffffffffffff811115620003165762000315620007c7565b5b604051908082528060200260200182016040528015620003455781602001602082028036833780820191505090505b509050828160008151811062000360576200035f620007f6565b5b60200260200101818152505080915050919050565b505050505050565b620003a98473ffffffffffffffffffffffffffffffffffffffff166200057760201b6200080a1760201c565b156200056f578373ffffffffffffffffffffffffffffffffffffffff1663f23a6e6187878686866040518663ffffffff1660e01b8152600401620003f29594939291906200090e565b6020604051808303816000875af19250505080156200043157506040513d601f19601f820116820180604052508101906200042e9190620009de565b60015b620004e3576200044062000a1d565b806308c379a01415620004a457506200045862000a78565b80620004655750620004a6565b806040517f08c379a00000000000000000000000000000000000000000000000000000000081526004016200049b919062000b66565b60405180910390fd5b505b6040517f08c379a0000000000000000000000000000000000000000000000000000000008152600401620004da9062000c00565b60405180910390fd5b63f23a6e6160e01b7bffffffffffffffffffffffffffffffffffffffffffffffffffffffff1916817bffffffffffffffffffffffffffffffffffffffffffffffffffffffff1916146200056d576040517f08c379a0000000000000000000000000000000000000000000000000000000008152600401620005649062000c98565b60405180910390fd5b505b505050505050565b6000808273ffffffffffffffffffffffffffffffffffffffff163b119050919050565b828054620005a89062000ce9565b90600052602060002090601f016020900481019282620005cc576000855562000618565b82601f10620005e757805160ff191683800117855562000618565b8280016001018555821562000618579182015b8281111562000617578251825591602001919060010190620005fa565b5b5090506200062791906200062b565b5090565b5b80821115620006465760008160009055506001016200062c565b5090565b600082825260208201905092915050565b7f455243313135353a206d696e7420746f20746865207a65726f2061646472657360008201527f7300000000000000000000000000000000000000000000000000000000000000602082015250565b6000620006b96021836200064a565b9150620006c6826200065b565b604082019050919050565b60006020820190508181036000830152620006ec81620006aa565b9050919050565b6000819050919050565b7f4e487b7100000000000000000000000000000000000000000000000000000000600052601160045260246000fd5b60006200073982620006f3565b91506200074683620006f3565b9250827fffffffffffffffffffffffffffffffffffffffffffffffffffffffffffffffff038211156200077e576200077d620006fd565b5b828201905092915050565b6200079481620006f3565b82525050565b6000604082019050620007b1600083018562000789565b620007c0602083018462000789565b9392505050565b7f4e487b7100000000000000000000000000000000000000000000000000000000600052604160045260246000fd5b7f4e487b7100000000000000000000000000000000000000000000000000000000600052603260045260246000fd5b600073ffffffffffffffffffffffffffffffffffffffff82169050919050565b6000620008528262000825565b9050919050565b620008648162000845565b82525050565b600081519050919050565b600082825260208201905092915050565b60005b83811015620008a657808201518184015260208101905062000889565b83811115620008b6576000848401525b50505050565b6000601f19601f8301169050919050565b6000620008da826200086a565b620008e6818562000875565b9350620008f881856020860162000886565b6200090381620008bc565b840191505092915050565b600060a08201905062000925600083018862000859565b62000934602083018762000859565b62000943604083018662000789565b62000952606083018562000789565b8181036080830152620009668184620008cd565b90509695505050505050565b6000604051905090565b600080fd5b60007fffffffff0000000000000000000000000000000000000000000000000000000082169050919050565b620009b88162000981565b8114620009c457600080fd5b50565b600081519050620009d881620009ad565b92915050565b600060208284031215620009f757620009f66200097c565b5b600062000a0784828501620009c7565b91505092915050565b60008160e01c9050919050565b600060033d111562000a3f5760046000803e62000a3c60005162000a10565b90505b90565b62000a4d82620008bc565b810181811067ffffffffffffffff8211171562000a6f5762000a6e620007c7565b5b80604052505050565b600060443d101562000a8a5762000b17565b62000a9462000972565b60043d036004823e80513d602482011167ffffffffffffffff8211171562000abe57505062000b17565b808201805167ffffffffffffffff81111562000ade575050505062000b17565b80602083010160043d03850181111562000afd57505050505062000b17565b62000b0e8260200185018662000a42565b82955050505050505b90565b600081519050919050565b600062000b328262000b1a565b62000b3e81856200064a565b935062000b5081856020860162000886565b62000b5b81620008bc565b840191505092915050565b6000602082019050818103600083015262000b82818462000b25565b905092915050565b7f455243313135353a207472616e7366657220746f206e6f6e204552433131353560008201527f526563656976657220696d706c656d656e746572000000000000000000000000602082015250565b600062000be86034836200064a565b915062000bf58262000b8a565b604082019050919050565b6000602082019050818103600083015262000c1b8162000bd9565b9050919050565b7f455243313135353a204552433131353552656365697665722072656a6563746560008201527f6420746f6b656e73000000000000000000000000000000000000000000000000602082015250565b600062000c806028836200064a565b915062000c8d8262000c22565b604082019050919050565b6000602082019050818103600083015262000cb38162000c71565b9050919050565b7f4e487b7100000000000000000000000000000000000000000000000000000000600052602260045260246000fd5b6000600282049050600182168062000d0257607f821691505b6020821081141562000d195762000d1862000cba565b5b50919050565b6126bf8062000d2f6000396000f3fe608060405234801561001057600080fd5b50600436106100ce5760003560e01c8063568310581161008c578063e00fd54311610066578063e00fd54314610225578063e3e55f0814610243578063e985e9c514610261578063f242432a14610291576100ce565b806356831058146101cd57806369731c22146101eb578063a22cb46514610209576100ce565b8062fdd58e146100d357806301ffc9a7146101035780630e89341c146101335780632eb2c2d6146101635780633e4bee381461017f5780634e1273f41461019d575b600080fd5b6100ed60048036038101906100e8919061147c565b6102ad565b6040516100fa91906114cb565b60405180910390f35b61011d6004803603810190610118919061153e565b610376565b60405161012a9190611586565b60405180910390f35b61014d600480360381019061014891906115a1565b610458565b60405161015a9190611667565b60405180910390f35b61017d60048036038101906101789190611886565b6104ec565b005b61018761058d565b60405161019491906114cb565b60405180910390f35b6101b760048036038101906101b29190611a18565b610592565b6040516101c49190611b4e565b60405180910390f35b6101d56106ab565b6040516101e29190611b8c565b60405180910390f35b6101f36106b0565b6040516102009190611b8c565b60405180910390f35b610223600480360381019061021e9190611bd3565b6106b5565b005b61022d6106cb565b60405161023a9190611b8c565b60405180910390f35b61024b6106d0565b60405161025891906114cb565b60405180910390f35b61027b60048036038101906102769190611c13565b6106d5565b6040516102889190611586565b60405180910390f35b6102ab60048036038101906102a69190611c53565b610769565b005b60008073ffffffffffffffffffffffffffffffffffffffff168373ffffffffffffffffffffffffffffffffffffffff16141561031e576040517f08c379a000000000000000000000000000000000000000000000000000000000815260040161031590611d5c565b60405180910390fd5b60008083815260200190815260200160002060008473ffffffffffffffffffffffffffffffffffffffff1673ffffffffffffffffffffffffffffffffffffffff16815260200190815260200160002054905092915050565b60007fd9b67a26000000000000000000000000000000000000000000000000000000007bffffffffffffffffffffffffffffffffffffffffffffffffffffffff1916827bffffffffffffffffffffffffffffffffffffffffffffffffffffffff1916148061044157507f0e89341c000000000000000000000000000000000000000000000000000000007bffffffffffffffffffffffffffffffffffffffffffffffffffffffff1916827bffffffffffffffffffffffffffffffffffffffffffffffffffffffff1916145b8061045157506104508261082d565b5b9050919050565b60606002805461046790611dab565b80601f016020809104026020016040519081016040528092919081815260200182805461049390611dab565b80156104e05780601f106104b5576101008083540402835291602001916104e0565b820191906000526020600020905b8154815290600101906020018083116104c357829003601f168201915b50505050509050919050565b6104f4610897565b73ffffffffffffffffffffffffffffffffffffffff168573ffffffffffffffffffffffffffffffffffffffff16148061053a575061053985610534610897565b6106d5565b5b610579576040517f08c379a000000000000000000000000000000000000000000000000000000000815260040161057090611e4f565b60405180910390fd5b610586858585858561089f565b5050505050565b600081565b606081518351146105d8576040517f08c379a00000000000000000000000000000000000000000000000000000000081526004016105cf90611ee1565b60405180910390fd5b6000835167ffffffffffffffff8111156105f5576105f461168e565b5b6040519080825280602002602001820160405280156106235781602001602082028036833780820191505090505b50905060005b84518110156106a05761067085828151811061064857610647611f01565b5b602002602001015185838151811061066357610662611f01565b5b60200260200101516102ad565b82828151811061068357610682611f01565b5b6020026020010181815250508061069990611f5f565b9050610629565b508091505092915050565b600381565b600481565b6106c76106c0610897565b8383610bb3565b5050565b600281565b600181565b6000600160008473ffffffffffffffffffffffffffffffffffffffff1673ffffffffffffffffffffffffffffffffffffffff16815260200190815260200160002060008373ffffffffffffffffffffffffffffffffffffffff1673ffffffffffffffffffffffffffffffffffffffff16815260200190815260200160002060009054906101000a900460ff16905092915050565b610771610897565b73ffffffffffffffffffffffffffffffffffffffff168573ffffffffffffffffffffffffffffffffffffffff1614806107b757506107b6856107b1610897565b6106d5565b5b6107f6576040517f08c379a00000000000000000000000000000000000000000000000000000000081526004016107ed9061201a565b60405180910390fd5b6108038585858585610d20565b5050505050565b6000808273ffffffffffffffffffffffffffffffffffffffff163b119050919050565b60007f01ffc9a7000000000000000000000000000000000000000000000000000000007bffffffffffffffffffffffffffffffffffffffffffffffffffffffff1916827bffffffffffffffffffffffffffffffffffffffffffffffffffffffff1916149050919050565b600033905090565b81518351146108e3576040517f08c379a00000000000000000000000000000000000000000000000000000000081526004016108da906120ac565b60405180910390fd5b600073ffffffffffffffffffffffffffffffffffffffff168473ffffffffffffffffffffffffffffffffffffffff161415610953576040517f08c379a000000000000000000000000000000000000000000000000000000000815260040161094a9061213e565b60405180910390fd5b600061095d610897565b905061096d818787878787610fa2565b60005b8451811015610b1e57600085828151811061098e5761098d611f01565b5b6020026020010151905060008583815181106109ad576109ac611f01565b5b60200260200101519050600080600084815260200190815260200160002060008b73ffffffffffffffffffffffffffffffffffffffff1673ffffffffffffffffffffffffffffffffffffffff16815260200190815260200160002054905081811015610a4e576040517f08c379a0000000000000000000000000000000000000000000000000000000008152600401610a45906121d0565b60405180910390fd5b81810360008085815260200190815260200160002060008c73ffffffffffffffffffffffffffffffffffffffff1673ffffffffffffffffffffffffffffffffffffffff168152602001908152602001600020819055508160008085815260200190815260200160002060008b73ffffffffffffffffffffffffffffffffffffffff1673ffffffffffffffffffffffffffffffffffffffff1681526020019081526020016000206000828254610b0391906121f0565b9250508190555050505080610b1790611f5f565b9050610970565b508473ffffffffffffffffffffffffffffffffffffffff168673ffffffffffffffffffffffffffffffffffffffff168273ffffffffffffffffffffffffffffffffffffffff167f4a39dc06d4c0dbc64b70af90fd698a233a518aa5d07e595d983b8c0526c8f7fb8787604051610b95929190612246565b60405180910390a4610bab818787878787610faa565b505050505050565b8173ffffffffffffffffffffffffffffffffffffffff168373ffffffffffffffffffffffffffffffffffffffff161415610c22576040517f08c379a0000000000000000000000000000000000000000000000000000000008152600401610c19906122ef565b60405180910390fd5b80600160008573ffffffffffffffffffffffffffffffffffffffff1673ffffffffffffffffffffffffffffffffffffffff16815260200190815260200160002060008473ffffffffffffffffffffffffffffffffffffffff1673ffffffffffffffffffffffffffffffffffffffff16815260200190815260200160002060006101000a81548160ff0219169083151502179055508173ffffffffffffffffffffffffffffffffffffffff168373ffffffffffffffffffffffffffffffffffffffff167f17307eab39ab6107e8899845ad3d59bd9653f200f220920489ca2b5937696c3183604051610d139190611586565b60405180910390a3505050565b600073ffffffffffffffffffffffffffffffffffffffff168473ffffffffffffffffffffffffffffffffffffffff161415610d90576040517f08c379a0000000000000000000000000000000000000000000000000000000008152600401610d879061213e565b60405180910390fd5b6000610d9a610897565b9050610dba818787610dab88611182565b610db488611182565b87610fa2565b600080600086815260200190815260200160002060008873ffffffffffffffffffffffffffffffffffffffff1673ffffffffffffffffffffffffffffffffffffffff16815260200190815260200160002054905083811015610e51576040517f08c379a0000000000000000000000000000000000000000000000000000000008152600401610e48906121d0565b60405180910390fd5b83810360008087815260200190815260200160002060008973ffffffffffffffffffffffffffffffffffffffff1673ffffffffffffffffffffffffffffffffffffffff168152602001908152602001600020819055508360008087815260200190815260200160002060008873ffffffffffffffffffffffffffffffffffffffff1673ffffffffffffffffffffffffffffffffffffffff1681526020019081526020016000206000828254610f0691906121f0565b925050819055508573ffffffffffffffffffffffffffffffffffffffff168773ffffffffffffffffffffffffffffffffffffffff168373ffffffffffffffffffffffffffffffffffffffff167fc3d58168c5ae7397731d063d5bbf3d657854427343f4c083240f7aacaa2d0f628888604051610f8392919061230f565b60405180910390a4610f998288888888886111fc565b50505050505050565b505050505050565b610fc98473ffffffffffffffffffffffffffffffffffffffff1661080a565b1561117a578373ffffffffffffffffffffffffffffffffffffffff1663bc197c8187878686866040518663ffffffff1660e01b815260040161100f95949392919061239c565b6020604051808303816000875af192505050801561104b57506040513d601f19601f820116820180604052508101906110489190612419565b60015b6110f157611057612453565b806308c379a014156110b4575061106c612475565b8061107757506110b6565b806040517f08c379a00000000000000000000000000000000000000000000000000000000081526004016110ab9190611667565b60405180910390fd5b505b6040517f08c379a00000000000000000000000000000000000000000000000000000000081526004016110e89061257d565b60405180910390fd5b63bc197c8160e01b7bffffffffffffffffffffffffffffffffffffffffffffffffffffffff1916817bffffffffffffffffffffffffffffffffffffffffffffffffffffffff191614611178576040517f08c379a000000000000000000000000000000000000000000000000000000000815260040161116f9061260f565b60405180910390fd5b505b505050505050565b60606000600167ffffffffffffffff8111156111a1576111a061168e565b5b6040519080825280602002602001820160405280156111cf5781602001602082028036833780820191505090505b50905082816000815181106111e7576111e6611f01565b5b60200260200101818152505080915050919050565b61121b8473ffffffffffffffffffffffffffffffffffffffff1661080a565b156113cc578373ffffffffffffffffffffffffffffffffffffffff1663f23a6e6187878686866040518663ffffffff1660e01b815260040161126195949392919061262f565b6020604051808303816000875af192505050801561129d57506040513d601f19601f8201168201806040525081019061129a9190612419565b60015b611343576112a9612453565b806308c379a0141561130657506112be612475565b806112c95750611308565b806040517f08c379a00000000000000000000000000000000000000000000000000000000081526004016112fd9190611667565b60405180910390fd5b505b6040517f08c379a000000000000000000000000000000000000000000000000000000000815260040161133a9061257d565b60405180910390fd5b63f23a6e6160e01b7bffffffffffffffffffffffffffffffffffffffffffffffffffffffff1916817bffffffffffffffffffffffffffffffffffffffffffffffffffffffff1916146113ca576040517f08c379a00000000000000000000000000000000000000000000000000000000081526004016113c19061260f565b60405180910390fd5b505b505050505050565b6000604051905090565b600080fd5b600080fd5b600073ffffffffffffffffffffffffffffffffffffffff82169050919050565b6000611413826113e8565b9050919050565b61142381611408565b811461142e57600080fd5b50565b6000813590506114408161141a565b92915050565b6000819050919050565b61145981611446565b811461146457600080fd5b50565b60008135905061147681611450565b92915050565b60008060408385031215611493576114926113de565b5b60006114a185828601611431565b92505060206114b285828601611467565b9150509250929050565b6114c581611446565b82525050565b60006020820190506114e060008301846114bc565b92915050565b60007fffffffff0000000000000000000000000000000000000000000000000000000082169050919050565b61151b816114e6565b811461152657600080fd5b50565b60008135905061153881611512565b92915050565b600060208284031215611554576115536113de565b5b600061156284828501611529565b91505092915050565b60008115159050919050565b6115808161156b565b82525050565b600060208201905061159b6000830184611577565b92915050565b6000602082840312156115b7576115b66113de565b5b60006115c584828501611467565b91505092915050565b600081519050919050565b600082825260208201905092915050565b60005b838110156116085780820151818401526020810190506115ed565b83811115611617576000848401525b50505050565b6000601f19601f8301169050919050565b6000611639826115ce565b61164381856115d9565b93506116538185602086016115ea565b61165c8161161d565b840191505092915050565b60006020820190508181036000830152611681818461162e565b905092915050565b600080fd5b7f4e487b7100000000000000000000000000000000000000000000000000000000600052604160045260246000fd5b6116c68261161d565b810181811067ffffffffffffffff821117156116e5576116e461168e565b5b80604052505050565b60006116f86113d4565b905061170482826116bd565b919050565b600067ffffffffffffffff8211156117245761172361168e565b5b602082029050602081019050919050565b600080fd5b600061174d61174884611709565b6116ee565b905080838252602082019050602084028301858111156117705761176f611735565b5b835b8181101561179957806117858882611467565b845260208401935050602081019050611772565b5050509392505050565b600082601f8301126117b8576117b7611689565b5b81356117c884826020860161173a565b91505092915050565b600080fd5b600067ffffffffffffffff8211156117f1576117f061168e565b5b6117fa8261161d565b9050602081019050919050565b82818337600083830152505050565b6000611829611824846117d6565b6116ee565b905082815260208101848484011115611845576118446117d1565b5b611850848285611807565b509392505050565b600082601f83011261186d5761186c611689565b5b813561187d848260208601611816565b91505092915050565b600080600080600060a086880312156118a2576118a16113de565b5b60006118b088828901611431565b95505060206118c188828901611431565b945050604086013567ffffffffffffffff8111156118e2576118e16113e3565b5b6118ee888289016117a3565b935050606086013567ffffffffffffffff81111561190f5761190e6113e3565b5b61191b888289016117a3565b925050608086013567ffffffffffffffff81111561193c5761193b6113e3565b5b61194888828901611858565b9150509295509295909350565b600067ffffffffffffffff8211156119705761196f61168e565b5b602082029050602081019050919050565b600061199461198f84611955565b6116ee565b905080838252602082019050602084028301858111156119b7576119b6611735565b5b835b818110156119e057806119cc8882611431565b8452602084019350506020810190506119b9565b5050509392505050565b600082601f8301126119ff576119fe611689565b5b8135611a0f848260208601611981565b91505092915050565b60008060408385031215611a2f57611a2e6113de565b5b600083013567ffffffffffffffff811115611a4d57611a4c6113e3565b5b611a59858286016119ea565b925050602083013567ffffffffffffffff811115611a7a57611a796113e3565b5b611a86858286016117a3565b9150509250929050565b600081519050919050565b600082825260208201905092915050565b6000819050602082019050919050565b611ac581611446565b82525050565b6000611ad78383611abc565b60208301905092915050565b6000602082019050919050565b6000611afb82611a90565b611b058185611a9b565b9350611b1083611aac565b8060005b83811015611b41578151611b288882611acb565b9750611b3383611ae3565b925050600181019050611b14565b5085935050505092915050565b60006020820190508181036000830152611b688184611af0565b905092915050565b600060ff82169050919050565b611b8681611b70565b82525050565b6000602082019050611ba16000830184611b7d565b92915050565b611bb08161156b565b8114611bbb57600080fd5b50565b600081359050611bcd81611ba7565b92915050565b60008060408385031215611bea57611be96113de565b5b6000611bf885828601611431565b9250506020611c0985828601611bbe565b9150509250929050565b60008060408385031215611c2a57611c296113de565b5b6000611c3885828601611431565b9250506020611c4985828601611431565b9150509250929050565b600080600080600060a08688031215611c6f57611c6e6113de565b5b6000611c7d88828901611431565b9550506020611c8e88828901611431565b9450506040611c9f88828901611467565b9350506060611cb088828901611467565b925050608086013567ffffffffffffffff811115611cd157611cd06113e3565b5b611cdd88828901611858565b9150509295509295909350565b7f455243313135353a2062616c616e636520717565727920666f7220746865207a60008201527f65726f2061646472657373000000000000000000000000000000000000000000602082015250565b6000611d46602b836115d9565b9150611d5182611cea565b604082019050919050565b60006020820190508181036000830152611d7581611d39565b9050919050565b7f4e487b7100000000000000000000000000000000000000000000000000000000600052602260045260246000fd5b60006002820490506001821680611dc357607f821691505b60208210811415611dd757611dd6611d7c565b5b50919050565b7f455243313135353a207472616e736665722063616c6c6572206973206e6f742060008201527f6f776e6572206e6f7220617070726f7665640000000000000000000000000000602082015250565b6000611e396032836115d9565b9150611e4482611ddd565b604082019050919050565b60006020820190508181036000830152611e6881611e2c565b9050919050565b7f455243313135353a206163636f756e747320616e6420696473206c656e67746860008201527f206d69736d617463680000000000000000000000000000000000000000000000602082015250565b6000611ecb6029836115d9565b9150611ed682611e6f565b604082019050919050565b60006020820190508181036000830152611efa81611ebe565b9050919050565b7f4e487b7100000000000000000000000000000000000000000000000000000000600052603260045260246000fd5b7f4e487b7100000000000000000000000000000000000000000000000000000000600052601160045260246000fd5b6000611f6a82611446565b91507fffffffffffffffffffffffffffffffffffffffffffffffffffffffffffffffff821415611f9d57611f9c611f30565b5b600182019050919050565b7f455243313135353a2063616c6c6572206973206e6f74206f776e6572206e6f7260008201527f20617070726f7665640000000000000000000000000000000000000000000000602082015250565b60006120046029836115d9565b915061200f82611fa8565b604082019050919050565b6000602082019050818103600083015261203381611ff7565b9050919050565b7f455243313135353a2069647320616e6420616d6f756e7473206c656e6774682060008201527f6d69736d61746368000000000000000000000000000000000000000000000000602082015250565b60006120966028836115d9565b91506120a18261203a565b604082019050919050565b600060208201905081810360008301526120c581612089565b9050919050565b7f455243313135353a207472616e7366657220746f20746865207a65726f20616460008201527f6472657373000000000000000000000000000000000000000000000000000000602082015250565b60006121286025836115d9565b9150612133826120cc565b604082019050919050565b600060208201905081810360008301526121578161211b565b9050919050565b7f455243313135353a20696e73756666696369656e742062616c616e636520666f60008201527f72207472616e7366657200000000000000000000000000000000000000000000602082015250565b60006121ba602a836115d9565b91506121c58261215e565b604082019050919050565b600060208201905081810360008301526121e9816121ad565b9050919050565b60006121fb82611446565b915061220683611446565b9250827fffffffffffffffffffffffffffffffffffffffffffffffffffffffffffffffff0382111561223b5761223a611f30565b5b828201905092915050565b600060408201905081810360008301526122608185611af0565b905081810360208301526122748184611af0565b90509392505050565b7f455243313135353a2073657474696e6720617070726f76616c2073746174757360008201527f20666f722073656c660000000000000000000000000000000000000000000000602082015250565b60006122d96029836115d9565b91506122e48261227d565b604082019050919050565b60006020820190508181036000830152612308816122cc565b9050919050565b600060408201905061232460008301856114bc565b61233160208301846114bc565b9392505050565b61234181611408565b82525050565b600081519050919050565b600082825260208201905092915050565b600061236e82612347565b6123788185612352565b93506123888185602086016115ea565b6123918161161d565b840191505092915050565b600060a0820190506123b16000830188612338565b6123be6020830187612338565b81810360408301526123d08186611af0565b905081810360608301526123e48185611af0565b905081810360808301526123f88184612363565b90509695505050505050565b60008151905061241381611512565b92915050565b60006020828403121561242f5761242e6113de565b5b600061243d84828501612404565b91505092915050565b60008160e01c9050919050565b600060033d11156124725760046000803e61246f600051612446565b90505b90565b600060443d101561248557612508565b61248d6113d4565b60043d036004823e80513d602482011167ffffffffffffffff821117156124b5575050612508565b808201805167ffffffffffffffff8111156124d35750505050612508565b80602083010160043d0385018111156124f0575050505050612508565b6124ff826020018501866116bd565b82955050505050505b90565b7f455243313135353a207472616e7366657220746f206e6f6e204552433131353560008201527f526563656976657220696d706c656d656e746572000000000000000000000000602082015250565b60006125676034836115d9565b91506125728261250b565b604082019050919050565b600060208201905081810360008301526125968161255a565b9050919050565b7f455243313135353a204552433131353552656365697665722072656a6563746560008201527f6420746f6b656e73000000000000000000000000000000000000000000000000602082015250565b60006125f96028836115d9565b91506126048261259d565b604082019050919050565b60006020820190508181036000830152612628816125ec565b9050919050565b600060a0820190506126446000830188612338565b6126516020830187612338565b61265e60408301866114bc565b61266b60608301856114bc565b818103608083015261267d8184612363565b9050969550505050505056fea2646970667358221220e408affff98ebaa2f88dba496e79da4df2a73ea37033375909ad117edd3c415064736f6c634300080c003368747470733a2f2f67616d652e6578616d706c652f6170692f6974656d2f7b69647d2e6a736f6e",
  "immutableReferences": {},
  "source": "pragma solidity >=0.4.0 <0.9.0;\n\nimport \"@openzeppelin/contracts/token/ERC1155/ERC1155.sol\";\n\ncontract Items is ERC1155 {\n    uint256 public constant GOLD = 0;\n    uint256 public constant SILVER = 1;\n    uint8 public constant BRONZE = 2;\n    uint8 public constant ACCESS2 = 3;\n    uint8 public constant ACCESS3 = 4;\n    mapping(address => bool) accessToSecondLvl;\n    mapping(address => bool) accessToThirdLvl;\n\n    constructor() public ERC1155(\"https://game.example/api/item/{id}.json\") {\n        _mint(msg.sender, GOLD, 1000, \"\");\n        _mint(msg.sender, SILVER, 10000, \"\");\n        _mint(msg.sender, BRONZE, 17000, \"\");\n        _mint(msg.sender, ACCESS2, 10000, \"\");\n        _mint(msg.sender, ACCESS3, 1000, \"\");\n    }\n}\n",
  "sourcePath": "/Users/emilsharafutdinov/Desktop/Work/SR3/Wrdl3/contracts/Tokens.sol",
  "compiler": {
    "name": "solc",
    "version": "0.8.12+commit.f00d7308.Emscripten.clang"
  },
  "schemaVersion": "3.4.4",
  "updatedAt": "2022-03-06T18:12:25.855Z",
  "devdoc": {
    "kind": "dev",
    "methods": {
      "balanceOf(address,uint256)": {
        "details": "See {IERC1155-balanceOf}. Requirements: - `account` cannot be the zero address."
      },
      "balanceOfBatch(address[],uint256[])": {
        "details": "See {IERC1155-balanceOfBatch}. Requirements: - `accounts` and `ids` must have the same length."
      },
      "isApprovedForAll(address,address)": {
        "details": "See {IERC1155-isApprovedForAll}."
      },
      "safeBatchTransferFrom(address,address,uint256[],uint256[],bytes)": {
        "details": "See {IERC1155-safeBatchTransferFrom}."
      },
      "safeTransferFrom(address,address,uint256,uint256,bytes)": {
        "details": "See {IERC1155-safeTransferFrom}."
      },
      "setApprovalForAll(address,bool)": {
        "details": "See {IERC1155-setApprovalForAll}."
      },
      "supportsInterface(bytes4)": {
        "details": "See {IERC165-supportsInterface}."
      },
      "uri(uint256)": {
        "details": "See {IERC1155MetadataURI-uri}. This implementation returns the same URI for *all* token types. It relies on the token type ID substitution mechanism https://eips.ethereum.org/EIPS/eip-1155#metadata[defined in the EIP]. Clients calling this function must replace the `\\{id\\}` substring with the actual token type ID."
      }
    },
    "version": 1
  },
  "userdoc": {
    "kind": "user",
    "methods": {},
    "version": 1
  }
}