{
  "contractName": "Wrdl3BronzeLetters",
  "abi": [
    {
      "anonymous": false,
      "inputs": [
        {
          "indexed": true,
          "internalType": "address",
          "name": "account",
          "type": "address"
        },
        {
          "indexed": true,
          "internalType": "address",
          "name": "operator",
          "type": "address"
        },
        {
          "indexed": false,
          "internalType": "bool",
          "name": "approved",
          "type": "bool"
        }
      ],
      "name": "ApprovalForAll",
      "type": "event"
    },
    {
      "anonymous": false,
      "inputs": [
        {
          "indexed": true,
          "internalType": "address",
          "name": "operator",
          "type": "address"
        },
        {
          "indexed": true,
          "internalType": "address",
          "name": "from",
          "type": "address"
        },
        {
          "indexed": true,
          "internalType": "address",
          "name": "to",
          "type": "address"
        },
        {
          "indexed": false,
          "internalType": "uint256[]",
          "name": "ids",
          "type": "uint256[]"
        },
        {
          "indexed": false,
          "internalType": "uint256[]",
          "name": "values",
          "type": "uint256[]"
        }
      ],
      "name": "TransferBatch",
      "type": "event"
    },
    {
      "anonymous": false,
      "inputs": [
        {
          "indexed": true,
          "internalType": "address",
          "name": "operator",
          "type": "address"
        },
        {
          "indexed": true,
          "internalType": "address",
          "name": "from",
          "type": "address"
        },
        {
          "indexed": true,
          "internalType": "address",
          "name": "to",
          "type": "address"
        },
        {
          "indexed": false,
          "internalType": "uint256",
          "name": "id",
          "type": "uint256"
        },
        {
          "indexed": false,
          "internalType": "uint256",
          "name": "value",
          "type": "uint256"
        }
      ],
      "name": "TransferSingle",
      "type": "event"
    },
    {
      "anonymous": false,
      "inputs": [
        {
          "indexed": false,
          "internalType": "string",
          "name": "value",
          "type": "string"
        },
        {
          "indexed": true,
          "internalType": "uint256",
          "name": "id",
          "type": "uint256"
        }
      ],
      "name": "URI",
      "type": "event"
    },
    {
      "inputs": [],
      "name": "A_Bronze",
      "outputs": [
        {
          "internalType": "uint8",
          "name": "",
          "type": "uint8"
        }
      ],
      "stateMutability": "view",
      "type": "function"
    },
    {
      "inputs": [],
      "name": "BRONZE",
      "outputs": [
        {
          "internalType": "uint256",
          "name": "",
          "type": "uint256"
        }
      ],
      "stateMutability": "view",
      "type": "function"
    },
    {
      "inputs": [],
      "name": "B_Bronze",
      "outputs": [
        {
          "internalType": "uint8",
          "name": "",
          "type": "uint8"
        }
      ],
      "stateMutability": "view",
      "type": "function"
    },
    {
      "inputs": [],
      "name": "C_Bronze",
      "outputs": [
        {
          "internalType": "uint8",
          "name": "",
          "type": "uint8"
        }
      ],
      "stateMutability": "view",
      "type": "function"
    },
    {
      "inputs": [],
      "name": "D_Bronze",
      "outputs": [
        {
          "internalType": "uint8",
          "name": "",
          "type": "uint8"
        }
      ],
      "stateMutability": "view",
      "type": "function"
    },
    {
      "inputs": [],
      "name": "E_Bronze",
      "outputs": [
        {
          "internalType": "uint8",
          "name": "",
          "type": "uint8"
        }
      ],
      "stateMutability": "view",
      "type": "function"
    },
    {
      "inputs": [],
      "name": "F_Bronze",
      "outputs": [
        {
          "internalType": "uint8",
          "name": "",
          "type": "uint8"
        }
      ],
      "stateMutability": "view",
      "type": "function"
    },
    {
      "inputs": [],
      "name": "GOLD",
      "outputs": [
        {
          "internalType": "uint256",
          "name": "",
          "type": "uint256"
        }
      ],
      "stateMutability": "view",
      "type": "function"
    },
    {
      "inputs": [],
      "name": "G_Bronze",
      "outputs": [
        {
          "internalType": "uint8",
          "name": "",
          "type": "uint8"
        }
      ],
      "stateMutability": "view",
      "type": "function"
    },
    {
      "inputs": [],
      "name": "H_Bronze",
      "outputs": [
        {
          "internalType": "uint8",
          "name": "",
          "type": "uint8"
        }
      ],
      "stateMutability": "view",
      "type": "function"
    },
    {
      "inputs": [],
      "name": "I_Bronze",
      "outputs": [
        {
          "internalType": "uint8",
          "name": "",
          "type": "uint8"
        }
      ],
      "stateMutability": "view",
      "type": "function"
    },
    {
      "inputs": [],
      "name": "J_Bronze",
      "outputs": [
        {
          "internalType": "uint8",
          "name": "",
          "type": "uint8"
        }
      ],
      "stateMutability": "view",
      "type": "function"
    },
    {
      "inputs": [],
      "name": "K_Bronze",
      "outputs": [
        {
          "internalType": "uint8",
          "name": "",
          "type": "uint8"
        }
      ],
      "stateMutability": "view",
      "type": "function"
    },
    {
      "inputs": [],
      "name": "LVL2",
      "outputs": [
        {
          "internalType": "uint256",
          "name": "",
          "type": "uint256"
        }
      ],
      "stateMutability": "view",
      "type": "function"
    },
    {
      "inputs": [],
      "name": "LVL3",
      "outputs": [
        {
          "internalType": "uint256",
          "name": "",
          "type": "uint256"
        }
      ],
      "stateMutability": "view",
      "type": "function"
    },
    {
      "inputs": [],
      "name": "L_Bronze",
      "outputs": [
        {
          "internalType": "uint8",
          "name": "",
          "type": "uint8"
        }
      ],
      "stateMutability": "view",
      "type": "function"
    },
    {
      "inputs": [],
      "name": "M_Bronze",
      "outputs": [
        {
          "internalType": "uint8",
          "name": "",
          "type": "uint8"
        }
      ],
      "stateMutability": "view",
      "type": "function"
    },
    {
      "inputs": [],
      "name": "N_Bronze",
      "outputs": [
        {
          "internalType": "uint8",
          "name": "",
          "type": "uint8"
        }
      ],
      "stateMutability": "view",
      "type": "function"
    },
    {
      "inputs": [],
      "name": "O_Bronze",
      "outputs": [
        {
          "internalType": "uint8",
          "name": "",
          "type": "uint8"
        }
      ],
      "stateMutability": "view",
      "type": "function"
    },
    {
      "inputs": [],
      "name": "P_Bronze",
      "outputs": [
        {
          "internalType": "uint8",
          "name": "",
          "type": "uint8"
        }
      ],
      "stateMutability": "view",
      "type": "function"
    },
    {
      "inputs": [],
      "name": "Q_Bronze",
      "outputs": [
        {
          "internalType": "uint8",
          "name": "",
          "type": "uint8"
        }
      ],
      "stateMutability": "view",
      "type": "function"
    },
    {
      "inputs": [],
      "name": "R_Bronze",
      "outputs": [
        {
          "internalType": "uint8",
          "name": "",
          "type": "uint8"
        }
      ],
      "stateMutability": "view",
      "type": "function"
    },
    {
      "inputs": [],
      "name": "SILVER",
      "outputs": [
        {
          "internalType": "uint256",
          "name": "",
          "type": "uint256"
        }
      ],
      "stateMutability": "view",
      "type": "function"
    },
    {
      "inputs": [],
      "name": "S_Bronze",
      "outputs": [
        {
          "internalType": "uint8",
          "name": "",
          "type": "uint8"
        }
      ],
      "stateMutability": "view",
      "type": "function"
    },
    {
      "inputs": [],
      "name": "T_Bronze",
      "outputs": [
        {
          "internalType": "uint8",
          "name": "",
          "type": "uint8"
        }
      ],
      "stateMutability": "view",
      "type": "function"
    },
    {
      "inputs": [],
      "name": "U_Bronze",
      "outputs": [
        {
          "internalType": "uint8",
          "name": "",
          "type": "uint8"
        }
      ],
      "stateMutability": "view",
      "type": "function"
    },
    {
      "inputs": [],
      "name": "V_Bronze",
      "outputs": [
        {
          "internalType": "uint8",
          "name": "",
          "type": "uint8"
        }
      ],
      "stateMutability": "view",
      "type": "function"
    },
    {
      "inputs": [],
      "name": "W_Bronze",
      "outputs": [
        {
          "internalType": "uint8",
          "name": "",
          "type": "uint8"
        }
      ],
      "stateMutability": "view",
      "type": "function"
    },
    {
      "inputs": [],
      "name": "X_Bronze",
      "outputs": [
        {
          "internalType": "uint8",
          "name": "",
          "type": "uint8"
        }
      ],
      "stateMutability": "view",
      "type": "function"
    },
    {
      "inputs": [],
      "name": "Y_Bronze",
      "outputs": [
        {
          "internalType": "uint8",
          "name": "",
          "type": "uint8"
        }
      ],
      "stateMutability": "view",
      "type": "function"
    },
    {
      "inputs": [],
      "name": "Z_Bronze",
      "outputs": [
        {
          "internalType": "uint8",
          "name": "",
          "type": "uint8"
        }
      ],
      "stateMutability": "view",
      "type": "function"
    },
    {
      "inputs": [
        {
          "internalType": "address",
          "name": "player",
          "type": "address"
        }
      ],
      "name": "awardBronze",
      "outputs": [],
      "stateMutability": "nonpayable",
      "type": "function"
    },
    {
      "inputs": [
        {
          "internalType": "address",
          "name": "player",
          "type": "address"
        }
      ],
      "name": "awardGold",
      "outputs": [],
      "stateMutability": "nonpayable",
      "type": "function"
    },
    {
      "inputs": [
        {
          "internalType": "address",
          "name": "player",
          "type": "address"
        }
      ],
      "name": "awardSilver",
      "outputs": [],
      "stateMutability": "nonpayable",
      "type": "function"
    },
    {
      "inputs": [
        {
          "internalType": "address",
          "name": "account",
          "type": "address"
        },
        {
          "internalType": "uint256",
          "name": "id",
          "type": "uint256"
        }
      ],
      "name": "balanceOf",
      "outputs": [
        {
          "internalType": "uint256",
          "name": "",
          "type": "uint256"
        }
      ],
      "stateMutability": "view",
      "type": "function"
    },
    {
      "inputs": [
        {
          "internalType": "address[]",
          "name": "accounts",
          "type": "address[]"
        },
        {
          "internalType": "uint256[]",
          "name": "ids",
          "type": "uint256[]"
        }
      ],
      "name": "balanceOfBatch",
      "outputs": [
        {
          "internalType": "uint256[]",
          "name": "",
          "type": "uint256[]"
        }
      ],
      "stateMutability": "view",
      "type": "function"
    },
    {
      "inputs": [
        {
          "internalType": "address",
          "name": "account",
          "type": "address"
        },
        {
          "internalType": "address",
          "name": "operator",
          "type": "address"
        }
      ],
      "name": "isApprovedForAll",
      "outputs": [
        {
          "internalType": "bool",
          "name": "",
          "type": "bool"
        }
      ],
      "stateMutability": "view",
      "type": "function"
    },
    {
      "inputs": [
        {
          "internalType": "address",
          "name": "player",
          "type": "address"
        }
      ],
      "name": "lvl2Achieve",
      "outputs": [],
      "stateMutability": "nonpayable",
      "type": "function"
    },
    {
      "inputs": [
        {
          "internalType": "address",
          "name": "player",
          "type": "address"
        }
      ],
      "name": "lvl3Achieve",
      "outputs": [],
      "stateMutability": "nonpayable",
      "type": "function"
    },
    {
      "inputs": [
        {
          "internalType": "address",
          "name": "from",
          "type": "address"
        },
        {
          "internalType": "address",
          "name": "to",
          "type": "address"
        },
        {
          "internalType": "uint256[]",
          "name": "ids",
          "type": "uint256[]"
        },
        {
          "internalType": "uint256[]",
          "name": "amounts",
          "type": "uint256[]"
        },
        {
          "internalType": "bytes",
          "name": "data",
          "type": "bytes"
        }
      ],
      "name": "safeBatchTransferFrom",
      "outputs": [],
      "stateMutability": "nonpayable",
      "type": "function"
    },
    {
      "inputs": [
        {
          "internalType": "address",
          "name": "from",
          "type": "address"
        },
        {
          "internalType": "address",
          "name": "to",
          "type": "address"
        },
        {
          "internalType": "uint256",
          "name": "id",
          "type": "uint256"
        },
        {
          "internalType": "uint256",
          "name": "amount",
          "type": "uint256"
        },
        {
          "internalType": "bytes",
          "name": "data",
          "type": "bytes"
        }
      ],
      "name": "safeTransferFrom",
      "outputs": [],
      "stateMutability": "nonpayable",
      "type": "function"
    },
    {
      "inputs": [
        {
          "internalType": "address",
          "name": "operator",
          "type": "address"
        },
        {
          "internalType": "bool",
          "name": "approved",
          "type": "bool"
        }
      ],
      "name": "setApprovalForAll",
      "outputs": [],
      "stateMutability": "nonpayable",
      "type": "function"
    },
    {
      "inputs": [
        {
          "internalType": "bytes4",
          "name": "interfaceId",
          "type": "bytes4"
        }
      ],
      "name": "supportsInterface",
      "outputs": [
        {
          "internalType": "bool",
          "name": "",
          "type": "bool"
        }
      ],
      "stateMutability": "view",
      "type": "function"
    },
    {
      "inputs": [
        {
          "internalType": "uint256",
          "name": "",
          "type": "uint256"
        }
      ],
      "name": "uri",
      "outputs": [
        {
          "internalType": "string",
          "name": "",
          "type": "string"
        }
      ],
      "stateMutability": "view",
      "type": "function"
    },
    {
      "inputs": [
        {
          "internalType": "address",
          "name": "_player",
          "type": "address"
        },
        {
          "internalType": "uint8",
          "name": "_letterId",
          "type": "uint8"
        },
        {
          "internalType": "uint256",
          "name": "_amount",
          "type": "uint256"
        }
      ],
      "name": "buyBronzeLetters",
      "outputs": [],
      "stateMutability": "nonpayable",
      "type": "function"
    }
  ],
  "bytecode": "0x60806040523480156200001157600080fd5b506040518060800160405280605a81526020016200361d605a91396200003d816200004460201b60201c565b5062000175565b80600290805190602001906200005c92919062000060565b5050565b8280546200006e906200013f565b90600052602060002090601f016020900481019282620000925760008555620000de565b82601f10620000ad57805160ff1916838001178555620000de565b82800160010185558215620000de579182015b82811115620000dd578251825591602001919060010190620000c0565b5b509050620000ed9190620000f1565b5090565b5b808211156200010c576000816000905550600101620000f2565b5090565b7f4e487b7100000000000000000000000000000000000000000000000000000000600052602260045260246000fd5b600060028204905060018216806200015857607f821691505b602082108114156200016f576200016e62000110565b5b50919050565b61349880620001856000396000f3fe608060405234801561001057600080fd5b506004361061027e5760003560e01c806387c2a2061161015c578063cb7d6f53116100ce578063e3e55f0811610087578063e3e55f081461074f578063e985e9c51461076d578063e99bc6dc1461079d578063ea10fbd8146107b9578063f242432a146107d7578063f2cdf804146107f35761027e565b8063cb7d6f531461069d578063cd25f743146106bb578063d865287d146106d9578063d9636702146106f7578063e00fd54314610713578063e08b00aa146107315761027e565b8063ae14d90511610120578063ae14d905146105eb578063b14f59f614610607578063ba4dd78a14610625578063bb4965f414610643578063beaeb68514610661578063c758d9cd1461067f5761027e565b806387c2a2061461055b5780638dba8f9a146105795780638f6b2c69146105975780639b1b0a25146105b3578063a22cb465146105cf5761027e565b80633e4bee38116101f55780634e4ccf1d116101b95780634e4ccf1d146104a757806350ace1e2146104c55780636d441437146104e35780636e0dfeca1461050157806374a574811461051f578063834d09711461053d5761027e565b80633e4bee38146103ff57806342e6afd21461041d57806343a87c731461043b5780634cf5ebe2146104595780634e1273f4146104775761027e565b806310d92d461161024757806310d92d461461034f578063277efb891461036b5780632eb2c2d614610389578063300226db146103a557806333d68dda146103c3578063347fddd5146103e15761027e565b8062fdd58e1461028357806301ffc9a7146102b35780630e89341c146102e35780630ec8b0aa146103135780630f32e8ac14610331575b600080fd5b61029d60048036038101906102989190611f99565b610811565b6040516102aa9190611fe8565b60405180910390f35b6102cd60048036038101906102c8919061205b565b6108da565b6040516102da91906120a3565b60405180910390f35b6102fd60048036038101906102f891906120be565b6109bc565b60405161030a9190612184565b60405180910390f35b61031b610a50565b60405161032891906121c2565b60405180910390f35b610339610a55565b60405161034691906121c2565b60405180910390f35b610369600480360381019061036491906121dd565b610a5a565b005b610373610a94565b60405161038091906121c2565b60405180910390f35b6103a3600480360381019061039e9190612407565b610a99565b005b6103ad610b3a565b6040516103ba91906121c2565b60405180910390f35b6103cb610b3f565b6040516103d891906121c2565b60405180910390f35b6103e9610b44565b6040516103f691906121c2565b60405180910390f35b610407610b49565b6040516104149190611fe8565b60405180910390f35b610425610b4e565b60405161043291906121c2565b60405180910390f35b610443610b53565b60405161045091906121c2565b60405180910390f35b610461610b58565b60405161046e91906121c2565b60405180910390f35b610491600480360381019061048c9190612599565b610b5d565b60405161049e91906126cf565b60405180910390f35b6104af610c76565b6040516104bc91906121c2565b60405180910390f35b6104cd610c7b565b6040516104da91906121c2565b60405180910390f35b6104eb610c80565b6040516104f891906121c2565b60405180910390f35b610509610c85565b60405161051691906121c2565b60405180910390f35b610527610c8a565b60405161053491906121c2565b60405180910390f35b610545610c8f565b60405161055291906121c2565b60405180910390f35b610563610c94565b60405161057091906121c2565b60405180910390f35b610581610c99565b60405161058e91906121c2565b60405180910390f35b6105b160048036038101906105ac91906121dd565b610c9e565b005b6105cd60048036038101906105c891906121dd565b610cd7565b005b6105e960048036038101906105e4919061271d565b610d0f565b005b610605600480360381019061060091906121dd565b610d25565b005b61060f610d5f565b60405161061c91906121c2565b60405180910390f35b61062d610d64565b60405161063a91906121c2565b60405180910390f35b61064b610d69565b60405161065891906121c2565b60405180910390f35b610669610d6e565b6040516106769190611fe8565b60405180910390f35b610687610d73565b60405161069491906121c2565b60405180910390f35b6106a5610d78565b6040516106b291906121c2565b60405180910390f35b6106c3610d7d565b6040516106d091906121c2565b60405180910390f35b6106e1610d82565b6040516106ee91906121c2565b60405180910390f35b610711600480360381019061070c91906121dd565b610d87565b005b61071b610da7565b6040516107289190611fe8565b60405180910390f35b610739610dac565b6040516107469190611fe8565b60405180910390f35b610757610db1565b6040516107649190611fe8565b60405180910390f35b6107876004803603810190610782919061275d565b610db6565b60405161079491906120a3565b60405180910390f35b6107b760048036038101906107b291906127c9565b610e4a565b005b6107c1610ec9565b6040516107ce91906121c2565b60405180910390f35b6107f160048036038101906107ec919061281c565b610ece565b005b6107fb610f6f565b60405161080891906121c2565b60405180910390f35b60008073ffffffffffffffffffffffffffffffffffffffff168373ffffffffffffffffffffffffffffffffffffffff161415610882576040517f08c379a000000000000000000000000000000000000000000000000000000000815260040161087990612925565b60405180910390fd5b60008083815260200190815260200160002060008473ffffffffffffffffffffffffffffffffffffffff1673ffffffffffffffffffffffffffffffffffffffff16815260200190815260200160002054905092915050565b60007fd9b67a26000000000000000000000000000000000000000000000000000000007bffffffffffffffffffffffffffffffffffffffffffffffffffffffff1916827bffffffffffffffffffffffffffffffffffffffffffffffffffffffff191614806109a557507f0e89341c000000000000000000000000000000000000000000000000000000007bffffffffffffffffffffffffffffffffffffffffffffffffffffffff1916827bffffffffffffffffffffffffffffffffffffffffffffffffffffffff1916145b806109b557506109b482610f74565b5b9050919050565b6060600280546109cb90612974565b80601f01602080910402602001604051908101604052809291908181526020018280546109f790612974565b8015610a445780601f10610a1957610100808354040283529160200191610a44565b820191906000526020600020905b815481529060010190602001808311610a2757829003601f168201915b50505050509050919050565b601b81565b600e81565b80600a610a68826002610811565b1015610a7357600080fd5b610a90826003600160405180602001604052806000815250610fde565b5050565b601981565b610aa1611174565b73ffffffffffffffffffffffffffffffffffffffff168573ffffffffffffffffffffffffffffffffffffffff161480610ae75750610ae685610ae1611174565b610db6565b5b610b26576040517f08c379a0000000000000000000000000000000000000000000000000000000008152600401610b1d90612a18565b60405180910390fd5b610b33858585858561117c565b5050505050565b601181565b601881565b600781565b600081565b601d81565b600881565b600a81565b60608151835114610ba3576040517f08c379a0000000000000000000000000000000000000000000000000000000008152600401610b9a90612aaa565b60405180910390fd5b6000835167ffffffffffffffff811115610bc057610bbf61220f565b5b604051908082528060200260200182016040528015610bee5781602001602082028036833780820191505090505b50905060005b8451811015610c6b57610c3b858281518110610c1357610c12612aca565b5b6020026020010151858381518110610c2e57610c2d612aca565b5b6020026020010151610811565b828281518110610c4e57610c4d612aca565b5b60200260200101818152505080610c6490612b28565b9050610bf4565b508091505092915050565b600d81565b601c81565b601781565b601e81565b600f81565b600981565b600681565b600b81565b806000610cac826004610811565b11610cb657600080fd5b610cd3826000600160405180602001604052806000815250610fde565b5050565b806000610ce5826003610811565b11610cef57600080fd5b610d0b8260018060405180602001604052806000815250610fde565b5050565b610d21610d1a611174565b8383611490565b5050565b80600a610d33826002610811565b1015610d3e57600080fd5b610d5b826004600160405180602001604052806000815250610fde565b5050565b601081565b600581565b601a81565b600481565b601381565b601481565b601681565b601281565b610da4816002600160405180602001604052806000815250610fde565b50565b600281565b600381565b600181565b6000600160008473ffffffffffffffffffffffffffffffffffffffff1673ffffffffffffffffffffffffffffffffffffffff16815260200190815260200160002060008373ffffffffffffffffffffffffffffffffffffffff1673ffffffffffffffffffffffffffffffffffffffff16815260200190815260200160002060009054906101000a900460ff16905092915050565b806005610e579190612b71565b610e62846002610811565b1015610e6d57600080fd5b60058260ff1610158015610e855750601e8260ff1611155b610e8e57600080fd5b610ea6836002836005610ea19190612b71565b6115fd565b610ec4838360ff168360405180602001604052806000815250610fde565b505050565b600c81565b610ed6611174565b73ffffffffffffffffffffffffffffffffffffffff168573ffffffffffffffffffffffffffffffffffffffff161480610f1c5750610f1b85610f16611174565b610db6565b5b610f5b576040517f08c379a0000000000000000000000000000000000000000000000000000000008152600401610f5290612c3d565b60405180910390fd5b610f68858585858561181a565b5050505050565b601581565b60007f01ffc9a7000000000000000000000000000000000000000000000000000000007bffffffffffffffffffffffffffffffffffffffffffffffffffffffff1916827bffffffffffffffffffffffffffffffffffffffffffffffffffffffff1916149050919050565b600073ffffffffffffffffffffffffffffffffffffffff168473ffffffffffffffffffffffffffffffffffffffff16141561104e576040517f08c379a000000000000000000000000000000000000000000000000000000000815260040161104590612ccf565b60405180910390fd5b6000611058611174565b90506110798160008761106a88611a9c565b61107388611a9c565b87611b16565b8260008086815260200190815260200160002060008773ffffffffffffffffffffffffffffffffffffffff1673ffffffffffffffffffffffffffffffffffffffff16815260200190815260200160002060008282546110d89190612cef565b925050819055508473ffffffffffffffffffffffffffffffffffffffff16600073ffffffffffffffffffffffffffffffffffffffff168273ffffffffffffffffffffffffffffffffffffffff167fc3d58168c5ae7397731d063d5bbf3d657854427343f4c083240f7aacaa2d0f628787604051611156929190612d45565b60405180910390a461116d81600087878787611b1e565b5050505050565b600033905090565b81518351146111c0576040517f08c379a00000000000000000000000000000000000000000000000000000000081526004016111b790612de0565b60405180910390fd5b600073ffffffffffffffffffffffffffffffffffffffff168473ffffffffffffffffffffffffffffffffffffffff161415611230576040517f08c379a000000000000000000000000000000000000000000000000000000000815260040161122790612e72565b60405180910390fd5b600061123a611174565b905061124a818787878787611b16565b60005b84518110156113fb57600085828151811061126b5761126a612aca565b5b60200260200101519050600085838151811061128a57611289612aca565b5b60200260200101519050600080600084815260200190815260200160002060008b73ffffffffffffffffffffffffffffffffffffffff1673ffffffffffffffffffffffffffffffffffffffff1681526020019081526020016000205490508181101561132b576040517f08c379a000000000000000000000000000000000000000000000000000000000815260040161132290612f04565b60405180910390fd5b81810360008085815260200190815260200160002060008c73ffffffffffffffffffffffffffffffffffffffff1673ffffffffffffffffffffffffffffffffffffffff168152602001908152602001600020819055508160008085815260200190815260200160002060008b73ffffffffffffffffffffffffffffffffffffffff1673ffffffffffffffffffffffffffffffffffffffff16815260200190815260200160002060008282546113e09190612cef565b92505081905550505050806113f490612b28565b905061124d565b508473ffffffffffffffffffffffffffffffffffffffff168673ffffffffffffffffffffffffffffffffffffffff168273ffffffffffffffffffffffffffffffffffffffff167f4a39dc06d4c0dbc64b70af90fd698a233a518aa5d07e595d983b8c0526c8f7fb8787604051611472929190612f24565b60405180910390a4611488818787878787611cf6565b505050505050565b8173ffffffffffffffffffffffffffffffffffffffff168373ffffffffffffffffffffffffffffffffffffffff1614156114ff576040517f08c379a00000000000000000000000000000000000000000000000000000000081526004016114f690612fcd565b60405180910390fd5b80600160008573ffffffffffffffffffffffffffffffffffffffff1673ffffffffffffffffffffffffffffffffffffffff16815260200190815260200160002060008473ffffffffffffffffffffffffffffffffffffffff1673ffffffffffffffffffffffffffffffffffffffff16815260200190815260200160002060006101000a81548160ff0219169083151502179055508173ffffffffffffffffffffffffffffffffffffffff168373ffffffffffffffffffffffffffffffffffffffff167f17307eab39ab6107e8899845ad3d59bd9653f200f220920489ca2b5937696c31836040516115f091906120a3565b60405180910390a3505050565b600073ffffffffffffffffffffffffffffffffffffffff168373ffffffffffffffffffffffffffffffffffffffff16141561166d576040517f08c379a00000000000000000000000000000000000000000000000000000000081526004016116649061305f565b60405180910390fd5b6000611677611174565b90506116a78185600061168987611a9c565b61169287611a9c565b60405180602001604052806000815250611b16565b600080600085815260200190815260200160002060008673ffffffffffffffffffffffffffffffffffffffff1673ffffffffffffffffffffffffffffffffffffffff1681526020019081526020016000205490508281101561173e576040517f08c379a0000000000000000000000000000000000000000000000000000000008152600401611735906130f1565b60405180910390fd5b82810360008086815260200190815260200160002060008773ffffffffffffffffffffffffffffffffffffffff1673ffffffffffffffffffffffffffffffffffffffff16815260200190815260200160002081905550600073ffffffffffffffffffffffffffffffffffffffff168573ffffffffffffffffffffffffffffffffffffffff168373ffffffffffffffffffffffffffffffffffffffff167fc3d58168c5ae7397731d063d5bbf3d657854427343f4c083240f7aacaa2d0f62878760405161180b929190612d45565b60405180910390a45050505050565b600073ffffffffffffffffffffffffffffffffffffffff168473ffffffffffffffffffffffffffffffffffffffff16141561188a576040517f08c379a000000000000000000000000000000000000000000000000000000000815260040161188190612e72565b60405180910390fd5b6000611894611174565b90506118b48187876118a588611a9c565b6118ae88611a9c565b87611b16565b600080600086815260200190815260200160002060008873ffffffffffffffffffffffffffffffffffffffff1673ffffffffffffffffffffffffffffffffffffffff1681526020019081526020016000205490508381101561194b576040517f08c379a000000000000000000000000000000000000000000000000000000000815260040161194290612f04565b60405180910390fd5b83810360008087815260200190815260200160002060008973ffffffffffffffffffffffffffffffffffffffff1673ffffffffffffffffffffffffffffffffffffffff168152602001908152602001600020819055508360008087815260200190815260200160002060008873ffffffffffffffffffffffffffffffffffffffff1673ffffffffffffffffffffffffffffffffffffffff1681526020019081526020016000206000828254611a009190612cef565b925050819055508573ffffffffffffffffffffffffffffffffffffffff168773ffffffffffffffffffffffffffffffffffffffff168373ffffffffffffffffffffffffffffffffffffffff167fc3d58168c5ae7397731d063d5bbf3d657854427343f4c083240f7aacaa2d0f628888604051611a7d929190612d45565b60405180910390a4611a93828888888888611b1e565b50505050505050565b60606000600167ffffffffffffffff811115611abb57611aba61220f565b5b604051908082528060200260200182016040528015611ae95781602001602082028036833780820191505090505b5090508281600081518110611b0157611b00612aca565b5b60200260200101818152505080915050919050565b505050505050565b611b3d8473ffffffffffffffffffffffffffffffffffffffff16611ece565b15611cee578373ffffffffffffffffffffffffffffffffffffffff1663f23a6e6187878686866040518663ffffffff1660e01b8152600401611b83959493929190613175565b6020604051808303816000875af1925050508015611bbf57506040513d601f19601f82011682018060405250810190611bbc91906131e4565b60015b611c6557611bcb61321e565b806308c379a01415611c285750611be0613240565b80611beb5750611c2a565b806040517f08c379a0000000000000000000000000000000000000000000000000000000008152600401611c1f9190612184565b60405180910390fd5b505b6040517f08c379a0000000000000000000000000000000000000000000000000000000008152600401611c5c90613348565b60405180910390fd5b63f23a6e6160e01b7bffffffffffffffffffffffffffffffffffffffffffffffffffffffff1916817bffffffffffffffffffffffffffffffffffffffffffffffffffffffff191614611cec576040517f08c379a0000000000000000000000000000000000000000000000000000000008152600401611ce3906133da565b60405180910390fd5b505b505050505050565b611d158473ffffffffffffffffffffffffffffffffffffffff16611ece565b15611ec6578373ffffffffffffffffffffffffffffffffffffffff1663bc197c8187878686866040518663ffffffff1660e01b8152600401611d5b9594939291906133fa565b6020604051808303816000875af1925050508015611d9757506040513d601f19601f82011682018060405250810190611d9491906131e4565b60015b611e3d57611da361321e565b806308c379a01415611e005750611db8613240565b80611dc35750611e02565b806040517f08c379a0000000000000000000000000000000000000000000000000000000008152600401611df79190612184565b60405180910390fd5b505b6040517f08c379a0000000000000000000000000000000000000000000000000000000008152600401611e3490613348565b60405180910390fd5b63bc197c8160e01b7bffffffffffffffffffffffffffffffffffffffffffffffffffffffff1916817bffffffffffffffffffffffffffffffffffffffffffffffffffffffff191614611ec4576040517f08c379a0000000000000000000000000000000000000000000000000000000008152600401611ebb906133da565b60405180910390fd5b505b505050505050565b6000808273ffffffffffffffffffffffffffffffffffffffff163b119050919050565b6000604051905090565b600080fd5b600080fd5b600073ffffffffffffffffffffffffffffffffffffffff82169050919050565b6000611f3082611f05565b9050919050565b611f4081611f25565b8114611f4b57600080fd5b50565b600081359050611f5d81611f37565b92915050565b6000819050919050565b611f7681611f63565b8114611f8157600080fd5b50565b600081359050611f9381611f6d565b92915050565b60008060408385031215611fb057611faf611efb565b5b6000611fbe85828601611f4e565b9250506020611fcf85828601611f84565b9150509250929050565b611fe281611f63565b82525050565b6000602082019050611ffd6000830184611fd9565b92915050565b60007fffffffff0000000000000000000000000000000000000000000000000000000082169050919050565b61203881612003565b811461204357600080fd5b50565b6000813590506120558161202f565b92915050565b60006020828403121561207157612070611efb565b5b600061207f84828501612046565b91505092915050565b60008115159050919050565b61209d81612088565b82525050565b60006020820190506120b86000830184612094565b92915050565b6000602082840312156120d4576120d3611efb565b5b60006120e284828501611f84565b91505092915050565b600081519050919050565b600082825260208201905092915050565b60005b8381101561212557808201518184015260208101905061210a565b83811115612134576000848401525b50505050565b6000601f19601f8301169050919050565b6000612156826120eb565b61216081856120f6565b9350612170818560208601612107565b6121798161213a565b840191505092915050565b6000602082019050818103600083015261219e818461214b565b905092915050565b600060ff82169050919050565b6121bc816121a6565b82525050565b60006020820190506121d760008301846121b3565b92915050565b6000602082840312156121f3576121f2611efb565b5b600061220184828501611f4e565b91505092915050565b600080fd5b7f4e487b7100000000000000000000000000000000000000000000000000000000600052604160045260246000fd5b6122478261213a565b810181811067ffffffffffffffff821117156122665761226561220f565b5b80604052505050565b6000612279611ef1565b9050612285828261223e565b919050565b600067ffffffffffffffff8211156122a5576122a461220f565b5b602082029050602081019050919050565b600080fd5b60006122ce6122c98461228a565b61226f565b905080838252602082019050602084028301858111156122f1576122f06122b6565b5b835b8181101561231a57806123068882611f84565b8452602084019350506020810190506122f3565b5050509392505050565b600082601f8301126123395761233861220a565b5b81356123498482602086016122bb565b91505092915050565b600080fd5b600067ffffffffffffffff8211156123725761237161220f565b5b61237b8261213a565b9050602081019050919050565b82818337600083830152505050565b60006123aa6123a584612357565b61226f565b9050828152602081018484840111156123c6576123c5612352565b5b6123d1848285612388565b509392505050565b600082601f8301126123ee576123ed61220a565b5b81356123fe848260208601612397565b91505092915050565b600080600080600060a0868803121561242357612422611efb565b5b600061243188828901611f4e565b955050602061244288828901611f4e565b945050604086013567ffffffffffffffff81111561246357612462611f00565b5b61246f88828901612324565b935050606086013567ffffffffffffffff8111156124905761248f611f00565b5b61249c88828901612324565b925050608086013567ffffffffffffffff8111156124bd576124bc611f00565b5b6124c9888289016123d9565b9150509295509295909350565b600067ffffffffffffffff8211156124f1576124f061220f565b5b602082029050602081019050919050565b6000612515612510846124d6565b61226f565b90508083825260208201905060208402830185811115612538576125376122b6565b5b835b81811015612561578061254d8882611f4e565b84526020840193505060208101905061253a565b5050509392505050565b600082601f8301126125805761257f61220a565b5b8135612590848260208601612502565b91505092915050565b600080604083850312156125b0576125af611efb565b5b600083013567ffffffffffffffff8111156125ce576125cd611f00565b5b6125da8582860161256b565b925050602083013567ffffffffffffffff8111156125fb576125fa611f00565b5b61260785828601612324565b9150509250929050565b600081519050919050565b600082825260208201905092915050565b6000819050602082019050919050565b61264681611f63565b82525050565b6000612658838361263d565b60208301905092915050565b6000602082019050919050565b600061267c82612611565b612686818561261c565b93506126918361262d565b8060005b838110156126c25781516126a9888261264c565b97506126b483612664565b925050600181019050612695565b5085935050505092915050565b600060208201905081810360008301526126e98184612671565b905092915050565b6126fa81612088565b811461270557600080fd5b50565b600081359050612717816126f1565b92915050565b6000806040838503121561273457612733611efb565b5b600061274285828601611f4e565b925050602061275385828601612708565b9150509250929050565b6000806040838503121561277457612773611efb565b5b600061278285828601611f4e565b925050602061279385828601611f4e565b9150509250929050565b6127a6816121a6565b81146127b157600080fd5b50565b6000813590506127c38161279d565b92915050565b6000806000606084860312156127e2576127e1611efb565b5b60006127f086828701611f4e565b9350506020612801868287016127b4565b925050604061281286828701611f84565b9150509250925092565b600080600080600060a0868803121561283857612837611efb565b5b600061284688828901611f4e565b955050602061285788828901611f4e565b945050604061286888828901611f84565b935050606061287988828901611f84565b925050608086013567ffffffffffffffff81111561289a57612899611f00565b5b6128a6888289016123d9565b9150509295509295909350565b7f455243313135353a2062616c616e636520717565727920666f7220746865207a60008201527f65726f2061646472657373000000000000000000000000000000000000000000602082015250565b600061290f602b836120f6565b915061291a826128b3565b604082019050919050565b6000602082019050818103600083015261293e81612902565b9050919050565b7f4e487b7100000000000000000000000000000000000000000000000000000000600052602260045260246000fd5b6000600282049050600182168061298c57607f821691505b602082108114156129a05761299f612945565b5b50919050565b7f455243313135353a207472616e736665722063616c6c6572206973206e6f742060008201527f6f776e6572206e6f7220617070726f7665640000000000000000000000000000602082015250565b6000612a026032836120f6565b9150612a0d826129a6565b604082019050919050565b60006020820190508181036000830152612a31816129f5565b9050919050565b7f455243313135353a206163636f756e747320616e6420696473206c656e67746860008201527f206d69736d617463680000000000000000000000000000000000000000000000602082015250565b6000612a946029836120f6565b9150612a9f82612a38565b604082019050919050565b60006020820190508181036000830152612ac381612a87565b9050919050565b7f4e487b7100000000000000000000000000000000000000000000000000000000600052603260045260246000fd5b7f4e487b7100000000000000000000000000000000000000000000000000000000600052601160045260246000fd5b6000612b3382611f63565b91507fffffffffffffffffffffffffffffffffffffffffffffffffffffffffffffffff821415612b6657612b65612af9565b5b600182019050919050565b6000612b7c82611f63565b9150612b8783611f63565b9250817fffffffffffffffffffffffffffffffffffffffffffffffffffffffffffffffff0483118215151615612bc057612bbf612af9565b5b828202905092915050565b7f455243313135353a2063616c6c6572206973206e6f74206f776e6572206e6f7260008201527f20617070726f7665640000000000000000000000000000000000000000000000602082015250565b6000612c276029836120f6565b9150612c3282612bcb565b604082019050919050565b60006020820190508181036000830152612c5681612c1a565b9050919050565b7f455243313135353a206d696e7420746f20746865207a65726f2061646472657360008201527f7300000000000000000000000000000000000000000000000000000000000000602082015250565b6000612cb96021836120f6565b9150612cc482612c5d565b604082019050919050565b60006020820190508181036000830152612ce881612cac565b9050919050565b6000612cfa82611f63565b9150612d0583611f63565b9250827fffffffffffffffffffffffffffffffffffffffffffffffffffffffffffffffff03821115612d3a57612d39612af9565b5b828201905092915050565b6000604082019050612d5a6000830185611fd9565b612d676020830184611fd9565b9392505050565b7f455243313135353a2069647320616e6420616d6f756e7473206c656e6774682060008201527f6d69736d61746368000000000000000000000000000000000000000000000000602082015250565b6000612dca6028836120f6565b9150612dd582612d6e565b604082019050919050565b60006020820190508181036000830152612df981612dbd565b9050919050565b7f455243313135353a207472616e7366657220746f20746865207a65726f20616460008201527f6472657373000000000000000000000000000000000000000000000000000000602082015250565b6000612e5c6025836120f6565b9150612e6782612e00565b604082019050919050565b60006020820190508181036000830152612e8b81612e4f565b9050919050565b7f455243313135353a20696e73756666696369656e742062616c616e636520666f60008201527f72207472616e7366657200000000000000000000000000000000000000000000602082015250565b6000612eee602a836120f6565b9150612ef982612e92565b604082019050919050565b60006020820190508181036000830152612f1d81612ee1565b9050919050565b60006040820190508181036000830152612f3e8185612671565b90508181036020830152612f528184612671565b90509392505050565b7f455243313135353a2073657474696e6720617070726f76616c2073746174757360008201527f20666f722073656c660000000000000000000000000000000000000000000000602082015250565b6000612fb76029836120f6565b9150612fc282612f5b565b604082019050919050565b60006020820190508181036000830152612fe681612faa565b9050919050565b7f455243313135353a206275726e2066726f6d20746865207a65726f206164647260008201527f6573730000000000000000000000000000000000000000000000000000000000602082015250565b60006130496023836120f6565b915061305482612fed565b604082019050919050565b600060208201905081810360008301526130788161303c565b9050919050565b7f455243313135353a206275726e20616d6f756e7420657863656564732062616c60008201527f616e636500000000000000000000000000000000000000000000000000000000602082015250565b60006130db6024836120f6565b91506130e68261307f565b604082019050919050565b6000602082019050818103600083015261310a816130ce565b9050919050565b61311a81611f25565b82525050565b600081519050919050565b600082825260208201905092915050565b600061314782613120565b613151818561312b565b9350613161818560208601612107565b61316a8161213a565b840191505092915050565b600060a08201905061318a6000830188613111565b6131976020830187613111565b6131a46040830186611fd9565b6131b16060830185611fd9565b81810360808301526131c3818461313c565b90509695505050505050565b6000815190506131de8161202f565b92915050565b6000602082840312156131fa576131f9611efb565b5b6000613208848285016131cf565b91505092915050565b60008160e01c9050919050565b600060033d111561323d5760046000803e61323a600051613211565b90505b90565b600060443d1015613250576132d3565b613258611ef1565b60043d036004823e80513d602482011167ffffffffffffffff821117156132805750506132d3565b808201805167ffffffffffffffff81111561329e57505050506132d3565b80602083010160043d0385018111156132bb5750505050506132d3565b6132ca8260200185018661223e565b82955050505050505b90565b7f455243313135353a207472616e7366657220746f206e6f6e204552433131353560008201527f526563656976657220696d706c656d656e746572000000000000000000000000602082015250565b60006133326034836120f6565b915061333d826132d6565b604082019050919050565b6000602082019050818103600083015261336181613325565b9050919050565b7f455243313135353a204552433131353552656365697665722072656a6563746560008201527f6420746f6b656e73000000000000000000000000000000000000000000000000602082015250565b60006133c46028836120f6565b91506133cf82613368565b604082019050919050565b600060208201905081810360008301526133f3816133b7565b9050919050565b600060a08201905061340f6000830188613111565b61341c6020830187613111565b818103604083015261342e8186612671565b905081810360608301526134428185612671565b90508181036080830152613456818461313c565b9050969550505050505056fea2646970667358221220cd8a4a44ea04829ec55d8362e7029fd5af11b5cc5db212935f98923571ae4f8564736f6c634300080c003368747470733a2f2f697066732e696f2f697066732f626166796265696374753278336c327061766179716c37376a37716275737233717077697832377374686c6c357177646273736e636869356a65692f7b69647d2e6a736f6e",
  "immutableReferences": {},
  "source": "// SPDX-License-Identifier: MIT\npragma solidity >=0.4.0 <0.9.0;\n\nimport \"./Wrdl3Items.sol\";\n\ncontract Wrdl3BronzeLetters is Wrdl3Items {\n    uint8 public constant A_Bronze = 5;\n    uint8 public constant B_Bronze = 6;\n    uint8 public constant C_Bronze = 7;\n    uint8 public constant D_Bronze = 8;\n    uint8 public constant E_Bronze = 9;\n    uint8 public constant F_Bronze = 10;\n    uint8 public constant G_Bronze = 11;\n    uint8 public constant H_Bronze = 12;\n\n    uint8 public constant I_Bronze = 13;\n    uint8 public constant J_Bronze = 14;\n    uint8 public constant K_Bronze = 15;\n    uint8 public constant L_Bronze = 16;\n    uint8 public constant M_Bronze = 17;\n    uint8 public constant N_Bronze = 18;\n    uint8 public constant O_Bronze = 19;\n    uint8 public constant P_Bronze = 20;\n\n    uint8 public constant Q_Bronze = 21;\n    uint8 public constant R_Bronze = 22;\n    uint8 public constant S_Bronze = 23;\n    uint8 public constant T_Bronze = 24;\n    uint8 public constant U_Bronze = 25;\n    uint8 public constant V_Bronze = 26;\n    uint8 public constant W_Bronze = 27;\n    uint8 public constant X_Bronze = 28;\n\n    uint8 public constant Y_Bronze = 29;\n    uint8 public constant Z_Bronze = 30;\n\n    function buyBronzeLetters(\n        address _player,\n        uint8 _letterId,\n        uint256 _amount\n    ) public {\n        require(balanceOf(_player, BRONZE) >= 5 * _amount);\n        require(_letterId >= 5 && _letterId <= 30);\n        _burn(_player, BRONZE, 5 * _amount);\n        _mint(_player, _letterId, _amount, \"\");\n    }\n}\n",
  "sourcePath": "/Users/emilsharafutdinov/Desktop/Work/SR3/Wrdl3/contracts/Wrdl3BronzeLetters.sol",
  "compiler": {
    "name": "solc",
    "version": "0.8.12+commit.f00d7308.Emscripten.clang"
  },
  "schemaVersion": "3.4.4",
  "updatedAt": "2022-03-09T14:42:13.966Z",
  "devdoc": {
    "kind": "dev",
    "methods": {
      "balanceOf(address,uint256)": {
        "details": "See {IERC1155-balanceOf}. Requirements: - `account` cannot be the zero address."
      },
      "balanceOfBatch(address[],uint256[])": {
        "details": "See {IERC1155-balanceOfBatch}. Requirements: - `accounts` and `ids` must have the same length."
      },
      "isApprovedForAll(address,address)": {
        "details": "See {IERC1155-isApprovedForAll}."
      },
      "safeBatchTransferFrom(address,address,uint256[],uint256[],bytes)": {
        "details": "See {IERC1155-safeBatchTransferFrom}."
      },
      "safeTransferFrom(address,address,uint256,uint256,bytes)": {
        "details": "See {IERC1155-safeTransferFrom}."
      },
      "setApprovalForAll(address,bool)": {
        "details": "See {IERC1155-setApprovalForAll}."
      },
      "supportsInterface(bytes4)": {
        "details": "See {IERC165-supportsInterface}."
      },
      "uri(uint256)": {
        "details": "See {IERC1155MetadataURI-uri}. This implementation returns the same URI for *all* token types. It relies on the token type ID substitution mechanism https://eips.ethereum.org/EIPS/eip-1155#metadata[defined in the EIP]. Clients calling this function must replace the `\\{id\\}` substring with the actual token type ID."
      }
    },
    "version": 1
  },
  "userdoc": {
    "kind": "user",
    "methods": {},
    "version": 1
  }
}