{
  "contractName": "Wrdl3GoldLetters",
  "abi": [
    {
      "anonymous": false,
      "inputs": [
        {
          "indexed": true,
          "internalType": "address",
          "name": "account",
          "type": "address"
        },
        {
          "indexed": true,
          "internalType": "address",
          "name": "operator",
          "type": "address"
        },
        {
          "indexed": false,
          "internalType": "bool",
          "name": "approved",
          "type": "bool"
        }
      ],
      "name": "ApprovalForAll",
      "type": "event"
    },
    {
      "anonymous": false,
      "inputs": [
        {
          "indexed": true,
          "internalType": "address",
          "name": "operator",
          "type": "address"
        },
        {
          "indexed": true,
          "internalType": "address",
          "name": "from",
          "type": "address"
        },
        {
          "indexed": true,
          "internalType": "address",
          "name": "to",
          "type": "address"
        },
        {
          "indexed": false,
          "internalType": "uint256[]",
          "name": "ids",
          "type": "uint256[]"
        },
        {
          "indexed": false,
          "internalType": "uint256[]",
          "name": "values",
          "type": "uint256[]"
        }
      ],
      "name": "TransferBatch",
      "type": "event"
    },
    {
      "anonymous": false,
      "inputs": [
        {
          "indexed": true,
          "internalType": "address",
          "name": "operator",
          "type": "address"
        },
        {
          "indexed": true,
          "internalType": "address",
          "name": "from",
          "type": "address"
        },
        {
          "indexed": true,
          "internalType": "address",
          "name": "to",
          "type": "address"
        },
        {
          "indexed": false,
          "internalType": "uint256",
          "name": "id",
          "type": "uint256"
        },
        {
          "indexed": false,
          "internalType": "uint256",
          "name": "value",
          "type": "uint256"
        }
      ],
      "name": "TransferSingle",
      "type": "event"
    },
    {
      "anonymous": false,
      "inputs": [
        {
          "indexed": false,
          "internalType": "string",
          "name": "value",
          "type": "string"
        },
        {
          "indexed": true,
          "internalType": "uint256",
          "name": "id",
          "type": "uint256"
        }
      ],
      "name": "URI",
      "type": "event"
    },
    {
      "inputs": [],
      "name": "A_Gold",
      "outputs": [
        {
          "internalType": "uint8",
          "name": "",
          "type": "uint8"
        }
      ],
      "stateMutability": "view",
      "type": "function"
    },
    {
      "inputs": [],
      "name": "BRONZE",
      "outputs": [
        {
          "internalType": "uint256",
          "name": "",
          "type": "uint256"
        }
      ],
      "stateMutability": "view",
      "type": "function"
    },
    {
      "inputs": [],
      "name": "B_Gold",
      "outputs": [
        {
          "internalType": "uint8",
          "name": "",
          "type": "uint8"
        }
      ],
      "stateMutability": "view",
      "type": "function"
    },
    {
      "inputs": [],
      "name": "C_Gold",
      "outputs": [
        {
          "internalType": "uint8",
          "name": "",
          "type": "uint8"
        }
      ],
      "stateMutability": "view",
      "type": "function"
    },
    {
      "inputs": [],
      "name": "D_Gold",
      "outputs": [
        {
          "internalType": "uint8",
          "name": "",
          "type": "uint8"
        }
      ],
      "stateMutability": "view",
      "type": "function"
    },
    {
      "inputs": [],
      "name": "E_Gold",
      "outputs": [
        {
          "internalType": "uint8",
          "name": "",
          "type": "uint8"
        }
      ],
      "stateMutability": "view",
      "type": "function"
    },
    {
      "inputs": [],
      "name": "F_Gold",
      "outputs": [
        {
          "internalType": "uint8",
          "name": "",
          "type": "uint8"
        }
      ],
      "stateMutability": "view",
      "type": "function"
    },
    {
      "inputs": [],
      "name": "GOLD",
      "outputs": [
        {
          "internalType": "uint256",
          "name": "",
          "type": "uint256"
        }
      ],
      "stateMutability": "view",
      "type": "function"
    },
    {
      "inputs": [],
      "name": "G_Gold",
      "outputs": [
        {
          "internalType": "uint8",
          "name": "",
          "type": "uint8"
        }
      ],
      "stateMutability": "view",
      "type": "function"
    },
    {
      "inputs": [],
      "name": "H_Gold",
      "outputs": [
        {
          "internalType": "uint8",
          "name": "",
          "type": "uint8"
        }
      ],
      "stateMutability": "view",
      "type": "function"
    },
    {
      "inputs": [],
      "name": "I_Gold",
      "outputs": [
        {
          "internalType": "uint8",
          "name": "",
          "type": "uint8"
        }
      ],
      "stateMutability": "view",
      "type": "function"
    },
    {
      "inputs": [],
      "name": "J_Gold",
      "outputs": [
        {
          "internalType": "uint8",
          "name": "",
          "type": "uint8"
        }
      ],
      "stateMutability": "view",
      "type": "function"
    },
    {
      "inputs": [],
      "name": "K_Gold",
      "outputs": [
        {
          "internalType": "uint8",
          "name": "",
          "type": "uint8"
        }
      ],
      "stateMutability": "view",
      "type": "function"
    },
    {
      "inputs": [],
      "name": "LVL2",
      "outputs": [
        {
          "internalType": "uint256",
          "name": "",
          "type": "uint256"
        }
      ],
      "stateMutability": "view",
      "type": "function"
    },
    {
      "inputs": [],
      "name": "LVL3",
      "outputs": [
        {
          "internalType": "uint256",
          "name": "",
          "type": "uint256"
        }
      ],
      "stateMutability": "view",
      "type": "function"
    },
    {
      "inputs": [],
      "name": "L_Gold",
      "outputs": [
        {
          "internalType": "uint8",
          "name": "",
          "type": "uint8"
        }
      ],
      "stateMutability": "view",
      "type": "function"
    },
    {
      "inputs": [],
      "name": "M_Gold",
      "outputs": [
        {
          "internalType": "uint8",
          "name": "",
          "type": "uint8"
        }
      ],
      "stateMutability": "view",
      "type": "function"
    },
    {
      "inputs": [],
      "name": "N_Gold",
      "outputs": [
        {
          "internalType": "uint8",
          "name": "",
          "type": "uint8"
        }
      ],
      "stateMutability": "view",
      "type": "function"
    },
    {
      "inputs": [],
      "name": "O_Gold",
      "outputs": [
        {
          "internalType": "uint8",
          "name": "",
          "type": "uint8"
        }
      ],
      "stateMutability": "view",
      "type": "function"
    },
    {
      "inputs": [],
      "name": "P_Gold",
      "outputs": [
        {
          "internalType": "uint8",
          "name": "",
          "type": "uint8"
        }
      ],
      "stateMutability": "view",
      "type": "function"
    },
    {
      "inputs": [],
      "name": "Q_Gold",
      "outputs": [
        {
          "internalType": "uint8",
          "name": "",
          "type": "uint8"
        }
      ],
      "stateMutability": "view",
      "type": "function"
    },
    {
      "inputs": [],
      "name": "R_Gold",
      "outputs": [
        {
          "internalType": "uint8",
          "name": "",
          "type": "uint8"
        }
      ],
      "stateMutability": "view",
      "type": "function"
    },
    {
      "inputs": [],
      "name": "SILVER",
      "outputs": [
        {
          "internalType": "uint256",
          "name": "",
          "type": "uint256"
        }
      ],
      "stateMutability": "view",
      "type": "function"
    },
    {
      "inputs": [],
      "name": "S_Gold",
      "outputs": [
        {
          "internalType": "uint8",
          "name": "",
          "type": "uint8"
        }
      ],
      "stateMutability": "view",
      "type": "function"
    },
    {
      "inputs": [],
      "name": "T_Gold",
      "outputs": [
        {
          "internalType": "uint8",
          "name": "",
          "type": "uint8"
        }
      ],
      "stateMutability": "view",
      "type": "function"
    },
    {
      "inputs": [],
      "name": "U_Gold",
      "outputs": [
        {
          "internalType": "uint8",
          "name": "",
          "type": "uint8"
        }
      ],
      "stateMutability": "view",
      "type": "function"
    },
    {
      "inputs": [],
      "name": "V_Gold",
      "outputs": [
        {
          "internalType": "uint8",
          "name": "",
          "type": "uint8"
        }
      ],
      "stateMutability": "view",
      "type": "function"
    },
    {
      "inputs": [],
      "name": "W_Gold",
      "outputs": [
        {
          "internalType": "uint8",
          "name": "",
          "type": "uint8"
        }
      ],
      "stateMutability": "view",
      "type": "function"
    },
    {
      "inputs": [],
      "name": "X_Gold",
      "outputs": [
        {
          "internalType": "uint8",
          "name": "",
          "type": "uint8"
        }
      ],
      "stateMutability": "view",
      "type": "function"
    },
    {
      "inputs": [],
      "name": "Y_Gold",
      "outputs": [
        {
          "internalType": "uint8",
          "name": "",
          "type": "uint8"
        }
      ],
      "stateMutability": "view",
      "type": "function"
    },
    {
      "inputs": [],
      "name": "Z_Gold",
      "outputs": [
        {
          "internalType": "uint8",
          "name": "",
          "type": "uint8"
        }
      ],
      "stateMutability": "view",
      "type": "function"
    },
    {
      "inputs": [
        {
          "internalType": "address",
          "name": "player",
          "type": "address"
        }
      ],
      "name": "awardBronze",
      "outputs": [],
      "stateMutability": "nonpayable",
      "type": "function"
    },
    {
      "inputs": [
        {
          "internalType": "address",
          "name": "player",
          "type": "address"
        }
      ],
      "name": "awardGold",
      "outputs": [],
      "stateMutability": "nonpayable",
      "type": "function"
    },
    {
      "inputs": [
        {
          "internalType": "address",
          "name": "player",
          "type": "address"
        }
      ],
      "name": "awardSilver",
      "outputs": [],
      "stateMutability": "nonpayable",
      "type": "function"
    },
    {
      "inputs": [
        {
          "internalType": "address",
          "name": "account",
          "type": "address"
        },
        {
          "internalType": "uint256",
          "name": "id",
          "type": "uint256"
        }
      ],
      "name": "balanceOf",
      "outputs": [
        {
          "internalType": "uint256",
          "name": "",
          "type": "uint256"
        }
      ],
      "stateMutability": "view",
      "type": "function"
    },
    {
      "inputs": [
        {
          "internalType": "address[]",
          "name": "accounts",
          "type": "address[]"
        },
        {
          "internalType": "uint256[]",
          "name": "ids",
          "type": "uint256[]"
        }
      ],
      "name": "balanceOfBatch",
      "outputs": [
        {
          "internalType": "uint256[]",
          "name": "",
          "type": "uint256[]"
        }
      ],
      "stateMutability": "view",
      "type": "function"
    },
    {
      "inputs": [
        {
          "internalType": "address",
          "name": "account",
          "type": "address"
        },
        {
          "internalType": "address",
          "name": "operator",
          "type": "address"
        }
      ],
      "name": "isApprovedForAll",
      "outputs": [
        {
          "internalType": "bool",
          "name": "",
          "type": "bool"
        }
      ],
      "stateMutability": "view",
      "type": "function"
    },
    {
      "inputs": [
        {
          "internalType": "address",
          "name": "player",
          "type": "address"
        }
      ],
      "name": "lvl2Achieve",
      "outputs": [],
      "stateMutability": "nonpayable",
      "type": "function"
    },
    {
      "inputs": [
        {
          "internalType": "address",
          "name": "player",
          "type": "address"
        }
      ],
      "name": "lvl3Achieve",
      "outputs": [],
      "stateMutability": "nonpayable",
      "type": "function"
    },
    {
      "inputs": [
        {
          "internalType": "address",
          "name": "from",
          "type": "address"
        },
        {
          "internalType": "address",
          "name": "to",
          "type": "address"
        },
        {
          "internalType": "uint256[]",
          "name": "ids",
          "type": "uint256[]"
        },
        {
          "internalType": "uint256[]",
          "name": "amounts",
          "type": "uint256[]"
        },
        {
          "internalType": "bytes",
          "name": "data",
          "type": "bytes"
        }
      ],
      "name": "safeBatchTransferFrom",
      "outputs": [],
      "stateMutability": "nonpayable",
      "type": "function"
    },
    {
      "inputs": [
        {
          "internalType": "address",
          "name": "from",
          "type": "address"
        },
        {
          "internalType": "address",
          "name": "to",
          "type": "address"
        },
        {
          "internalType": "uint256",
          "name": "id",
          "type": "uint256"
        },
        {
          "internalType": "uint256",
          "name": "amount",
          "type": "uint256"
        },
        {
          "internalType": "bytes",
          "name": "data",
          "type": "bytes"
        }
      ],
      "name": "safeTransferFrom",
      "outputs": [],
      "stateMutability": "nonpayable",
      "type": "function"
    },
    {
      "inputs": [
        {
          "internalType": "address",
          "name": "operator",
          "type": "address"
        },
        {
          "internalType": "bool",
          "name": "approved",
          "type": "bool"
        }
      ],
      "name": "setApprovalForAll",
      "outputs": [],
      "stateMutability": "nonpayable",
      "type": "function"
    },
    {
      "inputs": [
        {
          "internalType": "bytes4",
          "name": "interfaceId",
          "type": "bytes4"
        }
      ],
      "name": "supportsInterface",
      "outputs": [
        {
          "internalType": "bool",
          "name": "",
          "type": "bool"
        }
      ],
      "stateMutability": "view",
      "type": "function"
    },
    {
      "inputs": [
        {
          "internalType": "uint256",
          "name": "",
          "type": "uint256"
        }
      ],
      "name": "uri",
      "outputs": [
        {
          "internalType": "string",
          "name": "",
          "type": "string"
        }
      ],
      "stateMutability": "view",
      "type": "function"
    },
    {
      "inputs": [
        {
          "internalType": "address",
          "name": "_player",
          "type": "address"
        },
        {
          "internalType": "uint8",
          "name": "_letterId",
          "type": "uint8"
        },
        {
          "internalType": "uint256",
          "name": "_amount",
          "type": "uint256"
        }
      ],
      "name": "buyGoldLetters",
      "outputs": [],
      "stateMutability": "nonpayable",
      "type": "function"
    }
  ],
  "bytecode": "0x60806040523480156200001157600080fd5b506040518060800160405280605a81526020016200361d605a91396200003d816200004460201b60201c565b5062000175565b80600290805190602001906200005c92919062000060565b5050565b8280546200006e906200013f565b90600052602060002090601f016020900481019282620000925760008555620000de565b82601f10620000ad57805160ff1916838001178555620000de565b82800160010185558215620000de579182015b82811115620000dd578251825591602001919060010190620000c0565b5b509050620000ed9190620000f1565b5090565b5b808211156200010c576000816000905550600101620000f2565b5090565b7f4e487b7100000000000000000000000000000000000000000000000000000000600052602260045260246000fd5b600060028204905060018216806200015857607f821691505b602082108114156200016f576200016e62000110565b5b50919050565b61349880620001856000396000f3fe608060405234801561001057600080fd5b506004361061027e5760003560e01c80638f6b2c691161015c578063d33bc151116100ce578063e985e9c511610087578063e985e9c51461074d578063edf53f821461077d578063f098dff11461079b578063f0a2c229146107b9578063f1170a98146107d7578063f242432a146107f55761027e565b8063d33bc1511461069d578063d73e5794146106b9578063d9636702146106d7578063e00fd543146106f3578063e08b00aa14610711578063e3e55f081461072f5761027e565b8063b65dbd4811610120578063b65dbd48146105e9578063b95df95b14610607578063beaeb68514610625578063c08c261314610643578063c9dade7a14610661578063d1cbd29d1461067f5761027e565b80638f6b2c691461055b5780639b1b0a2514610577578063a062f15914610593578063a22cb465146105b1578063ae14d905146105cd5761027e565b806341d6e2fc116101f557806359248177116101b957806359248177146104a757806361b51fae146104c55780636220d175146104e35780636d4d5d51146105015780637f05e3f21461051f5780638bc187021461053d5761027e565b806341d6e2fc146103ff57806345dfef4a1461041d5780634b19e0ea1461043b5780634e1273f414610459578063528651db146104895761027e565b80630e89341c116102475780630e89341c1461033d57806310d92d461461036d5780631679b8f0146103895780632312fd46146103a75780632eb2c2d6146103c55780633e4bee38146103e15761027e565b8062fdd58e1461028357806301ffc9a7146102b35780630755d141146102e35780630b0b7fa0146103015780630e54972c1461031f575b600080fd5b61029d60048036038101906102989190611f99565b610811565b6040516102aa9190611fe8565b60405180910390f35b6102cd60048036038101906102c8919061205b565b6108da565b6040516102da91906120a3565b60405180910390f35b6102eb6109bc565b6040516102f891906120da565b60405180910390f35b6103096109c1565b60405161031691906120da565b60405180910390f35b6103276109c6565b60405161033491906120da565b60405180910390f35b610357600480360381019061035291906120f5565b6109cb565b60405161036491906121bb565b60405180910390f35b610387600480360381019061038291906121dd565b610a5f565b005b610391610a99565b60405161039e91906120da565b60405180910390f35b6103af610a9e565b6040516103bc91906120da565b60405180910390f35b6103df60048036038101906103da9190612407565b610aa3565b005b6103e9610b44565b6040516103f69190611fe8565b60405180910390f35b610407610b49565b60405161041491906120da565b60405180910390f35b610425610b4e565b60405161043291906120da565b60405180910390f35b610443610b53565b60405161045091906120da565b60405180910390f35b610473600480360381019061046e9190612599565b610b58565b60405161048091906126cf565b60405180910390f35b610491610c71565b60405161049e91906120da565b60405180910390f35b6104af610c76565b6040516104bc91906120da565b60405180910390f35b6104cd610c7b565b6040516104da91906120da565b60405180910390f35b6104eb610c80565b6040516104f891906120da565b60405180910390f35b610509610c85565b60405161051691906120da565b60405180910390f35b610527610c8a565b60405161053491906120da565b60405180910390f35b610545610c8f565b60405161055291906120da565b60405180910390f35b610575600480360381019061057091906121dd565b610c94565b005b610591600480360381019061058c91906121dd565b610ccd565b005b61059b610d05565b6040516105a891906120da565b60405180910390f35b6105cb60048036038101906105c6919061271d565b610d0a565b005b6105e760048036038101906105e291906121dd565b610d20565b005b6105f1610d5a565b6040516105fe91906120da565b60405180910390f35b61060f610d5f565b60405161061c91906120da565b60405180910390f35b61062d610d64565b60405161063a9190611fe8565b60405180910390f35b61064b610d69565b60405161065891906120da565b60405180910390f35b610669610d6e565b60405161067691906120da565b60405180910390f35b610687610d73565b60405161069491906120da565b60405180910390f35b6106b760048036038101906106b29190612789565b610d78565b005b6106c1610df7565b6040516106ce91906120da565b60405180910390f35b6106f160048036038101906106ec91906121dd565b610dfc565b005b6106fb610e1c565b6040516107089190611fe8565b60405180910390f35b610719610e21565b6040516107269190611fe8565b60405180910390f35b610737610e26565b6040516107449190611fe8565b60405180910390f35b610767600480360381019061076291906127dc565b610e2b565b60405161077491906120a3565b60405180910390f35b610785610ebf565b60405161079291906120da565b60405180910390f35b6107a3610ec4565b6040516107b091906120da565b60405180910390f35b6107c1610ec9565b6040516107ce91906120da565b60405180910390f35b6107df610ece565b6040516107ec91906120da565b60405180910390f35b61080f600480360381019061080a919061281c565b610ed3565b005b60008073ffffffffffffffffffffffffffffffffffffffff168373ffffffffffffffffffffffffffffffffffffffff161415610882576040517f08c379a000000000000000000000000000000000000000000000000000000000815260040161087990612925565b60405180910390fd5b60008083815260200190815260200160002060008473ffffffffffffffffffffffffffffffffffffffff1673ffffffffffffffffffffffffffffffffffffffff16815260200190815260200160002054905092915050565b60007fd9b67a26000000000000000000000000000000000000000000000000000000007bffffffffffffffffffffffffffffffffffffffffffffffffffffffff1916827bffffffffffffffffffffffffffffffffffffffffffffffffffffffff191614806109a557507f0e89341c000000000000000000000000000000000000000000000000000000007bffffffffffffffffffffffffffffffffffffffffffffffffffffffff1916827bffffffffffffffffffffffffffffffffffffffffffffffffffffffff1916145b806109b557506109b482610f74565b5b9050919050565b604381565b603b81565b604981565b6060600280546109da90612974565b80601f0160208091040260200160405190810160405280929190818152602001828054610a0690612974565b8015610a535780601f10610a2857610100808354040283529160200191610a53565b820191906000526020600020905b815481529060010190602001808311610a3657829003601f168201915b50505050509050919050565b80600a610a6d826002610811565b1015610a7857600080fd5b610a95826003600160405180602001604052806000815250610fde565b5050565b603f81565b604c81565b610aab611174565b73ffffffffffffffffffffffffffffffffffffffff168573ffffffffffffffffffffffffffffffffffffffff161480610af15750610af085610aeb611174565b610e2b565b5b610b30576040517f08c379a0000000000000000000000000000000000000000000000000000000008152600401610b2790612a18565b60405180910390fd5b610b3d858585858561117c565b5050505050565b600081565b603d81565b603c81565b604581565b60608151835114610b9e576040517f08c379a0000000000000000000000000000000000000000000000000000000008152600401610b9590612aaa565b60405180910390fd5b6000835167ffffffffffffffff811115610bbb57610bba61220f565b5b604051908082528060200260200182016040528015610be95781602001602082028036833780820191505090505b50905060005b8451811015610c6657610c36858281518110610c0e57610c0d612aca565b5b6020026020010151858381518110610c2957610c28612aca565b5b6020026020010151610811565b828281518110610c4957610c48612aca565b5b60200260200101818152505080610c5f90612b28565b9050610bef565b508091505092915050565b604e81565b604d81565b604f81565b604281565b605181565b603a81565b604881565b806000610ca2826004610811565b11610cac57600080fd5b610cc9826000600160405180602001604052806000815250610fde565b5050565b806000610cdb826003610811565b11610ce557600080fd5b610d018260018060405180602001604052806000815250610fde565b5050565b605081565b610d1c610d15611174565b8383611490565b5050565b80600a610d2e826002610811565b1015610d3957600080fd5b610d56826004600160405180602001604052806000815250610fde565b5050565b604b81565b604081565b600481565b603e81565b603981565b605281565b806005610d859190612b71565b610d90846000610811565b1015610d9b57600080fd5b60398260ff1610158015610db3575060528260ff1611155b610dbc57600080fd5b610dd4836000836005610dcf9190612b71565b6115fd565b610df2838360ff168360405180602001604052806000815250610fde565b505050565b604a81565b610e19816002600160405180602001604052806000815250610fde565b50565b600281565b600381565b600181565b6000600160008473ffffffffffffffffffffffffffffffffffffffff1673ffffffffffffffffffffffffffffffffffffffff16815260200190815260200160002060008373ffffffffffffffffffffffffffffffffffffffff1673ffffffffffffffffffffffffffffffffffffffff16815260200190815260200160002060009054906101000a900460ff16905092915050565b604781565b604481565b604681565b604181565b610edb611174565b73ffffffffffffffffffffffffffffffffffffffff168573ffffffffffffffffffffffffffffffffffffffff161480610f215750610f2085610f1b611174565b610e2b565b5b610f60576040517f08c379a0000000000000000000000000000000000000000000000000000000008152600401610f5790612c3d565b60405180910390fd5b610f6d858585858561181a565b5050505050565b60007f01ffc9a7000000000000000000000000000000000000000000000000000000007bffffffffffffffffffffffffffffffffffffffffffffffffffffffff1916827bffffffffffffffffffffffffffffffffffffffffffffffffffffffff1916149050919050565b600073ffffffffffffffffffffffffffffffffffffffff168473ffffffffffffffffffffffffffffffffffffffff16141561104e576040517f08c379a000000000000000000000000000000000000000000000000000000000815260040161104590612ccf565b60405180910390fd5b6000611058611174565b90506110798160008761106a88611a9c565b61107388611a9c565b87611b16565b8260008086815260200190815260200160002060008773ffffffffffffffffffffffffffffffffffffffff1673ffffffffffffffffffffffffffffffffffffffff16815260200190815260200160002060008282546110d89190612cef565b925050819055508473ffffffffffffffffffffffffffffffffffffffff16600073ffffffffffffffffffffffffffffffffffffffff168273ffffffffffffffffffffffffffffffffffffffff167fc3d58168c5ae7397731d063d5bbf3d657854427343f4c083240f7aacaa2d0f628787604051611156929190612d45565b60405180910390a461116d81600087878787611b1e565b5050505050565b600033905090565b81518351146111c0576040517f08c379a00000000000000000000000000000000000000000000000000000000081526004016111b790612de0565b60405180910390fd5b600073ffffffffffffffffffffffffffffffffffffffff168473ffffffffffffffffffffffffffffffffffffffff161415611230576040517f08c379a000000000000000000000000000000000000000000000000000000000815260040161122790612e72565b60405180910390fd5b600061123a611174565b905061124a818787878787611b16565b60005b84518110156113fb57600085828151811061126b5761126a612aca565b5b60200260200101519050600085838151811061128a57611289612aca565b5b60200260200101519050600080600084815260200190815260200160002060008b73ffffffffffffffffffffffffffffffffffffffff1673ffffffffffffffffffffffffffffffffffffffff1681526020019081526020016000205490508181101561132b576040517f08c379a000000000000000000000000000000000000000000000000000000000815260040161132290612f04565b60405180910390fd5b81810360008085815260200190815260200160002060008c73ffffffffffffffffffffffffffffffffffffffff1673ffffffffffffffffffffffffffffffffffffffff168152602001908152602001600020819055508160008085815260200190815260200160002060008b73ffffffffffffffffffffffffffffffffffffffff1673ffffffffffffffffffffffffffffffffffffffff16815260200190815260200160002060008282546113e09190612cef565b92505081905550505050806113f490612b28565b905061124d565b508473ffffffffffffffffffffffffffffffffffffffff168673ffffffffffffffffffffffffffffffffffffffff168273ffffffffffffffffffffffffffffffffffffffff167f4a39dc06d4c0dbc64b70af90fd698a233a518aa5d07e595d983b8c0526c8f7fb8787604051611472929190612f24565b60405180910390a4611488818787878787611cf6565b505050505050565b8173ffffffffffffffffffffffffffffffffffffffff168373ffffffffffffffffffffffffffffffffffffffff1614156114ff576040517f08c379a00000000000000000000000000000000000000000000000000000000081526004016114f690612fcd565b60405180910390fd5b80600160008573ffffffffffffffffffffffffffffffffffffffff1673ffffffffffffffffffffffffffffffffffffffff16815260200190815260200160002060008473ffffffffffffffffffffffffffffffffffffffff1673ffffffffffffffffffffffffffffffffffffffff16815260200190815260200160002060006101000a81548160ff0219169083151502179055508173ffffffffffffffffffffffffffffffffffffffff168373ffffffffffffffffffffffffffffffffffffffff167f17307eab39ab6107e8899845ad3d59bd9653f200f220920489ca2b5937696c31836040516115f091906120a3565b60405180910390a3505050565b600073ffffffffffffffffffffffffffffffffffffffff168373ffffffffffffffffffffffffffffffffffffffff16141561166d576040517f08c379a00000000000000000000000000000000000000000000000000000000081526004016116649061305f565b60405180910390fd5b6000611677611174565b90506116a78185600061168987611a9c565b61169287611a9c565b60405180602001604052806000815250611b16565b600080600085815260200190815260200160002060008673ffffffffffffffffffffffffffffffffffffffff1673ffffffffffffffffffffffffffffffffffffffff1681526020019081526020016000205490508281101561173e576040517f08c379a0000000000000000000000000000000000000000000000000000000008152600401611735906130f1565b60405180910390fd5b82810360008086815260200190815260200160002060008773ffffffffffffffffffffffffffffffffffffffff1673ffffffffffffffffffffffffffffffffffffffff16815260200190815260200160002081905550600073ffffffffffffffffffffffffffffffffffffffff168573ffffffffffffffffffffffffffffffffffffffff168373ffffffffffffffffffffffffffffffffffffffff167fc3d58168c5ae7397731d063d5bbf3d657854427343f4c083240f7aacaa2d0f62878760405161180b929190612d45565b60405180910390a45050505050565b600073ffffffffffffffffffffffffffffffffffffffff168473ffffffffffffffffffffffffffffffffffffffff16141561188a576040517f08c379a000000000000000000000000000000000000000000000000000000000815260040161188190612e72565b60405180910390fd5b6000611894611174565b90506118b48187876118a588611a9c565b6118ae88611a9c565b87611b16565b600080600086815260200190815260200160002060008873ffffffffffffffffffffffffffffffffffffffff1673ffffffffffffffffffffffffffffffffffffffff1681526020019081526020016000205490508381101561194b576040517f08c379a000000000000000000000000000000000000000000000000000000000815260040161194290612f04565b60405180910390fd5b83810360008087815260200190815260200160002060008973ffffffffffffffffffffffffffffffffffffffff1673ffffffffffffffffffffffffffffffffffffffff168152602001908152602001600020819055508360008087815260200190815260200160002060008873ffffffffffffffffffffffffffffffffffffffff1673ffffffffffffffffffffffffffffffffffffffff1681526020019081526020016000206000828254611a009190612cef565b925050819055508573ffffffffffffffffffffffffffffffffffffffff168773ffffffffffffffffffffffffffffffffffffffff168373ffffffffffffffffffffffffffffffffffffffff167fc3d58168c5ae7397731d063d5bbf3d657854427343f4c083240f7aacaa2d0f628888604051611a7d929190612d45565b60405180910390a4611a93828888888888611b1e565b50505050505050565b60606000600167ffffffffffffffff811115611abb57611aba61220f565b5b604051908082528060200260200182016040528015611ae95781602001602082028036833780820191505090505b5090508281600081518110611b0157611b00612aca565b5b60200260200101818152505080915050919050565b505050505050565b611b3d8473ffffffffffffffffffffffffffffffffffffffff16611ece565b15611cee578373ffffffffffffffffffffffffffffffffffffffff1663f23a6e6187878686866040518663ffffffff1660e01b8152600401611b83959493929190613175565b6020604051808303816000875af1925050508015611bbf57506040513d601f19601f82011682018060405250810190611bbc91906131e4565b60015b611c6557611bcb61321e565b806308c379a01415611c285750611be0613240565b80611beb5750611c2a565b806040517f08c379a0000000000000000000000000000000000000000000000000000000008152600401611c1f91906121bb565b60405180910390fd5b505b6040517f08c379a0000000000000000000000000000000000000000000000000000000008152600401611c5c90613348565b60405180910390fd5b63f23a6e6160e01b7bffffffffffffffffffffffffffffffffffffffffffffffffffffffff1916817bffffffffffffffffffffffffffffffffffffffffffffffffffffffff191614611cec576040517f08c379a0000000000000000000000000000000000000000000000000000000008152600401611ce3906133da565b60405180910390fd5b505b505050505050565b611d158473ffffffffffffffffffffffffffffffffffffffff16611ece565b15611ec6578373ffffffffffffffffffffffffffffffffffffffff1663bc197c8187878686866040518663ffffffff1660e01b8152600401611d5b9594939291906133fa565b6020604051808303816000875af1925050508015611d9757506040513d601f19601f82011682018060405250810190611d9491906131e4565b60015b611e3d57611da361321e565b806308c379a01415611e005750611db8613240565b80611dc35750611e02565b806040517f08c379a0000000000000000000000000000000000000000000000000000000008152600401611df791906121bb565b60405180910390fd5b505b6040517f08c379a0000000000000000000000000000000000000000000000000000000008152600401611e3490613348565b60405180910390fd5b63bc197c8160e01b7bffffffffffffffffffffffffffffffffffffffffffffffffffffffff1916817bffffffffffffffffffffffffffffffffffffffffffffffffffffffff191614611ec4576040517f08c379a0000000000000000000000000000000000000000000000000000000008152600401611ebb906133da565b60405180910390fd5b505b505050505050565b6000808273ffffffffffffffffffffffffffffffffffffffff163b119050919050565b6000604051905090565b600080fd5b600080fd5b600073ffffffffffffffffffffffffffffffffffffffff82169050919050565b6000611f3082611f05565b9050919050565b611f4081611f25565b8114611f4b57600080fd5b50565b600081359050611f5d81611f37565b92915050565b6000819050919050565b611f7681611f63565b8114611f8157600080fd5b50565b600081359050611f9381611f6d565b92915050565b60008060408385031215611fb057611faf611efb565b5b6000611fbe85828601611f4e565b9250506020611fcf85828601611f84565b9150509250929050565b611fe281611f63565b82525050565b6000602082019050611ffd6000830184611fd9565b92915050565b60007fffffffff0000000000000000000000000000000000000000000000000000000082169050919050565b61203881612003565b811461204357600080fd5b50565b6000813590506120558161202f565b92915050565b60006020828403121561207157612070611efb565b5b600061207f84828501612046565b91505092915050565b60008115159050919050565b61209d81612088565b82525050565b60006020820190506120b86000830184612094565b92915050565b600060ff82169050919050565b6120d4816120be565b82525050565b60006020820190506120ef60008301846120cb565b92915050565b60006020828403121561210b5761210a611efb565b5b600061211984828501611f84565b91505092915050565b600081519050919050565b600082825260208201905092915050565b60005b8381101561215c578082015181840152602081019050612141565b8381111561216b576000848401525b50505050565b6000601f19601f8301169050919050565b600061218d82612122565b612197818561212d565b93506121a781856020860161213e565b6121b081612171565b840191505092915050565b600060208201905081810360008301526121d58184612182565b905092915050565b6000602082840312156121f3576121f2611efb565b5b600061220184828501611f4e565b91505092915050565b600080fd5b7f4e487b7100000000000000000000000000000000000000000000000000000000600052604160045260246000fd5b61224782612171565b810181811067ffffffffffffffff821117156122665761226561220f565b5b80604052505050565b6000612279611ef1565b9050612285828261223e565b919050565b600067ffffffffffffffff8211156122a5576122a461220f565b5b602082029050602081019050919050565b600080fd5b60006122ce6122c98461228a565b61226f565b905080838252602082019050602084028301858111156122f1576122f06122b6565b5b835b8181101561231a57806123068882611f84565b8452602084019350506020810190506122f3565b5050509392505050565b600082601f8301126123395761233861220a565b5b81356123498482602086016122bb565b91505092915050565b600080fd5b600067ffffffffffffffff8211156123725761237161220f565b5b61237b82612171565b9050602081019050919050565b82818337600083830152505050565b60006123aa6123a584612357565b61226f565b9050828152602081018484840111156123c6576123c5612352565b5b6123d1848285612388565b509392505050565b600082601f8301126123ee576123ed61220a565b5b81356123fe848260208601612397565b91505092915050565b600080600080600060a0868803121561242357612422611efb565b5b600061243188828901611f4e565b955050602061244288828901611f4e565b945050604086013567ffffffffffffffff81111561246357612462611f00565b5b61246f88828901612324565b935050606086013567ffffffffffffffff8111156124905761248f611f00565b5b61249c88828901612324565b925050608086013567ffffffffffffffff8111156124bd576124bc611f00565b5b6124c9888289016123d9565b9150509295509295909350565b600067ffffffffffffffff8211156124f1576124f061220f565b5b602082029050602081019050919050565b6000612515612510846124d6565b61226f565b90508083825260208201905060208402830185811115612538576125376122b6565b5b835b81811015612561578061254d8882611f4e565b84526020840193505060208101905061253a565b5050509392505050565b600082601f8301126125805761257f61220a565b5b8135612590848260208601612502565b91505092915050565b600080604083850312156125b0576125af611efb565b5b600083013567ffffffffffffffff8111156125ce576125cd611f00565b5b6125da8582860161256b565b925050602083013567ffffffffffffffff8111156125fb576125fa611f00565b5b61260785828601612324565b9150509250929050565b600081519050919050565b600082825260208201905092915050565b6000819050602082019050919050565b61264681611f63565b82525050565b6000612658838361263d565b60208301905092915050565b6000602082019050919050565b600061267c82612611565b612686818561261c565b93506126918361262d565b8060005b838110156126c25781516126a9888261264c565b97506126b483612664565b925050600181019050612695565b5085935050505092915050565b600060208201905081810360008301526126e98184612671565b905092915050565b6126fa81612088565b811461270557600080fd5b50565b600081359050612717816126f1565b92915050565b6000806040838503121561273457612733611efb565b5b600061274285828601611f4e565b925050602061275385828601612708565b9150509250929050565b612766816120be565b811461277157600080fd5b50565b6000813590506127838161275d565b92915050565b6000806000606084860312156127a2576127a1611efb565b5b60006127b086828701611f4e565b93505060206127c186828701612774565b92505060406127d286828701611f84565b9150509250925092565b600080604083850312156127f3576127f2611efb565b5b600061280185828601611f4e565b925050602061281285828601611f4e565b9150509250929050565b600080600080600060a0868803121561283857612837611efb565b5b600061284688828901611f4e565b955050602061285788828901611f4e565b945050604061286888828901611f84565b935050606061287988828901611f84565b925050608086013567ffffffffffffffff81111561289a57612899611f00565b5b6128a6888289016123d9565b9150509295509295909350565b7f455243313135353a2062616c616e636520717565727920666f7220746865207a60008201527f65726f2061646472657373000000000000000000000000000000000000000000602082015250565b600061290f602b8361212d565b915061291a826128b3565b604082019050919050565b6000602082019050818103600083015261293e81612902565b9050919050565b7f4e487b7100000000000000000000000000000000000000000000000000000000600052602260045260246000fd5b6000600282049050600182168061298c57607f821691505b602082108114156129a05761299f612945565b5b50919050565b7f455243313135353a207472616e736665722063616c6c6572206973206e6f742060008201527f6f776e6572206e6f7220617070726f7665640000000000000000000000000000602082015250565b6000612a0260328361212d565b9150612a0d826129a6565b604082019050919050565b60006020820190508181036000830152612a31816129f5565b9050919050565b7f455243313135353a206163636f756e747320616e6420696473206c656e67746860008201527f206d69736d617463680000000000000000000000000000000000000000000000602082015250565b6000612a9460298361212d565b9150612a9f82612a38565b604082019050919050565b60006020820190508181036000830152612ac381612a87565b9050919050565b7f4e487b7100000000000000000000000000000000000000000000000000000000600052603260045260246000fd5b7f4e487b7100000000000000000000000000000000000000000000000000000000600052601160045260246000fd5b6000612b3382611f63565b91507fffffffffffffffffffffffffffffffffffffffffffffffffffffffffffffffff821415612b6657612b65612af9565b5b600182019050919050565b6000612b7c82611f63565b9150612b8783611f63565b9250817fffffffffffffffffffffffffffffffffffffffffffffffffffffffffffffffff0483118215151615612bc057612bbf612af9565b5b828202905092915050565b7f455243313135353a2063616c6c6572206973206e6f74206f776e6572206e6f7260008201527f20617070726f7665640000000000000000000000000000000000000000000000602082015250565b6000612c2760298361212d565b9150612c3282612bcb565b604082019050919050565b60006020820190508181036000830152612c5681612c1a565b9050919050565b7f455243313135353a206d696e7420746f20746865207a65726f2061646472657360008201527f7300000000000000000000000000000000000000000000000000000000000000602082015250565b6000612cb960218361212d565b9150612cc482612c5d565b604082019050919050565b60006020820190508181036000830152612ce881612cac565b9050919050565b6000612cfa82611f63565b9150612d0583611f63565b9250827fffffffffffffffffffffffffffffffffffffffffffffffffffffffffffffffff03821115612d3a57612d39612af9565b5b828201905092915050565b6000604082019050612d5a6000830185611fd9565b612d676020830184611fd9565b9392505050565b7f455243313135353a2069647320616e6420616d6f756e7473206c656e6774682060008201527f6d69736d61746368000000000000000000000000000000000000000000000000602082015250565b6000612dca60288361212d565b9150612dd582612d6e565b604082019050919050565b60006020820190508181036000830152612df981612dbd565b9050919050565b7f455243313135353a207472616e7366657220746f20746865207a65726f20616460008201527f6472657373000000000000000000000000000000000000000000000000000000602082015250565b6000612e5c60258361212d565b9150612e6782612e00565b604082019050919050565b60006020820190508181036000830152612e8b81612e4f565b9050919050565b7f455243313135353a20696e73756666696369656e742062616c616e636520666f60008201527f72207472616e7366657200000000000000000000000000000000000000000000602082015250565b6000612eee602a8361212d565b9150612ef982612e92565b604082019050919050565b60006020820190508181036000830152612f1d81612ee1565b9050919050565b60006040820190508181036000830152612f3e8185612671565b90508181036020830152612f528184612671565b90509392505050565b7f455243313135353a2073657474696e6720617070726f76616c2073746174757360008201527f20666f722073656c660000000000000000000000000000000000000000000000602082015250565b6000612fb760298361212d565b9150612fc282612f5b565b604082019050919050565b60006020820190508181036000830152612fe681612faa565b9050919050565b7f455243313135353a206275726e2066726f6d20746865207a65726f206164647260008201527f6573730000000000000000000000000000000000000000000000000000000000602082015250565b600061304960238361212d565b915061305482612fed565b604082019050919050565b600060208201905081810360008301526130788161303c565b9050919050565b7f455243313135353a206275726e20616d6f756e7420657863656564732062616c60008201527f616e636500000000000000000000000000000000000000000000000000000000602082015250565b60006130db60248361212d565b91506130e68261307f565b604082019050919050565b6000602082019050818103600083015261310a816130ce565b9050919050565b61311a81611f25565b82525050565b600081519050919050565b600082825260208201905092915050565b600061314782613120565b613151818561312b565b935061316181856020860161213e565b61316a81612171565b840191505092915050565b600060a08201905061318a6000830188613111565b6131976020830187613111565b6131a46040830186611fd9565b6131b16060830185611fd9565b81810360808301526131c3818461313c565b90509695505050505050565b6000815190506131de8161202f565b92915050565b6000602082840312156131fa576131f9611efb565b5b6000613208848285016131cf565b91505092915050565b60008160e01c9050919050565b600060033d111561323d5760046000803e61323a600051613211565b90505b90565b600060443d1015613250576132d3565b613258611ef1565b60043d036004823e80513d602482011167ffffffffffffffff821117156132805750506132d3565b808201805167ffffffffffffffff81111561329e57505050506132d3565b80602083010160043d0385018111156132bb5750505050506132d3565b6132ca8260200185018661223e565b82955050505050505b90565b7f455243313135353a207472616e7366657220746f206e6f6e204552433131353560008201527f526563656976657220696d706c656d656e746572000000000000000000000000602082015250565b600061333260348361212d565b915061333d826132d6565b604082019050919050565b6000602082019050818103600083015261336181613325565b9050919050565b7f455243313135353a204552433131353552656365697665722072656a6563746560008201527f6420746f6b656e73000000000000000000000000000000000000000000000000602082015250565b60006133c460288361212d565b91506133cf82613368565b604082019050919050565b600060208201905081810360008301526133f3816133b7565b9050919050565b600060a08201905061340f6000830188613111565b61341c6020830187613111565b818103604083015261342e8186612671565b905081810360608301526134428185612671565b90508181036080830152613456818461313c565b9050969550505050505056fea26469706673582212201a4958557e5e35abcc972846d5a30eb4e1af39ecb46da3e2e2ac9f90fe65130164736f6c634300080c003368747470733a2f2f697066732e696f2f697066732f626166796265696374753278336c327061766179716c37376a37716275737233717077697832377374686c6c357177646273736e636869356a65692f7b69647d2e6a736f6e",
  "immutableReferences": {},
  "source": "// SPDX-License-Identifier: MIT\npragma solidity >=0.4.0 <0.9.0;\n\nimport \"./Wrdl3Items.sol\";\n\ncontract Wrdl3GoldLetters is Wrdl3Items {\n    uint8 public constant A_Gold = 57;\n    uint8 public constant B_Gold = 58;\n    uint8 public constant C_Gold = 59;\n    uint8 public constant D_Gold = 60;\n    uint8 public constant E_Gold = 61;\n    uint8 public constant F_Gold = 62;\n    uint8 public constant G_Gold = 63;\n    uint8 public constant H_Gold = 64;\n\n    uint8 public constant I_Gold = 65;\n    uint8 public constant J_Gold = 66;\n    uint8 public constant K_Gold = 67;\n    uint8 public constant L_Gold = 68;\n    uint8 public constant M_Gold = 69;\n    uint8 public constant N_Gold = 70;\n    uint8 public constant O_Gold = 71;\n    uint8 public constant P_Gold = 72;\n\n    uint8 public constant Q_Gold = 73;\n    uint8 public constant R_Gold = 74;\n    uint8 public constant S_Gold = 75;\n    uint8 public constant T_Gold = 76;\n    uint8 public constant U_Gold = 77;\n    uint8 public constant V_Gold = 78;\n    uint8 public constant W_Gold = 79;\n    uint8 public constant X_Gold = 80;\n\n    uint8 public constant Y_Gold = 81;\n    uint8 public constant Z_Gold = 82;\n\n    function buyGoldLetters(\n        address _player,\n        uint8 _letterId,\n        uint256 _amount\n    ) public {\n        require(balanceOf(_player, GOLD) >= 5 * _amount);\n        require(_letterId >= 57 && _letterId <= 82);\n        _burn(_player, GOLD, 5 * _amount);\n        _mint(_player, _letterId, _amount, \"\");\n    }\n}\n",
  "sourcePath": "/Users/emilsharafutdinov/Desktop/Work/SR3/Wrdl3/contracts/Wrdl3GoldLetters.sol",
  "compiler": {
    "name": "solc",
    "version": "0.8.12+commit.f00d7308.Emscripten.clang"
  },
  "schemaVersion": "3.4.4",
  "updatedAt": "2022-03-09T14:42:14.031Z",
  "devdoc": {
    "kind": "dev",
    "methods": {
      "balanceOf(address,uint256)": {
        "details": "See {IERC1155-balanceOf}. Requirements: - `account` cannot be the zero address."
      },
      "balanceOfBatch(address[],uint256[])": {
        "details": "See {IERC1155-balanceOfBatch}. Requirements: - `accounts` and `ids` must have the same length."
      },
      "isApprovedForAll(address,address)": {
        "details": "See {IERC1155-isApprovedForAll}."
      },
      "safeBatchTransferFrom(address,address,uint256[],uint256[],bytes)": {
        "details": "See {IERC1155-safeBatchTransferFrom}."
      },
      "safeTransferFrom(address,address,uint256,uint256,bytes)": {
        "details": "See {IERC1155-safeTransferFrom}."
      },
      "setApprovalForAll(address,bool)": {
        "details": "See {IERC1155-setApprovalForAll}."
      },
      "supportsInterface(bytes4)": {
        "details": "See {IERC165-supportsInterface}."
      },
      "uri(uint256)": {
        "details": "See {IERC1155MetadataURI-uri}. This implementation returns the same URI for *all* token types. It relies on the token type ID substitution mechanism https://eips.ethereum.org/EIPS/eip-1155#metadata[defined in the EIP]. Clients calling this function must replace the `\\{id\\}` substring with the actual token type ID."
      }
    },
    "version": 1
  },
  "userdoc": {
    "kind": "user",
    "methods": {},
    "version": 1
  }
}