{
  "contractName": "Wrdl3SilverLetters",
  "abi": [
    {
      "anonymous": false,
      "inputs": [
        {
          "indexed": true,
          "internalType": "address",
          "name": "account",
          "type": "address"
        },
        {
          "indexed": true,
          "internalType": "address",
          "name": "operator",
          "type": "address"
        },
        {
          "indexed": false,
          "internalType": "bool",
          "name": "approved",
          "type": "bool"
        }
      ],
      "name": "ApprovalForAll",
      "type": "event"
    },
    {
      "anonymous": false,
      "inputs": [
        {
          "indexed": true,
          "internalType": "address",
          "name": "operator",
          "type": "address"
        },
        {
          "indexed": true,
          "internalType": "address",
          "name": "from",
          "type": "address"
        },
        {
          "indexed": true,
          "internalType": "address",
          "name": "to",
          "type": "address"
        },
        {
          "indexed": false,
          "internalType": "uint256[]",
          "name": "ids",
          "type": "uint256[]"
        },
        {
          "indexed": false,
          "internalType": "uint256[]",
          "name": "values",
          "type": "uint256[]"
        }
      ],
      "name": "TransferBatch",
      "type": "event"
    },
    {
      "anonymous": false,
      "inputs": [
        {
          "indexed": true,
          "internalType": "address",
          "name": "operator",
          "type": "address"
        },
        {
          "indexed": true,
          "internalType": "address",
          "name": "from",
          "type": "address"
        },
        {
          "indexed": true,
          "internalType": "address",
          "name": "to",
          "type": "address"
        },
        {
          "indexed": false,
          "internalType": "uint256",
          "name": "id",
          "type": "uint256"
        },
        {
          "indexed": false,
          "internalType": "uint256",
          "name": "value",
          "type": "uint256"
        }
      ],
      "name": "TransferSingle",
      "type": "event"
    },
    {
      "anonymous": false,
      "inputs": [
        {
          "indexed": false,
          "internalType": "string",
          "name": "value",
          "type": "string"
        },
        {
          "indexed": true,
          "internalType": "uint256",
          "name": "id",
          "type": "uint256"
        }
      ],
      "name": "URI",
      "type": "event"
    },
    {
      "inputs": [],
      "name": "A_Silver",
      "outputs": [
        {
          "internalType": "uint8",
          "name": "",
          "type": "uint8"
        }
      ],
      "stateMutability": "view",
      "type": "function"
    },
    {
      "inputs": [],
      "name": "BRONZE",
      "outputs": [
        {
          "internalType": "uint256",
          "name": "",
          "type": "uint256"
        }
      ],
      "stateMutability": "view",
      "type": "function"
    },
    {
      "inputs": [],
      "name": "B_Silver",
      "outputs": [
        {
          "internalType": "uint8",
          "name": "",
          "type": "uint8"
        }
      ],
      "stateMutability": "view",
      "type": "function"
    },
    {
      "inputs": [],
      "name": "C_Silver",
      "outputs": [
        {
          "internalType": "uint8",
          "name": "",
          "type": "uint8"
        }
      ],
      "stateMutability": "view",
      "type": "function"
    },
    {
      "inputs": [],
      "name": "D_Silver",
      "outputs": [
        {
          "internalType": "uint8",
          "name": "",
          "type": "uint8"
        }
      ],
      "stateMutability": "view",
      "type": "function"
    },
    {
      "inputs": [],
      "name": "E_Silver",
      "outputs": [
        {
          "internalType": "uint8",
          "name": "",
          "type": "uint8"
        }
      ],
      "stateMutability": "view",
      "type": "function"
    },
    {
      "inputs": [],
      "name": "F_Silver",
      "outputs": [
        {
          "internalType": "uint8",
          "name": "",
          "type": "uint8"
        }
      ],
      "stateMutability": "view",
      "type": "function"
    },
    {
      "inputs": [],
      "name": "GOLD",
      "outputs": [
        {
          "internalType": "uint256",
          "name": "",
          "type": "uint256"
        }
      ],
      "stateMutability": "view",
      "type": "function"
    },
    {
      "inputs": [],
      "name": "G_Silver",
      "outputs": [
        {
          "internalType": "uint8",
          "name": "",
          "type": "uint8"
        }
      ],
      "stateMutability": "view",
      "type": "function"
    },
    {
      "inputs": [],
      "name": "H_Silver",
      "outputs": [
        {
          "internalType": "uint8",
          "name": "",
          "type": "uint8"
        }
      ],
      "stateMutability": "view",
      "type": "function"
    },
    {
      "inputs": [],
      "name": "I_Silver",
      "outputs": [
        {
          "internalType": "uint8",
          "name": "",
          "type": "uint8"
        }
      ],
      "stateMutability": "view",
      "type": "function"
    },
    {
      "inputs": [],
      "name": "J_Silver",
      "outputs": [
        {
          "internalType": "uint8",
          "name": "",
          "type": "uint8"
        }
      ],
      "stateMutability": "view",
      "type": "function"
    },
    {
      "inputs": [],
      "name": "K_Silver",
      "outputs": [
        {
          "internalType": "uint8",
          "name": "",
          "type": "uint8"
        }
      ],
      "stateMutability": "view",
      "type": "function"
    },
    {
      "inputs": [],
      "name": "LVL2",
      "outputs": [
        {
          "internalType": "uint256",
          "name": "",
          "type": "uint256"
        }
      ],
      "stateMutability": "view",
      "type": "function"
    },
    {
      "inputs": [],
      "name": "LVL3",
      "outputs": [
        {
          "internalType": "uint256",
          "name": "",
          "type": "uint256"
        }
      ],
      "stateMutability": "view",
      "type": "function"
    },
    {
      "inputs": [],
      "name": "L_Silver",
      "outputs": [
        {
          "internalType": "uint8",
          "name": "",
          "type": "uint8"
        }
      ],
      "stateMutability": "view",
      "type": "function"
    },
    {
      "inputs": [],
      "name": "M_Silver",
      "outputs": [
        {
          "internalType": "uint8",
          "name": "",
          "type": "uint8"
        }
      ],
      "stateMutability": "view",
      "type": "function"
    },
    {
      "inputs": [],
      "name": "N_Silver",
      "outputs": [
        {
          "internalType": "uint8",
          "name": "",
          "type": "uint8"
        }
      ],
      "stateMutability": "view",
      "type": "function"
    },
    {
      "inputs": [],
      "name": "O_Silver",
      "outputs": [
        {
          "internalType": "uint8",
          "name": "",
          "type": "uint8"
        }
      ],
      "stateMutability": "view",
      "type": "function"
    },
    {
      "inputs": [],
      "name": "P_Silver",
      "outputs": [
        {
          "internalType": "uint8",
          "name": "",
          "type": "uint8"
        }
      ],
      "stateMutability": "view",
      "type": "function"
    },
    {
      "inputs": [],
      "name": "Q_Silver",
      "outputs": [
        {
          "internalType": "uint8",
          "name": "",
          "type": "uint8"
        }
      ],
      "stateMutability": "view",
      "type": "function"
    },
    {
      "inputs": [],
      "name": "R_Silver",
      "outputs": [
        {
          "internalType": "uint8",
          "name": "",
          "type": "uint8"
        }
      ],
      "stateMutability": "view",
      "type": "function"
    },
    {
      "inputs": [],
      "name": "SILVER",
      "outputs": [
        {
          "internalType": "uint256",
          "name": "",
          "type": "uint256"
        }
      ],
      "stateMutability": "view",
      "type": "function"
    },
    {
      "inputs": [],
      "name": "S_Silver",
      "outputs": [
        {
          "internalType": "uint8",
          "name": "",
          "type": "uint8"
        }
      ],
      "stateMutability": "view",
      "type": "function"
    },
    {
      "inputs": [],
      "name": "T_Silver",
      "outputs": [
        {
          "internalType": "uint8",
          "name": "",
          "type": "uint8"
        }
      ],
      "stateMutability": "view",
      "type": "function"
    },
    {
      "inputs": [],
      "name": "U_Silver",
      "outputs": [
        {
          "internalType": "uint8",
          "name": "",
          "type": "uint8"
        }
      ],
      "stateMutability": "view",
      "type": "function"
    },
    {
      "inputs": [],
      "name": "V_Silver",
      "outputs": [
        {
          "internalType": "uint8",
          "name": "",
          "type": "uint8"
        }
      ],
      "stateMutability": "view",
      "type": "function"
    },
    {
      "inputs": [],
      "name": "W_Silver",
      "outputs": [
        {
          "internalType": "uint8",
          "name": "",
          "type": "uint8"
        }
      ],
      "stateMutability": "view",
      "type": "function"
    },
    {
      "inputs": [],
      "name": "X_Silver",
      "outputs": [
        {
          "internalType": "uint8",
          "name": "",
          "type": "uint8"
        }
      ],
      "stateMutability": "view",
      "type": "function"
    },
    {
      "inputs": [],
      "name": "Y_Silver",
      "outputs": [
        {
          "internalType": "uint8",
          "name": "",
          "type": "uint8"
        }
      ],
      "stateMutability": "view",
      "type": "function"
    },
    {
      "inputs": [],
      "name": "Z_Silver",
      "outputs": [
        {
          "internalType": "uint8",
          "name": "",
          "type": "uint8"
        }
      ],
      "stateMutability": "view",
      "type": "function"
    },
    {
      "inputs": [
        {
          "internalType": "address",
          "name": "player",
          "type": "address"
        }
      ],
      "name": "awardBronze",
      "outputs": [],
      "stateMutability": "nonpayable",
      "type": "function"
    },
    {
      "inputs": [
        {
          "internalType": "address",
          "name": "player",
          "type": "address"
        }
      ],
      "name": "awardGold",
      "outputs": [],
      "stateMutability": "nonpayable",
      "type": "function"
    },
    {
      "inputs": [
        {
          "internalType": "address",
          "name": "player",
          "type": "address"
        }
      ],
      "name": "awardSilver",
      "outputs": [],
      "stateMutability": "nonpayable",
      "type": "function"
    },
    {
      "inputs": [
        {
          "internalType": "address",
          "name": "account",
          "type": "address"
        },
        {
          "internalType": "uint256",
          "name": "id",
          "type": "uint256"
        }
      ],
      "name": "balanceOf",
      "outputs": [
        {
          "internalType": "uint256",
          "name": "",
          "type": "uint256"
        }
      ],
      "stateMutability": "view",
      "type": "function"
    },
    {
      "inputs": [
        {
          "internalType": "address[]",
          "name": "accounts",
          "type": "address[]"
        },
        {
          "internalType": "uint256[]",
          "name": "ids",
          "type": "uint256[]"
        }
      ],
      "name": "balanceOfBatch",
      "outputs": [
        {
          "internalType": "uint256[]",
          "name": "",
          "type": "uint256[]"
        }
      ],
      "stateMutability": "view",
      "type": "function"
    },
    {
      "inputs": [
        {
          "internalType": "address",
          "name": "account",
          "type": "address"
        },
        {
          "internalType": "address",
          "name": "operator",
          "type": "address"
        }
      ],
      "name": "isApprovedForAll",
      "outputs": [
        {
          "internalType": "bool",
          "name": "",
          "type": "bool"
        }
      ],
      "stateMutability": "view",
      "type": "function"
    },
    {
      "inputs": [
        {
          "internalType": "address",
          "name": "player",
          "type": "address"
        }
      ],
      "name": "lvl2Achieve",
      "outputs": [],
      "stateMutability": "nonpayable",
      "type": "function"
    },
    {
      "inputs": [
        {
          "internalType": "address",
          "name": "player",
          "type": "address"
        }
      ],
      "name": "lvl3Achieve",
      "outputs": [],
      "stateMutability": "nonpayable",
      "type": "function"
    },
    {
      "inputs": [
        {
          "internalType": "address",
          "name": "from",
          "type": "address"
        },
        {
          "internalType": "address",
          "name": "to",
          "type": "address"
        },
        {
          "internalType": "uint256[]",
          "name": "ids",
          "type": "uint256[]"
        },
        {
          "internalType": "uint256[]",
          "name": "amounts",
          "type": "uint256[]"
        },
        {
          "internalType": "bytes",
          "name": "data",
          "type": "bytes"
        }
      ],
      "name": "safeBatchTransferFrom",
      "outputs": [],
      "stateMutability": "nonpayable",
      "type": "function"
    },
    {
      "inputs": [
        {
          "internalType": "address",
          "name": "from",
          "type": "address"
        },
        {
          "internalType": "address",
          "name": "to",
          "type": "address"
        },
        {
          "internalType": "uint256",
          "name": "id",
          "type": "uint256"
        },
        {
          "internalType": "uint256",
          "name": "amount",
          "type": "uint256"
        },
        {
          "internalType": "bytes",
          "name": "data",
          "type": "bytes"
        }
      ],
      "name": "safeTransferFrom",
      "outputs": [],
      "stateMutability": "nonpayable",
      "type": "function"
    },
    {
      "inputs": [
        {
          "internalType": "address",
          "name": "operator",
          "type": "address"
        },
        {
          "internalType": "bool",
          "name": "approved",
          "type": "bool"
        }
      ],
      "name": "setApprovalForAll",
      "outputs": [],
      "stateMutability": "nonpayable",
      "type": "function"
    },
    {
      "inputs": [
        {
          "internalType": "bytes4",
          "name": "interfaceId",
          "type": "bytes4"
        }
      ],
      "name": "supportsInterface",
      "outputs": [
        {
          "internalType": "bool",
          "name": "",
          "type": "bool"
        }
      ],
      "stateMutability": "view",
      "type": "function"
    },
    {
      "inputs": [
        {
          "internalType": "uint256",
          "name": "",
          "type": "uint256"
        }
      ],
      "name": "uri",
      "outputs": [
        {
          "internalType": "string",
          "name": "",
          "type": "string"
        }
      ],
      "stateMutability": "view",
      "type": "function"
    },
    {
      "inputs": [
        {
          "internalType": "address",
          "name": "_player",
          "type": "address"
        },
        {
          "internalType": "uint8",
          "name": "_letterId",
          "type": "uint8"
        },
        {
          "internalType": "uint256",
          "name": "_amount",
          "type": "uint256"
        }
      ],
      "name": "buySilverLetters",
      "outputs": [],
      "stateMutability": "nonpayable",
      "type": "function"
    }
  ],
  "bytecode": "0x60806040523480156200001157600080fd5b506040518060800160405280605a81526020016200361d605a91396200003d816200004460201b60201c565b5062000175565b80600290805190602001906200005c92919062000060565b5050565b8280546200006e906200013f565b90600052602060002090601f016020900481019282620000925760008555620000de565b82601f10620000ad57805160ff1916838001178555620000de565b82800160010185558215620000de579182015b82811115620000dd578251825591602001919060010190620000c0565b5b509050620000ed9190620000f1565b5090565b5b808211156200010c576000816000905550600101620000f2565b5090565b7f4e487b7100000000000000000000000000000000000000000000000000000000600052602260045260246000fd5b600060028204905060018216806200015857607f821691505b602082108114156200016f576200016e62000110565b5b50919050565b61349880620001856000396000f3fe608060405234801561001057600080fd5b506004361061027e5760003560e01c8063a6f663461161015c578063e00fd543116100ce578063e985e9c511610087578063e985e9c51461074d578063ec6ba1531461077d578063f242432a1461079b578063fb917d0e146107b7578063fc5cd950146107d5578063ff2f60dc146107f35761027e565b8063e00fd54314610699578063e08b00aa146106b7578063e3e55f08146106d5578063e480c82c146106f3578063e6820bce14610711578063e684f8591461072f5761027e565b8063beaeb68511610120578063beaeb685146105e7578063c8a5718814610605578063cc9faf5014610623578063ce7d528214610641578063d96367021461065f578063dc9fd0c11461067b5761027e565b8063a6f6634614610553578063a899334514610571578063abccdcac1461058f578063ae14d905146105ad578063b359a6f0146105c95761027e565b80633e4bee38116101f5578063994b9d79116101b9578063994b9d79146104a35780639b1b0a25146104c1578063a0c16ba9146104dd578063a13030b5146104fb578063a22cb46514610519578063a32af319146105355761027e565b80633e4bee38146103fd5780634e1273f41461041b5780638ece88561461044b5780638f6b2c691461046957806394aa40f4146104855761027e565b806320a1fc041161024757806320a1fc041461034b5780632eb2c2d61461036957806330bc5e411461038557806336e74dac146103a35780633a257a1c146103c15780633c94455d146103df5761027e565b8062fdd58e1461028357806301ffc9a7146102b35780630e89341c146102e357806310d92d4614610313578063138c2e6c1461032f575b600080fd5b61029d60048036038101906102989190611f99565b610811565b6040516102aa9190611fe8565b60405180910390f35b6102cd60048036038101906102c8919061205b565b6108da565b6040516102da91906120a3565b60405180910390f35b6102fd60048036038101906102f891906120be565b6109bc565b60405161030a9190612184565b60405180910390f35b61032d600480360381019061032891906121a6565b610a50565b005b6103496004803603810190610344919061220c565b610a8a565b005b610353610b09565b604051610360919061226e565b60405180910390f35b610383600480360381019061037e9190612486565b610b0e565b005b61038d610baf565b60405161039a919061226e565b60405180910390f35b6103ab610bb4565b6040516103b8919061226e565b60405180910390f35b6103c9610bb9565b6040516103d6919061226e565b60405180910390f35b6103e7610bbe565b6040516103f4919061226e565b60405180910390f35b610405610bc3565b6040516104129190611fe8565b60405180910390f35b61043560048036038101906104309190612618565b610bc8565b604051610442919061274e565b60405180910390f35b610453610ce1565b604051610460919061226e565b60405180910390f35b610483600480360381019061047e91906121a6565b610ce6565b005b61048d610d1f565b60405161049a919061226e565b60405180910390f35b6104ab610d24565b6040516104b8919061226e565b60405180910390f35b6104db60048036038101906104d691906121a6565b610d29565b005b6104e5610d61565b6040516104f2919061226e565b60405180910390f35b610503610d66565b604051610510919061226e565b60405180910390f35b610533600480360381019061052e919061279c565b610d6b565b005b61053d610d81565b60405161054a919061226e565b60405180910390f35b61055b610d86565b604051610568919061226e565b60405180910390f35b610579610d8b565b604051610586919061226e565b60405180910390f35b610597610d90565b6040516105a4919061226e565b60405180910390f35b6105c760048036038101906105c291906121a6565b610d95565b005b6105d1610dcf565b6040516105de919061226e565b60405180910390f35b6105ef610dd4565b6040516105fc9190611fe8565b60405180910390f35b61060d610dd9565b60405161061a919061226e565b60405180910390f35b61062b610dde565b604051610638919061226e565b60405180910390f35b610649610de3565b604051610656919061226e565b60405180910390f35b610679600480360381019061067491906121a6565b610de8565b005b610683610e08565b604051610690919061226e565b60405180910390f35b6106a1610e0d565b6040516106ae9190611fe8565b60405180910390f35b6106bf610e12565b6040516106cc9190611fe8565b60405180910390f35b6106dd610e17565b6040516106ea9190611fe8565b60405180910390f35b6106fb610e1c565b604051610708919061226e565b60405180910390f35b610719610e21565b604051610726919061226e565b60405180910390f35b610737610e26565b604051610744919061226e565b60405180910390f35b610767600480360381019061076291906127dc565b610e2b565b60405161077491906120a3565b60405180910390f35b610785610ebf565b604051610792919061226e565b60405180910390f35b6107b560048036038101906107b0919061281c565b610ec4565b005b6107bf610f65565b6040516107cc919061226e565b60405180910390f35b6107dd610f6a565b6040516107ea919061226e565b60405180910390f35b6107fb610f6f565b604051610808919061226e565b60405180910390f35b60008073ffffffffffffffffffffffffffffffffffffffff168373ffffffffffffffffffffffffffffffffffffffff161415610882576040517f08c379a000000000000000000000000000000000000000000000000000000000815260040161087990612925565b60405180910390fd5b60008083815260200190815260200160002060008473ffffffffffffffffffffffffffffffffffffffff1673ffffffffffffffffffffffffffffffffffffffff16815260200190815260200160002054905092915050565b60007fd9b67a26000000000000000000000000000000000000000000000000000000007bffffffffffffffffffffffffffffffffffffffffffffffffffffffff1916827bffffffffffffffffffffffffffffffffffffffffffffffffffffffff191614806109a557507f0e89341c000000000000000000000000000000000000000000000000000000007bffffffffffffffffffffffffffffffffffffffffffffffffffffffff1916827bffffffffffffffffffffffffffffffffffffffffffffffffffffffff1916145b806109b557506109b482610f74565b5b9050919050565b6060600280546109cb90612974565b80601f01602080910402602001604051908101604052809291908181526020018280546109f790612974565b8015610a445780601f10610a1957610100808354040283529160200191610a44565b820191906000526020600020905b815481529060010190602001808311610a2757829003601f168201915b50505050509050919050565b80600a610a5e826002610811565b1015610a6957600080fd5b610a86826003600160405180602001604052806000815250610fde565b5050565b806005610a9791906129d5565b610aa2846001610811565b1015610aad57600080fd5b601f8260ff1610158015610ac5575060388260ff1611155b610ace57600080fd5b610ae6836001836005610ae191906129d5565b611174565b610b04838360ff168360405180602001604052806000815250610fde565b505050565b603481565b610b16611391565b73ffffffffffffffffffffffffffffffffffffffff168573ffffffffffffffffffffffffffffffffffffffff161480610b5c5750610b5b85610b56611391565b610e2b565b5b610b9b576040517f08c379a0000000000000000000000000000000000000000000000000000000008152600401610b9290612aa1565b60405180910390fd5b610ba88585858585611399565b5050505050565b602881565b602a81565b602281565b602181565b600081565b60608151835114610c0e576040517f08c379a0000000000000000000000000000000000000000000000000000000008152600401610c0590612b33565b60405180910390fd5b6000835167ffffffffffffffff811115610c2b57610c2a61228e565b5b604051908082528060200260200182016040528015610c595781602001602082028036833780820191505090505b50905060005b8451811015610cd657610ca6858281518110610c7e57610c7d612b53565b5b6020026020010151858381518110610c9957610c98612b53565b5b6020026020010151610811565b828281518110610cb957610cb8612b53565b5b60200260200101818152505080610ccf90612b82565b9050610c5f565b508091505092915050565b602d81565b806000610cf4826004610811565b11610cfe57600080fd5b610d1b826000600160405180602001604052806000815250610fde565b5050565b602381565b602581565b806000610d37826003610811565b11610d4157600080fd5b610d5d8260018060405180602001604052806000815250610fde565b5050565b601f81565b602b81565b610d7d610d76611391565b83836116ad565b5050565b603081565b602c81565b602f81565b602681565b80600a610da3826002610811565b1015610dae57600080fd5b610dcb826004600160405180602001604052806000815250610fde565b5050565b603281565b600481565b603381565b603881565b603781565b610e05816002600160405180602001604052806000815250610fde565b50565b602981565b600281565b600381565b600181565b602781565b602e81565b603581565b6000600160008473ffffffffffffffffffffffffffffffffffffffff1673ffffffffffffffffffffffffffffffffffffffff16815260200190815260200160002060008373ffffffffffffffffffffffffffffffffffffffff1673ffffffffffffffffffffffffffffffffffffffff16815260200190815260200160002060009054906101000a900460ff16905092915050565b602081565b610ecc611391565b73ffffffffffffffffffffffffffffffffffffffff168573ffffffffffffffffffffffffffffffffffffffff161480610f125750610f1185610f0c611391565b610e2b565b5b610f51576040517f08c379a0000000000000000000000000000000000000000000000000000000008152600401610f4890612c3d565b60405180910390fd5b610f5e858585858561181a565b5050505050565b603681565b603181565b602481565b60007f01ffc9a7000000000000000000000000000000000000000000000000000000007bffffffffffffffffffffffffffffffffffffffffffffffffffffffff1916827bffffffffffffffffffffffffffffffffffffffffffffffffffffffff1916149050919050565b600073ffffffffffffffffffffffffffffffffffffffff168473ffffffffffffffffffffffffffffffffffffffff16141561104e576040517f08c379a000000000000000000000000000000000000000000000000000000000815260040161104590612ccf565b60405180910390fd5b6000611058611391565b90506110798160008761106a88611a9c565b61107388611a9c565b87611b16565b8260008086815260200190815260200160002060008773ffffffffffffffffffffffffffffffffffffffff1673ffffffffffffffffffffffffffffffffffffffff16815260200190815260200160002060008282546110d89190612cef565b925050819055508473ffffffffffffffffffffffffffffffffffffffff16600073ffffffffffffffffffffffffffffffffffffffff168273ffffffffffffffffffffffffffffffffffffffff167fc3d58168c5ae7397731d063d5bbf3d657854427343f4c083240f7aacaa2d0f628787604051611156929190612d45565b60405180910390a461116d81600087878787611b1e565b5050505050565b600073ffffffffffffffffffffffffffffffffffffffff168373ffffffffffffffffffffffffffffffffffffffff1614156111e4576040517f08c379a00000000000000000000000000000000000000000000000000000000081526004016111db90612de0565b60405180910390fd5b60006111ee611391565b905061121e8185600061120087611a9c565b61120987611a9c565b60405180602001604052806000815250611b16565b600080600085815260200190815260200160002060008673ffffffffffffffffffffffffffffffffffffffff1673ffffffffffffffffffffffffffffffffffffffff168152602001908152602001600020549050828110156112b5576040517f08c379a00000000000000000000000000000000000000000000000000000000081526004016112ac90612e72565b60405180910390fd5b82810360008086815260200190815260200160002060008773ffffffffffffffffffffffffffffffffffffffff1673ffffffffffffffffffffffffffffffffffffffff16815260200190815260200160002081905550600073ffffffffffffffffffffffffffffffffffffffff168573ffffffffffffffffffffffffffffffffffffffff168373ffffffffffffffffffffffffffffffffffffffff167fc3d58168c5ae7397731d063d5bbf3d657854427343f4c083240f7aacaa2d0f628787604051611382929190612d45565b60405180910390a45050505050565b600033905090565b81518351146113dd576040517f08c379a00000000000000000000000000000000000000000000000000000000081526004016113d490612f04565b60405180910390fd5b600073ffffffffffffffffffffffffffffffffffffffff168473ffffffffffffffffffffffffffffffffffffffff16141561144d576040517f08c379a000000000000000000000000000000000000000000000000000000000815260040161144490612f96565b60405180910390fd5b6000611457611391565b9050611467818787878787611b16565b60005b845181101561161857600085828151811061148857611487612b53565b5b6020026020010151905060008583815181106114a7576114a6612b53565b5b60200260200101519050600080600084815260200190815260200160002060008b73ffffffffffffffffffffffffffffffffffffffff1673ffffffffffffffffffffffffffffffffffffffff16815260200190815260200160002054905081811015611548576040517f08c379a000000000000000000000000000000000000000000000000000000000815260040161153f90613028565b60405180910390fd5b81810360008085815260200190815260200160002060008c73ffffffffffffffffffffffffffffffffffffffff1673ffffffffffffffffffffffffffffffffffffffff168152602001908152602001600020819055508160008085815260200190815260200160002060008b73ffffffffffffffffffffffffffffffffffffffff1673ffffffffffffffffffffffffffffffffffffffff16815260200190815260200160002060008282546115fd9190612cef565b925050819055505050508061161190612b82565b905061146a565b508473ffffffffffffffffffffffffffffffffffffffff168673ffffffffffffffffffffffffffffffffffffffff168273ffffffffffffffffffffffffffffffffffffffff167f4a39dc06d4c0dbc64b70af90fd698a233a518aa5d07e595d983b8c0526c8f7fb878760405161168f929190613048565b60405180910390a46116a5818787878787611cf6565b505050505050565b8173ffffffffffffffffffffffffffffffffffffffff168373ffffffffffffffffffffffffffffffffffffffff16141561171c576040517f08c379a0000000000000000000000000000000000000000000000000000000008152600401611713906130f1565b60405180910390fd5b80600160008573ffffffffffffffffffffffffffffffffffffffff1673ffffffffffffffffffffffffffffffffffffffff16815260200190815260200160002060008473ffffffffffffffffffffffffffffffffffffffff1673ffffffffffffffffffffffffffffffffffffffff16815260200190815260200160002060006101000a81548160ff0219169083151502179055508173ffffffffffffffffffffffffffffffffffffffff168373ffffffffffffffffffffffffffffffffffffffff167f17307eab39ab6107e8899845ad3d59bd9653f200f220920489ca2b5937696c318360405161180d91906120a3565b60405180910390a3505050565b600073ffffffffffffffffffffffffffffffffffffffff168473ffffffffffffffffffffffffffffffffffffffff16141561188a576040517f08c379a000000000000000000000000000000000000000000000000000000000815260040161188190612f96565b60405180910390fd5b6000611894611391565b90506118b48187876118a588611a9c565b6118ae88611a9c565b87611b16565b600080600086815260200190815260200160002060008873ffffffffffffffffffffffffffffffffffffffff1673ffffffffffffffffffffffffffffffffffffffff1681526020019081526020016000205490508381101561194b576040517f08c379a000000000000000000000000000000000000000000000000000000000815260040161194290613028565b60405180910390fd5b83810360008087815260200190815260200160002060008973ffffffffffffffffffffffffffffffffffffffff1673ffffffffffffffffffffffffffffffffffffffff168152602001908152602001600020819055508360008087815260200190815260200160002060008873ffffffffffffffffffffffffffffffffffffffff1673ffffffffffffffffffffffffffffffffffffffff1681526020019081526020016000206000828254611a009190612cef565b925050819055508573ffffffffffffffffffffffffffffffffffffffff168773ffffffffffffffffffffffffffffffffffffffff168373ffffffffffffffffffffffffffffffffffffffff167fc3d58168c5ae7397731d063d5bbf3d657854427343f4c083240f7aacaa2d0f628888604051611a7d929190612d45565b60405180910390a4611a93828888888888611b1e565b50505050505050565b60606000600167ffffffffffffffff811115611abb57611aba61228e565b5b604051908082528060200260200182016040528015611ae95781602001602082028036833780820191505090505b5090508281600081518110611b0157611b00612b53565b5b60200260200101818152505080915050919050565b505050505050565b611b3d8473ffffffffffffffffffffffffffffffffffffffff16611ece565b15611cee578373ffffffffffffffffffffffffffffffffffffffff1663f23a6e6187878686866040518663ffffffff1660e01b8152600401611b83959493929190613175565b6020604051808303816000875af1925050508015611bbf57506040513d601f19601f82011682018060405250810190611bbc91906131e4565b60015b611c6557611bcb61321e565b806308c379a01415611c285750611be0613240565b80611beb5750611c2a565b806040517f08c379a0000000000000000000000000000000000000000000000000000000008152600401611c1f9190612184565b60405180910390fd5b505b6040517f08c379a0000000000000000000000000000000000000000000000000000000008152600401611c5c90613348565b60405180910390fd5b63f23a6e6160e01b7bffffffffffffffffffffffffffffffffffffffffffffffffffffffff1916817bffffffffffffffffffffffffffffffffffffffffffffffffffffffff191614611cec576040517f08c379a0000000000000000000000000000000000000000000000000000000008152600401611ce3906133da565b60405180910390fd5b505b505050505050565b611d158473ffffffffffffffffffffffffffffffffffffffff16611ece565b15611ec6578373ffffffffffffffffffffffffffffffffffffffff1663bc197c8187878686866040518663ffffffff1660e01b8152600401611d5b9594939291906133fa565b6020604051808303816000875af1925050508015611d9757506040513d601f19601f82011682018060405250810190611d9491906131e4565b60015b611e3d57611da361321e565b806308c379a01415611e005750611db8613240565b80611dc35750611e02565b806040517f08c379a0000000000000000000000000000000000000000000000000000000008152600401611df79190612184565b60405180910390fd5b505b6040517f08c379a0000000000000000000000000000000000000000000000000000000008152600401611e3490613348565b60405180910390fd5b63bc197c8160e01b7bffffffffffffffffffffffffffffffffffffffffffffffffffffffff1916817bffffffffffffffffffffffffffffffffffffffffffffffffffffffff191614611ec4576040517f08c379a0000000000000000000000000000000000000000000000000000000008152600401611ebb906133da565b60405180910390fd5b505b505050505050565b6000808273ffffffffffffffffffffffffffffffffffffffff163b119050919050565b6000604051905090565b600080fd5b600080fd5b600073ffffffffffffffffffffffffffffffffffffffff82169050919050565b6000611f3082611f05565b9050919050565b611f4081611f25565b8114611f4b57600080fd5b50565b600081359050611f5d81611f37565b92915050565b6000819050919050565b611f7681611f63565b8114611f8157600080fd5b50565b600081359050611f9381611f6d565b92915050565b60008060408385031215611fb057611faf611efb565b5b6000611fbe85828601611f4e565b9250506020611fcf85828601611f84565b9150509250929050565b611fe281611f63565b82525050565b6000602082019050611ffd6000830184611fd9565b92915050565b60007fffffffff0000000000000000000000000000000000000000000000000000000082169050919050565b61203881612003565b811461204357600080fd5b50565b6000813590506120558161202f565b92915050565b60006020828403121561207157612070611efb565b5b600061207f84828501612046565b91505092915050565b60008115159050919050565b61209d81612088565b82525050565b60006020820190506120b86000830184612094565b92915050565b6000602082840312156120d4576120d3611efb565b5b60006120e284828501611f84565b91505092915050565b600081519050919050565b600082825260208201905092915050565b60005b8381101561212557808201518184015260208101905061210a565b83811115612134576000848401525b50505050565b6000601f19601f8301169050919050565b6000612156826120eb565b61216081856120f6565b9350612170818560208601612107565b6121798161213a565b840191505092915050565b6000602082019050818103600083015261219e818461214b565b905092915050565b6000602082840312156121bc576121bb611efb565b5b60006121ca84828501611f4e565b91505092915050565b600060ff82169050919050565b6121e9816121d3565b81146121f457600080fd5b50565b600081359050612206816121e0565b92915050565b60008060006060848603121561222557612224611efb565b5b600061223386828701611f4e565b9350506020612244868287016121f7565b925050604061225586828701611f84565b9150509250925092565b612268816121d3565b82525050565b6000602082019050612283600083018461225f565b92915050565b600080fd5b7f4e487b7100000000000000000000000000000000000000000000000000000000600052604160045260246000fd5b6122c68261213a565b810181811067ffffffffffffffff821117156122e5576122e461228e565b5b80604052505050565b60006122f8611ef1565b905061230482826122bd565b919050565b600067ffffffffffffffff8211156123245761232361228e565b5b602082029050602081019050919050565b600080fd5b600061234d61234884612309565b6122ee565b905080838252602082019050602084028301858111156123705761236f612335565b5b835b8181101561239957806123858882611f84565b845260208401935050602081019050612372565b5050509392505050565b600082601f8301126123b8576123b7612289565b5b81356123c884826020860161233a565b91505092915050565b600080fd5b600067ffffffffffffffff8211156123f1576123f061228e565b5b6123fa8261213a565b9050602081019050919050565b82818337600083830152505050565b6000612429612424846123d6565b6122ee565b905082815260208101848484011115612445576124446123d1565b5b612450848285612407565b509392505050565b600082601f83011261246d5761246c612289565b5b813561247d848260208601612416565b91505092915050565b600080600080600060a086880312156124a2576124a1611efb565b5b60006124b088828901611f4e565b95505060206124c188828901611f4e565b945050604086013567ffffffffffffffff8111156124e2576124e1611f00565b5b6124ee888289016123a3565b935050606086013567ffffffffffffffff81111561250f5761250e611f00565b5b61251b888289016123a3565b925050608086013567ffffffffffffffff81111561253c5761253b611f00565b5b61254888828901612458565b9150509295509295909350565b600067ffffffffffffffff8211156125705761256f61228e565b5b602082029050602081019050919050565b600061259461258f84612555565b6122ee565b905080838252602082019050602084028301858111156125b7576125b6612335565b5b835b818110156125e057806125cc8882611f4e565b8452602084019350506020810190506125b9565b5050509392505050565b600082601f8301126125ff576125fe612289565b5b813561260f848260208601612581565b91505092915050565b6000806040838503121561262f5761262e611efb565b5b600083013567ffffffffffffffff81111561264d5761264c611f00565b5b612659858286016125ea565b925050602083013567ffffffffffffffff81111561267a57612679611f00565b5b612686858286016123a3565b9150509250929050565b600081519050919050565b600082825260208201905092915050565b6000819050602082019050919050565b6126c581611f63565b82525050565b60006126d783836126bc565b60208301905092915050565b6000602082019050919050565b60006126fb82612690565b612705818561269b565b9350612710836126ac565b8060005b8381101561274157815161272888826126cb565b9750612733836126e3565b925050600181019050612714565b5085935050505092915050565b6000602082019050818103600083015261276881846126f0565b905092915050565b61277981612088565b811461278457600080fd5b50565b60008135905061279681612770565b92915050565b600080604083850312156127b3576127b2611efb565b5b60006127c185828601611f4e565b92505060206127d285828601612787565b9150509250929050565b600080604083850312156127f3576127f2611efb565b5b600061280185828601611f4e565b925050602061281285828601611f4e565b9150509250929050565b600080600080600060a0868803121561283857612837611efb565b5b600061284688828901611f4e565b955050602061285788828901611f4e565b945050604061286888828901611f84565b935050606061287988828901611f84565b925050608086013567ffffffffffffffff81111561289a57612899611f00565b5b6128a688828901612458565b9150509295509295909350565b7f455243313135353a2062616c616e636520717565727920666f7220746865207a60008201527f65726f2061646472657373000000000000000000000000000000000000000000602082015250565b600061290f602b836120f6565b915061291a826128b3565b604082019050919050565b6000602082019050818103600083015261293e81612902565b9050919050565b7f4e487b7100000000000000000000000000000000000000000000000000000000600052602260045260246000fd5b6000600282049050600182168061298c57607f821691505b602082108114156129a05761299f612945565b5b50919050565b7f4e487b7100000000000000000000000000000000000000000000000000000000600052601160045260246000fd5b60006129e082611f63565b91506129eb83611f63565b9250817fffffffffffffffffffffffffffffffffffffffffffffffffffffffffffffffff0483118215151615612a2457612a236129a6565b5b828202905092915050565b7f455243313135353a207472616e736665722063616c6c6572206973206e6f742060008201527f6f776e6572206e6f7220617070726f7665640000000000000000000000000000602082015250565b6000612a8b6032836120f6565b9150612a9682612a2f565b604082019050919050565b60006020820190508181036000830152612aba81612a7e565b9050919050565b7f455243313135353a206163636f756e747320616e6420696473206c656e67746860008201527f206d69736d617463680000000000000000000000000000000000000000000000602082015250565b6000612b1d6029836120f6565b9150612b2882612ac1565b604082019050919050565b60006020820190508181036000830152612b4c81612b10565b9050919050565b7f4e487b7100000000000000000000000000000000000000000000000000000000600052603260045260246000fd5b6000612b8d82611f63565b91507fffffffffffffffffffffffffffffffffffffffffffffffffffffffffffffffff821415612bc057612bbf6129a6565b5b600182019050919050565b7f455243313135353a2063616c6c6572206973206e6f74206f776e6572206e6f7260008201527f20617070726f7665640000000000000000000000000000000000000000000000602082015250565b6000612c276029836120f6565b9150612c3282612bcb565b604082019050919050565b60006020820190508181036000830152612c5681612c1a565b9050919050565b7f455243313135353a206d696e7420746f20746865207a65726f2061646472657360008201527f7300000000000000000000000000000000000000000000000000000000000000602082015250565b6000612cb96021836120f6565b9150612cc482612c5d565b604082019050919050565b60006020820190508181036000830152612ce881612cac565b9050919050565b6000612cfa82611f63565b9150612d0583611f63565b9250827fffffffffffffffffffffffffffffffffffffffffffffffffffffffffffffffff03821115612d3a57612d396129a6565b5b828201905092915050565b6000604082019050612d5a6000830185611fd9565b612d676020830184611fd9565b9392505050565b7f455243313135353a206275726e2066726f6d20746865207a65726f206164647260008201527f6573730000000000000000000000000000000000000000000000000000000000602082015250565b6000612dca6023836120f6565b9150612dd582612d6e565b604082019050919050565b60006020820190508181036000830152612df981612dbd565b9050919050565b7f455243313135353a206275726e20616d6f756e7420657863656564732062616c60008201527f616e636500000000000000000000000000000000000000000000000000000000602082015250565b6000612e5c6024836120f6565b9150612e6782612e00565b604082019050919050565b60006020820190508181036000830152612e8b81612e4f565b9050919050565b7f455243313135353a2069647320616e6420616d6f756e7473206c656e6774682060008201527f6d69736d61746368000000000000000000000000000000000000000000000000602082015250565b6000612eee6028836120f6565b9150612ef982612e92565b604082019050919050565b60006020820190508181036000830152612f1d81612ee1565b9050919050565b7f455243313135353a207472616e7366657220746f20746865207a65726f20616460008201527f6472657373000000000000000000000000000000000000000000000000000000602082015250565b6000612f806025836120f6565b9150612f8b82612f24565b604082019050919050565b60006020820190508181036000830152612faf81612f73565b9050919050565b7f455243313135353a20696e73756666696369656e742062616c616e636520666f60008201527f72207472616e7366657200000000000000000000000000000000000000000000602082015250565b6000613012602a836120f6565b915061301d82612fb6565b604082019050919050565b6000602082019050818103600083015261304181613005565b9050919050565b6000604082019050818103600083015261306281856126f0565b9050818103602083015261307681846126f0565b90509392505050565b7f455243313135353a2073657474696e6720617070726f76616c2073746174757360008201527f20666f722073656c660000000000000000000000000000000000000000000000602082015250565b60006130db6029836120f6565b91506130e68261307f565b604082019050919050565b6000602082019050818103600083015261310a816130ce565b9050919050565b61311a81611f25565b82525050565b600081519050919050565b600082825260208201905092915050565b600061314782613120565b613151818561312b565b9350613161818560208601612107565b61316a8161213a565b840191505092915050565b600060a08201905061318a6000830188613111565b6131976020830187613111565b6131a46040830186611fd9565b6131b16060830185611fd9565b81810360808301526131c3818461313c565b90509695505050505050565b6000815190506131de8161202f565b92915050565b6000602082840312156131fa576131f9611efb565b5b6000613208848285016131cf565b91505092915050565b60008160e01c9050919050565b600060033d111561323d5760046000803e61323a600051613211565b90505b90565b600060443d1015613250576132d3565b613258611ef1565b60043d036004823e80513d602482011167ffffffffffffffff821117156132805750506132d3565b808201805167ffffffffffffffff81111561329e57505050506132d3565b80602083010160043d0385018111156132bb5750505050506132d3565b6132ca826020018501866122bd565b82955050505050505b90565b7f455243313135353a207472616e7366657220746f206e6f6e204552433131353560008201527f526563656976657220696d706c656d656e746572000000000000000000000000602082015250565b60006133326034836120f6565b915061333d826132d6565b604082019050919050565b6000602082019050818103600083015261336181613325565b9050919050565b7f455243313135353a204552433131353552656365697665722072656a6563746560008201527f6420746f6b656e73000000000000000000000000000000000000000000000000602082015250565b60006133c46028836120f6565b91506133cf82613368565b604082019050919050565b600060208201905081810360008301526133f3816133b7565b9050919050565b600060a08201905061340f6000830188613111565b61341c6020830187613111565b818103604083015261342e81866126f0565b9050818103606083015261344281856126f0565b90508181036080830152613456818461313c565b9050969550505050505056fea26469706673582212200c5950dc91a7247c47e75d5ea8e45948023610bcacb175e30ad54bb03c2be95564736f6c634300080c003368747470733a2f2f697066732e696f2f697066732f626166796265696374753278336c327061766179716c37376a37716275737233717077697832377374686c6c357177646273736e636869356a65692f7b69647d2e6a736f6e",
  "immutableReferences": {},
  "source": "// SPDX-License-Identifier: MIT\npragma solidity >=0.4.0 <0.9.0;\n\nimport \"./Wrdl3Items.sol\";\n\ncontract Wrdl3SilverLetters is Wrdl3Items {\n    uint8 public constant A_Silver = 31;\n    uint8 public constant B_Silver = 32;\n    uint8 public constant C_Silver = 33;\n    uint8 public constant D_Silver = 34;\n    uint8 public constant E_Silver = 35;\n    uint8 public constant F_Silver = 36;\n    uint8 public constant G_Silver = 37;\n    uint8 public constant H_Silver = 38;\n\n    uint8 public constant I_Silver = 39;\n    uint8 public constant J_Silver = 40;\n    uint8 public constant K_Silver = 41;\n    uint8 public constant L_Silver = 42;\n    uint8 public constant M_Silver = 43;\n    uint8 public constant N_Silver = 44;\n    uint8 public constant O_Silver = 45;\n    uint8 public constant P_Silver = 46;\n\n    uint8 public constant Q_Silver = 47;\n    uint8 public constant R_Silver = 48;\n    uint8 public constant S_Silver = 49;\n    uint8 public constant T_Silver = 50;\n    uint8 public constant U_Silver = 51;\n    uint8 public constant V_Silver = 52;\n    uint8 public constant W_Silver = 53;\n    uint8 public constant X_Silver = 54;\n\n    uint8 public constant Y_Silver = 55;\n    uint8 public constant Z_Silver = 56;\n\n    function buySilverLetters(\n        address _player,\n        uint8 _letterId,\n        uint256 _amount\n    ) public {\n        require(balanceOf(_player, SILVER) >= 5 * _amount);\n        require(_letterId >= 31 && _letterId <= 56);\n        _burn(_player, SILVER, 5 * _amount);\n        _mint(_player, _letterId, _amount, \"\");\n    }\n}\n",
  "sourcePath": "/Users/emilsharafutdinov/Desktop/Work/SR3/Wrdl3/contracts/Wrld3SilverLetters.sol",
  "compiler": {
    "name": "solc",
    "version": "0.8.12+commit.f00d7308.Emscripten.clang"
  },
  "schemaVersion": "3.4.4",
  "updatedAt": "2022-03-09T14:42:14.057Z",
  "devdoc": {
    "kind": "dev",
    "methods": {
      "balanceOf(address,uint256)": {
        "details": "See {IERC1155-balanceOf}. Requirements: - `account` cannot be the zero address."
      },
      "balanceOfBatch(address[],uint256[])": {
        "details": "See {IERC1155-balanceOfBatch}. Requirements: - `accounts` and `ids` must have the same length."
      },
      "isApprovedForAll(address,address)": {
        "details": "See {IERC1155-isApprovedForAll}."
      },
      "safeBatchTransferFrom(address,address,uint256[],uint256[],bytes)": {
        "details": "See {IERC1155-safeBatchTransferFrom}."
      },
      "safeTransferFrom(address,address,uint256,uint256,bytes)": {
        "details": "See {IERC1155-safeTransferFrom}."
      },
      "setApprovalForAll(address,bool)": {
        "details": "See {IERC1155-setApprovalForAll}."
      },
      "supportsInterface(bytes4)": {
        "details": "See {IERC165-supportsInterface}."
      },
      "uri(uint256)": {
        "details": "See {IERC1155MetadataURI-uri}. This implementation returns the same URI for *all* token types. It relies on the token type ID substitution mechanism https://eips.ethereum.org/EIPS/eip-1155#metadata[defined in the EIP]. Clients calling this function must replace the `\\{id\\}` substring with the actual token type ID."
      }
    },
    "version": 1
  },
  "userdoc": {
    "kind": "user",
    "methods": {},
    "version": 1
  }
}