{
  "contractName": "Wrdl3Tip",
  "abi": [
    {
      "anonymous": false,
      "inputs": [
        {
          "indexed": true,
          "internalType": "address",
          "name": "account",
          "type": "address"
        },
        {
          "indexed": true,
          "internalType": "address",
          "name": "operator",
          "type": "address"
        },
        {
          "indexed": false,
          "internalType": "bool",
          "name": "approved",
          "type": "bool"
        }
      ],
      "name": "ApprovalForAll",
      "type": "event"
    },
    {
      "anonymous": false,
      "inputs": [
        {
          "indexed": true,
          "internalType": "address",
          "name": "operator",
          "type": "address"
        },
        {
          "indexed": true,
          "internalType": "address",
          "name": "from",
          "type": "address"
        },
        {
          "indexed": true,
          "internalType": "address",
          "name": "to",
          "type": "address"
        },
        {
          "indexed": false,
          "internalType": "uint256[]",
          "name": "ids",
          "type": "uint256[]"
        },
        {
          "indexed": false,
          "internalType": "uint256[]",
          "name": "values",
          "type": "uint256[]"
        }
      ],
      "name": "TransferBatch",
      "type": "event"
    },
    {
      "anonymous": false,
      "inputs": [
        {
          "indexed": true,
          "internalType": "address",
          "name": "operator",
          "type": "address"
        },
        {
          "indexed": true,
          "internalType": "address",
          "name": "from",
          "type": "address"
        },
        {
          "indexed": true,
          "internalType": "address",
          "name": "to",
          "type": "address"
        },
        {
          "indexed": false,
          "internalType": "uint256",
          "name": "id",
          "type": "uint256"
        },
        {
          "indexed": false,
          "internalType": "uint256",
          "name": "value",
          "type": "uint256"
        }
      ],
      "name": "TransferSingle",
      "type": "event"
    },
    {
      "anonymous": false,
      "inputs": [
        {
          "indexed": false,
          "internalType": "string",
          "name": "value",
          "type": "string"
        },
        {
          "indexed": true,
          "internalType": "uint256",
          "name": "id",
          "type": "uint256"
        }
      ],
      "name": "URI",
      "type": "event"
    },
    {
      "inputs": [],
      "name": "A_Bronze",
      "outputs": [
        {
          "internalType": "uint8",
          "name": "",
          "type": "uint8"
        }
      ],
      "stateMutability": "view",
      "type": "function"
    },
    {
      "inputs": [],
      "name": "A_Gold",
      "outputs": [
        {
          "internalType": "uint8",
          "name": "",
          "type": "uint8"
        }
      ],
      "stateMutability": "view",
      "type": "function"
    },
    {
      "inputs": [],
      "name": "A_Silver",
      "outputs": [
        {
          "internalType": "uint8",
          "name": "",
          "type": "uint8"
        }
      ],
      "stateMutability": "view",
      "type": "function"
    },
    {
      "inputs": [],
      "name": "BRONZE",
      "outputs": [
        {
          "internalType": "uint256",
          "name": "",
          "type": "uint256"
        }
      ],
      "stateMutability": "view",
      "type": "function"
    },
    {
      "inputs": [],
      "name": "B_Bronze",
      "outputs": [
        {
          "internalType": "uint8",
          "name": "",
          "type": "uint8"
        }
      ],
      "stateMutability": "view",
      "type": "function"
    },
    {
      "inputs": [],
      "name": "B_Gold",
      "outputs": [
        {
          "internalType": "uint8",
          "name": "",
          "type": "uint8"
        }
      ],
      "stateMutability": "view",
      "type": "function"
    },
    {
      "inputs": [],
      "name": "B_Silver",
      "outputs": [
        {
          "internalType": "uint8",
          "name": "",
          "type": "uint8"
        }
      ],
      "stateMutability": "view",
      "type": "function"
    },
    {
      "inputs": [],
      "name": "C_Bronze",
      "outputs": [
        {
          "internalType": "uint8",
          "name": "",
          "type": "uint8"
        }
      ],
      "stateMutability": "view",
      "type": "function"
    },
    {
      "inputs": [],
      "name": "C_Gold",
      "outputs": [
        {
          "internalType": "uint8",
          "name": "",
          "type": "uint8"
        }
      ],
      "stateMutability": "view",
      "type": "function"
    },
    {
      "inputs": [],
      "name": "C_Silver",
      "outputs": [
        {
          "internalType": "uint8",
          "name": "",
          "type": "uint8"
        }
      ],
      "stateMutability": "view",
      "type": "function"
    },
    {
      "inputs": [],
      "name": "D_Bronze",
      "outputs": [
        {
          "internalType": "uint8",
          "name": "",
          "type": "uint8"
        }
      ],
      "stateMutability": "view",
      "type": "function"
    },
    {
      "inputs": [],
      "name": "D_Gold",
      "outputs": [
        {
          "internalType": "uint8",
          "name": "",
          "type": "uint8"
        }
      ],
      "stateMutability": "view",
      "type": "function"
    },
    {
      "inputs": [],
      "name": "D_Silver",
      "outputs": [
        {
          "internalType": "uint8",
          "name": "",
          "type": "uint8"
        }
      ],
      "stateMutability": "view",
      "type": "function"
    },
    {
      "inputs": [],
      "name": "E_Bronze",
      "outputs": [
        {
          "internalType": "uint8",
          "name": "",
          "type": "uint8"
        }
      ],
      "stateMutability": "view",
      "type": "function"
    },
    {
      "inputs": [],
      "name": "E_Gold",
      "outputs": [
        {
          "internalType": "uint8",
          "name": "",
          "type": "uint8"
        }
      ],
      "stateMutability": "view",
      "type": "function"
    },
    {
      "inputs": [],
      "name": "E_Silver",
      "outputs": [
        {
          "internalType": "uint8",
          "name": "",
          "type": "uint8"
        }
      ],
      "stateMutability": "view",
      "type": "function"
    },
    {
      "inputs": [],
      "name": "F_Bronze",
      "outputs": [
        {
          "internalType": "uint8",
          "name": "",
          "type": "uint8"
        }
      ],
      "stateMutability": "view",
      "type": "function"
    },
    {
      "inputs": [],
      "name": "F_Gold",
      "outputs": [
        {
          "internalType": "uint8",
          "name": "",
          "type": "uint8"
        }
      ],
      "stateMutability": "view",
      "type": "function"
    },
    {
      "inputs": [],
      "name": "F_Silver",
      "outputs": [
        {
          "internalType": "uint8",
          "name": "",
          "type": "uint8"
        }
      ],
      "stateMutability": "view",
      "type": "function"
    },
    {
      "inputs": [],
      "name": "GOLD",
      "outputs": [
        {
          "internalType": "uint256",
          "name": "",
          "type": "uint256"
        }
      ],
      "stateMutability": "view",
      "type": "function"
    },
    {
      "inputs": [],
      "name": "G_Bronze",
      "outputs": [
        {
          "internalType": "uint8",
          "name": "",
          "type": "uint8"
        }
      ],
      "stateMutability": "view",
      "type": "function"
    },
    {
      "inputs": [],
      "name": "G_Gold",
      "outputs": [
        {
          "internalType": "uint8",
          "name": "",
          "type": "uint8"
        }
      ],
      "stateMutability": "view",
      "type": "function"
    },
    {
      "inputs": [],
      "name": "G_Silver",
      "outputs": [
        {
          "internalType": "uint8",
          "name": "",
          "type": "uint8"
        }
      ],
      "stateMutability": "view",
      "type": "function"
    },
    {
      "inputs": [],
      "name": "H_Bronze",
      "outputs": [
        {
          "internalType": "uint8",
          "name": "",
          "type": "uint8"
        }
      ],
      "stateMutability": "view",
      "type": "function"
    },
    {
      "inputs": [],
      "name": "H_Gold",
      "outputs": [
        {
          "internalType": "uint8",
          "name": "",
          "type": "uint8"
        }
      ],
      "stateMutability": "view",
      "type": "function"
    },
    {
      "inputs": [],
      "name": "H_Silver",
      "outputs": [
        {
          "internalType": "uint8",
          "name": "",
          "type": "uint8"
        }
      ],
      "stateMutability": "view",
      "type": "function"
    },
    {
      "inputs": [],
      "name": "I_Bronze",
      "outputs": [
        {
          "internalType": "uint8",
          "name": "",
          "type": "uint8"
        }
      ],
      "stateMutability": "view",
      "type": "function"
    },
    {
      "inputs": [],
      "name": "I_Gold",
      "outputs": [
        {
          "internalType": "uint8",
          "name": "",
          "type": "uint8"
        }
      ],
      "stateMutability": "view",
      "type": "function"
    },
    {
      "inputs": [],
      "name": "I_Silver",
      "outputs": [
        {
          "internalType": "uint8",
          "name": "",
          "type": "uint8"
        }
      ],
      "stateMutability": "view",
      "type": "function"
    },
    {
      "inputs": [],
      "name": "J_Bronze",
      "outputs": [
        {
          "internalType": "uint8",
          "name": "",
          "type": "uint8"
        }
      ],
      "stateMutability": "view",
      "type": "function"
    },
    {
      "inputs": [],
      "name": "J_Gold",
      "outputs": [
        {
          "internalType": "uint8",
          "name": "",
          "type": "uint8"
        }
      ],
      "stateMutability": "view",
      "type": "function"
    },
    {
      "inputs": [],
      "name": "J_Silver",
      "outputs": [
        {
          "internalType": "uint8",
          "name": "",
          "type": "uint8"
        }
      ],
      "stateMutability": "view",
      "type": "function"
    },
    {
      "inputs": [],
      "name": "K_Bronze",
      "outputs": [
        {
          "internalType": "uint8",
          "name": "",
          "type": "uint8"
        }
      ],
      "stateMutability": "view",
      "type": "function"
    },
    {
      "inputs": [],
      "name": "K_Gold",
      "outputs": [
        {
          "internalType": "uint8",
          "name": "",
          "type": "uint8"
        }
      ],
      "stateMutability": "view",
      "type": "function"
    },
    {
      "inputs": [],
      "name": "K_Silver",
      "outputs": [
        {
          "internalType": "uint8",
          "name": "",
          "type": "uint8"
        }
      ],
      "stateMutability": "view",
      "type": "function"
    },
    {
      "inputs": [],
      "name": "LVL2",
      "outputs": [
        {
          "internalType": "uint256",
          "name": "",
          "type": "uint256"
        }
      ],
      "stateMutability": "view",
      "type": "function"
    },
    {
      "inputs": [],
      "name": "LVL3",
      "outputs": [
        {
          "internalType": "uint256",
          "name": "",
          "type": "uint256"
        }
      ],
      "stateMutability": "view",
      "type": "function"
    },
    {
      "inputs": [],
      "name": "L_Bronze",
      "outputs": [
        {
          "internalType": "uint8",
          "name": "",
          "type": "uint8"
        }
      ],
      "stateMutability": "view",
      "type": "function"
    },
    {
      "inputs": [],
      "name": "L_Gold",
      "outputs": [
        {
          "internalType": "uint8",
          "name": "",
          "type": "uint8"
        }
      ],
      "stateMutability": "view",
      "type": "function"
    },
    {
      "inputs": [],
      "name": "L_Silver",
      "outputs": [
        {
          "internalType": "uint8",
          "name": "",
          "type": "uint8"
        }
      ],
      "stateMutability": "view",
      "type": "function"
    },
    {
      "inputs": [],
      "name": "M_Bronze",
      "outputs": [
        {
          "internalType": "uint8",
          "name": "",
          "type": "uint8"
        }
      ],
      "stateMutability": "view",
      "type": "function"
    },
    {
      "inputs": [],
      "name": "M_Gold",
      "outputs": [
        {
          "internalType": "uint8",
          "name": "",
          "type": "uint8"
        }
      ],
      "stateMutability": "view",
      "type": "function"
    },
    {
      "inputs": [],
      "name": "M_Silver",
      "outputs": [
        {
          "internalType": "uint8",
          "name": "",
          "type": "uint8"
        }
      ],
      "stateMutability": "view",
      "type": "function"
    },
    {
      "inputs": [],
      "name": "N_Bronze",
      "outputs": [
        {
          "internalType": "uint8",
          "name": "",
          "type": "uint8"
        }
      ],
      "stateMutability": "view",
      "type": "function"
    },
    {
      "inputs": [],
      "name": "N_Gold",
      "outputs": [
        {
          "internalType": "uint8",
          "name": "",
          "type": "uint8"
        }
      ],
      "stateMutability": "view",
      "type": "function"
    },
    {
      "inputs": [],
      "name": "N_Silver",
      "outputs": [
        {
          "internalType": "uint8",
          "name": "",
          "type": "uint8"
        }
      ],
      "stateMutability": "view",
      "type": "function"
    },
    {
      "inputs": [],
      "name": "O_Bronze",
      "outputs": [
        {
          "internalType": "uint8",
          "name": "",
          "type": "uint8"
        }
      ],
      "stateMutability": "view",
      "type": "function"
    },
    {
      "inputs": [],
      "name": "O_Gold",
      "outputs": [
        {
          "internalType": "uint8",
          "name": "",
          "type": "uint8"
        }
      ],
      "stateMutability": "view",
      "type": "function"
    },
    {
      "inputs": [],
      "name": "O_Silver",
      "outputs": [
        {
          "internalType": "uint8",
          "name": "",
          "type": "uint8"
        }
      ],
      "stateMutability": "view",
      "type": "function"
    },
    {
      "inputs": [],
      "name": "P_Bronze",
      "outputs": [
        {
          "internalType": "uint8",
          "name": "",
          "type": "uint8"
        }
      ],
      "stateMutability": "view",
      "type": "function"
    },
    {
      "inputs": [],
      "name": "P_Gold",
      "outputs": [
        {
          "internalType": "uint8",
          "name": "",
          "type": "uint8"
        }
      ],
      "stateMutability": "view",
      "type": "function"
    },
    {
      "inputs": [],
      "name": "P_Silver",
      "outputs": [
        {
          "internalType": "uint8",
          "name": "",
          "type": "uint8"
        }
      ],
      "stateMutability": "view",
      "type": "function"
    },
    {
      "inputs": [],
      "name": "Q_Bronze",
      "outputs": [
        {
          "internalType": "uint8",
          "name": "",
          "type": "uint8"
        }
      ],
      "stateMutability": "view",
      "type": "function"
    },
    {
      "inputs": [],
      "name": "Q_Gold",
      "outputs": [
        {
          "internalType": "uint8",
          "name": "",
          "type": "uint8"
        }
      ],
      "stateMutability": "view",
      "type": "function"
    },
    {
      "inputs": [],
      "name": "Q_Silver",
      "outputs": [
        {
          "internalType": "uint8",
          "name": "",
          "type": "uint8"
        }
      ],
      "stateMutability": "view",
      "type": "function"
    },
    {
      "inputs": [],
      "name": "R_Bronze",
      "outputs": [
        {
          "internalType": "uint8",
          "name": "",
          "type": "uint8"
        }
      ],
      "stateMutability": "view",
      "type": "function"
    },
    {
      "inputs": [],
      "name": "R_Gold",
      "outputs": [
        {
          "internalType": "uint8",
          "name": "",
          "type": "uint8"
        }
      ],
      "stateMutability": "view",
      "type": "function"
    },
    {
      "inputs": [],
      "name": "R_Silver",
      "outputs": [
        {
          "internalType": "uint8",
          "name": "",
          "type": "uint8"
        }
      ],
      "stateMutability": "view",
      "type": "function"
    },
    {
      "inputs": [],
      "name": "SILVER",
      "outputs": [
        {
          "internalType": "uint256",
          "name": "",
          "type": "uint256"
        }
      ],
      "stateMutability": "view",
      "type": "function"
    },
    {
      "inputs": [],
      "name": "S_Bronze",
      "outputs": [
        {
          "internalType": "uint8",
          "name": "",
          "type": "uint8"
        }
      ],
      "stateMutability": "view",
      "type": "function"
    },
    {
      "inputs": [],
      "name": "S_Gold",
      "outputs": [
        {
          "internalType": "uint8",
          "name": "",
          "type": "uint8"
        }
      ],
      "stateMutability": "view",
      "type": "function"
    },
    {
      "inputs": [],
      "name": "S_Silver",
      "outputs": [
        {
          "internalType": "uint8",
          "name": "",
          "type": "uint8"
        }
      ],
      "stateMutability": "view",
      "type": "function"
    },
    {
      "inputs": [],
      "name": "T_Bronze",
      "outputs": [
        {
          "internalType": "uint8",
          "name": "",
          "type": "uint8"
        }
      ],
      "stateMutability": "view",
      "type": "function"
    },
    {
      "inputs": [],
      "name": "T_Gold",
      "outputs": [
        {
          "internalType": "uint8",
          "name": "",
          "type": "uint8"
        }
      ],
      "stateMutability": "view",
      "type": "function"
    },
    {
      "inputs": [],
      "name": "T_Silver",
      "outputs": [
        {
          "internalType": "uint8",
          "name": "",
          "type": "uint8"
        }
      ],
      "stateMutability": "view",
      "type": "function"
    },
    {
      "inputs": [],
      "name": "U_Bronze",
      "outputs": [
        {
          "internalType": "uint8",
          "name": "",
          "type": "uint8"
        }
      ],
      "stateMutability": "view",
      "type": "function"
    },
    {
      "inputs": [],
      "name": "U_Gold",
      "outputs": [
        {
          "internalType": "uint8",
          "name": "",
          "type": "uint8"
        }
      ],
      "stateMutability": "view",
      "type": "function"
    },
    {
      "inputs": [],
      "name": "U_Silver",
      "outputs": [
        {
          "internalType": "uint8",
          "name": "",
          "type": "uint8"
        }
      ],
      "stateMutability": "view",
      "type": "function"
    },
    {
      "inputs": [],
      "name": "V_Bronze",
      "outputs": [
        {
          "internalType": "uint8",
          "name": "",
          "type": "uint8"
        }
      ],
      "stateMutability": "view",
      "type": "function"
    },
    {
      "inputs": [],
      "name": "V_Gold",
      "outputs": [
        {
          "internalType": "uint8",
          "name": "",
          "type": "uint8"
        }
      ],
      "stateMutability": "view",
      "type": "function"
    },
    {
      "inputs": [],
      "name": "V_Silver",
      "outputs": [
        {
          "internalType": "uint8",
          "name": "",
          "type": "uint8"
        }
      ],
      "stateMutability": "view",
      "type": "function"
    },
    {
      "inputs": [],
      "name": "W_Bronze",
      "outputs": [
        {
          "internalType": "uint8",
          "name": "",
          "type": "uint8"
        }
      ],
      "stateMutability": "view",
      "type": "function"
    },
    {
      "inputs": [],
      "name": "W_Gold",
      "outputs": [
        {
          "internalType": "uint8",
          "name": "",
          "type": "uint8"
        }
      ],
      "stateMutability": "view",
      "type": "function"
    },
    {
      "inputs": [],
      "name": "W_Silver",
      "outputs": [
        {
          "internalType": "uint8",
          "name": "",
          "type": "uint8"
        }
      ],
      "stateMutability": "view",
      "type": "function"
    },
    {
      "inputs": [],
      "name": "X_Bronze",
      "outputs": [
        {
          "internalType": "uint8",
          "name": "",
          "type": "uint8"
        }
      ],
      "stateMutability": "view",
      "type": "function"
    },
    {
      "inputs": [],
      "name": "X_Gold",
      "outputs": [
        {
          "internalType": "uint8",
          "name": "",
          "type": "uint8"
        }
      ],
      "stateMutability": "view",
      "type": "function"
    },
    {
      "inputs": [],
      "name": "X_Silver",
      "outputs": [
        {
          "internalType": "uint8",
          "name": "",
          "type": "uint8"
        }
      ],
      "stateMutability": "view",
      "type": "function"
    },
    {
      "inputs": [],
      "name": "Y_Bronze",
      "outputs": [
        {
          "internalType": "uint8",
          "name": "",
          "type": "uint8"
        }
      ],
      "stateMutability": "view",
      "type": "function"
    },
    {
      "inputs": [],
      "name": "Y_Gold",
      "outputs": [
        {
          "internalType": "uint8",
          "name": "",
          "type": "uint8"
        }
      ],
      "stateMutability": "view",
      "type": "function"
    },
    {
      "inputs": [],
      "name": "Y_Silver",
      "outputs": [
        {
          "internalType": "uint8",
          "name": "",
          "type": "uint8"
        }
      ],
      "stateMutability": "view",
      "type": "function"
    },
    {
      "inputs": [],
      "name": "Z_Bronze",
      "outputs": [
        {
          "internalType": "uint8",
          "name": "",
          "type": "uint8"
        }
      ],
      "stateMutability": "view",
      "type": "function"
    },
    {
      "inputs": [],
      "name": "Z_Gold",
      "outputs": [
        {
          "internalType": "uint8",
          "name": "",
          "type": "uint8"
        }
      ],
      "stateMutability": "view",
      "type": "function"
    },
    {
      "inputs": [],
      "name": "Z_Silver",
      "outputs": [
        {
          "internalType": "uint8",
          "name": "",
          "type": "uint8"
        }
      ],
      "stateMutability": "view",
      "type": "function"
    },
    {
      "inputs": [
        {
          "internalType": "address",
          "name": "player",
          "type": "address"
        }
      ],
      "name": "awardBronze",
      "outputs": [],
      "stateMutability": "nonpayable",
      "type": "function"
    },
    {
      "inputs": [
        {
          "internalType": "address",
          "name": "player",
          "type": "address"
        }
      ],
      "name": "awardGold",
      "outputs": [],
      "stateMutability": "nonpayable",
      "type": "function"
    },
    {
      "inputs": [
        {
          "internalType": "address",
          "name": "player",
          "type": "address"
        }
      ],
      "name": "awardSilver",
      "outputs": [],
      "stateMutability": "nonpayable",
      "type": "function"
    },
    {
      "inputs": [
        {
          "internalType": "address",
          "name": "account",
          "type": "address"
        },
        {
          "internalType": "uint256",
          "name": "id",
          "type": "uint256"
        }
      ],
      "name": "balanceOf",
      "outputs": [
        {
          "internalType": "uint256",
          "name": "",
          "type": "uint256"
        }
      ],
      "stateMutability": "view",
      "type": "function"
    },
    {
      "inputs": [
        {
          "internalType": "address[]",
          "name": "accounts",
          "type": "address[]"
        },
        {
          "internalType": "uint256[]",
          "name": "ids",
          "type": "uint256[]"
        }
      ],
      "name": "balanceOfBatch",
      "outputs": [
        {
          "internalType": "uint256[]",
          "name": "",
          "type": "uint256[]"
        }
      ],
      "stateMutability": "view",
      "type": "function"
    },
    {
      "inputs": [
        {
          "internalType": "address",
          "name": "_player",
          "type": "address"
        },
        {
          "internalType": "uint8",
          "name": "_letterId",
          "type": "uint8"
        },
        {
          "internalType": "uint256",
          "name": "_amount",
          "type": "uint256"
        }
      ],
      "name": "buyBronzeLetters",
      "outputs": [],
      "stateMutability": "nonpayable",
      "type": "function"
    },
    {
      "inputs": [
        {
          "internalType": "address",
          "name": "_player",
          "type": "address"
        },
        {
          "internalType": "uint8",
          "name": "_letterId",
          "type": "uint8"
        },
        {
          "internalType": "uint256",
          "name": "_amount",
          "type": "uint256"
        }
      ],
      "name": "buyGoldLetters",
      "outputs": [],
      "stateMutability": "nonpayable",
      "type": "function"
    },
    {
      "inputs": [
        {
          "internalType": "address",
          "name": "_player",
          "type": "address"
        },
        {
          "internalType": "uint8",
          "name": "_letterId",
          "type": "uint8"
        },
        {
          "internalType": "uint256",
          "name": "_amount",
          "type": "uint256"
        }
      ],
      "name": "buySilverLetters",
      "outputs": [],
      "stateMutability": "nonpayable",
      "type": "function"
    },
    {
      "inputs": [
        {
          "internalType": "address",
          "name": "_sender",
          "type": "address"
        },
        {
          "internalType": "address",
          "name": "_receiver",
          "type": "address"
        },
        {
          "internalType": "uint256",
          "name": "_tokenId",
          "type": "uint256"
        },
        {
          "internalType": "uint256",
          "name": "_appendedTokenId",
          "type": "uint256"
        },
        {
          "internalType": "uint256",
          "name": "_amount",
          "type": "uint256"
        }
      ],
      "name": "compose",
      "outputs": [],
      "stateMutability": "nonpayable",
      "type": "function"
    },
    {
      "inputs": [
        {
          "internalType": "address",
          "name": "",
          "type": "address"
        },
        {
          "internalType": "uint256",
          "name": "",
          "type": "uint256"
        },
        {
          "internalType": "uint256",
          "name": "",
          "type": "uint256"
        }
      ],
      "name": "compositions",
      "outputs": [
        {
          "internalType": "uint256",
          "name": "",
          "type": "uint256"
        }
      ],
      "stateMutability": "view",
      "type": "function"
    },
    {
      "inputs": [
        {
          "internalType": "address",
          "name": "account",
          "type": "address"
        },
        {
          "internalType": "address",
          "name": "operator",
          "type": "address"
        }
      ],
      "name": "isApprovedForAll",
      "outputs": [
        {
          "internalType": "bool",
          "name": "",
          "type": "bool"
        }
      ],
      "stateMutability": "view",
      "type": "function"
    },
    {
      "inputs": [
        {
          "internalType": "address",
          "name": "player",
          "type": "address"
        }
      ],
      "name": "lvl2Achieve",
      "outputs": [],
      "stateMutability": "nonpayable",
      "type": "function"
    },
    {
      "inputs": [
        {
          "internalType": "address",
          "name": "player",
          "type": "address"
        }
      ],
      "name": "lvl3Achieve",
      "outputs": [],
      "stateMutability": "nonpayable",
      "type": "function"
    },
    {
      "inputs": [
        {
          "internalType": "address",
          "name": "from",
          "type": "address"
        },
        {
          "internalType": "address",
          "name": "to",
          "type": "address"
        },
        {
          "internalType": "uint256[]",
          "name": "ids",
          "type": "uint256[]"
        },
        {
          "internalType": "uint256[]",
          "name": "amounts",
          "type": "uint256[]"
        },
        {
          "internalType": "bytes",
          "name": "data",
          "type": "bytes"
        }
      ],
      "name": "safeBatchTransferFrom",
      "outputs": [],
      "stateMutability": "nonpayable",
      "type": "function"
    },
    {
      "inputs": [
        {
          "internalType": "address",
          "name": "from",
          "type": "address"
        },
        {
          "internalType": "address",
          "name": "to",
          "type": "address"
        },
        {
          "internalType": "uint256",
          "name": "id",
          "type": "uint256"
        },
        {
          "internalType": "uint256",
          "name": "amount",
          "type": "uint256"
        },
        {
          "internalType": "bytes",
          "name": "data",
          "type": "bytes"
        }
      ],
      "name": "safeTransferFrom",
      "outputs": [],
      "stateMutability": "nonpayable",
      "type": "function"
    },
    {
      "inputs": [
        {
          "internalType": "address",
          "name": "operator",
          "type": "address"
        },
        {
          "internalType": "bool",
          "name": "approved",
          "type": "bool"
        }
      ],
      "name": "setApprovalForAll",
      "outputs": [],
      "stateMutability": "nonpayable",
      "type": "function"
    },
    {
      "inputs": [
        {
          "internalType": "bytes4",
          "name": "interfaceId",
          "type": "bytes4"
        }
      ],
      "name": "supportsInterface",
      "outputs": [
        {
          "internalType": "bool",
          "name": "",
          "type": "bool"
        }
      ],
      "stateMutability": "view",
      "type": "function"
    },
    {
      "inputs": [
        {
          "internalType": "uint256",
          "name": "",
          "type": "uint256"
        }
      ],
      "name": "uri",
      "outputs": [
        {
          "internalType": "string",
          "name": "",
          "type": "string"
        }
      ],
      "stateMutability": "view",
      "type": "function"
    },
    {
      "inputs": [
        {
          "internalType": "address",
          "name": "_to",
          "type": "address"
        },
        {
          "internalType": "address",
          "name": "_from",
          "type": "address"
        },
        {
          "internalType": "uint256",
          "name": "_wordId",
          "type": "uint256"
        },
        {
          "internalType": "uint8",
          "name": "_letterId",
          "type": "uint8"
        },
        {
          "internalType": "uint256",
          "name": "_amount",
          "type": "uint256"
        }
      ],
      "name": "goldTip",
      "outputs": [],
      "stateMutability": "nonpayable",
      "type": "function"
    },
    {
      "inputs": [
        {
          "internalType": "address",
          "name": "_to",
          "type": "address"
        },
        {
          "internalType": "address",
          "name": "_from",
          "type": "address"
        },
        {
          "internalType": "uint256",
          "name": "_wordId",
          "type": "uint256"
        },
        {
          "internalType": "uint8",
          "name": "_letterId",
          "type": "uint8"
        },
        {
          "internalType": "uint256",
          "name": "_amount",
          "type": "uint256"
        }
      ],
      "name": "silverTip",
      "outputs": [],
      "stateMutability": "nonpayable",
      "type": "function"
    },
    {
      "inputs": [
        {
          "internalType": "address",
          "name": "_to",
          "type": "address"
        },
        {
          "internalType": "address",
          "name": "_from",
          "type": "address"
        },
        {
          "internalType": "uint256",
          "name": "_wordId",
          "type": "uint256"
        },
        {
          "internalType": "uint8",
          "name": "_letterId",
          "type": "uint8"
        },
        {
          "internalType": "uint256",
          "name": "_amount",
          "type": "uint256"
        }
      ],
      "name": "bronzeTip",
      "outputs": [],
      "stateMutability": "nonpayable",
      "type": "function"
    }
  ],
  "bytecode": "0x60806040523480156200001157600080fd5b506040518060800160405280605a81526020016200455b605a91396200003d816200004460201b60201c565b5062000175565b80600290805190602001906200005c92919062000060565b5050565b8280546200006e906200013f565b90600052602060002090601f016020900481019282620000925760008555620000de565b82601f10620000ad57805160ff1916838001178555620000de565b82800160010185558215620000de579182015b82811115620000dd578251825591602001919060010190620000c0565b5b509050620000ed9190620000f1565b5090565b5b808211156200010c576000816000905550600101620000f2565b5090565b7f4e487b7100000000000000000000000000000000000000000000000000000000600052602260045260246000fd5b600060028204905060018216806200015857607f821691505b602082108114156200016f576200016e62000110565b5b50919050565b6143d680620001856000396000f3fe608060405234801561001057600080fd5b50600436106106075760003560e01c80639b1b0a251161031b578063d1cbd29d116101a8578063e99bc6dc116100f4578063f100a7cd116100ad578063f2cdf80411610087578063f2cdf80414611212578063fb917d0e14611230578063fc5cd9501461124e578063ff2f60dc1461126c57610607565b8063f100a7cd146111bc578063f1170a98146111d8578063f242432a146111f657610607565b8063e99bc6dc1461110a578063ea10fbd814611126578063ec6ba15314611144578063edf53f8214611162578063f098dff114611180578063f0a2c2291461119e57610607565b8063e00fd54311610161578063e480c82c1161013b578063e480c82c14611080578063e6820bce1461109e578063e684f859146110bc578063e985e9c5146110da57610607565b8063e00fd54314611026578063e08b00aa14611044578063e3e55f081461106257610607565b8063d1cbd29d14610f76578063d33bc15114610f94578063d73e579414610fb0578063d865287d14610fce578063d963670214610fec578063dc9fd0c11461100857610607565b8063b95df95b11610267578063c8a5718811610220578063cb7d6f53116101fa578063cb7d6f5314610efe578063cc9faf5014610f1c578063cd25f74314610f3a578063ce7d528214610f5857610607565b8063c8a5718814610ea6578063c9dade7a14610ec4578063ca49090f14610ee257610607565b8063b95df95b14610df2578063ba4dd78a14610e10578063bb4965f414610e2e578063beaeb68514610e4c578063c08c261314610e6a578063c758d9cd14610e8857610607565b8063a6f66346116102d4578063ae14d905116102ae578063ae14d90514610d7c578063b14f59f614610d98578063b359a6f014610db6578063b65dbd4814610dd457610607565b8063a6f6634614610d22578063a899334514610d40578063abccdcac14610d5e57610607565b80639b1b0a2514610c72578063a062f15914610c8e578063a0c16ba914610cac578063a13030b514610cca578063a22cb46514610ce8578063a32af31914610d0457610607565b806342e6afd2116104995780636d4d5d51116103e557806387c2a2061161039e5780638ece8856116103785780638ece885614610bfc5780638f6b2c6914610c1a57806394aa40f414610c36578063994b9d7914610c5457610607565b806387c2a20614610ba25780638bc1870214610bc05780638dba8f9a14610bde57610607565b80636d4d5d5114610af05780636e0dfeca14610b0e57806374a5748114610b2c5780637f05e3f214610b4a578063834d097114610b68578063853fde5914610b8657610607565b80634e4ccf1d11610452578063592481771161042c5780635924817714610a7857806361b51fae14610a965780636220d17514610ab45780636d44143714610ad257610607565b80634e4ccf1d14610a1e57806350ace1e214610a3c578063528651db14610a5a57610607565b806342e6afd21461095857806343a87c731461097657806345dfef4a146109945780634b19e0ea146109b25780634cf5ebe2146109d05780634e1273f4146109ee57610607565b80632312fd4611610558578063347fddd5116105115780633c94455d116104eb5780633c94455d146108ce5780633e243dc4146108ec5780633e4bee381461091c57806341d6e2fc1461093a57610607565b8063347fddd51461087457806336e74dac146108925780633a257a1c146108b057610607565b80632312fd46146107c2578063277efb89146107e05780632eb2c2d6146107fe578063300226db1461081a57806330bc5e411461083857806333d68dda1461085657610607565b80630e89341c116105c557806310d92d461161059f57806310d92d461461074e578063138c2e6c1461076a5780631679b8f01461078657806320a1fc04146107a457610607565b80630e89341c146106e25780630ec8b0aa146107125780630f32e8ac1461073057610607565b8062fdd58e1461060c57806301ffc9a71461063c5780630752ef6f1461066c5780630755d141146106885780630b0b7fa0146106a65780630e54972c146106c4575b600080fd5b61062660048036038101906106219190612d8e565b61128a565b6040516106339190612ddd565b60405180910390f35b61065660048036038101906106519190612e50565b611353565b6040516106639190612e98565b60405180910390f35b61068660048036038101906106819190612eec565b611435565b005b61069061146d565b60405161069d9190612f76565b60405180910390f35b6106ae611472565b6040516106bb9190612f76565b60405180910390f35b6106cc611477565b6040516106d99190612f76565b60405180910390f35b6106fc60048036038101906106f79190612f91565b61147c565b6040516107099190613057565b60405180910390f35b61071a611510565b6040516107279190612f76565b60405180910390f35b610738611515565b6040516107459190612f76565b60405180910390f35b61076860048036038101906107639190613079565b61151a565b005b610784600480360381019061077f91906130a6565b611554565b005b61078e6115d3565b60405161079b9190612f76565b60405180910390f35b6107ac6115d8565b6040516107b99190612f76565b60405180910390f35b6107ca6115dd565b6040516107d79190612f76565b60405180910390f35b6107e86115e2565b6040516107f59190612f76565b60405180910390f35b610818600480360381019061081391906132f6565b6115e7565b005b610822611688565b60405161082f9190612f76565b60405180910390f35b61084061168d565b60405161084d9190612f76565b60405180910390f35b61085e611692565b60405161086b9190612f76565b60405180910390f35b61087c611697565b6040516108899190612f76565b60405180910390f35b61089a61169c565b6040516108a79190612f76565b60405180910390f35b6108b86116a1565b6040516108c59190612f76565b60405180910390f35b6108d66116a6565b6040516108e39190612f76565b60405180910390f35b610906600480360381019061090191906133c5565b6116ab565b6040516109139190612ddd565b60405180910390f35b6109246116dd565b6040516109319190612ddd565b60405180910390f35b6109426116e2565b60405161094f9190612f76565b60405180910390f35b6109606116e7565b60405161096d9190612f76565b60405180910390f35b61097e6116ec565b60405161098b9190612f76565b60405180910390f35b61099c6116f1565b6040516109a99190612f76565b60405180910390f35b6109ba6116f6565b6040516109c79190612f76565b60405180910390f35b6109d86116fb565b6040516109e59190612f76565b60405180910390f35b610a086004803603810190610a0391906134db565b611700565b604051610a159190613611565b60405180910390f35b610a26611819565b604051610a339190612f76565b60405180910390f35b610a4461181e565b604051610a519190612f76565b60405180910390f35b610a62611823565b604051610a6f9190612f76565b60405180910390f35b610a80611828565b604051610a8d9190612f76565b60405180910390f35b610a9e61182d565b604051610aab9190612f76565b60405180910390f35b610abc611832565b604051610ac99190612f76565b60405180910390f35b610ada611837565b604051610ae79190612f76565b60405180910390f35b610af861183c565b604051610b059190612f76565b60405180910390f35b610b16611841565b604051610b239190612f76565b60405180910390f35b610b34611846565b604051610b419190612f76565b60405180910390f35b610b5261184b565b604051610b5f9190612f76565b60405180910390f35b610b70611850565b604051610b7d9190612f76565b60405180910390f35b610ba06004803603810190610b9b9190612eec565b611855565b005b610baa61188d565b604051610bb79190612f76565b60405180910390f35b610bc8611892565b604051610bd59190612f76565b60405180910390f35b610be6611897565b604051610bf39190612f76565b60405180910390f35b610c0461189c565b604051610c119190612f76565b60405180910390f35b610c346004803603810190610c2f9190613079565b6118a1565b005b610c3e6118da565b604051610c4b9190612f76565b60405180910390f35b610c5c6118df565b604051610c699190612f76565b60405180910390f35b610c8c6004803603810190610c879190613079565b6118e4565b005b610c9661191c565b604051610ca39190612f76565b60405180910390f35b610cb4611921565b604051610cc19190612f76565b60405180910390f35b610cd2611926565b604051610cdf9190612f76565b60405180910390f35b610d026004803603810190610cfd919061365f565b61192b565b005b610d0c611941565b604051610d199190612f76565b60405180910390f35b610d2a611946565b604051610d379190612f76565b60405180910390f35b610d4861194b565b604051610d559190612f76565b60405180910390f35b610d66611950565b604051610d739190612f76565b60405180910390f35b610d966004803603810190610d919190613079565b611955565b005b610da061198f565b604051610dad9190612f76565b60405180910390f35b610dbe611994565b604051610dcb9190612f76565b60405180910390f35b610ddc611999565b604051610de99190612f76565b60405180910390f35b610dfa61199e565b604051610e079190612f76565b60405180910390f35b610e186119a3565b604051610e259190612f76565b60405180910390f35b610e366119a8565b604051610e439190612f76565b60405180910390f35b610e546119ad565b604051610e619190612ddd565b60405180910390f35b610e726119b2565b604051610e7f9190612f76565b60405180910390f35b610e906119b7565b604051610e9d9190612f76565b60405180910390f35b610eae6119bc565b604051610ebb9190612f76565b60405180910390f35b610ecc6119c1565b604051610ed99190612f76565b60405180910390f35b610efc6004803603810190610ef7919061369f565b6119c6565b005b610f06611a66565b604051610f139190612f76565b60405180910390f35b610f24611a6b565b604051610f319190612f76565b60405180910390f35b610f42611a70565b604051610f4f9190612f76565b60405180910390f35b610f60611a75565b604051610f6d9190612f76565b60405180910390f35b610f7e611a7a565b604051610f8b9190612f76565b60405180910390f35b610fae6004803603810190610fa991906130a6565b611a7f565b005b610fb8611afe565b604051610fc59190612f76565b60405180910390f35b610fd6611b03565b604051610fe39190612f76565b60405180910390f35b61100660048036038101906110019190613079565b611b08565b005b611010611b28565b60405161101d9190612f76565b60405180910390f35b61102e611b2d565b60405161103b9190612ddd565b60405180910390f35b61104c611b32565b6040516110599190612ddd565b60405180910390f35b61106a611b37565b6040516110779190612ddd565b60405180910390f35b611088611b3c565b6040516110959190612f76565b60405180910390f35b6110a6611b41565b6040516110b39190612f76565b60405180910390f35b6110c4611b46565b6040516110d19190612f76565b60405180910390f35b6110f460048036038101906110ef919061371a565b611b4b565b6040516111019190612e98565b60405180910390f35b611124600480360381019061111f91906130a6565b611bdf565b005b61112e611c5e565b60405161113b9190612f76565b60405180910390f35b61114c611c63565b6040516111599190612f76565b60405180910390f35b61116a611c68565b6040516111779190612f76565b60405180910390f35b611188611c6d565b6040516111959190612f76565b60405180910390f35b6111a6611c72565b6040516111b39190612f76565b60405180910390f35b6111d660048036038101906111d19190612eec565b611c77565b005b6111e0611caf565b6040516111ed9190612f76565b60405180910390f35b611210600480360381019061120b919061375a565b611cb4565b005b61121a611d55565b6040516112279190612f76565b60405180910390f35b611238611d5a565b6040516112459190612f76565b60405180910390f35b611256611d5f565b6040516112639190612f76565b60405180910390f35b611274611d64565b6040516112819190612f76565b60405180910390f35b60008073ffffffffffffffffffffffffffffffffffffffff168373ffffffffffffffffffffffffffffffffffffffff1614156112fb576040517f08c379a00000000000000000000000000000000000000000000000000000000081526004016112f290613863565b60405180910390fd5b60008083815260200190815260200160002060008473ffffffffffffffffffffffffffffffffffffffff1673ffffffffffffffffffffffffffffffffffffffff16815260200190815260200160002054905092915050565b60007fd9b67a26000000000000000000000000000000000000000000000000000000007bffffffffffffffffffffffffffffffffffffffffffffffffffffffff1916827bffffffffffffffffffffffffffffffffffffffffffffffffffffffff1916148061141e57507f0e89341c000000000000000000000000000000000000000000000000000000007bffffffffffffffffffffffffffffffffffffffffffffffffffffffff1916827bffffffffffffffffffffffffffffffffffffffffffffffffffffffff1916145b8061142e575061142d82611d69565b5b9050919050565b60398260ff161015801561144d575060528260ff1611155b61145657600080fd5b6114668486858560ff16856119c6565b5050505050565b604381565b603b81565b604981565b60606002805461148b906138b2565b80601f01602080910402602001604051908101604052809291908181526020018280546114b7906138b2565b80156115045780601f106114d957610100808354040283529160200191611504565b820191906000526020600020905b8154815290600101906020018083116114e757829003601f168201915b50505050509050919050565b601b81565b600e81565b80600a61152882600261128a565b101561153357600080fd5b611550826003600160405180602001604052806000815250611dd3565b5050565b8060056115619190613913565b61156c84600161128a565b101561157757600080fd5b601f8260ff161015801561158f575060388260ff1611155b61159857600080fd5b6115b08360018360056115ab9190613913565b611f69565b6115ce838360ff168360405180602001604052806000815250611dd3565b505050565b603f81565b603481565b604c81565b601981565b6115ef612186565b73ffffffffffffffffffffffffffffffffffffffff168573ffffffffffffffffffffffffffffffffffffffff16148061163557506116348561162f612186565b611b4b565b5b611674576040517f08c379a000000000000000000000000000000000000000000000000000000000815260040161166b906139df565b60405180910390fd5b611681858585858561218e565b5050505050565b601181565b602881565b601881565b600781565b602a81565b602281565b602181565b600360205282600052604060002060205281600052604060002060205280600052604060002060009250925050505481565b600081565b603d81565b601d81565b600881565b603c81565b604581565b600a81565b60608151835114611746576040517f08c379a000000000000000000000000000000000000000000000000000000000815260040161173d90613a71565b60405180910390fd5b6000835167ffffffffffffffff811115611763576117626130fe565b5b6040519080825280602002602001820160405280156117915781602001602082028036833780820191505090505b50905060005b845181101561180e576117de8582815181106117b6576117b5613a91565b5b60200260200101518583815181106117d1576117d0613a91565b5b602002602001015161128a565b8282815181106117f1576117f0613a91565b5b6020026020010181815250508061180790613ac0565b9050611797565b508091505092915050565b600d81565b601c81565b604e81565b604d81565b604f81565b604281565b601781565b605181565b601e81565b600f81565b603a81565b600981565b60058260ff161015801561186d5750601e8260ff1611155b61187657600080fd5b6118868486858560ff16856119c6565b5050505050565b600681565b604881565b600b81565b602d81565b8060006118af82600461128a565b116118b957600080fd5b6118d6826000600160405180602001604052806000815250611dd3565b5050565b602381565b602581565b8060006118f282600361128a565b116118fc57600080fd5b6119188260018060405180602001604052806000815250611dd3565b5050565b605081565b601f81565b602b81565b61193d611936612186565b83836124a2565b5050565b603081565b602c81565b602f81565b602681565b80600a61196382600261128a565b101561196e57600080fd5b61198b826004600160405180602001604052806000815250611dd3565b5050565b601081565b603281565b604b81565b604081565b600581565b601a81565b600481565b603e81565b601381565b603381565b603981565b806119d1868461128a565b10156119dc57600080fd5b6119e7858383611f69565b80600360008673ffffffffffffffffffffffffffffffffffffffff1673ffffffffffffffffffffffffffffffffffffffff168152602001908152602001600020600085815260200190815260200160002060008481526020019081526020016000206000828254611a589190613b09565b925050819055505050505050565b601481565b603881565b601681565b603781565b605281565b806005611a8c9190613913565b611a9784600061128a565b1015611aa257600080fd5b60398260ff1610158015611aba575060528260ff1611155b611ac357600080fd5b611adb836000836005611ad69190613913565b611f69565b611af9838360ff168360405180602001604052806000815250611dd3565b505050565b604a81565b601281565b611b25816002600160405180602001604052806000815250611dd3565b50565b602981565b600281565b600381565b600181565b602781565b602e81565b603581565b6000600160008473ffffffffffffffffffffffffffffffffffffffff1673ffffffffffffffffffffffffffffffffffffffff16815260200190815260200160002060008373ffffffffffffffffffffffffffffffffffffffff1673ffffffffffffffffffffffffffffffffffffffff16815260200190815260200160002060009054906101000a900460ff16905092915050565b806005611bec9190613913565b611bf784600261128a565b1015611c0257600080fd5b60058260ff1610158015611c1a5750601e8260ff1611155b611c2357600080fd5b611c3b836002836005611c369190613913565b611f69565b611c59838360ff168360405180602001604052806000815250611dd3565b505050565b600c81565b602081565b604781565b604481565b604681565b601f8260ff1610158015611c8f575060388260ff1611155b611c9857600080fd5b611ca88486858560ff16856119c6565b5050505050565b604181565b611cbc612186565b73ffffffffffffffffffffffffffffffffffffffff168573ffffffffffffffffffffffffffffffffffffffff161480611d025750611d0185611cfc612186565b611b4b565b5b611d41576040517f08c379a0000000000000000000000000000000000000000000000000000000008152600401611d3890613bd1565b60405180910390fd5b611d4e858585858561260f565b5050505050565b601581565b603681565b603181565b602481565b60007f01ffc9a7000000000000000000000000000000000000000000000000000000007bffffffffffffffffffffffffffffffffffffffffffffffffffffffff1916827bffffffffffffffffffffffffffffffffffffffffffffffffffffffff1916149050919050565b600073ffffffffffffffffffffffffffffffffffffffff168473ffffffffffffffffffffffffffffffffffffffff161415611e43576040517f08c379a0000000000000000000000000000000000000000000000000000000008152600401611e3a90613c63565b60405180910390fd5b6000611e4d612186565b9050611e6e81600087611e5f88612891565b611e6888612891565b8761290b565b8260008086815260200190815260200160002060008773ffffffffffffffffffffffffffffffffffffffff1673ffffffffffffffffffffffffffffffffffffffff1681526020019081526020016000206000828254611ecd9190613b09565b925050819055508473ffffffffffffffffffffffffffffffffffffffff16600073ffffffffffffffffffffffffffffffffffffffff168273ffffffffffffffffffffffffffffffffffffffff167fc3d58168c5ae7397731d063d5bbf3d657854427343f4c083240f7aacaa2d0f628787604051611f4b929190613c83565b60405180910390a4611f6281600087878787612913565b5050505050565b600073ffffffffffffffffffffffffffffffffffffffff168373ffffffffffffffffffffffffffffffffffffffff161415611fd9576040517f08c379a0000000000000000000000000000000000000000000000000000000008152600401611fd090613d1e565b60405180910390fd5b6000611fe3612186565b905061201381856000611ff587612891565b611ffe87612891565b6040518060200160405280600081525061290b565b600080600085815260200190815260200160002060008673ffffffffffffffffffffffffffffffffffffffff1673ffffffffffffffffffffffffffffffffffffffff168152602001908152602001600020549050828110156120aa576040517f08c379a00000000000000000000000000000000000000000000000000000000081526004016120a190613db0565b60405180910390fd5b82810360008086815260200190815260200160002060008773ffffffffffffffffffffffffffffffffffffffff1673ffffffffffffffffffffffffffffffffffffffff16815260200190815260200160002081905550600073ffffffffffffffffffffffffffffffffffffffff168573ffffffffffffffffffffffffffffffffffffffff168373ffffffffffffffffffffffffffffffffffffffff167fc3d58168c5ae7397731d063d5bbf3d657854427343f4c083240f7aacaa2d0f628787604051612177929190613c83565b60405180910390a45050505050565b600033905090565b81518351146121d2576040517f08c379a00000000000000000000000000000000000000000000000000000000081526004016121c990613e42565b60405180910390fd5b600073ffffffffffffffffffffffffffffffffffffffff168473ffffffffffffffffffffffffffffffffffffffff161415612242576040517f08c379a000000000000000000000000000000000000000000000000000000000815260040161223990613ed4565b60405180910390fd5b600061224c612186565b905061225c81878787878761290b565b60005b845181101561240d57600085828151811061227d5761227c613a91565b5b60200260200101519050600085838151811061229c5761229b613a91565b5b60200260200101519050600080600084815260200190815260200160002060008b73ffffffffffffffffffffffffffffffffffffffff1673ffffffffffffffffffffffffffffffffffffffff1681526020019081526020016000205490508181101561233d576040517f08c379a000000000000000000000000000000000000000000000000000000000815260040161233490613f66565b60405180910390fd5b81810360008085815260200190815260200160002060008c73ffffffffffffffffffffffffffffffffffffffff1673ffffffffffffffffffffffffffffffffffffffff168152602001908152602001600020819055508160008085815260200190815260200160002060008b73ffffffffffffffffffffffffffffffffffffffff1673ffffffffffffffffffffffffffffffffffffffff16815260200190815260200160002060008282546123f29190613b09565b925050819055505050508061240690613ac0565b905061225f565b508473ffffffffffffffffffffffffffffffffffffffff168673ffffffffffffffffffffffffffffffffffffffff168273ffffffffffffffffffffffffffffffffffffffff167f4a39dc06d4c0dbc64b70af90fd698a233a518aa5d07e595d983b8c0526c8f7fb8787604051612484929190613f86565b60405180910390a461249a818787878787612aeb565b505050505050565b8173ffffffffffffffffffffffffffffffffffffffff168373ffffffffffffffffffffffffffffffffffffffff161415612511576040517f08c379a00000000000000000000000000000000000000000000000000000000081526004016125089061402f565b60405180910390fd5b80600160008573ffffffffffffffffffffffffffffffffffffffff1673ffffffffffffffffffffffffffffffffffffffff16815260200190815260200160002060008473ffffffffffffffffffffffffffffffffffffffff1673ffffffffffffffffffffffffffffffffffffffff16815260200190815260200160002060006101000a81548160ff0219169083151502179055508173ffffffffffffffffffffffffffffffffffffffff168373ffffffffffffffffffffffffffffffffffffffff167f17307eab39ab6107e8899845ad3d59bd9653f200f220920489ca2b5937696c31836040516126029190612e98565b60405180910390a3505050565b600073ffffffffffffffffffffffffffffffffffffffff168473ffffffffffffffffffffffffffffffffffffffff16141561267f576040517f08c379a000000000000000000000000000000000000000000000000000000000815260040161267690613ed4565b60405180910390fd5b6000612689612186565b90506126a981878761269a88612891565b6126a388612891565b8761290b565b600080600086815260200190815260200160002060008873ffffffffffffffffffffffffffffffffffffffff1673ffffffffffffffffffffffffffffffffffffffff16815260200190815260200160002054905083811015612740576040517f08c379a000000000000000000000000000000000000000000000000000000000815260040161273790613f66565b60405180910390fd5b83810360008087815260200190815260200160002060008973ffffffffffffffffffffffffffffffffffffffff1673ffffffffffffffffffffffffffffffffffffffff168152602001908152602001600020819055508360008087815260200190815260200160002060008873ffffffffffffffffffffffffffffffffffffffff1673ffffffffffffffffffffffffffffffffffffffff16815260200190815260200160002060008282546127f59190613b09565b925050819055508573ffffffffffffffffffffffffffffffffffffffff168773ffffffffffffffffffffffffffffffffffffffff168373ffffffffffffffffffffffffffffffffffffffff167fc3d58168c5ae7397731d063d5bbf3d657854427343f4c083240f7aacaa2d0f628888604051612872929190613c83565b60405180910390a4612888828888888888612913565b50505050505050565b60606000600167ffffffffffffffff8111156128b0576128af6130fe565b5b6040519080825280602002602001820160405280156128de5781602001602082028036833780820191505090505b50905082816000815181106128f6576128f5613a91565b5b60200260200101818152505080915050919050565b505050505050565b6129328473ffffffffffffffffffffffffffffffffffffffff16612cc3565b15612ae3578373ffffffffffffffffffffffffffffffffffffffff1663f23a6e6187878686866040518663ffffffff1660e01b81526004016129789594939291906140b3565b6020604051808303816000875af19250505080156129b457506040513d601f19601f820116820180604052508101906129b19190614122565b60015b612a5a576129c061415c565b806308c379a01415612a1d57506129d561417e565b806129e05750612a1f565b806040517f08c379a0000000000000000000000000000000000000000000000000000000008152600401612a149190613057565b60405180910390fd5b505b6040517f08c379a0000000000000000000000000000000000000000000000000000000008152600401612a5190614286565b60405180910390fd5b63f23a6e6160e01b7bffffffffffffffffffffffffffffffffffffffffffffffffffffffff1916817bffffffffffffffffffffffffffffffffffffffffffffffffffffffff191614612ae1576040517f08c379a0000000000000000000000000000000000000000000000000000000008152600401612ad890614318565b60405180910390fd5b505b505050505050565b612b0a8473ffffffffffffffffffffffffffffffffffffffff16612cc3565b15612cbb578373ffffffffffffffffffffffffffffffffffffffff1663bc197c8187878686866040518663ffffffff1660e01b8152600401612b50959493929190614338565b6020604051808303816000875af1925050508015612b8c57506040513d601f19601f82011682018060405250810190612b899190614122565b60015b612c3257612b9861415c565b806308c379a01415612bf55750612bad61417e565b80612bb85750612bf7565b806040517f08c379a0000000000000000000000000000000000000000000000000000000008152600401612bec9190613057565b60405180910390fd5b505b6040517f08c379a0000000000000000000000000000000000000000000000000000000008152600401612c2990614286565b60405180910390fd5b63bc197c8160e01b7bffffffffffffffffffffffffffffffffffffffffffffffffffffffff1916817bffffffffffffffffffffffffffffffffffffffffffffffffffffffff191614612cb9576040517f08c379a0000000000000000000000000000000000000000000000000000000008152600401612cb090614318565b60405180910390fd5b505b505050505050565b6000808273ffffffffffffffffffffffffffffffffffffffff163b119050919050565b6000604051905090565b600080fd5b600080fd5b600073ffffffffffffffffffffffffffffffffffffffff82169050919050565b6000612d2582612cfa565b9050919050565b612d3581612d1a565b8114612d4057600080fd5b50565b600081359050612d5281612d2c565b92915050565b6000819050919050565b612d6b81612d58565b8114612d7657600080fd5b50565b600081359050612d8881612d62565b92915050565b60008060408385031215612da557612da4612cf0565b5b6000612db385828601612d43565b9250506020612dc485828601612d79565b9150509250929050565b612dd781612d58565b82525050565b6000602082019050612df26000830184612dce565b92915050565b60007fffffffff0000000000000000000000000000000000000000000000000000000082169050919050565b612e2d81612df8565b8114612e3857600080fd5b50565b600081359050612e4a81612e24565b92915050565b600060208284031215612e6657612e65612cf0565b5b6000612e7484828501612e3b565b91505092915050565b60008115159050919050565b612e9281612e7d565b82525050565b6000602082019050612ead6000830184612e89565b92915050565b600060ff82169050919050565b612ec981612eb3565b8114612ed457600080fd5b50565b600081359050612ee681612ec0565b92915050565b600080600080600060a08688031215612f0857612f07612cf0565b5b6000612f1688828901612d43565b9550506020612f2788828901612d43565b9450506040612f3888828901612d79565b9350506060612f4988828901612ed7565b9250506080612f5a88828901612d79565b9150509295509295909350565b612f7081612eb3565b82525050565b6000602082019050612f8b6000830184612f67565b92915050565b600060208284031215612fa757612fa6612cf0565b5b6000612fb584828501612d79565b91505092915050565b600081519050919050565b600082825260208201905092915050565b60005b83811015612ff8578082015181840152602081019050612fdd565b83811115613007576000848401525b50505050565b6000601f19601f8301169050919050565b600061302982612fbe565b6130338185612fc9565b9350613043818560208601612fda565b61304c8161300d565b840191505092915050565b60006020820190508181036000830152613071818461301e565b905092915050565b60006020828403121561308f5761308e612cf0565b5b600061309d84828501612d43565b91505092915050565b6000806000606084860312156130bf576130be612cf0565b5b60006130cd86828701612d43565b93505060206130de86828701612ed7565b92505060406130ef86828701612d79565b9150509250925092565b600080fd5b7f4e487b7100000000000000000000000000000000000000000000000000000000600052604160045260246000fd5b6131368261300d565b810181811067ffffffffffffffff82111715613155576131546130fe565b5b80604052505050565b6000613168612ce6565b9050613174828261312d565b919050565b600067ffffffffffffffff821115613194576131936130fe565b5b602082029050602081019050919050565b600080fd5b60006131bd6131b884613179565b61315e565b905080838252602082019050602084028301858111156131e0576131df6131a5565b5b835b8181101561320957806131f58882612d79565b8452602084019350506020810190506131e2565b5050509392505050565b600082601f830112613228576132276130f9565b5b81356132388482602086016131aa565b91505092915050565b600080fd5b600067ffffffffffffffff821115613261576132606130fe565b5b61326a8261300d565b9050602081019050919050565b82818337600083830152505050565b600061329961329484613246565b61315e565b9050828152602081018484840111156132b5576132b4613241565b5b6132c0848285613277565b509392505050565b600082601f8301126132dd576132dc6130f9565b5b81356132ed848260208601613286565b91505092915050565b600080600080600060a0868803121561331257613311612cf0565b5b600061332088828901612d43565b955050602061333188828901612d43565b945050604086013567ffffffffffffffff81111561335257613351612cf5565b5b61335e88828901613213565b935050606086013567ffffffffffffffff81111561337f5761337e612cf5565b5b61338b88828901613213565b925050608086013567ffffffffffffffff8111156133ac576133ab612cf5565b5b6133b8888289016132c8565b9150509295509295909350565b6000806000606084860312156133de576133dd612cf0565b5b60006133ec86828701612d43565b93505060206133fd86828701612d79565b925050604061340e86828701612d79565b9150509250925092565b600067ffffffffffffffff821115613433576134326130fe565b5b602082029050602081019050919050565b600061345761345284613418565b61315e565b9050808382526020820190506020840283018581111561347a576134796131a5565b5b835b818110156134a3578061348f8882612d43565b84526020840193505060208101905061347c565b5050509392505050565b600082601f8301126134c2576134c16130f9565b5b81356134d2848260208601613444565b91505092915050565b600080604083850312156134f2576134f1612cf0565b5b600083013567ffffffffffffffff8111156135105761350f612cf5565b5b61351c858286016134ad565b925050602083013567ffffffffffffffff81111561353d5761353c612cf5565b5b61354985828601613213565b9150509250929050565b600081519050919050565b600082825260208201905092915050565b6000819050602082019050919050565b61358881612d58565b82525050565b600061359a838361357f565b60208301905092915050565b6000602082019050919050565b60006135be82613553565b6135c8818561355e565b93506135d38361356f565b8060005b838110156136045781516135eb888261358e565b97506135f6836135a6565b9250506001810190506135d7565b5085935050505092915050565b6000602082019050818103600083015261362b81846135b3565b905092915050565b61363c81612e7d565b811461364757600080fd5b50565b60008135905061365981613633565b92915050565b6000806040838503121561367657613675612cf0565b5b600061368485828601612d43565b92505060206136958582860161364a565b9150509250929050565b600080600080600060a086880312156136bb576136ba612cf0565b5b60006136c988828901612d43565b95505060206136da88828901612d43565b94505060406136eb88828901612d79565b93505060606136fc88828901612d79565b925050608061370d88828901612d79565b9150509295509295909350565b6000806040838503121561373157613730612cf0565b5b600061373f85828601612d43565b925050602061375085828601612d43565b9150509250929050565b600080600080600060a0868803121561377657613775612cf0565b5b600061378488828901612d43565b955050602061379588828901612d43565b94505060406137a688828901612d79565b93505060606137b788828901612d79565b925050608086013567ffffffffffffffff8111156137d8576137d7612cf5565b5b6137e4888289016132c8565b9150509295509295909350565b7f455243313135353a2062616c616e636520717565727920666f7220746865207a60008201527f65726f2061646472657373000000000000000000000000000000000000000000602082015250565b600061384d602b83612fc9565b9150613858826137f1565b604082019050919050565b6000602082019050818103600083015261387c81613840565b9050919050565b7f4e487b7100000000000000000000000000000000000000000000000000000000600052602260045260246000fd5b600060028204905060018216806138ca57607f821691505b602082108114156138de576138dd613883565b5b50919050565b7f4e487b7100000000000000000000000000000000000000000000000000000000600052601160045260246000fd5b600061391e82612d58565b915061392983612d58565b9250817fffffffffffffffffffffffffffffffffffffffffffffffffffffffffffffffff0483118215151615613962576139616138e4565b5b828202905092915050565b7f455243313135353a207472616e736665722063616c6c6572206973206e6f742060008201527f6f776e6572206e6f7220617070726f7665640000000000000000000000000000602082015250565b60006139c9603283612fc9565b91506139d48261396d565b604082019050919050565b600060208201905081810360008301526139f8816139bc565b9050919050565b7f455243313135353a206163636f756e747320616e6420696473206c656e67746860008201527f206d69736d617463680000000000000000000000000000000000000000000000602082015250565b6000613a5b602983612fc9565b9150613a66826139ff565b604082019050919050565b60006020820190508181036000830152613a8a81613a4e565b9050919050565b7f4e487b7100000000000000000000000000000000000000000000000000000000600052603260045260246000fd5b6000613acb82612d58565b91507fffffffffffffffffffffffffffffffffffffffffffffffffffffffffffffffff821415613afe57613afd6138e4565b5b600182019050919050565b6000613b1482612d58565b9150613b1f83612d58565b9250827fffffffffffffffffffffffffffffffffffffffffffffffffffffffffffffffff03821115613b5457613b536138e4565b5b828201905092915050565b7f455243313135353a2063616c6c6572206973206e6f74206f776e6572206e6f7260008201527f20617070726f7665640000000000000000000000000000000000000000000000602082015250565b6000613bbb602983612fc9565b9150613bc682613b5f565b604082019050919050565b60006020820190508181036000830152613bea81613bae565b9050919050565b7f455243313135353a206d696e7420746f20746865207a65726f2061646472657360008201527f7300000000000000000000000000000000000000000000000000000000000000602082015250565b6000613c4d602183612fc9565b9150613c5882613bf1565b604082019050919050565b60006020820190508181036000830152613c7c81613c40565b9050919050565b6000604082019050613c986000830185612dce565b613ca56020830184612dce565b9392505050565b7f455243313135353a206275726e2066726f6d20746865207a65726f206164647260008201527f6573730000000000000000000000000000000000000000000000000000000000602082015250565b6000613d08602383612fc9565b9150613d1382613cac565b604082019050919050565b60006020820190508181036000830152613d3781613cfb565b9050919050565b7f455243313135353a206275726e20616d6f756e7420657863656564732062616c60008201527f616e636500000000000000000000000000000000000000000000000000000000602082015250565b6000613d9a602483612fc9565b9150613da582613d3e565b604082019050919050565b60006020820190508181036000830152613dc981613d8d565b9050919050565b7f455243313135353a2069647320616e6420616d6f756e7473206c656e6774682060008201527f6d69736d61746368000000000000000000000000000000000000000000000000602082015250565b6000613e2c602883612fc9565b9150613e3782613dd0565b604082019050919050565b60006020820190508181036000830152613e5b81613e1f565b9050919050565b7f455243313135353a207472616e7366657220746f20746865207a65726f20616460008201527f6472657373000000000000000000000000000000000000000000000000000000602082015250565b6000613ebe602583612fc9565b9150613ec982613e62565b604082019050919050565b60006020820190508181036000830152613eed81613eb1565b9050919050565b7f455243313135353a20696e73756666696369656e742062616c616e636520666f60008201527f72207472616e7366657200000000000000000000000000000000000000000000602082015250565b6000613f50602a83612fc9565b9150613f5b82613ef4565b604082019050919050565b60006020820190508181036000830152613f7f81613f43565b9050919050565b60006040820190508181036000830152613fa081856135b3565b90508181036020830152613fb481846135b3565b90509392505050565b7f455243313135353a2073657474696e6720617070726f76616c2073746174757360008201527f20666f722073656c660000000000000000000000000000000000000000000000602082015250565b6000614019602983612fc9565b915061402482613fbd565b604082019050919050565b600060208201905081810360008301526140488161400c565b9050919050565b61405881612d1a565b82525050565b600081519050919050565b600082825260208201905092915050565b60006140858261405e565b61408f8185614069565b935061409f818560208601612fda565b6140a88161300d565b840191505092915050565b600060a0820190506140c8600083018861404f565b6140d5602083018761404f565b6140e26040830186612dce565b6140ef6060830185612dce565b8181036080830152614101818461407a565b90509695505050505050565b60008151905061411c81612e24565b92915050565b60006020828403121561413857614137612cf0565b5b60006141468482850161410d565b91505092915050565b60008160e01c9050919050565b600060033d111561417b5760046000803e61417860005161414f565b90505b90565b600060443d101561418e57614211565b614196612ce6565b60043d036004823e80513d602482011167ffffffffffffffff821117156141be575050614211565b808201805167ffffffffffffffff8111156141dc5750505050614211565b80602083010160043d0385018111156141f9575050505050614211565b6142088260200185018661312d565b82955050505050505b90565b7f455243313135353a207472616e7366657220746f206e6f6e204552433131353560008201527f526563656976657220696d706c656d656e746572000000000000000000000000602082015250565b6000614270603483612fc9565b915061427b82614214565b604082019050919050565b6000602082019050818103600083015261429f81614263565b9050919050565b7f455243313135353a204552433131353552656365697665722072656a6563746560008201527f6420746f6b656e73000000000000000000000000000000000000000000000000602082015250565b6000614302602883612fc9565b915061430d826142a6565b604082019050919050565b60006020820190508181036000830152614331816142f5565b9050919050565b600060a08201905061434d600083018861404f565b61435a602083018761404f565b818103604083015261436c81866135b3565b9050818103606083015261438081856135b3565b90508181036080830152614394818461407a565b9050969550505050505056fea264697066735822122006f45dda06c13d4b3592b6b7a9d149d4c319d0dab68fb816930e7797d2d00a1664736f6c634300080c003368747470733a2f2f697066732e696f2f697066732f626166796265696374753278336c327061766179716c37376a37716275737233717077697832377374686c6c357177646273736e636869356a65692f7b69647d2e6a736f6e",
  "immutableReferences": {},
  "source": "// SPDX-License-Identifier: MIT\npragma solidity >=0.4.0 <0.9.0;\n\nimport \"./Wrdl3Items.sol\";\nimport \"./Wrdl3BronzeLetters.sol\";\nimport \"./Wrld3SilverLetters.sol\";\nimport \"./Wrdl3GoldLetters.sol\";\nimport \"./Wrdl3Constructor.sol\";\n\ncontract Wrdl3Tip is\n    Wrdl3BronzeLetters,\n    Wrdl3GoldLetters,\n    Wrdl3Constructor,\n    Wrdl3SilverLetters\n{\n    function goldTip(\n        address _to,\n        address _from,\n        uint256 _wordId,\n        uint8 _letterId,\n        uint256 _amount\n    ) public {\n        require(_letterId >= 57 && _letterId <= 82);\n\n        compose(_from, _to, _wordId, _letterId, _amount);\n    }\n\n    function silverTip(\n        address _to,\n        address _from,\n        uint256 _wordId,\n        uint8 _letterId,\n        uint256 _amount\n    ) public {\n        require(_letterId >= 31 && _letterId <= 56);\n\n        compose(_from, _to, _wordId, _letterId, _amount);\n    }\n\n    function bronzeTip(\n        address _to,\n        address _from,\n        uint256 _wordId,\n        uint8 _letterId,\n        uint256 _amount\n    ) public {\n        require(_letterId >= 5 && _letterId <= 30);\n\n        compose(_from, _to, _wordId, _letterId, _amount);\n    }\n}\n",
  "sourcePath": "/Users/emilsharafutdinov/Desktop/Work/SR3/Wrdl3/contracts/Wrdl3Tip.sol",
  "compiler": {
    "name": "solc",
    "version": "0.8.12+commit.f00d7308.Emscripten.clang"
  },
  "schemaVersion": "3.4.4",
  "updatedAt": "2022-03-09T14:42:14.045Z",
  "devdoc": {
    "kind": "dev",
    "methods": {
      "balanceOf(address,uint256)": {
        "details": "See {IERC1155-balanceOf}. Requirements: - `account` cannot be the zero address."
      },
      "balanceOfBatch(address[],uint256[])": {
        "details": "See {IERC1155-balanceOfBatch}. Requirements: - `accounts` and `ids` must have the same length."
      },
      "isApprovedForAll(address,address)": {
        "details": "See {IERC1155-isApprovedForAll}."
      },
      "safeBatchTransferFrom(address,address,uint256[],uint256[],bytes)": {
        "details": "See {IERC1155-safeBatchTransferFrom}."
      },
      "safeTransferFrom(address,address,uint256,uint256,bytes)": {
        "details": "See {IERC1155-safeTransferFrom}."
      },
      "setApprovalForAll(address,bool)": {
        "details": "See {IERC1155-setApprovalForAll}."
      },
      "supportsInterface(bytes4)": {
        "details": "See {IERC165-supportsInterface}."
      },
      "uri(uint256)": {
        "details": "See {IERC1155MetadataURI-uri}. This implementation returns the same URI for *all* token types. It relies on the token type ID substitution mechanism https://eips.ethereum.org/EIPS/eip-1155#metadata[defined in the EIP]. Clients calling this function must replace the `\\{id\\}` substring with the actual token type ID."
      }
    },
    "version": 1
  },
  "userdoc": {
    "kind": "user",
    "methods": {},
    "version": 1
  }
}