{
  "contractName": "Wrdl3Constructor",
  "abi": [
    {
      "anonymous": false,
      "inputs": [
        {
          "indexed": true,
          "internalType": "address",
          "name": "account",
          "type": "address"
        },
        {
          "indexed": true,
          "internalType": "address",
          "name": "operator",
          "type": "address"
        },
        {
          "indexed": false,
          "internalType": "bool",
          "name": "approved",
          "type": "bool"
        }
      ],
      "name": "ApprovalForAll",
      "type": "event"
    },
    {
      "anonymous": false,
      "inputs": [
        {
          "indexed": true,
          "internalType": "address",
          "name": "operator",
          "type": "address"
        },
        {
          "indexed": true,
          "internalType": "address",
          "name": "from",
          "type": "address"
        },
        {
          "indexed": true,
          "internalType": "address",
          "name": "to",
          "type": "address"
        },
        {
          "indexed": false,
          "internalType": "uint256[]",
          "name": "ids",
          "type": "uint256[]"
        },
        {
          "indexed": false,
          "internalType": "uint256[]",
          "name": "values",
          "type": "uint256[]"
        }
      ],
      "name": "TransferBatch",
      "type": "event"
    },
    {
      "anonymous": false,
      "inputs": [
        {
          "indexed": true,
          "internalType": "address",
          "name": "operator",
          "type": "address"
        },
        {
          "indexed": true,
          "internalType": "address",
          "name": "from",
          "type": "address"
        },
        {
          "indexed": true,
          "internalType": "address",
          "name": "to",
          "type": "address"
        },
        {
          "indexed": false,
          "internalType": "uint256",
          "name": "id",
          "type": "uint256"
        },
        {
          "indexed": false,
          "internalType": "uint256",
          "name": "value",
          "type": "uint256"
        }
      ],
      "name": "TransferSingle",
      "type": "event"
    },
    {
      "anonymous": false,
      "inputs": [
        {
          "indexed": false,
          "internalType": "string",
          "name": "value",
          "type": "string"
        },
        {
          "indexed": true,
          "internalType": "uint256",
          "name": "id",
          "type": "uint256"
        }
      ],
      "name": "URI",
      "type": "event"
    },
    {
      "inputs": [],
      "name": "BRONZE",
      "outputs": [
        {
          "internalType": "uint256",
          "name": "",
          "type": "uint256"
        }
      ],
      "stateMutability": "view",
      "type": "function"
    },
    {
      "inputs": [],
      "name": "GOLD",
      "outputs": [
        {
          "internalType": "uint256",
          "name": "",
          "type": "uint256"
        }
      ],
      "stateMutability": "view",
      "type": "function"
    },
    {
      "inputs": [],
      "name": "LVL2",
      "outputs": [
        {
          "internalType": "uint256",
          "name": "",
          "type": "uint256"
        }
      ],
      "stateMutability": "view",
      "type": "function"
    },
    {
      "inputs": [],
      "name": "LVL3",
      "outputs": [
        {
          "internalType": "uint256",
          "name": "",
          "type": "uint256"
        }
      ],
      "stateMutability": "view",
      "type": "function"
    },
    {
      "inputs": [],
      "name": "SILVER",
      "outputs": [
        {
          "internalType": "uint256",
          "name": "",
          "type": "uint256"
        }
      ],
      "stateMutability": "view",
      "type": "function"
    },
    {
      "inputs": [
        {
          "internalType": "address",
          "name": "player",
          "type": "address"
        }
      ],
      "name": "awardBronze",
      "outputs": [],
      "stateMutability": "nonpayable",
      "type": "function"
    },
    {
      "inputs": [
        {
          "internalType": "address",
          "name": "player",
          "type": "address"
        }
      ],
      "name": "awardGold",
      "outputs": [],
      "stateMutability": "nonpayable",
      "type": "function"
    },
    {
      "inputs": [
        {
          "internalType": "address",
          "name": "player",
          "type": "address"
        }
      ],
      "name": "awardSilver",
      "outputs": [],
      "stateMutability": "nonpayable",
      "type": "function"
    },
    {
      "inputs": [
        {
          "internalType": "address",
          "name": "account",
          "type": "address"
        },
        {
          "internalType": "uint256",
          "name": "id",
          "type": "uint256"
        }
      ],
      "name": "balanceOf",
      "outputs": [
        {
          "internalType": "uint256",
          "name": "",
          "type": "uint256"
        }
      ],
      "stateMutability": "view",
      "type": "function"
    },
    {
      "inputs": [
        {
          "internalType": "address[]",
          "name": "accounts",
          "type": "address[]"
        },
        {
          "internalType": "uint256[]",
          "name": "ids",
          "type": "uint256[]"
        }
      ],
      "name": "balanceOfBatch",
      "outputs": [
        {
          "internalType": "uint256[]",
          "name": "",
          "type": "uint256[]"
        }
      ],
      "stateMutability": "view",
      "type": "function"
    },
    {
      "inputs": [
        {
          "internalType": "address",
          "name": "",
          "type": "address"
        },
        {
          "internalType": "uint256",
          "name": "",
          "type": "uint256"
        },
        {
          "internalType": "uint256",
          "name": "",
          "type": "uint256"
        }
      ],
      "name": "compositions",
      "outputs": [
        {
          "internalType": "uint256",
          "name": "",
          "type": "uint256"
        }
      ],
      "stateMutability": "view",
      "type": "function"
    },
    {
      "inputs": [
        {
          "internalType": "address",
          "name": "account",
          "type": "address"
        },
        {
          "internalType": "address",
          "name": "operator",
          "type": "address"
        }
      ],
      "name": "isApprovedForAll",
      "outputs": [
        {
          "internalType": "bool",
          "name": "",
          "type": "bool"
        }
      ],
      "stateMutability": "view",
      "type": "function"
    },
    {
      "inputs": [
        {
          "internalType": "address",
          "name": "player",
          "type": "address"
        }
      ],
      "name": "lvl2Achieve",
      "outputs": [],
      "stateMutability": "nonpayable",
      "type": "function"
    },
    {
      "inputs": [
        {
          "internalType": "address",
          "name": "player",
          "type": "address"
        }
      ],
      "name": "lvl3Achieve",
      "outputs": [],
      "stateMutability": "nonpayable",
      "type": "function"
    },
    {
      "inputs": [
        {
          "internalType": "address",
          "name": "from",
          "type": "address"
        },
        {
          "internalType": "address",
          "name": "to",
          "type": "address"
        },
        {
          "internalType": "uint256[]",
          "name": "ids",
          "type": "uint256[]"
        },
        {
          "internalType": "uint256[]",
          "name": "amounts",
          "type": "uint256[]"
        },
        {
          "internalType": "bytes",
          "name": "data",
          "type": "bytes"
        }
      ],
      "name": "safeBatchTransferFrom",
      "outputs": [],
      "stateMutability": "nonpayable",
      "type": "function"
    },
    {
      "inputs": [
        {
          "internalType": "address",
          "name": "from",
          "type": "address"
        },
        {
          "internalType": "address",
          "name": "to",
          "type": "address"
        },
        {
          "internalType": "uint256",
          "name": "id",
          "type": "uint256"
        },
        {
          "internalType": "uint256",
          "name": "amount",
          "type": "uint256"
        },
        {
          "internalType": "bytes",
          "name": "data",
          "type": "bytes"
        }
      ],
      "name": "safeTransferFrom",
      "outputs": [],
      "stateMutability": "nonpayable",
      "type": "function"
    },
    {
      "inputs": [
        {
          "internalType": "address",
          "name": "operator",
          "type": "address"
        },
        {
          "internalType": "bool",
          "name": "approved",
          "type": "bool"
        }
      ],
      "name": "setApprovalForAll",
      "outputs": [],
      "stateMutability": "nonpayable",
      "type": "function"
    },
    {
      "inputs": [
        {
          "internalType": "bytes4",
          "name": "interfaceId",
          "type": "bytes4"
        }
      ],
      "name": "supportsInterface",
      "outputs": [
        {
          "internalType": "bool",
          "name": "",
          "type": "bool"
        }
      ],
      "stateMutability": "view",
      "type": "function"
    },
    {
      "inputs": [
        {
          "internalType": "uint256",
          "name": "",
          "type": "uint256"
        }
      ],
      "name": "uri",
      "outputs": [
        {
          "internalType": "string",
          "name": "",
          "type": "string"
        }
      ],
      "stateMutability": "view",
      "type": "function"
    },
    {
      "inputs": [
        {
          "internalType": "address",
          "name": "_sender",
          "type": "address"
        },
        {
          "internalType": "address",
          "name": "_receiver",
          "type": "address"
        },
        {
          "internalType": "uint256",
          "name": "_tokenId",
          "type": "uint256"
        },
        {
          "internalType": "uint256",
          "name": "_appendedTokenId",
          "type": "uint256"
        },
        {
          "internalType": "uint256",
          "name": "_amount",
          "type": "uint256"
        }
      ],
      "name": "compose",
      "outputs": [],
      "stateMutability": "nonpayable",
      "type": "function"
    }
  ],
  "bytecode": "0x60806040523480156200001157600080fd5b506040518060800160405280605a81526020016200317d605a91396200003d816200004460201b60201c565b5062000175565b80600290805190602001906200005c92919062000060565b5050565b8280546200006e906200013f565b90600052602060002090601f016020900481019282620000925760008555620000de565b82601f10620000ad57805160ff1916838001178555620000de565b82800160010185558215620000de579182015b82811115620000dd578251825591602001919060010190620000c0565b5b509050620000ed9190620000f1565b5090565b5b808211156200010c576000816000905550600101620000f2565b5090565b7f4e487b7100000000000000000000000000000000000000000000000000000000600052602260045260246000fd5b600060028204905060018216806200015857607f821691505b602082108114156200016f576200016e62000110565b5b50919050565b612ff880620001856000396000f3fe608060405234801561001057600080fd5b506004361061012b5760003560e01c8063a22cb465116100ad578063e00fd54311610071578063e00fd5431461033c578063e08b00aa1461035a578063e3e55f0814610378578063e985e9c514610396578063f242432a146103c65761012b565b8063a22cb465146102ae578063ae14d905146102ca578063beaeb685146102e6578063ca49090f14610304578063d9636702146103205761012b565b80633e243dc4116100f45780633e243dc4146101f85780633e4bee38146102285780634e1273f4146102465780638f6b2c69146102765780639b1b0a25146102925761012b565b8062fdd58e1461013057806301ffc9a7146101605780630e89341c1461019057806310d92d46146101c05780632eb2c2d6146101dc575b600080fd5b61014a60048036038101906101459190611b3b565b6103e2565b6040516101579190611b8a565b60405180910390f35b61017a60048036038101906101759190611bfd565b6104ab565b6040516101879190611c45565b60405180910390f35b6101aa60048036038101906101a59190611c60565b61058d565b6040516101b79190611d26565b60405180910390f35b6101da60048036038101906101d59190611d48565b610621565b005b6101f660048036038101906101f19190611f72565b61065b565b005b610212600480360381019061020d9190612041565b6106fc565b60405161021f9190611b8a565b60405180910390f35b61023061072e565b60405161023d9190611b8a565b60405180910390f35b610260600480360381019061025b9190612157565b610733565b60405161026d919061228d565b60405180910390f35b610290600480360381019061028b9190611d48565b61084c565b005b6102ac60048036038101906102a79190611d48565b610885565b005b6102c860048036038101906102c391906122db565b6108bd565b005b6102e460048036038101906102df9190611d48565b6108d3565b005b6102ee61090d565b6040516102fb9190611b8a565b60405180910390f35b61031e6004803603810190610319919061231b565b610912565b005b61033a60048036038101906103359190611d48565b6109b2565b005b6103446109d2565b6040516103519190611b8a565b60405180910390f35b6103626109d7565b60405161036f9190611b8a565b60405180910390f35b6103806109dc565b60405161038d9190611b8a565b60405180910390f35b6103b060048036038101906103ab9190612396565b6109e1565b6040516103bd9190611c45565b60405180910390f35b6103e060048036038101906103db91906123d6565b610a75565b005b60008073ffffffffffffffffffffffffffffffffffffffff168373ffffffffffffffffffffffffffffffffffffffff161415610453576040517f08c379a000000000000000000000000000000000000000000000000000000000815260040161044a906124df565b60405180910390fd5b60008083815260200190815260200160002060008473ffffffffffffffffffffffffffffffffffffffff1673ffffffffffffffffffffffffffffffffffffffff16815260200190815260200160002054905092915050565b60007fd9b67a26000000000000000000000000000000000000000000000000000000007bffffffffffffffffffffffffffffffffffffffffffffffffffffffff1916827bffffffffffffffffffffffffffffffffffffffffffffffffffffffff1916148061057657507f0e89341c000000000000000000000000000000000000000000000000000000007bffffffffffffffffffffffffffffffffffffffffffffffffffffffff1916827bffffffffffffffffffffffffffffffffffffffffffffffffffffffff1916145b80610586575061058582610b16565b5b9050919050565b60606002805461059c9061252e565b80601f01602080910402602001604051908101604052809291908181526020018280546105c89061252e565b80156106155780601f106105ea57610100808354040283529160200191610615565b820191906000526020600020905b8154815290600101906020018083116105f857829003601f168201915b50505050509050919050565b80600a61062f8260026103e2565b101561063a57600080fd5b610657826003600160405180602001604052806000815250610b80565b5050565b610663610d16565b73ffffffffffffffffffffffffffffffffffffffff168573ffffffffffffffffffffffffffffffffffffffff1614806106a957506106a8856106a3610d16565b6109e1565b5b6106e8576040517f08c379a00000000000000000000000000000000000000000000000000000000081526004016106df906125d2565b60405180910390fd5b6106f58585858585610d1e565b5050505050565b600360205282600052604060002060205281600052604060002060205280600052604060002060009250925050505481565b600081565b60608151835114610779576040517f08c379a000000000000000000000000000000000000000000000000000000000815260040161077090612664565b60405180910390fd5b6000835167ffffffffffffffff81111561079657610795611d7a565b5b6040519080825280602002602001820160405280156107c45781602001602082028036833780820191505090505b50905060005b8451811015610841576108118582815181106107e9576107e8612684565b5b602002602001015185838151811061080457610803612684565b5b60200260200101516103e2565b82828151811061082457610823612684565b5b6020026020010181815250508061083a906126e2565b90506107ca565b508091505092915050565b80600061085a8260046103e2565b1161086457600080fd5b610881826000600160405180602001604052806000815250610b80565b5050565b8060006108938260036103e2565b1161089d57600080fd5b6108b98260018060405180602001604052806000815250610b80565b5050565b6108cf6108c8610d16565b8383611032565b5050565b80600a6108e18260026103e2565b10156108ec57600080fd5b610909826004600160405180602001604052806000815250610b80565b5050565b600481565b8061091d86846103e2565b101561092857600080fd5b61093385838361119f565b80600360008673ffffffffffffffffffffffffffffffffffffffff1673ffffffffffffffffffffffffffffffffffffffff1681526020019081526020016000206000858152602001908152602001600020600084815260200190815260200160002060008282546109a4919061272b565b925050819055505050505050565b6109cf816002600160405180602001604052806000815250610b80565b50565b600281565b600381565b600181565b6000600160008473ffffffffffffffffffffffffffffffffffffffff1673ffffffffffffffffffffffffffffffffffffffff16815260200190815260200160002060008373ffffffffffffffffffffffffffffffffffffffff1673ffffffffffffffffffffffffffffffffffffffff16815260200190815260200160002060009054906101000a900460ff16905092915050565b610a7d610d16565b73ffffffffffffffffffffffffffffffffffffffff168573ffffffffffffffffffffffffffffffffffffffff161480610ac35750610ac285610abd610d16565b6109e1565b5b610b02576040517f08c379a0000000000000000000000000000000000000000000000000000000008152600401610af9906127f3565b60405180910390fd5b610b0f85858585856113bc565b5050505050565b60007f01ffc9a7000000000000000000000000000000000000000000000000000000007bffffffffffffffffffffffffffffffffffffffffffffffffffffffff1916827bffffffffffffffffffffffffffffffffffffffffffffffffffffffff1916149050919050565b600073ffffffffffffffffffffffffffffffffffffffff168473ffffffffffffffffffffffffffffffffffffffff161415610bf0576040517f08c379a0000000000000000000000000000000000000000000000000000000008152600401610be790612885565b60405180910390fd5b6000610bfa610d16565b9050610c1b81600087610c0c8861163e565b610c158861163e565b876116b8565b8260008086815260200190815260200160002060008773ffffffffffffffffffffffffffffffffffffffff1673ffffffffffffffffffffffffffffffffffffffff1681526020019081526020016000206000828254610c7a919061272b565b925050819055508473ffffffffffffffffffffffffffffffffffffffff16600073ffffffffffffffffffffffffffffffffffffffff168273ffffffffffffffffffffffffffffffffffffffff167fc3d58168c5ae7397731d063d5bbf3d657854427343f4c083240f7aacaa2d0f628787604051610cf89291906128a5565b60405180910390a4610d0f816000878787876116c0565b5050505050565b600033905090565b8151835114610d62576040517f08c379a0000000000000000000000000000000000000000000000000000000008152600401610d5990612940565b60405180910390fd5b600073ffffffffffffffffffffffffffffffffffffffff168473ffffffffffffffffffffffffffffffffffffffff161415610dd2576040517f08c379a0000000000000000000000000000000000000000000000000000000008152600401610dc9906129d2565b60405180910390fd5b6000610ddc610d16565b9050610dec8187878787876116b8565b60005b8451811015610f9d576000858281518110610e0d57610e0c612684565b5b602002602001015190506000858381518110610e2c57610e2b612684565b5b60200260200101519050600080600084815260200190815260200160002060008b73ffffffffffffffffffffffffffffffffffffffff1673ffffffffffffffffffffffffffffffffffffffff16815260200190815260200160002054905081811015610ecd576040517f08c379a0000000000000000000000000000000000000000000000000000000008152600401610ec490612a64565b60405180910390fd5b81810360008085815260200190815260200160002060008c73ffffffffffffffffffffffffffffffffffffffff1673ffffffffffffffffffffffffffffffffffffffff168152602001908152602001600020819055508160008085815260200190815260200160002060008b73ffffffffffffffffffffffffffffffffffffffff1673ffffffffffffffffffffffffffffffffffffffff1681526020019081526020016000206000828254610f82919061272b565b9250508190555050505080610f96906126e2565b9050610def565b508473ffffffffffffffffffffffffffffffffffffffff168673ffffffffffffffffffffffffffffffffffffffff168273ffffffffffffffffffffffffffffffffffffffff167f4a39dc06d4c0dbc64b70af90fd698a233a518aa5d07e595d983b8c0526c8f7fb8787604051611014929190612a84565b60405180910390a461102a818787878787611898565b505050505050565b8173ffffffffffffffffffffffffffffffffffffffff168373ffffffffffffffffffffffffffffffffffffffff1614156110a1576040517f08c379a000000000000000000000000000000000000000000000000000000000815260040161109890612b2d565b60405180910390fd5b80600160008573ffffffffffffffffffffffffffffffffffffffff1673ffffffffffffffffffffffffffffffffffffffff16815260200190815260200160002060008473ffffffffffffffffffffffffffffffffffffffff1673ffffffffffffffffffffffffffffffffffffffff16815260200190815260200160002060006101000a81548160ff0219169083151502179055508173ffffffffffffffffffffffffffffffffffffffff168373ffffffffffffffffffffffffffffffffffffffff167f17307eab39ab6107e8899845ad3d59bd9653f200f220920489ca2b5937696c31836040516111929190611c45565b60405180910390a3505050565b600073ffffffffffffffffffffffffffffffffffffffff168373ffffffffffffffffffffffffffffffffffffffff16141561120f576040517f08c379a000000000000000000000000000000000000000000000000000000000815260040161120690612bbf565b60405180910390fd5b6000611219610d16565b90506112498185600061122b8761163e565b6112348761163e565b604051806020016040528060008152506116b8565b600080600085815260200190815260200160002060008673ffffffffffffffffffffffffffffffffffffffff1673ffffffffffffffffffffffffffffffffffffffff168152602001908152602001600020549050828110156112e0576040517f08c379a00000000000000000000000000000000000000000000000000000000081526004016112d790612c51565b60405180910390fd5b82810360008086815260200190815260200160002060008773ffffffffffffffffffffffffffffffffffffffff1673ffffffffffffffffffffffffffffffffffffffff16815260200190815260200160002081905550600073ffffffffffffffffffffffffffffffffffffffff168573ffffffffffffffffffffffffffffffffffffffff168373ffffffffffffffffffffffffffffffffffffffff167fc3d58168c5ae7397731d063d5bbf3d657854427343f4c083240f7aacaa2d0f6287876040516113ad9291906128a5565b60405180910390a45050505050565b600073ffffffffffffffffffffffffffffffffffffffff168473ffffffffffffffffffffffffffffffffffffffff16141561142c576040517f08c379a0000000000000000000000000000000000000000000000000000000008152600401611423906129d2565b60405180910390fd5b6000611436610d16565b90506114568187876114478861163e565b6114508861163e565b876116b8565b600080600086815260200190815260200160002060008873ffffffffffffffffffffffffffffffffffffffff1673ffffffffffffffffffffffffffffffffffffffff168152602001908152602001600020549050838110156114ed576040517f08c379a00000000000000000000000000000000000000000000000000000000081526004016114e490612a64565b60405180910390fd5b83810360008087815260200190815260200160002060008973ffffffffffffffffffffffffffffffffffffffff1673ffffffffffffffffffffffffffffffffffffffff168152602001908152602001600020819055508360008087815260200190815260200160002060008873ffffffffffffffffffffffffffffffffffffffff1673ffffffffffffffffffffffffffffffffffffffff16815260200190815260200160002060008282546115a2919061272b565b925050819055508573ffffffffffffffffffffffffffffffffffffffff168773ffffffffffffffffffffffffffffffffffffffff168373ffffffffffffffffffffffffffffffffffffffff167fc3d58168c5ae7397731d063d5bbf3d657854427343f4c083240f7aacaa2d0f62888860405161161f9291906128a5565b60405180910390a46116358288888888886116c0565b50505050505050565b60606000600167ffffffffffffffff81111561165d5761165c611d7a565b5b60405190808252806020026020018201604052801561168b5781602001602082028036833780820191505090505b50905082816000815181106116a3576116a2612684565b5b60200260200101818152505080915050919050565b505050505050565b6116df8473ffffffffffffffffffffffffffffffffffffffff16611a70565b15611890578373ffffffffffffffffffffffffffffffffffffffff1663f23a6e6187878686866040518663ffffffff1660e01b8152600401611725959493929190612cd5565b6020604051808303816000875af192505050801561176157506040513d601f19601f8201168201806040525081019061175e9190612d44565b60015b6118075761176d612d7e565b806308c379a014156117ca5750611782612da0565b8061178d57506117cc565b806040517f08c379a00000000000000000000000000000000000000000000000000000000081526004016117c19190611d26565b60405180910390fd5b505b6040517f08c379a00000000000000000000000000000000000000000000000000000000081526004016117fe90612ea8565b60405180910390fd5b63f23a6e6160e01b7bffffffffffffffffffffffffffffffffffffffffffffffffffffffff1916817bffffffffffffffffffffffffffffffffffffffffffffffffffffffff19161461188e576040517f08c379a000000000000000000000000000000000000000000000000000000000815260040161188590612f3a565b60405180910390fd5b505b505050505050565b6118b78473ffffffffffffffffffffffffffffffffffffffff16611a70565b15611a68578373ffffffffffffffffffffffffffffffffffffffff1663bc197c8187878686866040518663ffffffff1660e01b81526004016118fd959493929190612f5a565b6020604051808303816000875af192505050801561193957506040513d601f19601f820116820180604052508101906119369190612d44565b60015b6119df57611945612d7e565b806308c379a014156119a2575061195a612da0565b8061196557506119a4565b806040517f08c379a00000000000000000000000000000000000000000000000000000000081526004016119999190611d26565b60405180910390fd5b505b6040517f08c379a00000000000000000000000000000000000000000000000000000000081526004016119d690612ea8565b60405180910390fd5b63bc197c8160e01b7bffffffffffffffffffffffffffffffffffffffffffffffffffffffff1916817bffffffffffffffffffffffffffffffffffffffffffffffffffffffff191614611a66576040517f08c379a0000000000000000000000000000000000000000000000000000000008152600401611a5d90612f3a565b60405180910390fd5b505b505050505050565b6000808273ffffffffffffffffffffffffffffffffffffffff163b119050919050565b6000604051905090565b600080fd5b600080fd5b600073ffffffffffffffffffffffffffffffffffffffff82169050919050565b6000611ad282611aa7565b9050919050565b611ae281611ac7565b8114611aed57600080fd5b50565b600081359050611aff81611ad9565b92915050565b6000819050919050565b611b1881611b05565b8114611b2357600080fd5b50565b600081359050611b3581611b0f565b92915050565b60008060408385031215611b5257611b51611a9d565b5b6000611b6085828601611af0565b9250506020611b7185828601611b26565b9150509250929050565b611b8481611b05565b82525050565b6000602082019050611b9f6000830184611b7b565b92915050565b60007fffffffff0000000000000000000000000000000000000000000000000000000082169050919050565b611bda81611ba5565b8114611be557600080fd5b50565b600081359050611bf781611bd1565b92915050565b600060208284031215611c1357611c12611a9d565b5b6000611c2184828501611be8565b91505092915050565b60008115159050919050565b611c3f81611c2a565b82525050565b6000602082019050611c5a6000830184611c36565b92915050565b600060208284031215611c7657611c75611a9d565b5b6000611c8484828501611b26565b91505092915050565b600081519050919050565b600082825260208201905092915050565b60005b83811015611cc7578082015181840152602081019050611cac565b83811115611cd6576000848401525b50505050565b6000601f19601f8301169050919050565b6000611cf882611c8d565b611d028185611c98565b9350611d12818560208601611ca9565b611d1b81611cdc565b840191505092915050565b60006020820190508181036000830152611d408184611ced565b905092915050565b600060208284031215611d5e57611d5d611a9d565b5b6000611d6c84828501611af0565b91505092915050565b600080fd5b7f4e487b7100000000000000000000000000000000000000000000000000000000600052604160045260246000fd5b611db282611cdc565b810181811067ffffffffffffffff82111715611dd157611dd0611d7a565b5b80604052505050565b6000611de4611a93565b9050611df08282611da9565b919050565b600067ffffffffffffffff821115611e1057611e0f611d7a565b5b602082029050602081019050919050565b600080fd5b6000611e39611e3484611df5565b611dda565b90508083825260208201905060208402830185811115611e5c57611e5b611e21565b5b835b81811015611e855780611e718882611b26565b845260208401935050602081019050611e5e565b5050509392505050565b600082601f830112611ea457611ea3611d75565b5b8135611eb4848260208601611e26565b91505092915050565b600080fd5b600067ffffffffffffffff821115611edd57611edc611d7a565b5b611ee682611cdc565b9050602081019050919050565b82818337600083830152505050565b6000611f15611f1084611ec2565b611dda565b905082815260208101848484011115611f3157611f30611ebd565b5b611f3c848285611ef3565b509392505050565b600082601f830112611f5957611f58611d75565b5b8135611f69848260208601611f02565b91505092915050565b600080600080600060a08688031215611f8e57611f8d611a9d565b5b6000611f9c88828901611af0565b9550506020611fad88828901611af0565b945050604086013567ffffffffffffffff811115611fce57611fcd611aa2565b5b611fda88828901611e8f565b935050606086013567ffffffffffffffff811115611ffb57611ffa611aa2565b5b61200788828901611e8f565b925050608086013567ffffffffffffffff81111561202857612027611aa2565b5b61203488828901611f44565b9150509295509295909350565b60008060006060848603121561205a57612059611a9d565b5b600061206886828701611af0565b935050602061207986828701611b26565b925050604061208a86828701611b26565b9150509250925092565b600067ffffffffffffffff8211156120af576120ae611d7a565b5b602082029050602081019050919050565b60006120d36120ce84612094565b611dda565b905080838252602082019050602084028301858111156120f6576120f5611e21565b5b835b8181101561211f578061210b8882611af0565b8452602084019350506020810190506120f8565b5050509392505050565b600082601f83011261213e5761213d611d75565b5b813561214e8482602086016120c0565b91505092915050565b6000806040838503121561216e5761216d611a9d565b5b600083013567ffffffffffffffff81111561218c5761218b611aa2565b5b61219885828601612129565b925050602083013567ffffffffffffffff8111156121b9576121b8611aa2565b5b6121c585828601611e8f565b9150509250929050565b600081519050919050565b600082825260208201905092915050565b6000819050602082019050919050565b61220481611b05565b82525050565b600061221683836121fb565b60208301905092915050565b6000602082019050919050565b600061223a826121cf565b61224481856121da565b935061224f836121eb565b8060005b83811015612280578151612267888261220a565b975061227283612222565b925050600181019050612253565b5085935050505092915050565b600060208201905081810360008301526122a7818461222f565b905092915050565b6122b881611c2a565b81146122c357600080fd5b50565b6000813590506122d5816122af565b92915050565b600080604083850312156122f2576122f1611a9d565b5b600061230085828601611af0565b9250506020612311858286016122c6565b9150509250929050565b600080600080600060a0868803121561233757612336611a9d565b5b600061234588828901611af0565b955050602061235688828901611af0565b945050604061236788828901611b26565b935050606061237888828901611b26565b925050608061238988828901611b26565b9150509295509295909350565b600080604083850312156123ad576123ac611a9d565b5b60006123bb85828601611af0565b92505060206123cc85828601611af0565b9150509250929050565b600080600080600060a086880312156123f2576123f1611a9d565b5b600061240088828901611af0565b955050602061241188828901611af0565b945050604061242288828901611b26565b935050606061243388828901611b26565b925050608086013567ffffffffffffffff81111561245457612453611aa2565b5b61246088828901611f44565b9150509295509295909350565b7f455243313135353a2062616c616e636520717565727920666f7220746865207a60008201527f65726f2061646472657373000000000000000000000000000000000000000000602082015250565b60006124c9602b83611c98565b91506124d48261246d565b604082019050919050565b600060208201905081810360008301526124f8816124bc565b9050919050565b7f4e487b7100000000000000000000000000000000000000000000000000000000600052602260045260246000fd5b6000600282049050600182168061254657607f821691505b6020821081141561255a576125596124ff565b5b50919050565b7f455243313135353a207472616e736665722063616c6c6572206973206e6f742060008201527f6f776e6572206e6f7220617070726f7665640000000000000000000000000000602082015250565b60006125bc603283611c98565b91506125c782612560565b604082019050919050565b600060208201905081810360008301526125eb816125af565b9050919050565b7f455243313135353a206163636f756e747320616e6420696473206c656e67746860008201527f206d69736d617463680000000000000000000000000000000000000000000000602082015250565b600061264e602983611c98565b9150612659826125f2565b604082019050919050565b6000602082019050818103600083015261267d81612641565b9050919050565b7f4e487b7100000000000000000000000000000000000000000000000000000000600052603260045260246000fd5b7f4e487b7100000000000000000000000000000000000000000000000000000000600052601160045260246000fd5b60006126ed82611b05565b91507fffffffffffffffffffffffffffffffffffffffffffffffffffffffffffffffff8214156127205761271f6126b3565b5b600182019050919050565b600061273682611b05565b915061274183611b05565b9250827fffffffffffffffffffffffffffffffffffffffffffffffffffffffffffffffff03821115612776576127756126b3565b5b828201905092915050565b7f455243313135353a2063616c6c6572206973206e6f74206f776e6572206e6f7260008201527f20617070726f7665640000000000000000000000000000000000000000000000602082015250565b60006127dd602983611c98565b91506127e882612781565b604082019050919050565b6000602082019050818103600083015261280c816127d0565b9050919050565b7f455243313135353a206d696e7420746f20746865207a65726f2061646472657360008201527f7300000000000000000000000000000000000000000000000000000000000000602082015250565b600061286f602183611c98565b915061287a82612813565b604082019050919050565b6000602082019050818103600083015261289e81612862565b9050919050565b60006040820190506128ba6000830185611b7b565b6128c76020830184611b7b565b9392505050565b7f455243313135353a2069647320616e6420616d6f756e7473206c656e6774682060008201527f6d69736d61746368000000000000000000000000000000000000000000000000602082015250565b600061292a602883611c98565b9150612935826128ce565b604082019050919050565b600060208201905081810360008301526129598161291d565b9050919050565b7f455243313135353a207472616e7366657220746f20746865207a65726f20616460008201527f6472657373000000000000000000000000000000000000000000000000000000602082015250565b60006129bc602583611c98565b91506129c782612960565b604082019050919050565b600060208201905081810360008301526129eb816129af565b9050919050565b7f455243313135353a20696e73756666696369656e742062616c616e636520666f60008201527f72207472616e7366657200000000000000000000000000000000000000000000602082015250565b6000612a4e602a83611c98565b9150612a59826129f2565b604082019050919050565b60006020820190508181036000830152612a7d81612a41565b9050919050565b60006040820190508181036000830152612a9e818561222f565b90508181036020830152612ab2818461222f565b90509392505050565b7f455243313135353a2073657474696e6720617070726f76616c2073746174757360008201527f20666f722073656c660000000000000000000000000000000000000000000000602082015250565b6000612b17602983611c98565b9150612b2282612abb565b604082019050919050565b60006020820190508181036000830152612b4681612b0a565b9050919050565b7f455243313135353a206275726e2066726f6d20746865207a65726f206164647260008201527f6573730000000000000000000000000000000000000000000000000000000000602082015250565b6000612ba9602383611c98565b9150612bb482612b4d565b604082019050919050565b60006020820190508181036000830152612bd881612b9c565b9050919050565b7f455243313135353a206275726e20616d6f756e7420657863656564732062616c60008201527f616e636500000000000000000000000000000000000000000000000000000000602082015250565b6000612c3b602483611c98565b9150612c4682612bdf565b604082019050919050565b60006020820190508181036000830152612c6a81612c2e565b9050919050565b612c7a81611ac7565b82525050565b600081519050919050565b600082825260208201905092915050565b6000612ca782612c80565b612cb18185612c8b565b9350612cc1818560208601611ca9565b612cca81611cdc565b840191505092915050565b600060a082019050612cea6000830188612c71565b612cf76020830187612c71565b612d046040830186611b7b565b612d116060830185611b7b565b8181036080830152612d238184612c9c565b90509695505050505050565b600081519050612d3e81611bd1565b92915050565b600060208284031215612d5a57612d59611a9d565b5b6000612d6884828501612d2f565b91505092915050565b60008160e01c9050919050565b600060033d1115612d9d5760046000803e612d9a600051612d71565b90505b90565b600060443d1015612db057612e33565b612db8611a93565b60043d036004823e80513d602482011167ffffffffffffffff82111715612de0575050612e33565b808201805167ffffffffffffffff811115612dfe5750505050612e33565b80602083010160043d038501811115612e1b575050505050612e33565b612e2a82602001850186611da9565b82955050505050505b90565b7f455243313135353a207472616e7366657220746f206e6f6e204552433131353560008201527f526563656976657220696d706c656d656e746572000000000000000000000000602082015250565b6000612e92603483611c98565b9150612e9d82612e36565b604082019050919050565b60006020820190508181036000830152612ec181612e85565b9050919050565b7f455243313135353a204552433131353552656365697665722072656a6563746560008201527f6420746f6b656e73000000000000000000000000000000000000000000000000602082015250565b6000612f24602883611c98565b9150612f2f82612ec8565b604082019050919050565b60006020820190508181036000830152612f5381612f17565b9050919050565b600060a082019050612f6f6000830188612c71565b612f7c6020830187612c71565b8181036040830152612f8e818661222f565b90508181036060830152612fa2818561222f565b90508181036080830152612fb68184612c9c565b9050969550505050505056fea2646970667358221220cadd08d97daac24d61bbb3a3b70ea2e41b5a8fe69167f8f38e235d98eb31542564736f6c634300080c003368747470733a2f2f697066732e696f2f697066732f626166796265696374753278336c327061766179716c37376a37716275737233717077697832377374686c6c357177646273736e636869356a65692f7b69647d2e6a736f6e",
  "immutableReferences": {},
  "source": "// SPDX-License-Identifier: MIT\npragma solidity >=0.4.0 <0.9.0;\n\nimport \"./Wrdl3Items.sol\";\n\ncontract Wrdl3Constructor is Wrdl3Items {\n    mapping(address => mapping(uint256 => mapping(uint256 => uint256)))\n        public compositions;\n\n    function compose(\n        address _sender,\n        address _receiver,\n        uint256 _tokenId,\n        uint256 _appendedTokenId,\n        uint256 _amount\n    ) public {\n        require(balanceOf(_sender, _appendedTokenId) >= _amount);\n        _burn(_sender, _appendedTokenId, _amount);\n\n        compositions[_receiver][_tokenId][_appendedTokenId] += _amount;\n    }\n}\n",
  "sourcePath": "/Users/emilsharafutdinov/Desktop/Work/SR3/Wrdl3/contracts/Wrdl3Constructor.sol",
  "compiler": {
    "name": "solc",
    "version": "0.8.12+commit.f00d7308.Emscripten.clang"
  },
  "schemaVersion": "3.4.4",
  "updatedAt": "2022-03-09T14:42:14.008Z",
  "devdoc": {
    "kind": "dev",
    "methods": {
      "balanceOf(address,uint256)": {
        "details": "See {IERC1155-balanceOf}. Requirements: - `account` cannot be the zero address."
      },
      "balanceOfBatch(address[],uint256[])": {
        "details": "See {IERC1155-balanceOfBatch}. Requirements: - `accounts` and `ids` must have the same length."
      },
      "isApprovedForAll(address,address)": {
        "details": "See {IERC1155-isApprovedForAll}."
      },
      "safeBatchTransferFrom(address,address,uint256[],uint256[],bytes)": {
        "details": "See {IERC1155-safeBatchTransferFrom}."
      },
      "safeTransferFrom(address,address,uint256,uint256,bytes)": {
        "details": "See {IERC1155-safeTransferFrom}."
      },
      "setApprovalForAll(address,bool)": {
        "details": "See {IERC1155-setApprovalForAll}."
      },
      "supportsInterface(bytes4)": {
        "details": "See {IERC165-supportsInterface}."
      },
      "uri(uint256)": {
        "details": "See {IERC1155MetadataURI-uri}. This implementation returns the same URI for *all* token types. It relies on the token type ID substitution mechanism https://eips.ethereum.org/EIPS/eip-1155#metadata[defined in the EIP]. Clients calling this function must replace the `\\{id\\}` substring with the actual token type ID."
      }
    },
    "version": 1
  },
  "userdoc": {
    "kind": "user",
    "methods": {},
    "version": 1
  }
}