{
  "contractName": "Wrdl3InnerExchange",
  "abi": [
    {
      "anonymous": false,
      "inputs": [
        {
          "indexed": true,
          "internalType": "address",
          "name": "account",
          "type": "address"
        },
        {
          "indexed": true,
          "internalType": "address",
          "name": "operator",
          "type": "address"
        },
        {
          "indexed": false,
          "internalType": "bool",
          "name": "approved",
          "type": "bool"
        }
      ],
      "name": "ApprovalForAll",
      "type": "event"
    },
    {
      "anonymous": false,
      "inputs": [
        {
          "indexed": true,
          "internalType": "address",
          "name": "operator",
          "type": "address"
        },
        {
          "indexed": true,
          "internalType": "address",
          "name": "from",
          "type": "address"
        },
        {
          "indexed": true,
          "internalType": "address",
          "name": "to",
          "type": "address"
        },
        {
          "indexed": false,
          "internalType": "uint256[]",
          "name": "ids",
          "type": "uint256[]"
        },
        {
          "indexed": false,
          "internalType": "uint256[]",
          "name": "values",
          "type": "uint256[]"
        }
      ],
      "name": "TransferBatch",
      "type": "event"
    },
    {
      "anonymous": false,
      "inputs": [
        {
          "indexed": true,
          "internalType": "address",
          "name": "operator",
          "type": "address"
        },
        {
          "indexed": true,
          "internalType": "address",
          "name": "from",
          "type": "address"
        },
        {
          "indexed": true,
          "internalType": "address",
          "name": "to",
          "type": "address"
        },
        {
          "indexed": false,
          "internalType": "uint256",
          "name": "id",
          "type": "uint256"
        },
        {
          "indexed": false,
          "internalType": "uint256",
          "name": "value",
          "type": "uint256"
        }
      ],
      "name": "TransferSingle",
      "type": "event"
    },
    {
      "anonymous": false,
      "inputs": [
        {
          "indexed": false,
          "internalType": "string",
          "name": "value",
          "type": "string"
        },
        {
          "indexed": true,
          "internalType": "uint256",
          "name": "id",
          "type": "uint256"
        }
      ],
      "name": "URI",
      "type": "event"
    },
    {
      "inputs": [],
      "name": "BRONZE",
      "outputs": [
        {
          "internalType": "uint256",
          "name": "",
          "type": "uint256"
        }
      ],
      "stateMutability": "view",
      "type": "function"
    },
    {
      "inputs": [],
      "name": "GOLD",
      "outputs": [
        {
          "internalType": "uint256",
          "name": "",
          "type": "uint256"
        }
      ],
      "stateMutability": "view",
      "type": "function"
    },
    {
      "inputs": [],
      "name": "LVL2",
      "outputs": [
        {
          "internalType": "uint256",
          "name": "",
          "type": "uint256"
        }
      ],
      "stateMutability": "view",
      "type": "function"
    },
    {
      "inputs": [],
      "name": "LVL3",
      "outputs": [
        {
          "internalType": "uint256",
          "name": "",
          "type": "uint256"
        }
      ],
      "stateMutability": "view",
      "type": "function"
    },
    {
      "inputs": [],
      "name": "SILVER",
      "outputs": [
        {
          "internalType": "uint256",
          "name": "",
          "type": "uint256"
        }
      ],
      "stateMutability": "view",
      "type": "function"
    },
    {
      "inputs": [
        {
          "internalType": "address",
          "name": "player",
          "type": "address"
        }
      ],
      "name": "awardBronze",
      "outputs": [],
      "stateMutability": "nonpayable",
      "type": "function"
    },
    {
      "inputs": [
        {
          "internalType": "address",
          "name": "player",
          "type": "address"
        }
      ],
      "name": "awardGold",
      "outputs": [],
      "stateMutability": "nonpayable",
      "type": "function"
    },
    {
      "inputs": [
        {
          "internalType": "address",
          "name": "player",
          "type": "address"
        }
      ],
      "name": "awardSilver",
      "outputs": [],
      "stateMutability": "nonpayable",
      "type": "function"
    },
    {
      "inputs": [
        {
          "internalType": "address",
          "name": "account",
          "type": "address"
        },
        {
          "internalType": "uint256",
          "name": "id",
          "type": "uint256"
        }
      ],
      "name": "balanceOf",
      "outputs": [
        {
          "internalType": "uint256",
          "name": "",
          "type": "uint256"
        }
      ],
      "stateMutability": "view",
      "type": "function"
    },
    {
      "inputs": [
        {
          "internalType": "address[]",
          "name": "accounts",
          "type": "address[]"
        },
        {
          "internalType": "uint256[]",
          "name": "ids",
          "type": "uint256[]"
        }
      ],
      "name": "balanceOfBatch",
      "outputs": [
        {
          "internalType": "uint256[]",
          "name": "",
          "type": "uint256[]"
        }
      ],
      "stateMutability": "view",
      "type": "function"
    },
    {
      "inputs": [
        {
          "internalType": "address",
          "name": "account",
          "type": "address"
        },
        {
          "internalType": "address",
          "name": "operator",
          "type": "address"
        }
      ],
      "name": "isApprovedForAll",
      "outputs": [
        {
          "internalType": "bool",
          "name": "",
          "type": "bool"
        }
      ],
      "stateMutability": "view",
      "type": "function"
    },
    {
      "inputs": [
        {
          "internalType": "address",
          "name": "player",
          "type": "address"
        }
      ],
      "name": "lvl2Achieve",
      "outputs": [],
      "stateMutability": "nonpayable",
      "type": "function"
    },
    {
      "inputs": [
        {
          "internalType": "address",
          "name": "player",
          "type": "address"
        }
      ],
      "name": "lvl3Achieve",
      "outputs": [],
      "stateMutability": "nonpayable",
      "type": "function"
    },
    {
      "inputs": [
        {
          "internalType": "address",
          "name": "from",
          "type": "address"
        },
        {
          "internalType": "address",
          "name": "to",
          "type": "address"
        },
        {
          "internalType": "uint256[]",
          "name": "ids",
          "type": "uint256[]"
        },
        {
          "internalType": "uint256[]",
          "name": "amounts",
          "type": "uint256[]"
        },
        {
          "internalType": "bytes",
          "name": "data",
          "type": "bytes"
        }
      ],
      "name": "safeBatchTransferFrom",
      "outputs": [],
      "stateMutability": "nonpayable",
      "type": "function"
    },
    {
      "inputs": [
        {
          "internalType": "address",
          "name": "from",
          "type": "address"
        },
        {
          "internalType": "address",
          "name": "to",
          "type": "address"
        },
        {
          "internalType": "uint256",
          "name": "id",
          "type": "uint256"
        },
        {
          "internalType": "uint256",
          "name": "amount",
          "type": "uint256"
        },
        {
          "internalType": "bytes",
          "name": "data",
          "type": "bytes"
        }
      ],
      "name": "safeTransferFrom",
      "outputs": [],
      "stateMutability": "nonpayable",
      "type": "function"
    },
    {
      "inputs": [
        {
          "internalType": "address",
          "name": "operator",
          "type": "address"
        },
        {
          "internalType": "bool",
          "name": "approved",
          "type": "bool"
        }
      ],
      "name": "setApprovalForAll",
      "outputs": [],
      "stateMutability": "nonpayable",
      "type": "function"
    },
    {
      "inputs": [
        {
          "internalType": "bytes4",
          "name": "interfaceId",
          "type": "bytes4"
        }
      ],
      "name": "supportsInterface",
      "outputs": [
        {
          "internalType": "bool",
          "name": "",
          "type": "bool"
        }
      ],
      "stateMutability": "view",
      "type": "function"
    },
    {
      "inputs": [
        {
          "internalType": "uint256",
          "name": "",
          "type": "uint256"
        }
      ],
      "name": "uri",
      "outputs": [
        {
          "internalType": "string",
          "name": "",
          "type": "string"
        }
      ],
      "stateMutability": "view",
      "type": "function"
    },
    {
      "inputs": [
        {
          "internalType": "address",
          "name": "_player",
          "type": "address"
        },
        {
          "internalType": "uint256",
          "name": "_amount",
          "type": "uint256"
        }
      ],
      "name": "buyGoldWithSilver",
      "outputs": [],
      "stateMutability": "nonpayable",
      "type": "function"
    },
    {
      "inputs": [
        {
          "internalType": "address",
          "name": "_player",
          "type": "address"
        },
        {
          "internalType": "uint256",
          "name": "_amount",
          "type": "uint256"
        }
      ],
      "name": "buyGoldWithBronze",
      "outputs": [],
      "stateMutability": "nonpayable",
      "type": "function"
    },
    {
      "inputs": [
        {
          "internalType": "address",
          "name": "_player",
          "type": "address"
        },
        {
          "internalType": "uint256",
          "name": "_amount",
          "type": "uint256"
        }
      ],
      "name": "buySilverWithBronze",
      "outputs": [],
      "stateMutability": "nonpayable",
      "type": "function"
    },
    {
      "inputs": [
        {
          "internalType": "address",
          "name": "_player",
          "type": "address"
        },
        {
          "internalType": "uint256",
          "name": "_amount",
          "type": "uint256"
        }
      ],
      "name": "buyBronzeWithSilver",
      "outputs": [],
      "stateMutability": "nonpayable",
      "type": "function"
    },
    {
      "inputs": [
        {
          "internalType": "address",
          "name": "_player",
          "type": "address"
        },
        {
          "internalType": "uint256",
          "name": "_amount",
          "type": "uint256"
        }
      ],
      "name": "buyBronzeWithGold",
      "outputs": [],
      "stateMutability": "nonpayable",
      "type": "function"
    },
    {
      "inputs": [
        {
          "internalType": "address",
          "name": "_player",
          "type": "address"
        },
        {
          "internalType": "uint256",
          "name": "_amount",
          "type": "uint256"
        }
      ],
      "name": "buySilverWithGold",
      "outputs": [],
      "stateMutability": "nonpayable",
      "type": "function"
    }
  ],
  "bytecode": "0x60806040523480156200001157600080fd5b506040518060800160405280605a815260200162003639605a91396200003d816200004460201b60201c565b5062000175565b80600290805190602001906200005c92919062000060565b5050565b8280546200006e906200013f565b90600052602060002090601f016020900481019282620000925760008555620000de565b82601f10620000ad57805160ff1916838001178555620000de565b82800160010185558215620000de579182015b82811115620000dd578251825591602001919060010190620000c0565b5b509050620000ed9190620000f1565b5090565b5b808211156200010c576000816000905550600101620000f2565b5090565b7f4e487b7100000000000000000000000000000000000000000000000000000000600052602260045260246000fd5b600060028204905060018216806200015857607f821691505b602082108114156200016f576200016e62000110565b5b50919050565b6134b480620001856000396000f3fe608060405234801561001057600080fd5b50600436106101575760003560e01c8063ae14d905116100c3578063e00fd5431161007c578063e00fd543146103a8578063e08b00aa146103c6578063e3e55f08146103e4578063e985e9c514610402578063f242432a14610432578063fb6a2f2c1461044e57610157565b8063ae14d905146102fe578063b85abf861461031a578063beaeb68514610336578063ca8f98bf14610354578063d870cad414610370578063d96367021461038c57610157565b80633e4bee38116101155780633e4bee38146102405780634e1273f41461025e5780635577bd4f1461028e5780638f6b2c69146102aa5780639b1b0a25146102c6578063a22cb465146102e257610157565b8062fdd58e1461015c57806301ffc9a71461018c5780630e89341c146101bc57806310d92d46146101ec578063225fb0e9146102085780632eb2c2d614610224575b600080fd5b61017660048036038101906101719190611e96565b61046a565b6040516101839190611ee5565b60405180910390f35b6101a660048036038101906101a19190611f58565b610533565b6040516101b39190611fa0565b60405180910390f35b6101d660048036038101906101d19190611fbb565b610615565b6040516101e39190612081565b60405180910390f35b610206600480360381019061020191906120a3565b6106a9565b005b610222600480360381019061021d9190611e96565b6106e3565b005b61023e600480360381019061023991906122cd565b610757565b005b6102486107f8565b6040516102559190611ee5565b60405180910390f35b6102786004803603810190610273919061245f565b6107fd565b6040516102859190612595565b60405180910390f35b6102a860048036038101906102a39190611e96565b610916565b005b6102c460048036038101906102bf91906120a3565b6109d9565b005b6102e060048036038101906102db91906120a3565b610a12565b005b6102fc60048036038101906102f791906125e3565b610a4a565b005b610318600480360381019061031391906120a3565b610a60565b005b610334600480360381019061032f9190611e96565b610a9a565b005b61033e610b5d565b60405161034b9190611ee5565b60405180910390f35b61036e60048036038101906103699190611e96565b610b62565b005b61038a60048036038101906103859190611e96565b610bd6565b005b6103a660048036038101906103a191906120a3565b610c4a565b005b6103b0610c6a565b6040516103bd9190611ee5565b60405180910390f35b6103ce610c6f565b6040516103db9190611ee5565b60405180910390f35b6103ec610c74565b6040516103f99190611ee5565b60405180910390f35b61041c60048036038101906104179190612623565b610c79565b6040516104299190611fa0565b60405180910390f35b61044c60048036038101906104479190612663565b610d0d565b005b61046860048036038101906104639190611e96565b610dae565b005b60008073ffffffffffffffffffffffffffffffffffffffff168373ffffffffffffffffffffffffffffffffffffffff1614156104db576040517f08c379a00000000000000000000000000000000000000000000000000000000081526004016104d29061276c565b60405180910390fd5b60008083815260200190815260200160002060008473ffffffffffffffffffffffffffffffffffffffff1673ffffffffffffffffffffffffffffffffffffffff16815260200190815260200160002054905092915050565b60007fd9b67a26000000000000000000000000000000000000000000000000000000007bffffffffffffffffffffffffffffffffffffffffffffffffffffffff1916827bffffffffffffffffffffffffffffffffffffffffffffffffffffffff191614806105fe57507f0e89341c000000000000000000000000000000000000000000000000000000007bffffffffffffffffffffffffffffffffffffffffffffffffffffffff1916827bffffffffffffffffffffffffffffffffffffffffffffffffffffffff1916145b8061060e575061060d82610e71565b5b9050919050565b606060028054610624906127bb565b80601f0160208091040260200160405190810160405280929190818152602001828054610650906127bb565b801561069d5780601f106106725761010080835404028352916020019161069d565b820191906000526020600020905b81548152906001019060200180831161068057829003601f168201915b50505050509050919050565b80600a6106b782600261046a565b10156106c257600080fd5b6106df826003600160405180602001604052806000815250610edb565b5050565b8160006106f182600461046a565b116106fb57600080fd5b600a82610708919061281c565b61071384600261046a565b101561071e57600080fd5b610736836002600a85610731919061281c565b611071565b6107528360008460405180602001604052806000815250610edb565b505050565b61075f61128e565b73ffffffffffffffffffffffffffffffffffffffff168573ffffffffffffffffffffffffffffffffffffffff1614806107a557506107a48561079f61128e565b610c79565b5b6107e4576040517f08c379a00000000000000000000000000000000000000000000000000000000081526004016107db906128e8565b60405180910390fd5b6107f18585858585611296565b5050505050565b600081565b60608151835114610843576040517f08c379a000000000000000000000000000000000000000000000000000000000815260040161083a9061297a565b60405180910390fd5b6000835167ffffffffffffffff8111156108605761085f6120d5565b5b60405190808252806020026020018201604052801561088e5781602001602082028036833780820191505090505b50905060005b845181101561090b576108db8582815181106108b3576108b261299a565b5b60200260200101518583815181106108ce576108cd61299a565b5b602002602001015161046a565b8282815181106108ee576108ed61299a565b5b60200260200101818152505080610904906129c9565b9050610894565b508091505092915050565b81600061092482600361046a565b1161092e57600080fd5b600060038361093d9190612a41565b1461097d576040517f08c379a000000000000000000000000000000000000000000000000000000000815260040161097490612abe565b60405180910390fd5b60038261098a9190612ade565b61099584600061046a565b10156109a057600080fd5b6109b88360006003856109b39190612ade565b611071565b6109d48360018460405180602001604052806000815250610edb565b505050565b8060006109e782600461046a565b116109f157600080fd5b610a0e826000600160405180602001604052806000815250610edb565b5050565b806000610a2082600361046a565b11610a2a57600080fd5b610a468260018060405180602001604052806000815250610edb565b5050565b610a5c610a5561128e565b83836115aa565b5050565b80600a610a6e82600261046a565b1015610a7957600080fd5b610a96826004600160405180602001604052806000815250610edb565b5050565b816000610aa882600361046a565b11610ab257600080fd5b6000600583610ac19190612a41565b14610b01576040517f08c379a0000000000000000000000000000000000000000000000000000000008152600401610af890612b5b565b60405180910390fd5b600582610b0e9190612ade565b610b1984600161046a565b1015610b2457600080fd5b610b3c836001600585610b379190612ade565b611071565b610b588360028460405180602001604052806000815250610edb565b505050565b600481565b816000610b7082600461046a565b11610b7a57600080fd5b600382610b87919061281c565b610b9284600161046a565b1015610b9d57600080fd5b610bb5836001600385610bb0919061281c565b611071565b610bd18360008460405180602001604052806000815250610edb565b505050565b816000610be482600361046a565b11610bee57600080fd5b600582610bfb919061281c565b610c0684600261046a565b1015610c1157600080fd5b610c29836002600585610c24919061281c565b611071565b610c458360018460405180602001604052806000815250610edb565b505050565b610c67816002600160405180602001604052806000815250610edb565b50565b600281565b600381565b600181565b6000600160008473ffffffffffffffffffffffffffffffffffffffff1673ffffffffffffffffffffffffffffffffffffffff16815260200190815260200160002060008373ffffffffffffffffffffffffffffffffffffffff1673ffffffffffffffffffffffffffffffffffffffff16815260200190815260200160002060009054906101000a900460ff16905092915050565b610d1561128e565b73ffffffffffffffffffffffffffffffffffffffff168573ffffffffffffffffffffffffffffffffffffffff161480610d5b5750610d5a85610d5561128e565b610c79565b5b610d9a576040517f08c379a0000000000000000000000000000000000000000000000000000000008152600401610d9190612bed565b60405180910390fd5b610da78585858585611717565b5050505050565b816000610dbc82600361046a565b11610dc657600080fd5b6000600a83610dd59190612a41565b14610e15576040517f08c379a0000000000000000000000000000000000000000000000000000000008152600401610e0c90612c59565b60405180910390fd5b600a82610e229190612ade565b610e2d84600061046a565b1015610e3857600080fd5b610e50836000600a85610e4b9190612ade565b611071565b610e6c8360028460405180602001604052806000815250610edb565b505050565b60007f01ffc9a7000000000000000000000000000000000000000000000000000000007bffffffffffffffffffffffffffffffffffffffffffffffffffffffff1916827bffffffffffffffffffffffffffffffffffffffffffffffffffffffff1916149050919050565b600073ffffffffffffffffffffffffffffffffffffffff168473ffffffffffffffffffffffffffffffffffffffff161415610f4b576040517f08c379a0000000000000000000000000000000000000000000000000000000008152600401610f4290612ceb565b60405180910390fd5b6000610f5561128e565b9050610f7681600087610f6788611999565b610f7088611999565b87611a13565b8260008086815260200190815260200160002060008773ffffffffffffffffffffffffffffffffffffffff1673ffffffffffffffffffffffffffffffffffffffff1681526020019081526020016000206000828254610fd59190612d0b565b925050819055508473ffffffffffffffffffffffffffffffffffffffff16600073ffffffffffffffffffffffffffffffffffffffff168273ffffffffffffffffffffffffffffffffffffffff167fc3d58168c5ae7397731d063d5bbf3d657854427343f4c083240f7aacaa2d0f628787604051611053929190612d61565b60405180910390a461106a81600087878787611a1b565b5050505050565b600073ffffffffffffffffffffffffffffffffffffffff168373ffffffffffffffffffffffffffffffffffffffff1614156110e1576040517f08c379a00000000000000000000000000000000000000000000000000000000081526004016110d890612dfc565b60405180910390fd5b60006110eb61128e565b905061111b818560006110fd87611999565b61110687611999565b60405180602001604052806000815250611a13565b600080600085815260200190815260200160002060008673ffffffffffffffffffffffffffffffffffffffff1673ffffffffffffffffffffffffffffffffffffffff168152602001908152602001600020549050828110156111b2576040517f08c379a00000000000000000000000000000000000000000000000000000000081526004016111a990612e8e565b60405180910390fd5b82810360008086815260200190815260200160002060008773ffffffffffffffffffffffffffffffffffffffff1673ffffffffffffffffffffffffffffffffffffffff16815260200190815260200160002081905550600073ffffffffffffffffffffffffffffffffffffffff168573ffffffffffffffffffffffffffffffffffffffff168373ffffffffffffffffffffffffffffffffffffffff167fc3d58168c5ae7397731d063d5bbf3d657854427343f4c083240f7aacaa2d0f62878760405161127f929190612d61565b60405180910390a45050505050565b600033905090565b81518351146112da576040517f08c379a00000000000000000000000000000000000000000000000000000000081526004016112d190612f20565b60405180910390fd5b600073ffffffffffffffffffffffffffffffffffffffff168473ffffffffffffffffffffffffffffffffffffffff16141561134a576040517f08c379a000000000000000000000000000000000000000000000000000000000815260040161134190612fb2565b60405180910390fd5b600061135461128e565b9050611364818787878787611a13565b60005b84518110156115155760008582815181106113855761138461299a565b5b6020026020010151905060008583815181106113a4576113a361299a565b5b60200260200101519050600080600084815260200190815260200160002060008b73ffffffffffffffffffffffffffffffffffffffff1673ffffffffffffffffffffffffffffffffffffffff16815260200190815260200160002054905081811015611445576040517f08c379a000000000000000000000000000000000000000000000000000000000815260040161143c90613044565b60405180910390fd5b81810360008085815260200190815260200160002060008c73ffffffffffffffffffffffffffffffffffffffff1673ffffffffffffffffffffffffffffffffffffffff168152602001908152602001600020819055508160008085815260200190815260200160002060008b73ffffffffffffffffffffffffffffffffffffffff1673ffffffffffffffffffffffffffffffffffffffff16815260200190815260200160002060008282546114fa9190612d0b565b925050819055505050508061150e906129c9565b9050611367565b508473ffffffffffffffffffffffffffffffffffffffff168673ffffffffffffffffffffffffffffffffffffffff168273ffffffffffffffffffffffffffffffffffffffff167f4a39dc06d4c0dbc64b70af90fd698a233a518aa5d07e595d983b8c0526c8f7fb878760405161158c929190613064565b60405180910390a46115a2818787878787611bf3565b505050505050565b8173ffffffffffffffffffffffffffffffffffffffff168373ffffffffffffffffffffffffffffffffffffffff161415611619576040517f08c379a00000000000000000000000000000000000000000000000000000000081526004016116109061310d565b60405180910390fd5b80600160008573ffffffffffffffffffffffffffffffffffffffff1673ffffffffffffffffffffffffffffffffffffffff16815260200190815260200160002060008473ffffffffffffffffffffffffffffffffffffffff1673ffffffffffffffffffffffffffffffffffffffff16815260200190815260200160002060006101000a81548160ff0219169083151502179055508173ffffffffffffffffffffffffffffffffffffffff168373ffffffffffffffffffffffffffffffffffffffff167f17307eab39ab6107e8899845ad3d59bd9653f200f220920489ca2b5937696c318360405161170a9190611fa0565b60405180910390a3505050565b600073ffffffffffffffffffffffffffffffffffffffff168473ffffffffffffffffffffffffffffffffffffffff161415611787576040517f08c379a000000000000000000000000000000000000000000000000000000000815260040161177e90612fb2565b60405180910390fd5b600061179161128e565b90506117b18187876117a288611999565b6117ab88611999565b87611a13565b600080600086815260200190815260200160002060008873ffffffffffffffffffffffffffffffffffffffff1673ffffffffffffffffffffffffffffffffffffffff16815260200190815260200160002054905083811015611848576040517f08c379a000000000000000000000000000000000000000000000000000000000815260040161183f90613044565b60405180910390fd5b83810360008087815260200190815260200160002060008973ffffffffffffffffffffffffffffffffffffffff1673ffffffffffffffffffffffffffffffffffffffff168152602001908152602001600020819055508360008087815260200190815260200160002060008873ffffffffffffffffffffffffffffffffffffffff1673ffffffffffffffffffffffffffffffffffffffff16815260200190815260200160002060008282546118fd9190612d0b565b925050819055508573ffffffffffffffffffffffffffffffffffffffff168773ffffffffffffffffffffffffffffffffffffffff168373ffffffffffffffffffffffffffffffffffffffff167fc3d58168c5ae7397731d063d5bbf3d657854427343f4c083240f7aacaa2d0f62888860405161197a929190612d61565b60405180910390a4611990828888888888611a1b565b50505050505050565b60606000600167ffffffffffffffff8111156119b8576119b76120d5565b5b6040519080825280602002602001820160405280156119e65781602001602082028036833780820191505090505b50905082816000815181106119fe576119fd61299a565b5b60200260200101818152505080915050919050565b505050505050565b611a3a8473ffffffffffffffffffffffffffffffffffffffff16611dcb565b15611beb578373ffffffffffffffffffffffffffffffffffffffff1663f23a6e6187878686866040518663ffffffff1660e01b8152600401611a80959493929190613191565b6020604051808303816000875af1925050508015611abc57506040513d601f19601f82011682018060405250810190611ab99190613200565b60015b611b6257611ac861323a565b806308c379a01415611b255750611add61325c565b80611ae85750611b27565b806040517f08c379a0000000000000000000000000000000000000000000000000000000008152600401611b1c9190612081565b60405180910390fd5b505b6040517f08c379a0000000000000000000000000000000000000000000000000000000008152600401611b5990613364565b60405180910390fd5b63f23a6e6160e01b7bffffffffffffffffffffffffffffffffffffffffffffffffffffffff1916817bffffffffffffffffffffffffffffffffffffffffffffffffffffffff191614611be9576040517f08c379a0000000000000000000000000000000000000000000000000000000008152600401611be0906133f6565b60405180910390fd5b505b505050505050565b611c128473ffffffffffffffffffffffffffffffffffffffff16611dcb565b15611dc3578373ffffffffffffffffffffffffffffffffffffffff1663bc197c8187878686866040518663ffffffff1660e01b8152600401611c58959493929190613416565b6020604051808303816000875af1925050508015611c9457506040513d601f19601f82011682018060405250810190611c919190613200565b60015b611d3a57611ca061323a565b806308c379a01415611cfd5750611cb561325c565b80611cc05750611cff565b806040517f08c379a0000000000000000000000000000000000000000000000000000000008152600401611cf49190612081565b60405180910390fd5b505b6040517f08c379a0000000000000000000000000000000000000000000000000000000008152600401611d3190613364565b60405180910390fd5b63bc197c8160e01b7bffffffffffffffffffffffffffffffffffffffffffffffffffffffff1916817bffffffffffffffffffffffffffffffffffffffffffffffffffffffff191614611dc1576040517f08c379a0000000000000000000000000000000000000000000000000000000008152600401611db8906133f6565b60405180910390fd5b505b505050505050565b6000808273ffffffffffffffffffffffffffffffffffffffff163b119050919050565b6000604051905090565b600080fd5b600080fd5b600073ffffffffffffffffffffffffffffffffffffffff82169050919050565b6000611e2d82611e02565b9050919050565b611e3d81611e22565b8114611e4857600080fd5b50565b600081359050611e5a81611e34565b92915050565b6000819050919050565b611e7381611e60565b8114611e7e57600080fd5b50565b600081359050611e9081611e6a565b92915050565b60008060408385031215611ead57611eac611df8565b5b6000611ebb85828601611e4b565b9250506020611ecc85828601611e81565b9150509250929050565b611edf81611e60565b82525050565b6000602082019050611efa6000830184611ed6565b92915050565b60007fffffffff0000000000000000000000000000000000000000000000000000000082169050919050565b611f3581611f00565b8114611f4057600080fd5b50565b600081359050611f5281611f2c565b92915050565b600060208284031215611f6e57611f6d611df8565b5b6000611f7c84828501611f43565b91505092915050565b60008115159050919050565b611f9a81611f85565b82525050565b6000602082019050611fb56000830184611f91565b92915050565b600060208284031215611fd157611fd0611df8565b5b6000611fdf84828501611e81565b91505092915050565b600081519050919050565b600082825260208201905092915050565b60005b83811015612022578082015181840152602081019050612007565b83811115612031576000848401525b50505050565b6000601f19601f8301169050919050565b600061205382611fe8565b61205d8185611ff3565b935061206d818560208601612004565b61207681612037565b840191505092915050565b6000602082019050818103600083015261209b8184612048565b905092915050565b6000602082840312156120b9576120b8611df8565b5b60006120c784828501611e4b565b91505092915050565b600080fd5b7f4e487b7100000000000000000000000000000000000000000000000000000000600052604160045260246000fd5b61210d82612037565b810181811067ffffffffffffffff8211171561212c5761212b6120d5565b5b80604052505050565b600061213f611dee565b905061214b8282612104565b919050565b600067ffffffffffffffff82111561216b5761216a6120d5565b5b602082029050602081019050919050565b600080fd5b600061219461218f84612150565b612135565b905080838252602082019050602084028301858111156121b7576121b661217c565b5b835b818110156121e057806121cc8882611e81565b8452602084019350506020810190506121b9565b5050509392505050565b600082601f8301126121ff576121fe6120d0565b5b813561220f848260208601612181565b91505092915050565b600080fd5b600067ffffffffffffffff821115612238576122376120d5565b5b61224182612037565b9050602081019050919050565b82818337600083830152505050565b600061227061226b8461221d565b612135565b90508281526020810184848401111561228c5761228b612218565b5b61229784828561224e565b509392505050565b600082601f8301126122b4576122b36120d0565b5b81356122c484826020860161225d565b91505092915050565b600080600080600060a086880312156122e9576122e8611df8565b5b60006122f788828901611e4b565b955050602061230888828901611e4b565b945050604086013567ffffffffffffffff81111561232957612328611dfd565b5b612335888289016121ea565b935050606086013567ffffffffffffffff81111561235657612355611dfd565b5b612362888289016121ea565b925050608086013567ffffffffffffffff81111561238357612382611dfd565b5b61238f8882890161229f565b9150509295509295909350565b600067ffffffffffffffff8211156123b7576123b66120d5565b5b602082029050602081019050919050565b60006123db6123d68461239c565b612135565b905080838252602082019050602084028301858111156123fe576123fd61217c565b5b835b8181101561242757806124138882611e4b565b845260208401935050602081019050612400565b5050509392505050565b600082601f830112612446576124456120d0565b5b81356124568482602086016123c8565b91505092915050565b6000806040838503121561247657612475611df8565b5b600083013567ffffffffffffffff81111561249457612493611dfd565b5b6124a085828601612431565b925050602083013567ffffffffffffffff8111156124c1576124c0611dfd565b5b6124cd858286016121ea565b9150509250929050565b600081519050919050565b600082825260208201905092915050565b6000819050602082019050919050565b61250c81611e60565b82525050565b600061251e8383612503565b60208301905092915050565b6000602082019050919050565b6000612542826124d7565b61254c81856124e2565b9350612557836124f3565b8060005b8381101561258857815161256f8882612512565b975061257a8361252a565b92505060018101905061255b565b5085935050505092915050565b600060208201905081810360008301526125af8184612537565b905092915050565b6125c081611f85565b81146125cb57600080fd5b50565b6000813590506125dd816125b7565b92915050565b600080604083850312156125fa576125f9611df8565b5b600061260885828601611e4b565b9250506020612619858286016125ce565b9150509250929050565b6000806040838503121561263a57612639611df8565b5b600061264885828601611e4b565b925050602061265985828601611e4b565b9150509250929050565b600080600080600060a0868803121561267f5761267e611df8565b5b600061268d88828901611e4b565b955050602061269e88828901611e4b565b94505060406126af88828901611e81565b93505060606126c088828901611e81565b925050608086013567ffffffffffffffff8111156126e1576126e0611dfd565b5b6126ed8882890161229f565b9150509295509295909350565b7f455243313135353a2062616c616e636520717565727920666f7220746865207a60008201527f65726f2061646472657373000000000000000000000000000000000000000000602082015250565b6000612756602b83611ff3565b9150612761826126fa565b604082019050919050565b6000602082019050818103600083015261278581612749565b9050919050565b7f4e487b7100000000000000000000000000000000000000000000000000000000600052602260045260246000fd5b600060028204905060018216806127d357607f821691505b602082108114156127e7576127e661278c565b5b50919050565b7f4e487b7100000000000000000000000000000000000000000000000000000000600052601160045260246000fd5b600061282782611e60565b915061283283611e60565b9250817fffffffffffffffffffffffffffffffffffffffffffffffffffffffffffffffff048311821515161561286b5761286a6127ed565b5b828202905092915050565b7f455243313135353a207472616e736665722063616c6c6572206973206e6f742060008201527f6f776e6572206e6f7220617070726f7665640000000000000000000000000000602082015250565b60006128d2603283611ff3565b91506128dd82612876565b604082019050919050565b60006020820190508181036000830152612901816128c5565b9050919050565b7f455243313135353a206163636f756e747320616e6420696473206c656e67746860008201527f206d69736d617463680000000000000000000000000000000000000000000000602082015250565b6000612964602983611ff3565b915061296f82612908565b604082019050919050565b6000602082019050818103600083015261299381612957565b9050919050565b7f4e487b7100000000000000000000000000000000000000000000000000000000600052603260045260246000fd5b60006129d482611e60565b91507fffffffffffffffffffffffffffffffffffffffffffffffffffffffffffffffff821415612a0757612a066127ed565b5b600182019050919050565b7f4e487b7100000000000000000000000000000000000000000000000000000000600052601260045260246000fd5b6000612a4c82611e60565b9150612a5783611e60565b925082612a6757612a66612a12565b5b828206905092915050565b7f416d6f6e742073686f756c6420626520646976697369626c6520627920330000600082015250565b6000612aa8601e83611ff3565b9150612ab382612a72565b602082019050919050565b60006020820190508181036000830152612ad781612a9b565b9050919050565b6000612ae982611e60565b9150612af483611e60565b925082612b0457612b03612a12565b5b828204905092915050565b7f416d6f6e742073686f756c6420626520646976697369626c6520627920350000600082015250565b6000612b45601e83611ff3565b9150612b5082612b0f565b602082019050919050565b60006020820190508181036000830152612b7481612b38565b9050919050565b7f455243313135353a2063616c6c6572206973206e6f74206f776e6572206e6f7260008201527f20617070726f7665640000000000000000000000000000000000000000000000602082015250565b6000612bd7602983611ff3565b9150612be282612b7b565b604082019050919050565b60006020820190508181036000830152612c0681612bca565b9050919050565b7f416d6f6e742073686f756c6420626520646976697369626c6520627920313000600082015250565b6000612c43601f83611ff3565b9150612c4e82612c0d565b602082019050919050565b60006020820190508181036000830152612c7281612c36565b9050919050565b7f455243313135353a206d696e7420746f20746865207a65726f2061646472657360008201527f7300000000000000000000000000000000000000000000000000000000000000602082015250565b6000612cd5602183611ff3565b9150612ce082612c79565b604082019050919050565b60006020820190508181036000830152612d0481612cc8565b9050919050565b6000612d1682611e60565b9150612d2183611e60565b9250827fffffffffffffffffffffffffffffffffffffffffffffffffffffffffffffffff03821115612d5657612d556127ed565b5b828201905092915050565b6000604082019050612d766000830185611ed6565b612d836020830184611ed6565b9392505050565b7f455243313135353a206275726e2066726f6d20746865207a65726f206164647260008201527f6573730000000000000000000000000000000000000000000000000000000000602082015250565b6000612de6602383611ff3565b9150612df182612d8a565b604082019050919050565b60006020820190508181036000830152612e1581612dd9565b9050919050565b7f455243313135353a206275726e20616d6f756e7420657863656564732062616c60008201527f616e636500000000000000000000000000000000000000000000000000000000602082015250565b6000612e78602483611ff3565b9150612e8382612e1c565b604082019050919050565b60006020820190508181036000830152612ea781612e6b565b9050919050565b7f455243313135353a2069647320616e6420616d6f756e7473206c656e6774682060008201527f6d69736d61746368000000000000000000000000000000000000000000000000602082015250565b6000612f0a602883611ff3565b9150612f1582612eae565b604082019050919050565b60006020820190508181036000830152612f3981612efd565b9050919050565b7f455243313135353a207472616e7366657220746f20746865207a65726f20616460008201527f6472657373000000000000000000000000000000000000000000000000000000602082015250565b6000612f9c602583611ff3565b9150612fa782612f40565b604082019050919050565b60006020820190508181036000830152612fcb81612f8f565b9050919050565b7f455243313135353a20696e73756666696369656e742062616c616e636520666f60008201527f72207472616e7366657200000000000000000000000000000000000000000000602082015250565b600061302e602a83611ff3565b915061303982612fd2565b604082019050919050565b6000602082019050818103600083015261305d81613021565b9050919050565b6000604082019050818103600083015261307e8185612537565b905081810360208301526130928184612537565b90509392505050565b7f455243313135353a2073657474696e6720617070726f76616c2073746174757360008201527f20666f722073656c660000000000000000000000000000000000000000000000602082015250565b60006130f7602983611ff3565b91506131028261309b565b604082019050919050565b60006020820190508181036000830152613126816130ea565b9050919050565b61313681611e22565b82525050565b600081519050919050565b600082825260208201905092915050565b60006131638261313c565b61316d8185613147565b935061317d818560208601612004565b61318681612037565b840191505092915050565b600060a0820190506131a6600083018861312d565b6131b3602083018761312d565b6131c06040830186611ed6565b6131cd6060830185611ed6565b81810360808301526131df8184613158565b90509695505050505050565b6000815190506131fa81611f2c565b92915050565b60006020828403121561321657613215611df8565b5b6000613224848285016131eb565b91505092915050565b60008160e01c9050919050565b600060033d11156132595760046000803e61325660005161322d565b90505b90565b600060443d101561326c576132ef565b613274611dee565b60043d036004823e80513d602482011167ffffffffffffffff8211171561329c5750506132ef565b808201805167ffffffffffffffff8111156132ba57505050506132ef565b80602083010160043d0385018111156132d75750505050506132ef565b6132e682602001850186612104565b82955050505050505b90565b7f455243313135353a207472616e7366657220746f206e6f6e204552433131353560008201527f526563656976657220696d706c656d656e746572000000000000000000000000602082015250565b600061334e603483611ff3565b9150613359826132f2565b604082019050919050565b6000602082019050818103600083015261337d81613341565b9050919050565b7f455243313135353a204552433131353552656365697665722072656a6563746560008201527f6420746f6b656e73000000000000000000000000000000000000000000000000602082015250565b60006133e0602883611ff3565b91506133eb82613384565b604082019050919050565b6000602082019050818103600083015261340f816133d3565b9050919050565b600060a08201905061342b600083018861312d565b613438602083018761312d565b818103604083015261344a8186612537565b9050818103606083015261345e8185612537565b905081810360808301526134728184613158565b9050969550505050505056fea2646970667358221220359d76b7af13241a8c27f9a07bbfb4f92cf10505f6fc2f5dc469db3c696b2bc664736f6c634300080c003368747470733a2f2f697066732e696f2f697066732f626166796265696374753278336c327061766179716c37376a37716275737233717077697832377374686c6c357177646273736e636869356a65692f7b69647d2e6a736f6e",
  "immutableReferences": {},
  "source": "// SPDX-License-Identifier: MIT\npragma solidity >=0.4.0 <0.9.0;\n\nimport \"./Wrdl3Items.sol\";\n\ncontract Wrdl3InnerExchange is Wrdl3Items {\n    function buyGoldWithSilver(address _player, uint256 _amount)\n        public\n        level3(_player)\n    {\n        require(balanceOf(_player, SILVER) >= _amount * 3);\n        _burn(_player, SILVER, _amount * 3);\n        _mint(_player, GOLD, _amount, \"\");\n    }\n\n    function buyGoldWithBronze(address _player, uint256 _amount)\n        public\n        level3(_player)\n    {\n        require(balanceOf(_player, BRONZE) >= _amount * 10);\n        _burn(_player, BRONZE, _amount * 10);\n        _mint(_player, GOLD, _amount, \"\");\n    }\n\n    function buySilverWithBronze(address _player, uint256 _amount)\n        public\n        level2(_player)\n    {\n        require(balanceOf(_player, BRONZE) >= _amount * 5);\n        _burn(_player, BRONZE, _amount * 5);\n        _mint(_player, SILVER, _amount, \"\");\n    }\n\n    function buyBronzeWithSilver(address _player, uint256 _amount)\n        public\n        level2(_player)\n    {\n        require(_amount % 5 == 0, \"Amont should be divisible by 5\");\n        require(balanceOf(_player, SILVER) >= _amount / 5);\n        _burn(_player, SILVER, _amount / 5);\n        _mint(_player, BRONZE, _amount, \"\");\n    }\n\n    function buyBronzeWithGold(address _player, uint256 _amount)\n        public\n        level2(_player)\n    {\n        require(_amount % 10 == 0, \"Amont should be divisible by 10\");\n        require(balanceOf(_player, GOLD) >= _amount / 10);\n        _burn(_player, GOLD, _amount / 10);\n        _mint(_player, BRONZE, _amount, \"\");\n    }\n\n    function buySilverWithGold(address _player, uint256 _amount)\n        public\n        level2(_player)\n    {\n        require(_amount % 3 == 0, \"Amont should be divisible by 3\");\n        require(balanceOf(_player, GOLD) >= _amount / 3);\n        _burn(_player, GOLD, _amount / 3);\n        _mint(_player, SILVER, _amount, \"\");\n    }\n}\n",
  "sourcePath": "/Users/emilsharafutdinov/Desktop/Work/SR3/Wrdl3/contracts/Wrdl3InnerExchange.sol",
  "compiler": {
    "name": "solc",
    "version": "0.8.12+commit.f00d7308.Emscripten.clang"
  },
  "schemaVersion": "3.4.4",
  "updatedAt": "2022-03-09T14:42:14.039Z",
  "devdoc": {
    "kind": "dev",
    "methods": {
      "balanceOf(address,uint256)": {
        "details": "See {IERC1155-balanceOf}. Requirements: - `account` cannot be the zero address."
      },
      "balanceOfBatch(address[],uint256[])": {
        "details": "See {IERC1155-balanceOfBatch}. Requirements: - `accounts` and `ids` must have the same length."
      },
      "isApprovedForAll(address,address)": {
        "details": "See {IERC1155-isApprovedForAll}."
      },
      "safeBatchTransferFrom(address,address,uint256[],uint256[],bytes)": {
        "details": "See {IERC1155-safeBatchTransferFrom}."
      },
      "safeTransferFrom(address,address,uint256,uint256,bytes)": {
        "details": "See {IERC1155-safeTransferFrom}."
      },
      "setApprovalForAll(address,bool)": {
        "details": "See {IERC1155-setApprovalForAll}."
      },
      "supportsInterface(bytes4)": {
        "details": "See {IERC165-supportsInterface}."
      },
      "uri(uint256)": {
        "details": "See {IERC1155MetadataURI-uri}. This implementation returns the same URI for *all* token types. It relies on the token type ID substitution mechanism https://eips.ethereum.org/EIPS/eip-1155#metadata[defined in the EIP]. Clients calling this function must replace the `\\{id\\}` substring with the actual token type ID."
      }
    },
    "version": 1
  },
  "userdoc": {
    "kind": "user",
    "methods": {},
    "version": 1
  }
}