{
  "contractName": "Wrdl3Constructor",
  "abi": [
    {
      "anonymous": false,
      "inputs": [
        {
          "indexed": true,
          "internalType": "address",
          "name": "account",
          "type": "address"
        },
        {
          "indexed": true,
          "internalType": "address",
          "name": "operator",
          "type": "address"
        },
        {
          "indexed": false,
          "internalType": "bool",
          "name": "approved",
          "type": "bool"
        }
      ],
      "name": "ApprovalForAll",
      "type": "event"
    },
    {
      "anonymous": false,
      "inputs": [
        {
          "indexed": true,
          "internalType": "address",
          "name": "operator",
          "type": "address"
        },
        {
          "indexed": true,
          "internalType": "address",
          "name": "from",
          "type": "address"
        },
        {
          "indexed": true,
          "internalType": "address",
          "name": "to",
          "type": "address"
        },
        {
          "indexed": false,
          "internalType": "uint256[]",
          "name": "ids",
          "type": "uint256[]"
        },
        {
          "indexed": false,
          "internalType": "uint256[]",
          "name": "values",
          "type": "uint256[]"
        }
      ],
      "name": "TransferBatch",
      "type": "event"
    },
    {
      "anonymous": false,
      "inputs": [
        {
          "indexed": true,
          "internalType": "address",
          "name": "operator",
          "type": "address"
        },
        {
          "indexed": true,
          "internalType": "address",
          "name": "from",
          "type": "address"
        },
        {
          "indexed": true,
          "internalType": "address",
          "name": "to",
          "type": "address"
        },
        {
          "indexed": false,
          "internalType": "uint256",
          "name": "id",
          "type": "uint256"
        },
        {
          "indexed": false,
          "internalType": "uint256",
          "name": "value",
          "type": "uint256"
        }
      ],
      "name": "TransferSingle",
      "type": "event"
    },
    {
      "anonymous": false,
      "inputs": [
        {
          "indexed": false,
          "internalType": "string",
          "name": "value",
          "type": "string"
        },
        {
          "indexed": true,
          "internalType": "uint256",
          "name": "id",
          "type": "uint256"
        }
      ],
      "name": "URI",
      "type": "event"
    },
    {
      "inputs": [],
      "name": "BRONZE",
      "outputs": [
        {
          "internalType": "uint256",
          "name": "",
          "type": "uint256"
        }
      ],
      "stateMutability": "view",
      "type": "function"
    },
    {
      "inputs": [],
      "name": "GOLD",
      "outputs": [
        {
          "internalType": "uint256",
          "name": "",
          "type": "uint256"
        }
      ],
      "stateMutability": "view",
      "type": "function"
    },
    {
      "inputs": [],
      "name": "LVL2",
      "outputs": [
        {
          "internalType": "uint256",
          "name": "",
          "type": "uint256"
        }
      ],
      "stateMutability": "view",
      "type": "function"
    },
    {
      "inputs": [],
      "name": "LVL3",
      "outputs": [
        {
          "internalType": "uint256",
          "name": "",
          "type": "uint256"
        }
      ],
      "stateMutability": "view",
      "type": "function"
    },
    {
      "inputs": [],
      "name": "SILVER",
      "outputs": [
        {
          "internalType": "uint256",
          "name": "",
          "type": "uint256"
        }
      ],
      "stateMutability": "view",
      "type": "function"
    },
    {
      "inputs": [
        {
          "internalType": "address",
          "name": "player",
          "type": "address"
        }
      ],
      "name": "awardBronze",
      "outputs": [],
      "stateMutability": "nonpayable",
      "type": "function"
    },
    {
      "inputs": [
        {
          "internalType": "address",
          "name": "player",
          "type": "address"
        }
      ],
      "name": "awardGold",
      "outputs": [],
      "stateMutability": "nonpayable",
      "type": "function"
    },
    {
      "inputs": [
        {
          "internalType": "address",
          "name": "player",
          "type": "address"
        }
      ],
      "name": "awardSilver",
      "outputs": [],
      "stateMutability": "nonpayable",
      "type": "function"
    },
    {
      "inputs": [
        {
          "internalType": "address",
          "name": "account",
          "type": "address"
        },
        {
          "internalType": "uint256",
          "name": "id",
          "type": "uint256"
        }
      ],
      "name": "balanceOf",
      "outputs": [
        {
          "internalType": "uint256",
          "name": "",
          "type": "uint256"
        }
      ],
      "stateMutability": "view",
      "type": "function"
    },
    {
      "inputs": [
        {
          "internalType": "address[]",
          "name": "accounts",
          "type": "address[]"
        },
        {
          "internalType": "uint256[]",
          "name": "ids",
          "type": "uint256[]"
        }
      ],
      "name": "balanceOfBatch",
      "outputs": [
        {
          "internalType": "uint256[]",
          "name": "",
          "type": "uint256[]"
        }
      ],
      "stateMutability": "view",
      "type": "function"
    },
    {
      "inputs": [
        {
          "internalType": "address",
          "name": "",
          "type": "address"
        },
        {
          "internalType": "uint256",
          "name": "",
          "type": "uint256"
        },
        {
          "internalType": "uint256",
          "name": "",
          "type": "uint256"
        }
      ],
      "name": "compositions",
      "outputs": [
        {
          "internalType": "uint256",
          "name": "",
          "type": "uint256"
        }
      ],
      "stateMutability": "view",
      "type": "function"
    },
    {
      "inputs": [
        {
          "internalType": "address",
          "name": "account",
          "type": "address"
        },
        {
          "internalType": "address",
          "name": "operator",
          "type": "address"
        }
      ],
      "name": "isApprovedForAll",
      "outputs": [
        {
          "internalType": "bool",
          "name": "",
          "type": "bool"
        }
      ],
      "stateMutability": "view",
      "type": "function"
    },
    {
      "inputs": [
        {
          "internalType": "address",
          "name": "player",
          "type": "address"
        }
      ],
      "name": "lvl2Achieve",
      "outputs": [],
      "stateMutability": "nonpayable",
      "type": "function"
    },
    {
      "inputs": [
        {
          "internalType": "address",
          "name": "player",
          "type": "address"
        }
      ],
      "name": "lvl3Achieve",
      "outputs": [],
      "stateMutability": "nonpayable",
      "type": "function"
    },
    {
      "inputs": [
        {
          "internalType": "address",
          "name": "from",
          "type": "address"
        },
        {
          "internalType": "address",
          "name": "to",
          "type": "address"
        },
        {
          "internalType": "uint256[]",
          "name": "ids",
          "type": "uint256[]"
        },
        {
          "internalType": "uint256[]",
          "name": "amounts",
          "type": "uint256[]"
        },
        {
          "internalType": "bytes",
          "name": "data",
          "type": "bytes"
        }
      ],
      "name": "safeBatchTransferFrom",
      "outputs": [],
      "stateMutability": "nonpayable",
      "type": "function"
    },
    {
      "inputs": [
        {
          "internalType": "address",
          "name": "from",
          "type": "address"
        },
        {
          "internalType": "address",
          "name": "to",
          "type": "address"
        },
        {
          "internalType": "uint256",
          "name": "id",
          "type": "uint256"
        },
        {
          "internalType": "uint256",
          "name": "amount",
          "type": "uint256"
        },
        {
          "internalType": "bytes",
          "name": "data",
          "type": "bytes"
        }
      ],
      "name": "safeTransferFrom",
      "outputs": [],
      "stateMutability": "nonpayable",
      "type": "function"
    },
    {
      "inputs": [
        {
          "internalType": "address",
          "name": "operator",
          "type": "address"
        },
        {
          "internalType": "bool",
          "name": "approved",
          "type": "bool"
        }
      ],
      "name": "setApprovalForAll",
      "outputs": [],
      "stateMutability": "nonpayable",
      "type": "function"
    },
    {
      "inputs": [
        {
          "internalType": "bytes4",
          "name": "interfaceId",
          "type": "bytes4"
        }
      ],
      "name": "supportsInterface",
      "outputs": [
        {
          "internalType": "bool",
          "name": "",
          "type": "bool"
        }
      ],
      "stateMutability": "view",
      "type": "function"
    },
    {
      "inputs": [
        {
          "internalType": "uint256",
          "name": "",
          "type": "uint256"
        }
      ],
      "name": "uri",
      "outputs": [
        {
          "internalType": "string",
          "name": "",
          "type": "string"
        }
      ],
      "stateMutability": "view",
      "type": "function"
    },
    {
      "inputs": [
        {
          "internalType": "address",
          "name": "_player",
          "type": "address"
        },
        {
          "internalType": "uint256",
          "name": "_tokenId",
          "type": "uint256"
        },
        {
          "internalType": "uint256",
          "name": "_appendedTokenId",
          "type": "uint256"
        },
        {
          "internalType": "uint256",
          "name": "_amount",
          "type": "uint256"
        }
      ],
      "name": "compose",
      "outputs": [],
      "stateMutability": "nonpayable",
      "type": "function"
    }
  ],
  "bytecode": "0x60806040523480156200001157600080fd5b506040518060800160405280605a81526020016200317e605a91396200003d816200004460201b60201c565b5062000175565b80600290805190602001906200005c92919062000060565b5050565b8280546200006e906200013f565b90600052602060002090601f016020900481019282620000925760008555620000de565b82601f10620000ad57805160ff1916838001178555620000de565b82800160010185558215620000de579182015b82811115620000dd578251825591602001919060010190620000c0565b5b509050620000ed9190620000f1565b5090565b5b808211156200010c576000816000905550600101620000f2565b5090565b7f4e487b7100000000000000000000000000000000000000000000000000000000600052602260045260246000fd5b600060028204905060018216806200015857607f821691505b602082108114156200016f576200016e62000110565b5b50919050565b612ff980620001856000396000f3fe608060405234801561001057600080fd5b506004361061012b5760003560e01c80639b1b0a25116100ad578063e00fd54311610071578063e00fd5431461033c578063e08b00aa1461035a578063e3e55f0814610378578063e985e9c514610396578063f242432a146103c65761012b565b80639b1b0a25146102ae578063a22cb465146102ca578063ae14d905146102e6578063beaeb68514610302578063d9636702146103205761012b565b80633e243dc4116100f45780633e243dc4146101f85780633e4bee38146102285780634e1273f41461024657806364e484f7146102765780638f6b2c69146102925761012b565b8062fdd58e1461013057806301ffc9a7146101605780630e89341c1461019057806310d92d46146101c05780632eb2c2d6146101dc575b600080fd5b61014a60048036038101906101459190611b50565b6103e2565b6040516101579190611b9f565b60405180910390f35b61017a60048036038101906101759190611c12565b6104ab565b6040516101879190611c5a565b60405180910390f35b6101aa60048036038101906101a59190611c75565b61058d565b6040516101b79190611d3b565b60405180910390f35b6101da60048036038101906101d59190611d5d565b610621565b005b6101f660048036038101906101f19190611f87565b61065b565b005b610212600480360381019061020d9190612056565b6106fc565b60405161021f9190611b9f565b60405180910390f35b61023061072e565b60405161023d9190611b9f565b60405180910390f35b610260600480360381019061025b919061216c565b610733565b60405161026d91906122a2565b60405180910390f35b610290600480360381019061028b91906122c4565b61084c565b005b6102ac60048036038101906102a79190611d5d565b610901565b005b6102c860048036038101906102c39190611d5d565b61093a565b005b6102e460048036038101906102df9190612357565b610972565b005b61030060048036038101906102fb9190611d5d565b610988565b005b61030a6109c2565b6040516103179190611b9f565b60405180910390f35b61033a60048036038101906103359190611d5d565b6109c7565b005b6103446109e7565b6040516103519190611b9f565b60405180910390f35b6103626109ec565b60405161036f9190611b9f565b60405180910390f35b6103806109f1565b60405161038d9190611b9f565b60405180910390f35b6103b060048036038101906103ab9190612397565b6109f6565b6040516103bd9190611c5a565b60405180910390f35b6103e060048036038101906103db91906123d7565b610a8a565b005b60008073ffffffffffffffffffffffffffffffffffffffff168373ffffffffffffffffffffffffffffffffffffffff161415610453576040517f08c379a000000000000000000000000000000000000000000000000000000000815260040161044a906124e0565b60405180910390fd5b60008083815260200190815260200160002060008473ffffffffffffffffffffffffffffffffffffffff1673ffffffffffffffffffffffffffffffffffffffff16815260200190815260200160002054905092915050565b60007fd9b67a26000000000000000000000000000000000000000000000000000000007bffffffffffffffffffffffffffffffffffffffffffffffffffffffff1916827bffffffffffffffffffffffffffffffffffffffffffffffffffffffff1916148061057657507f0e89341c000000000000000000000000000000000000000000000000000000007bffffffffffffffffffffffffffffffffffffffffffffffffffffffff1916827bffffffffffffffffffffffffffffffffffffffffffffffffffffffff1916145b80610586575061058582610b2b565b5b9050919050565b60606002805461059c9061252f565b80601f01602080910402602001604051908101604052809291908181526020018280546105c89061252f565b80156106155780601f106105ea57610100808354040283529160200191610615565b820191906000526020600020905b8154815290600101906020018083116105f857829003601f168201915b50505050509050919050565b80600a61062f8260026103e2565b101561063a57600080fd5b610657826003600160405180602001604052806000815250610b95565b5050565b610663610d2b565b73ffffffffffffffffffffffffffffffffffffffff168573ffffffffffffffffffffffffffffffffffffffff1614806106a957506106a8856106a3610d2b565b6109f6565b5b6106e8576040517f08c379a00000000000000000000000000000000000000000000000000000000081526004016106df906125d3565b60405180910390fd5b6106f58585858585610d33565b5050505050565b600360205282600052604060002060205281600052604060002060205280600052604060002060009250925050505481565b600081565b60608151835114610779576040517f08c379a000000000000000000000000000000000000000000000000000000000815260040161077090612665565b60405180910390fd5b6000835167ffffffffffffffff81111561079657610795611d8f565b5b6040519080825280602002602001820160405280156107c45781602001602082028036833780820191505090505b50905060005b8451811015610841576108118582815181106107e9576107e8612685565b5b602002602001015185838151811061080457610803612685565b5b60200260200101516103e2565b82828151811061082457610823612685565b5b6020026020010181815250508061083a906126e3565b90506107ca565b508091505092915050565b600061085885856103e2565b1161086257600080fd5b8061086d85846103e2565b101561087857600080fd5b610883848383611047565b80600360008673ffffffffffffffffffffffffffffffffffffffff1673ffffffffffffffffffffffffffffffffffffffff1681526020019081526020016000206000858152602001908152602001600020600084815260200190815260200160002060008282546108f4919061272c565b9250508190555050505050565b80600061090f8260046103e2565b1161091957600080fd5b610936826000600160405180602001604052806000815250610b95565b5050565b8060006109488260036103e2565b1161095257600080fd5b61096e8260018060405180602001604052806000815250610b95565b5050565b61098461097d610d2b565b8383611264565b5050565b80600a6109968260026103e2565b10156109a157600080fd5b6109be826004600160405180602001604052806000815250610b95565b5050565b600481565b6109e4816002600160405180602001604052806000815250610b95565b50565b600281565b600381565b600181565b6000600160008473ffffffffffffffffffffffffffffffffffffffff1673ffffffffffffffffffffffffffffffffffffffff16815260200190815260200160002060008373ffffffffffffffffffffffffffffffffffffffff1673ffffffffffffffffffffffffffffffffffffffff16815260200190815260200160002060009054906101000a900460ff16905092915050565b610a92610d2b565b73ffffffffffffffffffffffffffffffffffffffff168573ffffffffffffffffffffffffffffffffffffffff161480610ad85750610ad785610ad2610d2b565b6109f6565b5b610b17576040517f08c379a0000000000000000000000000000000000000000000000000000000008152600401610b0e906127f4565b60405180910390fd5b610b2485858585856113d1565b5050505050565b60007f01ffc9a7000000000000000000000000000000000000000000000000000000007bffffffffffffffffffffffffffffffffffffffffffffffffffffffff1916827bffffffffffffffffffffffffffffffffffffffffffffffffffffffff1916149050919050565b600073ffffffffffffffffffffffffffffffffffffffff168473ffffffffffffffffffffffffffffffffffffffff161415610c05576040517f08c379a0000000000000000000000000000000000000000000000000000000008152600401610bfc90612886565b60405180910390fd5b6000610c0f610d2b565b9050610c3081600087610c2188611653565b610c2a88611653565b876116cd565b8260008086815260200190815260200160002060008773ffffffffffffffffffffffffffffffffffffffff1673ffffffffffffffffffffffffffffffffffffffff1681526020019081526020016000206000828254610c8f919061272c565b925050819055508473ffffffffffffffffffffffffffffffffffffffff16600073ffffffffffffffffffffffffffffffffffffffff168273ffffffffffffffffffffffffffffffffffffffff167fc3d58168c5ae7397731d063d5bbf3d657854427343f4c083240f7aacaa2d0f628787604051610d0d9291906128a6565b60405180910390a4610d24816000878787876116d5565b5050505050565b600033905090565b8151835114610d77576040517f08c379a0000000000000000000000000000000000000000000000000000000008152600401610d6e90612941565b60405180910390fd5b600073ffffffffffffffffffffffffffffffffffffffff168473ffffffffffffffffffffffffffffffffffffffff161415610de7576040517f08c379a0000000000000000000000000000000000000000000000000000000008152600401610dde906129d3565b60405180910390fd5b6000610df1610d2b565b9050610e018187878787876116cd565b60005b8451811015610fb2576000858281518110610e2257610e21612685565b5b602002602001015190506000858381518110610e4157610e40612685565b5b60200260200101519050600080600084815260200190815260200160002060008b73ffffffffffffffffffffffffffffffffffffffff1673ffffffffffffffffffffffffffffffffffffffff16815260200190815260200160002054905081811015610ee2576040517f08c379a0000000000000000000000000000000000000000000000000000000008152600401610ed990612a65565b60405180910390fd5b81810360008085815260200190815260200160002060008c73ffffffffffffffffffffffffffffffffffffffff1673ffffffffffffffffffffffffffffffffffffffff168152602001908152602001600020819055508160008085815260200190815260200160002060008b73ffffffffffffffffffffffffffffffffffffffff1673ffffffffffffffffffffffffffffffffffffffff1681526020019081526020016000206000828254610f97919061272c565b9250508190555050505080610fab906126e3565b9050610e04565b508473ffffffffffffffffffffffffffffffffffffffff168673ffffffffffffffffffffffffffffffffffffffff168273ffffffffffffffffffffffffffffffffffffffff167f4a39dc06d4c0dbc64b70af90fd698a233a518aa5d07e595d983b8c0526c8f7fb8787604051611029929190612a85565b60405180910390a461103f8187878787876118ad565b505050505050565b600073ffffffffffffffffffffffffffffffffffffffff168373ffffffffffffffffffffffffffffffffffffffff1614156110b7576040517f08c379a00000000000000000000000000000000000000000000000000000000081526004016110ae90612b2e565b60405180910390fd5b60006110c1610d2b565b90506110f1818560006110d387611653565b6110dc87611653565b604051806020016040528060008152506116cd565b600080600085815260200190815260200160002060008673ffffffffffffffffffffffffffffffffffffffff1673ffffffffffffffffffffffffffffffffffffffff16815260200190815260200160002054905082811015611188576040517f08c379a000000000000000000000000000000000000000000000000000000000815260040161117f90612bc0565b60405180910390fd5b82810360008086815260200190815260200160002060008773ffffffffffffffffffffffffffffffffffffffff1673ffffffffffffffffffffffffffffffffffffffff16815260200190815260200160002081905550600073ffffffffffffffffffffffffffffffffffffffff168573ffffffffffffffffffffffffffffffffffffffff168373ffffffffffffffffffffffffffffffffffffffff167fc3d58168c5ae7397731d063d5bbf3d657854427343f4c083240f7aacaa2d0f6287876040516112559291906128a6565b60405180910390a45050505050565b8173ffffffffffffffffffffffffffffffffffffffff168373ffffffffffffffffffffffffffffffffffffffff1614156112d3576040517f08c379a00000000000000000000000000000000000000000000000000000000081526004016112ca90612c52565b60405180910390fd5b80600160008573ffffffffffffffffffffffffffffffffffffffff1673ffffffffffffffffffffffffffffffffffffffff16815260200190815260200160002060008473ffffffffffffffffffffffffffffffffffffffff1673ffffffffffffffffffffffffffffffffffffffff16815260200190815260200160002060006101000a81548160ff0219169083151502179055508173ffffffffffffffffffffffffffffffffffffffff168373ffffffffffffffffffffffffffffffffffffffff167f17307eab39ab6107e8899845ad3d59bd9653f200f220920489ca2b5937696c31836040516113c49190611c5a565b60405180910390a3505050565b600073ffffffffffffffffffffffffffffffffffffffff168473ffffffffffffffffffffffffffffffffffffffff161415611441576040517f08c379a0000000000000000000000000000000000000000000000000000000008152600401611438906129d3565b60405180910390fd5b600061144b610d2b565b905061146b81878761145c88611653565b61146588611653565b876116cd565b600080600086815260200190815260200160002060008873ffffffffffffffffffffffffffffffffffffffff1673ffffffffffffffffffffffffffffffffffffffff16815260200190815260200160002054905083811015611502576040517f08c379a00000000000000000000000000000000000000000000000000000000081526004016114f990612a65565b60405180910390fd5b83810360008087815260200190815260200160002060008973ffffffffffffffffffffffffffffffffffffffff1673ffffffffffffffffffffffffffffffffffffffff168152602001908152602001600020819055508360008087815260200190815260200160002060008873ffffffffffffffffffffffffffffffffffffffff1673ffffffffffffffffffffffffffffffffffffffff16815260200190815260200160002060008282546115b7919061272c565b925050819055508573ffffffffffffffffffffffffffffffffffffffff168773ffffffffffffffffffffffffffffffffffffffff168373ffffffffffffffffffffffffffffffffffffffff167fc3d58168c5ae7397731d063d5bbf3d657854427343f4c083240f7aacaa2d0f6288886040516116349291906128a6565b60405180910390a461164a8288888888886116d5565b50505050505050565b60606000600167ffffffffffffffff81111561167257611671611d8f565b5b6040519080825280602002602001820160405280156116a05781602001602082028036833780820191505090505b50905082816000815181106116b8576116b7612685565b5b60200260200101818152505080915050919050565b505050505050565b6116f48473ffffffffffffffffffffffffffffffffffffffff16611a85565b156118a5578373ffffffffffffffffffffffffffffffffffffffff1663f23a6e6187878686866040518663ffffffff1660e01b815260040161173a959493929190612cd6565b6020604051808303816000875af192505050801561177657506040513d601f19601f820116820180604052508101906117739190612d45565b60015b61181c57611782612d7f565b806308c379a014156117df5750611797612da1565b806117a257506117e1565b806040517f08c379a00000000000000000000000000000000000000000000000000000000081526004016117d69190611d3b565b60405180910390fd5b505b6040517f08c379a000000000000000000000000000000000000000000000000000000000815260040161181390612ea9565b60405180910390fd5b63f23a6e6160e01b7bffffffffffffffffffffffffffffffffffffffffffffffffffffffff1916817bffffffffffffffffffffffffffffffffffffffffffffffffffffffff1916146118a3576040517f08c379a000000000000000000000000000000000000000000000000000000000815260040161189a90612f3b565b60405180910390fd5b505b505050505050565b6118cc8473ffffffffffffffffffffffffffffffffffffffff16611a85565b15611a7d578373ffffffffffffffffffffffffffffffffffffffff1663bc197c8187878686866040518663ffffffff1660e01b8152600401611912959493929190612f5b565b6020604051808303816000875af192505050801561194e57506040513d601f19601f8201168201806040525081019061194b9190612d45565b60015b6119f45761195a612d7f565b806308c379a014156119b7575061196f612da1565b8061197a57506119b9565b806040517f08c379a00000000000000000000000000000000000000000000000000000000081526004016119ae9190611d3b565b60405180910390fd5b505b6040517f08c379a00000000000000000000000000000000000000000000000000000000081526004016119eb90612ea9565b60405180910390fd5b63bc197c8160e01b7bffffffffffffffffffffffffffffffffffffffffffffffffffffffff1916817bffffffffffffffffffffffffffffffffffffffffffffffffffffffff191614611a7b576040517f08c379a0000000000000000000000000000000000000000000000000000000008152600401611a7290612f3b565b60405180910390fd5b505b505050505050565b6000808273ffffffffffffffffffffffffffffffffffffffff163b119050919050565b6000604051905090565b600080fd5b600080fd5b600073ffffffffffffffffffffffffffffffffffffffff82169050919050565b6000611ae782611abc565b9050919050565b611af781611adc565b8114611b0257600080fd5b50565b600081359050611b1481611aee565b92915050565b6000819050919050565b611b2d81611b1a565b8114611b3857600080fd5b50565b600081359050611b4a81611b24565b92915050565b60008060408385031215611b6757611b66611ab2565b5b6000611b7585828601611b05565b9250506020611b8685828601611b3b565b9150509250929050565b611b9981611b1a565b82525050565b6000602082019050611bb46000830184611b90565b92915050565b60007fffffffff0000000000000000000000000000000000000000000000000000000082169050919050565b611bef81611bba565b8114611bfa57600080fd5b50565b600081359050611c0c81611be6565b92915050565b600060208284031215611c2857611c27611ab2565b5b6000611c3684828501611bfd565b91505092915050565b60008115159050919050565b611c5481611c3f565b82525050565b6000602082019050611c6f6000830184611c4b565b92915050565b600060208284031215611c8b57611c8a611ab2565b5b6000611c9984828501611b3b565b91505092915050565b600081519050919050565b600082825260208201905092915050565b60005b83811015611cdc578082015181840152602081019050611cc1565b83811115611ceb576000848401525b50505050565b6000601f19601f8301169050919050565b6000611d0d82611ca2565b611d178185611cad565b9350611d27818560208601611cbe565b611d3081611cf1565b840191505092915050565b60006020820190508181036000830152611d558184611d02565b905092915050565b600060208284031215611d7357611d72611ab2565b5b6000611d8184828501611b05565b91505092915050565b600080fd5b7f4e487b7100000000000000000000000000000000000000000000000000000000600052604160045260246000fd5b611dc782611cf1565b810181811067ffffffffffffffff82111715611de657611de5611d8f565b5b80604052505050565b6000611df9611aa8565b9050611e058282611dbe565b919050565b600067ffffffffffffffff821115611e2557611e24611d8f565b5b602082029050602081019050919050565b600080fd5b6000611e4e611e4984611e0a565b611def565b90508083825260208201905060208402830185811115611e7157611e70611e36565b5b835b81811015611e9a5780611e868882611b3b565b845260208401935050602081019050611e73565b5050509392505050565b600082601f830112611eb957611eb8611d8a565b5b8135611ec9848260208601611e3b565b91505092915050565b600080fd5b600067ffffffffffffffff821115611ef257611ef1611d8f565b5b611efb82611cf1565b9050602081019050919050565b82818337600083830152505050565b6000611f2a611f2584611ed7565b611def565b905082815260208101848484011115611f4657611f45611ed2565b5b611f51848285611f08565b509392505050565b600082601f830112611f6e57611f6d611d8a565b5b8135611f7e848260208601611f17565b91505092915050565b600080600080600060a08688031215611fa357611fa2611ab2565b5b6000611fb188828901611b05565b9550506020611fc288828901611b05565b945050604086013567ffffffffffffffff811115611fe357611fe2611ab7565b5b611fef88828901611ea4565b935050606086013567ffffffffffffffff8111156120105761200f611ab7565b5b61201c88828901611ea4565b925050608086013567ffffffffffffffff81111561203d5761203c611ab7565b5b61204988828901611f59565b9150509295509295909350565b60008060006060848603121561206f5761206e611ab2565b5b600061207d86828701611b05565b935050602061208e86828701611b3b565b925050604061209f86828701611b3b565b9150509250925092565b600067ffffffffffffffff8211156120c4576120c3611d8f565b5b602082029050602081019050919050565b60006120e86120e3846120a9565b611def565b9050808382526020820190506020840283018581111561210b5761210a611e36565b5b835b8181101561213457806121208882611b05565b84526020840193505060208101905061210d565b5050509392505050565b600082601f83011261215357612152611d8a565b5b81356121638482602086016120d5565b91505092915050565b6000806040838503121561218357612182611ab2565b5b600083013567ffffffffffffffff8111156121a1576121a0611ab7565b5b6121ad8582860161213e565b925050602083013567ffffffffffffffff8111156121ce576121cd611ab7565b5b6121da85828601611ea4565b9150509250929050565b600081519050919050565b600082825260208201905092915050565b6000819050602082019050919050565b61221981611b1a565b82525050565b600061222b8383612210565b60208301905092915050565b6000602082019050919050565b600061224f826121e4565b61225981856121ef565b935061226483612200565b8060005b8381101561229557815161227c888261221f565b975061228783612237565b925050600181019050612268565b5085935050505092915050565b600060208201905081810360008301526122bc8184612244565b905092915050565b600080600080608085870312156122de576122dd611ab2565b5b60006122ec87828801611b05565b94505060206122fd87828801611b3b565b935050604061230e87828801611b3b565b925050606061231f87828801611b3b565b91505092959194509250565b61233481611c3f565b811461233f57600080fd5b50565b6000813590506123518161232b565b92915050565b6000806040838503121561236e5761236d611ab2565b5b600061237c85828601611b05565b925050602061238d85828601612342565b9150509250929050565b600080604083850312156123ae576123ad611ab2565b5b60006123bc85828601611b05565b92505060206123cd85828601611b05565b9150509250929050565b600080600080600060a086880312156123f3576123f2611ab2565b5b600061240188828901611b05565b955050602061241288828901611b05565b945050604061242388828901611b3b565b935050606061243488828901611b3b565b925050608086013567ffffffffffffffff81111561245557612454611ab7565b5b61246188828901611f59565b9150509295509295909350565b7f455243313135353a2062616c616e636520717565727920666f7220746865207a60008201527f65726f2061646472657373000000000000000000000000000000000000000000602082015250565b60006124ca602b83611cad565b91506124d58261246e565b604082019050919050565b600060208201905081810360008301526124f9816124bd565b9050919050565b7f4e487b7100000000000000000000000000000000000000000000000000000000600052602260045260246000fd5b6000600282049050600182168061254757607f821691505b6020821081141561255b5761255a612500565b5b50919050565b7f455243313135353a207472616e736665722063616c6c6572206973206e6f742060008201527f6f776e6572206e6f7220617070726f7665640000000000000000000000000000602082015250565b60006125bd603283611cad565b91506125c882612561565b604082019050919050565b600060208201905081810360008301526125ec816125b0565b9050919050565b7f455243313135353a206163636f756e747320616e6420696473206c656e67746860008201527f206d69736d617463680000000000000000000000000000000000000000000000602082015250565b600061264f602983611cad565b915061265a826125f3565b604082019050919050565b6000602082019050818103600083015261267e81612642565b9050919050565b7f4e487b7100000000000000000000000000000000000000000000000000000000600052603260045260246000fd5b7f4e487b7100000000000000000000000000000000000000000000000000000000600052601160045260246000fd5b60006126ee82611b1a565b91507fffffffffffffffffffffffffffffffffffffffffffffffffffffffffffffffff821415612721576127206126b4565b5b600182019050919050565b600061273782611b1a565b915061274283611b1a565b9250827fffffffffffffffffffffffffffffffffffffffffffffffffffffffffffffffff03821115612777576127766126b4565b5b828201905092915050565b7f455243313135353a2063616c6c6572206973206e6f74206f776e6572206e6f7260008201527f20617070726f7665640000000000000000000000000000000000000000000000602082015250565b60006127de602983611cad565b91506127e982612782565b604082019050919050565b6000602082019050818103600083015261280d816127d1565b9050919050565b7f455243313135353a206d696e7420746f20746865207a65726f2061646472657360008201527f7300000000000000000000000000000000000000000000000000000000000000602082015250565b6000612870602183611cad565b915061287b82612814565b604082019050919050565b6000602082019050818103600083015261289f81612863565b9050919050565b60006040820190506128bb6000830185611b90565b6128c86020830184611b90565b9392505050565b7f455243313135353a2069647320616e6420616d6f756e7473206c656e6774682060008201527f6d69736d61746368000000000000000000000000000000000000000000000000602082015250565b600061292b602883611cad565b9150612936826128cf565b604082019050919050565b6000602082019050818103600083015261295a8161291e565b9050919050565b7f455243313135353a207472616e7366657220746f20746865207a65726f20616460008201527f6472657373000000000000000000000000000000000000000000000000000000602082015250565b60006129bd602583611cad565b91506129c882612961565b604082019050919050565b600060208201905081810360008301526129ec816129b0565b9050919050565b7f455243313135353a20696e73756666696369656e742062616c616e636520666f60008201527f72207472616e7366657200000000000000000000000000000000000000000000602082015250565b6000612a4f602a83611cad565b9150612a5a826129f3565b604082019050919050565b60006020820190508181036000830152612a7e81612a42565b9050919050565b60006040820190508181036000830152612a9f8185612244565b90508181036020830152612ab38184612244565b90509392505050565b7f455243313135353a206275726e2066726f6d20746865207a65726f206164647260008201527f6573730000000000000000000000000000000000000000000000000000000000602082015250565b6000612b18602383611cad565b9150612b2382612abc565b604082019050919050565b60006020820190508181036000830152612b4781612b0b565b9050919050565b7f455243313135353a206275726e20616d6f756e7420657863656564732062616c60008201527f616e636500000000000000000000000000000000000000000000000000000000602082015250565b6000612baa602483611cad565b9150612bb582612b4e565b604082019050919050565b60006020820190508181036000830152612bd981612b9d565b9050919050565b7f455243313135353a2073657474696e6720617070726f76616c2073746174757360008201527f20666f722073656c660000000000000000000000000000000000000000000000602082015250565b6000612c3c602983611cad565b9150612c4782612be0565b604082019050919050565b60006020820190508181036000830152612c6b81612c2f565b9050919050565b612c7b81611adc565b82525050565b600081519050919050565b600082825260208201905092915050565b6000612ca882612c81565b612cb28185612c8c565b9350612cc2818560208601611cbe565b612ccb81611cf1565b840191505092915050565b600060a082019050612ceb6000830188612c72565b612cf86020830187612c72565b612d056040830186611b90565b612d126060830185611b90565b8181036080830152612d248184612c9d565b90509695505050505050565b600081519050612d3f81611be6565b92915050565b600060208284031215612d5b57612d5a611ab2565b5b6000612d6984828501612d30565b91505092915050565b60008160e01c9050919050565b600060033d1115612d9e5760046000803e612d9b600051612d72565b90505b90565b600060443d1015612db157612e34565b612db9611aa8565b60043d036004823e80513d602482011167ffffffffffffffff82111715612de1575050612e34565b808201805167ffffffffffffffff811115612dff5750505050612e34565b80602083010160043d038501811115612e1c575050505050612e34565b612e2b82602001850186611dbe565b82955050505050505b90565b7f455243313135353a207472616e7366657220746f206e6f6e204552433131353560008201527f526563656976657220696d706c656d656e746572000000000000000000000000602082015250565b6000612e93603483611cad565b9150612e9e82612e37565b604082019050919050565b60006020820190508181036000830152612ec281612e86565b9050919050565b7f455243313135353a204552433131353552656365697665722072656a6563746560008201527f6420746f6b656e73000000000000000000000000000000000000000000000000602082015250565b6000612f25602883611cad565b9150612f3082612ec9565b604082019050919050565b60006020820190508181036000830152612f5481612f18565b9050919050565b600060a082019050612f706000830188612c72565b612f7d6020830187612c72565b8181036040830152612f8f8186612244565b90508181036060830152612fa38185612244565b90508181036080830152612fb78184612c9d565b9050969550505050505056fea2646970667358221220af35c6e3a5e9029ddd20ecdd4549767d59c1cab1b7fbb1bdb392b0c65e289cc264736f6c634300080c003368747470733a2f2f697066732e696f2f697066732f626166796265696374753278336c327061766179716c37376a37716275737233717077697832377374686c6c357177646273736e636869356a65692f7b69647d2e6a736f6e",
  "immutableReferences": {},
  "source": "// SPDX-License-Identifier: MIT\npragma solidity >=0.4.0 <0.9.0;\n\nimport \"./Wrdl3Items.sol\";\n\ncontract Wrdl3Constructor is Wrdl3Items {\n    mapping(address => mapping(uint256 => mapping(uint256 => uint256)))\n        public compositions;\n\n    function compose(\n        address _player,\n        uint256 _tokenId,\n        uint256 _appendedTokenId,\n        uint256 _amount\n    ) public {\n        require(balanceOf(_player, _tokenId) > 0);\n        require(balanceOf(_player, _appendedTokenId) >= _amount);\n        _burn(_player, _appendedTokenId, _amount);\n        compositions[_player][_tokenId][_appendedTokenId] += _amount;\n    }\n}\n",
  "sourcePath": "/Users/emilsharafutdinov/Desktop/Work/SR3/Wrdl3/contracts/Wrdl3Constructor.sol",
  "compiler": {
    "name": "solc",
    "version": "0.8.12+commit.f00d7308.Emscripten.clang"
  },
  "schemaVersion": "3.4.4",
  "updatedAt": "2022-03-07T20:21:59.983Z",
  "devdoc": {
    "kind": "dev",
    "methods": {
      "balanceOf(address,uint256)": {
        "details": "See {IERC1155-balanceOf}. Requirements: - `account` cannot be the zero address."
      },
      "balanceOfBatch(address[],uint256[])": {
        "details": "See {IERC1155-balanceOfBatch}. Requirements: - `accounts` and `ids` must have the same length."
      },
      "isApprovedForAll(address,address)": {
        "details": "See {IERC1155-isApprovedForAll}."
      },
      "safeBatchTransferFrom(address,address,uint256[],uint256[],bytes)": {
        "details": "See {IERC1155-safeBatchTransferFrom}."
      },
      "safeTransferFrom(address,address,uint256,uint256,bytes)": {
        "details": "See {IERC1155-safeTransferFrom}."
      },
      "setApprovalForAll(address,bool)": {
        "details": "See {IERC1155-setApprovalForAll}."
      },
      "supportsInterface(bytes4)": {
        "details": "See {IERC165-supportsInterface}."
      },
      "uri(uint256)": {
        "details": "See {IERC1155MetadataURI-uri}. This implementation returns the same URI for *all* token types. It relies on the token type ID substitution mechanism https://eips.ethereum.org/EIPS/eip-1155#metadata[defined in the EIP]. Clients calling this function must replace the `\\{id\\}` substring with the actual token type ID."
      }
    },
    "version": 1
  },
  "userdoc": {
    "kind": "user",
    "methods": {},
    "version": 1
  }
}